:020000040800F2
:1000000010320020052701081D2001081F200108CB
:1000100021200108232001082520010800000000FC
:100020000000000000000000000000002720010880
:1000300029200108000000002B2001082D200108C4
:10004000FD2B0108012C0108052C0108092C0108D1
:100050000D2C0108112C0108152C0108192C010880
:100060001D2C0108212C0108252C0108292C010830
:100070002D2C01087D200108312C01088720010862
:10008000352C0108392C01083D2C0108412C0108B0
:10009000452C0108492C01084D2C0108512C010860
:1000A000552C0108592C01085D2C0108612C010810
:1000B000652C01080000000000000000692C010808
:1000C0006D2C0108712C0108752C0108792C010890
:1000D0007D2C010891200108812C01089B2001083A
:1000E000852C0108A5200108000000000000000088
:1000F0000000000000000000000000000000000000
:1001000000000000892C0108000000008D2C01086F
:100110000000000000000000912C0108952C01084F
:10012000992C01089D2C0108A12C0108A52C01087F
:10013000A92C0108000000000000000000000000E1
:10014000AD2C0108B12C0108B52C0108B92C01080F
:10015000BD2C0108AF200108B9200108C12C0108FD
:10016000C52C0108C92C0108CD2C01080000000095
:10017000D12C0108D52C0108D92C01080000000061
:10018000DD2C0108E12C0108E52C010810B5040064
:100190000121DFF8700A02F0A8FE012010BD30B581
:1001A00087B004001421002202AD280002F0B8FE3E
:1001B000DFF8540AD0E90023CDE9002302A800901B
:1001C000DFF8485A2978684600F031FA28786870D4
:1001D000BDF80410009800F046FFDFF8340A80787C
:1001E000002809D12878022803DA2878401C2870D2
:1001F00001E00020287008E02878052803DA287834
:10020000401C287001E000202870DFF8F859022116
:10021000280002F05BFE0321280002F066FE2100A8
:10022000C9B2280002F061FE012007B030BD10B550
:100230000400DFF8E0198888002810D0DFF8D8091A
:1002400002888B889A4208D1002101800321DFF8BF
:10025000B40902F03BFE012008E0898801802100FA
:10026000C9B2DFF8A00902F040FE012010BD2DE95F
:10027000F041040000250026DFF89879B8880328AB
:100280003DDB3868B988084410F8010C3968BA8831
:10029000114411F8021C51EA00210E00B988891E90
:1002A000386802F070FE05002800310080B289B283
:1002B00088421DD10721DFF84C0902F016FE38688C
:1002C000007802280DD1DFF84489012198F8010057
:1002D00000F0C6F998F80120D7E9000100F0B0F964
:1002E00013E00021DFF82409407800F0B9F90CE0B0
:1002F0000021DFF81809407800F0B2F905E000218C
:10030000DFF80809407800F0ABF9DFF80009407821
:1003100000F0F8F80221DFF8EC0802F0F8FD012007
:10032000BDE8F0810100DFF8C80C0278032A01D093
:10033000042202700120704701000120704710B5AF
:100340000400DFF8200C0178012936D1DFF8181CF1
:10035000C978012931D1DFF8141C91ED060AD0EDDE
:10036000020AB4EE600AF1EE10FA08DA91ED060A1C
:10037000D0ED010AB4EE600AF1EE10FA0ED50122BA
:100380004FF400615FF0904003F061F901224FF4F7
:1003900080515FF0904003F05AF91CE000224FF4C6
:1003A00000615FF0904003F052F900224FF4805159
:1003B0005FF0904003F04BF90DE000224FF4006134
:1003C0005FF0904003F043F900224FF480515FF05A
:1003D000904003F03CF9DFF82C084FF47A71816605
:1003E0002100C9B202F081FD012010BD38B5040022
:1003F000DFF8001C087800281FD101200870DFF802
:10040000F85B01221021280003F021F900220821C5
:10041000280003F01CF900220421DFF8E00B03F0B0
:1004200016F94FF4FA60DFF8DC17886703F06AF911
:1004300003F013FB03F002FB12E00020087001221E
:100440000821DFF8B40B03F002F901220421DFF8E0
:10045000AC0B03F0FCF84EF66020DFF8A8178867B5
:100460002100C9B2DFF89C0702F03FFD012032BD38
:1004700010B50400DFF8F41A0878002803D1002032
:1004800081F8440023E0DFF888078278052A17D036
:1004900082780D2A02D1027A052A11D08278062AA2
:1004A0000ED082780D2A02D1027A062A08D08278EC
:1004B000072A05D082780D2A06D1007A072803D1B1
:1004C000032081F8440002E0022081F84400DFF8B4
:1004D000980AC078012806D1012081F84500012042
:1004E00081F8460005E0002081F84500002081F8F1
:1004F00046002100C9B2DFF80C0702F0F6FC01202B
:1005000010BD000070B52DED028B04009FEDA18A97
:100510002000C0B2002868D1DFF8505A95ED010ADA
:10052000DFED9D0A20EE200ABDEEC00A10EE100A93
:1005300000F06EFA85ED010ADFF8B46C686830608F
:1005400096ED000A00F06AFB86ED010A70686860AB
:1005500095ED010A00F0CAFA85ED050A95ED040A49
:1005600000F024FB85ED080AA868A86195ED080A4B
:10057000D5ED0A0A30EE200ADFF82C0BD0ED020A86
:10058000F4EE400AF1EE10FA02D5D0ED020A0BE0CB
:10059000D0ED030AB4EE600AF1EE10FA02D5D0ED08
:1005A000030A01E0F0EE400AC5ED080AD5ED050AA0
:1005B00095ED091A30EE818AD0ED000AF4EE480A72
:1005C000F1EE10FA02D590ED000A0BE090ED010A71
:1005D000B4EE408AF1EE10FA02D590ED010A01E086
:1005E000B0EE480A85ED050AFFE7DFF88059287864
:1005F000002807D10020686095ED010A00F076FA26
:1006000085ED050A2878002803D10020A861002084
:10061000A8612878002807D10020286195ED040AF8
:1006200000F0C4FA85ED080ABDEC028B70BD38B548
:1006300004000D002900C9B2200000F01BF831BDF4
:1006400070B504000D00160020000078C0B202282A
:1006500005D13200D2B22000290000F09FF870BD11
:1006600038B504000D002900C9B22000C0B200F066
:100670003EF931BD3EB504000D002800C0B200288F
:100680000CD002281ED013D304282FD024D3062840
:1006900040D035D3082867D051D37AE006200090A7
:1006A0004FF4205303220221200002F08AFC70E064
:1006B000042000904FF4185303220221200002F07E
:1006C00080FC66E0022000904FF4105303220221C8
:1006D000200002F076FC5CE0042000904FF45853B8
:1006E00003220221200002F06CFC52E00420009062
:1006F0004FF4885303220221200002F062FC48E0FC
:10070000042000904FF4545303220221200002F0F1
:1007100058FC3EE0DFF82C0C818808290ED10168D6
:1007200001918088022190FBF1F080B200904FF49B
:10073000585310220221200002F091FC29E0DFF83A
:10074000040C818808290ED101680191808802215A
:1007500090FBF1F080B200904FF4885310220221F8
:10076000200002F07CFC14E0DFF8D80B8188082917
:100770000ED1016801918088022190FBF1F080B2D6
:1007800000904FF4545310220221200002F067FC25
:10079000FFE737BD000000000000C8422DE9F84324
:1007A00004000D0016000020ADF800000027300006
:1007B000C0B200280FD0022831D01BD3042859D052
:1007C0003CD3062800F08E8070D3082800F08A8081
:1007D000C0F0888089E00320ADF80000042269465B
:1007E000200000F00DFC0700DFF85C1B380003F070
:1007F00073FA7AE00320ADF8000004226946200075
:1008000000F0FEFB804604226946200000F0F8FB61
:100810000700DFF80C1C380003F05EFA65E00320E7
:10082000ADF8000004226946200000F0E9FB070053
:10083000DFF8F01B380003F04FFA56E00320ADF864
:10084000000004226946200000F0DAFB8046DFF851
:100850001C9719F12C01404603F03EFA0422694628
:10086000200000F0CDFB070019F13001380003F043
:1008700033FA3AE00320ADF8000004226946200074
:1008800000F0BEFB8046DFF8E49619F134014046E3
:1008900003F022FA04226946200000F0B1FB0700B1
:1008A00019F13801380003F017FA1EE00320ADF803
:1008B000000004226946200000F0A2FB8046DFF819
:1008C000AC9619F13C01404603F006FA0422694651
:1008D000200000F095FB070019F14001380003F0FB
:1008E000FBF902E000F021FBFFE7BDE8F183020025
:1008F000D2B2002A082A1BD80A00D2B2012A0ED18D
:10090000DFF8682600235370012313700200D2B26F
:10091000002A0CD10122DFF85036DA7007E0DFF848
:100920004C265378032B02DA53785B1C5370FFE795
:10093000DFF838365A78002A1CD05A78032A19DB97
:1009400000221A7000225A6000229A600022DA60A7
:1009500000221A610022DA6200221A6300225A631E
:1009600000229A630022DA6300221A640022DFF870
:10097000F835DA7070472DE9F04100242500EDB21A
:10098000052D43DA00252E00F6B2042E3CDA2E00A7
:10099000F6B201EB860676682F00FFB251F8277099
:1009A000BE422FDA00262F00FFB251F82770AC4666
:1009B0005FFA8CFC01EB8C0CDCF804C0AE465FFAED
:1009C0008EFE41F82EC0AC465FFA8CFC01EB8C0C1D
:1009D000CCF80470AC465FFA8CFC50F82CC0AE46E4
:1009E0005FFA8EFE00EB8E0EDEF804E0A8465FFA9A
:1009F00088F840F828E0AE465FFA8EFE00EB8E0ED7
:100A0000CEF804C06D1CBEE7641CB7E7BDE8F081FA
:100A100038B52DED028B04009FED748ADFF8AC1A17
:100A2000087800282AD10120087000210800C0B2EF
:100A3000052815DA0800C0B2DFF8F82B0B00DBB28E
:100A400042F82300DFF8F02B0800C0B252F8200073
:100A5000002803D10800C0B242F82040491CE5E755
:100A6000DFF8D45B042300222900DFF8C80BFFF76E
:100A700082FF95ED020AB8EEC00A30E000200100C6
:100A8000C9B205291EDADFF8AC1B0200D2B251F858
:100A90002220042A0BD100220300DBB241F82320DC
:100AA000DFF8941B0200D2B241F8224008E00200B5
:100AB000D2B251F82220521C0300DBB241F82320AD
:100AC000401CDCE7DFF8705B042300222900DFF81C
:100AD000640BFFF750FF95ED020AB8EEC00ADFED98
:100AE000440A80EE200ABDEC028B31BDF0EE400AD4
:100AF0009FED401A9FED403ADFED3C3AF5EE400A9B
:100B0000F1EE10FA40D0F0EE603A9FED3C0ADFF8CB
:100B10004C0C90ED004A34EE634AB4EE404AF1EEDC
:100B200010FA08DA90ED004A33EEC44AB4EE404AB7
:100B3000F1EE10FA03DB9FED320A21EE001ADFF826
:100B4000FC0A90ED000AF0EE401ADFF8F41A91ED7D
:100B5000000A30EE010AB0EE402A32EE030A82EEBD
:100B6000000AF0EE402A33EEE10AB0EE614A00EEF0
:100B7000224A80ED004AB7EE000A30EE620A20EE0B
:100B8000020A81ED000A08E0DFF8B40A5FF07E5146
:100B90000160DFF8A80A00210160DFF8A00ADFF891
:100BA000BC1B02680A6090ED000A704770470000A5
:100BB000F0EE402A9FED0D3AF4EE601AF1EE10FAD5
:100BC00004D0B4EE412AF1EE10FA02D1B0EE620A7E
:100BD0000BE032EEE00A72EE413A20EE230A71EEAB
:100BE000E03A80EE230A30EE010A70470000000070
:100BF0000000C84295BFD63317B7D138CDCC4C3E94
:100C000000007A44280A0020902B0108FA2D0020C9
:100C1000542D0020FC0E0020F82D0020F8B52DEDFD
:100C2000028B9CB0B0EE408A0024DFF8C415087A2D
:100C300000280DD00CAA2300DBB20C20434302EBAA
:100C4000030011F1080292E8680080E86800641C63
:100C5000087D00280DD00CAA2300DBB20C204343F2
:100C600002EB030011F1140292E8680080E86800CA
:100C7000641C91F8200000280DD00CAA2300DBB2E0
:100C80000C20434302EB030011F1200292E86800BC
:100C900080E86800641C91F82C0000280CD00CAA95
:100CA0002300DBB20C20434302EB03002C3191E81C
:100CB0002C0080E82C00641C2000C0B2022802DA5C
:100CC000B0EE480A2DE100200100C9B22200D2B2E4
:100CD000521E91423EDA411C0A002300D2B2DBB21E
:100CE0009A4235D20C220CAB0D00EDB255432B4489
:100CF00093ED010A0CAB0500EDB255432B44D3ED47
:100D0000010AB4EE600AF1EE10FA1FD50CAB18AD73
:100D10000600F6B256431E4496E8805085E880509F
:100D20000500EDB255431D440E00F6B256431E4475
:100D300096E8805085E880500D00EDB202FB05F288
:100D40001A4418AB93E8E00082E8E000491CC3E7CE
:100D5000401CB9E700200100C9B22200D2B2521EE5
:100D6000914236DA0C210CAA0300DBB24B431A4441
:100D700092ED010A0CAA0300DBB24B431A44D2EDF8
:100D8000040AB4EE600AF1EE10FA12D00CAA0300C5
:100D9000DBB24B431A4492ED020A0CAA0300DBB209
:100DA0004B431A44D2ED050AB4EE600AF1EE10FA94
:100DB0000DDB00220CAB0500EDB24D435A550CAAD9
:100DC0000300DBB201FB03F1114400220A73401C53
:100DD000C1E70025002108002200C0B2D2B2904233
:100DE00018D20C220CAB0800C0B25043185C00288B
:100DF0000ED068462E00F6B2564330440E00F6B2CE
:100E000002FB06F21A4492E8C80080E8C8006D1C94
:100E1000491CE0E72800C0B2022802DAB0EE480A16
:100E20007FE0684690ED010AB4EE480AF1EE10FA50
:100E30000CDB90ED052AD0ED041A90ED021AD0EDEE
:100E4000010AB0EE480AFFF7B3FE6AE00026300060
:100E5000C0B22900C9B2491E88423CDA0C2069465A
:100E60003200D2B24243114491ED010AB4EE408AFD
:100E7000F1EE10FA2DDB69463200D2B24243114442
:100E800091ED040AB4EE480AF1EE10FA21DB69464E
:100E90003200D2B24243114491ED052A6946320034
:100EA000D2B242431144D1ED041A69463200D2B2A3
:100EB0004243114491ED021A69463200D2B200FB5E
:100EC00002F00844D0ED010AB0EE480AFFF770FEC8
:100ED00027E0761CBBE70C2069462A00D2B24243C9
:100EE0001144091F91ED002A69462A00D2B24243FB
:100EF00011440839D1ED001A69462A00D2B24243A2
:100F00001144103991ED001A69462A00D2B200FB53
:100F100002F008441438D0ED000AB0EE480AFFF79A
:100F200047FE1CB0BDEC028BF1BD80B503203049FB
:100F300008700421DFF8400C01F0E9FF322003F0D3
:100F400012FA01BD80B5DFF818080078DFF8141830
:100F500008700220264908700421DFF81C0C01F0FB
:100F6000C4FF01BD8C2D0020CC2D0020C82B0020FB
:100F7000F8B52DED028B0400F0EE408AB0EE608AE9
:100F80000025DFF8C063300003F078FFB0EE680A98
:100F900002F07AFF0700306807703800000A3168F5
:100FA00048703800000C316888703800000E3168D5
:100FB000C870B0EE480A02F067FF3168087101009E
:100FC000090A326851710100090C326891710100FF
:100FD000090E3268D1710821B180DFF884170C70D6
:100FE0000121DFF884271170BDEC028BF1BD0000F8
:100FF0007C000020072E002000040048000C004860
:10100000F0B4030000200C881500EDB2042D16D1B9
:101010002500ADB21D44EE782500ADB21D44AD787B
:1010200055EA06252600B6B21E4476782700BFB2E0
:10103000DF5D57EA062757EA054738000DE015003F
:10104000EDB2022D09D12500ADB25D5D2600B6B22C
:101050001E44767856EA052630000D8855FA82F54A
:101060000D80F0BC704770B504000D00DFF80C6B0C
:1010700001224FF48051300002F0E9FA0A2003F017
:10108000C3FF02F0D3FC4FF47A732A0092B221001E
:10109000DFF8E00D04F009F800224FF48051300031
:1010A00002F0D5FA70BD0000642D0020F4EE601A45
:1010B000F1EE10FA05D15FF07E52026000220A6064
:1010C0000FE031EE402A71EEE02A82EE222A80ED16
:1010D000002A90ED002AF0EE402A42EE602AC1ED8F
:1010E000002A704738B52DED088BB0EE408AF0EE3F
:1010F000608AB0EE419AF0EE619A04000D009FED17
:10110000C7AADFEDC6AA9FEDC5BADFEDC4BAB5EE3A
:10111000408AF1EE10FA62D0F5EE408AF1EE10FA54
:101120005DD0B5EE409AF1EE10FA58D0F5EE409A47
:10113000F1EE10FA53D018EE100A04F05DFF41EC06
:10114000100B04F080FF51EC100B04F08FFF0AEE3F
:10115000100A19EE100A04F04FFF41EC100B04F0D6
:1011600072FF51EC100B04F081FF0AEE900A18EEAA
:10117000900A04F041FF41EC100B04F064FF51ECC5
:10118000100B04F073FF0BEE100A19EE900A04F036
:1011900033FF41EC100B04F056FF51EC100B04F040
:1011A00065FF0BEE900AF4EE4BBAF1EE10FA05D1A2
:1011B0005FF07E5020600020286015E03AEECA0AF9
:1011C0007BEECB0A80EE200A84ED000A94ED000A43
:1011D000F0EE4A0A40EE4B0AC5ED000A04E05FF06B
:1011E0007E50206000202860BDEC088B31BD0000DF
:1011F000102C00202DE9F0412DED028B8EB0F0EE89
:10120000408AB0EE608A322100226C46200001F054
:1012100087FE002700240025DFF86489C8ED098ACD
:1012200088ED0A8A98ED090A02F02EFE060098ED74
:101230000A0A02F029FE804668463100090E3A008B
:10124000D2B281547F1C3100090C3A00D2B28154D1
:101250007F1C3100090A3A00D2B281547F1C390048
:10126000C9B246547F1C4146090E3A00D2B281549D
:101270007F1C4146090C3A00D2B281547F1C414682
:10128000090A3A00D2B281547F1C3900C9B200F871
:1012900001807F1C3A00D2B292B26946DFF8E408BE
:1012A00004F08EFF0EB0BDEC028BBDE8F08170B58E
:1012B00000240025DFF8CC080078C0B2FF283AD01F
:1012C000DFF8C4080178C9B20906DFF8C008007861
:1012D000C0B251EA0041DFF8A00B0078C0B251EA79
:1012E0000021DFF8980B0078C0B201430C00DFF852
:1012F000900B0178C9B20906DFF8880B0078C0B2FC
:1013000051EA0041DFF8800B0078C0B251EA0021B9
:10131000DFF8780B0078C0B201430D00DFF8606899
:1013200016F12401200002F0D7FC16F12801280054
:1013300002F0D2FC05E0DFF84808002141620021FC
:10134000816270BDB80A0020CC2B00202DE9F04747
:101350002DED028B8EB00400F0EE408AB0EE608A74
:10136000322100226D46280001F0DAFD002500261A
:101370000027DFF81CAB8AF800408AED028ACAED2C
:10138000018A9AED020A02F07FFD80469AED010A79
:1013900002F07AFD814668469AF800102A00D2B21F
:1013A00081546D1C4146090E2A00D2B281546D1C35
:1013B0004146090C2A00D2B281546D1C4146090AEB
:1013C0002A00D2B281546D1C2900C9B200F80180F4
:1013D0006D1C4946090E2A00D2B281546D1C494643
:1013E000090C2A00D2B281546D1C4946090A2A0010
:1013F000D2B281546D1C2900C9B200F801906D1C55
:101400002A00D2B292B26946DFF8880A04F0D8FE08
:101410000EB0BDEC028BBDE8F087000000000000BC
:10142000D02B0020D82B002070B500240025DFF839
:10143000640A0078C0B2FF283DD0DFF8546ADFF8B4
:10144000580A00783070DFF8540A0178C9B20906EA
:10145000DFF84C0A0078C0B251EA0041DFF8440AD4
:101460000078C0B251EA0021DFF83C0A0078C0B22F
:1014700001430C00DFF8340A0178C9B20906DFF82D
:10148000300A0078C0B251EA0041DFF8280A00783B
:10149000C0B251EA0021DFF8200A0078C0B201434F
:1014A0000D0016F10801200002F016FC311D280085
:1014B00002F012FC08E0DFF8D80900210170DFF823
:1014C000F81C81600021416070BD0000082E0020E2
:1014D0002DE9F84F2DED048B8EB0F0EE409AB0EE72
:1014E000608AF0EE418AB0EE619A3221002201ACAE
:1014F000200001F015FD5FF0000B0020009000249B
:1015000000250026DFF8B4A9CAED009A8AED018A09
:10151000CAED028A8AED039A9AED000A02F0B4FC41
:1015200007009AED010A02F0AFFC80469AED020A2C
:1015300002F0AAFC81469AED030A02F0A5FC82465D
:1015400001A83900090E5A46D2B281541BF1010B91
:101550003900090C5A46D2B281541BF1010B3900F3
:10156000090A5A46D2B281541BF1010B5946C9B23D
:1015700047541BF1010B4146090E5A46D2B2815421
:101580001BF1010B4146090C5A46D2B281541BF1A2
:10159000010B4146090A5A46D2B281541BF1010B94
:1015A0005946C9B200F801801BF1010B4946090EEA
:1015B0005A46D2B281541BF1010B4946090C5A46D6
:1015C000D2B281541BF1010B4946090A5A46D2B2E4
:1015D00081541BF1010B5946C9B200F801901BF16F
:1015E000010B5146090E5A46D2B281541BF1010B30
:1015F0005146090C5A46D2B281541BF1010B514697
:10160000090A5A46D2B281541BF1010B5946C9B29C
:1016100000F801A01BF1010B5A46D2B292B201A907
:10162000DFF8980B04F0CCFD0EB0BDEC048BBDE8E8
:10163000F18F00002C2D0020402D0020D02D002007
:10164000C00A00202DE9F0410024002500260027D3
:10165000DFF8680B0078C0B2FF2871D0DFF8600BAC
:101660000178C9B20906DFF85C0B0078C0B251EA14
:101670000041DFF8540B0078C0B251EA0021DFF8D6
:101680004C0B0078C0B201430C00DFF8440B01782A
:10169000C9B20906DFF83C0B0078C0B251EA00413C
:1016A000DFF8340B0078C0B251EA0021DFF82C0BD0
:1016B0000078C0B201430D00DFF8240B0178C9B2F5
:1016C0000906DFF8200B0078C0B251EA0041DFF8CC
:1016D000180B0078C0B251EA0021DFF8100B007837
:1016E000C0B201430E00DFF8080B0178C9B2090649
:1016F000DFF8000B0078C0B251EA0041DFF8F80AC9
:101700000078C0B251EA0021DFF8F00A0078C0B2D8
:1017100001430F00DFF8A4874146200002F0DCFA05
:1017200018F10401280002F0D7FA18F1080130007E
:1017300002F0D2FA18F10C01380002F0CDFA0BE0F9
:10174000DFF87807DFF8701A016000214160DFF8E8
:10175000B41E81600021C160BDE8F081D42D00205D
:10176000062E0020FA2D00207C0000202DE9F14FEC
:101770002DED028BBEB0B0EE408AC82100220CAC29
:10178000200001F0CDFB5FF0000B00200490002052
:101790000390002002900020019000200090002083
:1017A0000B9000200A900020099000200890002053
:1017B000079000200690002005909DF80001002869
:1017C00011D0022819D013D3042820D01AD3062808
:1017D00027D021D308282ED028D30A2835D02FD3BC
:1017E0000B2837D03BE0DFF8180A80ED008A36E09E
:1017F000DFF80C0A80ED018A31E0DFF8040A80EDA1
:10180000028A2CE0DFF8F80980ED038A27E0DFF890
:10181000F00980ED048A22E0DFF8E40980ED058A12
:101820001DE0DFF8DC0980ED068A18E0DFF8D0095A
:1018300080ED078A13E0DFF8C80980ED088A0EE022
:10184000DFF8BC0980ED098A09E0DFF8B40980ED12
:101850000A8A04E0DFF8A80980ED0B8AFFE7DFF8C9
:10186000A0A99AED000A02F00FFB04909AED010A7C
:1018700002F00AFB03909AED020A02F005FB0290C7
:101880009AED030A02F000FB01909AED040A02F0BF
:10189000FBFA00909AED050A02F0F6FA04009AEDC0
:1018A000060A02F0F1FA05009AED070A02F0ECFAD6
:1018B00006009AED080A02F0E7FA07009AED090A15
:1018C00002F0E2FA80469AED0A0A02F0DDFA814659
:1018D0009AED0B0A02F0D8FA82460CA80499090E78
:1018E0005A46D2B281541BF1010B0499090C5A4695
:1018F000D2B281541BF1010B0499090A5A46D2B2A3
:1019000081541BF1010B04995A46D2B281541BF148
:10191000010B0399090E5A46D2B281541BF1010BF7
:101920000399090C5A46D2B281541BF1010B039959
:10193000090A5A46D2B281541BF1010B03995A4647
:10194000D2B281541BF1010B0299090E5A46D2B250
:1019500081541BF1010B0299090C5A46D2B28154F1
:101960001BF1010B0299090A5A46D2B281541BF1AC
:10197000010B02995A46D2B281541BF1010B019915
:10198000090E5A46D2B281541BF1010B0199090C80
:101990005A46D2B281541BF1010B0199090A5A46E9
:1019A000D2B281541BF1010B01995A46D2B2815433
:1019B0001BF1010B0099090E5A46D2B281541BF15A
:1019C000010B0099090C5A46D2B281541BF1010B4C
:1019D0000099090A5A46D2B281541BF1010B0099B1
:1019E0005A46D2B281541BF1010B2100090E5A460E
:1019F000D2B281541BF1010B2100090C5A46D2B21C
:101A000081541BF1010B2100090A5A46D2B28154BC
:101A10001BF1010B5946C9B244541BF1010B2900BB
:101A2000090E5A46D2B281541BF1010B2900090C50
:101A30005A46D2B281541BF1010B2900090A5A46B9
:101A4000D2B281541BF1010B5946C9B245541BF166
:101A5000010B3100090E5A46D2B281541BF1010B21
:101A60003100090C5A46D2B281541BF1010B3100EE
:101A7000090A5A46D2B281541BF1010B5946C9B228
:101A800046541BF1010B3900090E5A46D2B281545B
:101A90001BF1010B3900090C5A46D2B281541BF1DB
:101AA000010B3900090A5A46D2B281541BF1010BCD
:101AB0005946C9B247541BF1010B4146090E5A461B
:101AC000D2B281541BF1010B4146090C5A46D2B2E5
:101AD00081541BF1010B4146090A5A46D2B2815486
:101AE0001BF1010B5946C9B200F801801BF1010B33
:101AF0004946090E5A46D2B281541BF1010B4946A0
:101B0000090C5A46D2B281541BF1010B4946090A0D
:101B10005A46D2B281541BF1010B5946C9B200F8A2
:101B200001901BF1010B5146090E5A46D2B2815465
:101B30001BF1010B5146090C5A46D2B281541BF1DC
:101B4000010B5146090A5A46D2B281541BF1010BCE
:101B50005946C9B200F801A01BF1010B5A46D2B296
:101B600092B20CA9DFF8FC0A04F02AFB3EB0BDECEF
:101B7000028BBDE8F18F0000280A00200008004811
:101B8000C82B002000080208020802080308020807
:101B90002DE9F04F85B00020049000200390002034
:101BA00002900020019000200090002400250026D3
:101BB00000275FF000085FF000095FF0000ADFF81F
:101BC000A40A0078C0B2FF2800F05181DFF8980A1B
:101BD0000178C9B20906DFF8940A0078C0B251EA68
:101BE0000041DFF88C0A0078C0B251EA0021DFF82A
:101BF000840A0078C0B201430491DFF87C0A0178BE
:101C0000C9B20906DFF81C0B0078C0B251EA0041E6
:101C1000DFF8140B0078C0B251EA0021DFF80C0B9A
:101C20000078C0B201430391DFF8040B0178C9B218
:101C30000906DFF8000B0078C0B251EA0041DFF876
:101C4000F80A0078C0B251EA0021DFF8F00A007803
:101C5000C0B201430291DFF8E80A0178C9B209066F
:101C6000DFF8E00A0078C0B251EA0041DFF8D80A94
:101C70000078C0B251EA0021DFF8D00A0078C0B283
:101C800001430191DFF878B55946049802F024F831
:101C90001BF10401039802F01FF81BF108010298E0
:101CA00002F01AF81BF10C01019802F015F8DFF8A8
:101CB000A00A0178C9B20906DFF8980A0078C0B214
:101CC00051EA0041DFF8900A0078C0B251EA0021E1
:101CD000DFF8880A0078C0B201430091DFF8800A7B
:101CE0000178C9B20906DFF87C0A0078C0B251EA6F
:101CF0000041DFF8740A0078C0B251EA0021DFF831
:101D00006C0A0078C0B201430C00DFF8640A017865
:101D1000C9B20906DFF85C0A0078C0B251EA004196
:101D2000DFF8540A0078C0B251EA0021DFF84C0A0B
:101D30000078C0B201430D00DFF8440A0178C9B24F
:101D40000906DFF8400A0078C0B251EA0041DFF826
:101D5000380A0078C0B251EA0021DFF8300A007872
:101D6000C0B201430E001BF11001009801F0B4FF56
:101D70001BF11401200001F0AFFF1BF11801280036
:101D800001F0AAFF1BF11C01300001F0A5FFDFF8F4
:101D9000000A0178C9B20906DFF8F8090078C0B274
:101DA00051EA0041DFF8F0090078C0B251EA0021A1
:101DB000DFF8E8090078C0B201430F00DFF8E0095E
:101DC0000178C9B20906DFF8DC090078C0B251EA2F
:101DD0000041DFF8D4090078C0B251EA0021DFF8F1
:101DE000CC090078C0B201438846DFF8C409017805
:101DF000C9B20906DFF8BC090078C0B251EA004157
:101E0000DFF8B4090078C0B251EA0021DFF8040C11
:101E10000078C0B201438946DFF8FC0B0178C9B2F3
:101E20000906DFF8F80B0078C0B251EA0041DFF88C
:101E3000F00B0078C0B251EA0021DFF89C0E007868
:101E4000C0B201438A461BF12001380001F044FF73
:101E50001BF12401404601F03FFF1BF128014846D9
:101E600001F03AFF1BF12C01504601F035FF05B09F
:101E7000BDE8F08F202700200408020805080208AA
:101E800006080208070802080808020809080208EC
:101E90008C2D002000100208021002080310020816
:101EA00004100208051002080610020807100208B4
:101EB00008100208091002080A100208642D002008
:101EC0002DE9F34F81B02DED028BA2B0F0EE408AE8
:101ED000B0EE608A6421002208AC200001F020F8F6
:101EE0005FF0000B9DF89400002805D0022817D061
:101EF0000CD303281FD029E0DFF8280B9DF8981099
:101F00000172C0ED038A80ED048A1FE0DFF8140B34
:101F10009DF898100175C0ED068A80ED078A15E0DE
:101F2000DFF8000B9DF8981080F82010C0ED098AAA
:101F300080ED0A8A0AE0DFF8EC0A9DF8981080F834
:101F40002C10C0ED0C8A80ED0D8AFFE70020019077
:101F500000200090002007900020069000200590AF
:101F6000002004900020039000200290DFF8B44A83
:101F700094ED030A01F088FF019094ED040A01F04A
:101F800083FF009094ED060A01F07EFF050094EDBA
:101F9000070A01F079FF060094ED090A01F074FFC9
:101FA000070094ED0A0A01F06FFF804694ED0C0AD9
:101FB00001F06AFF814694ED0D0A01F065FF82464B
:101FC00008A8217A5A4692B281541BF1010B01995B
:101FD000090E5A4692B281541BF1010B0199090C6A
:101FE0005A4692B281541BF1010B0199090A5A46D3
:101FF00092B281541BF1010B01995A4692B281545D
:102000001BF1010B0099090E5A4692B281541BF143
:10201000010B0099090C5A4692B281541BF1010B35
:102020000099090A5A4692B281541BF1010B00999A
:102030005A4692B281541BF1010B217D5A4692B24D
:1020400081541BF1010B2900090E5A4692B28154AA
:102050001BF1010B2900090C5A4692B281541BF165
:10206000010B2900090A5A4692B281541BF1010B57
:10207000594689B245541BF1010B3100090E5A46ED
:1020800092B281541BF1010B3100090C5A4692B2F5
:1020900081541BF1010B3100090A5A4692B2815456
:1020A0001BF1010B594689B246541BF1010B94F800
:1020B00020105A4692B281541BF1010B3900090ECF
:1020C0005A4692B281541BF1010B3900090C5A4651
:1020D00092B281541BF1010B3900090A5A4692B29F
:1020E00081541BF1010B594689B247541BF1010B76
:1020F0004146090E5A4692B281541BF1010B4146EA
:10210000090C5A4692B281541BF1010B4146090A4F
:102110005A4692B281541BF1010B594689B200F81C
:1021200001801BF1010B94F82C105A4692B2815495
:102130001BF1010B4946090E5A4692B281541BF11C
:10214000010B4946090C5A4692B281541BF1010B0E
:102150004946090A5A4692B281541BF1010B59466D
:1021600089B200F801901BF1010B5146090E5A4645
:1021700092B281541BF1010B5146090C5A4692B29E
:1021800081541BF1010B5146090A5A4692B28154FF
:102190001BF1010B594689B200F801A01BF1010B9C
:1021A0005A4692B208A9DFF8380B04F009F822B0B9
:1021B000BDEC028BBDE8F78F000048430020020809
:1021C0000220020803200208042002080520020859
:1021D0000620020807200208082002080920020839
:1021E0000A2002080B2002080C2002080D20020819
:1021F0000E2002080F2002081020020811200208F9
:10220000482C00202DE9F84F0020009000240025E4
:10221000002600275FF000085FF000095FF0000A69
:10222000DFF8BC0A0078C0B2FF2800F0F780DFF8C2
:102230003CBBDFF8B00A00788BF80800DFF8300B01
:102240000178C9B20906DFF82C0B0078C0B251EA58
:102250000041DFF8240B0078C0B251EA0021DFF81A
:102260001C0B0078C0B201430091DFF8140B017819
:10227000C9B20906DFF80C0B0078C0B251EA004180
:10228000DFF8040B0078C0B251EA0021DFF8FC0A45
:102290000078C0B201430C00DFF8F40A00788BF834
:1022A0001400DFF8F00A0178C9B20906DFF8E80A7D
:1022B0000078C0B251EA0041DFF8E00A0078C0B20D
:1022C00051EA0021DFF8D80A0078C0B201430D00BE
:1022D000DFF8D00A0178C9B20906DFF8CC0A007825
:1022E000C0B251EA0041DFF8C40A0078C0B251EA36
:1022F0000021DFF8BC0A0078C0B201430E00DFF80D
:10230000B40A00788BF82000DFF8AC0A0178C9B273
:102310000906DFF8A80A0078C0B251EA0041DFF8E8
:10232000A00A0078C0B251EA0021DFF8980A0078CC
:10233000C0B201430F00DFF8900A0178C9B2090664
:10234000DFF8880A0078C0B251EA0041DFF8800A5D
:102350000078C0B251EA0021DFF8780A0078C0B2F4
:1023600001438846DFF8700A00788BF82C00DFF80C
:102370006C0A0178C9B20906DFF8640A0078C0B2B5
:1023800051EA0041DFF85C0A0078C0B251EA00214E
:10239000DFF8540A0078C0B201438946DFF84C0ADE
:1023A0000178C9B20906DFF8480A0078C0B251EADC
:1023B0000041DFF8400A0078C0B251EA0021DFF89E
:1023C000380A0078C0B201438A461BF10C0100981C
:1023D00001F082FC1BF11001200001F07DFC1BF1DB
:1023E0001801280001F078FC1BF11C01300001F0FD
:1023F00073FC1BF12401380001F06EFC1BF1280175
:10240000404601F069FC1BF13001484601F064FCD4
:102410001BF13401504601F05FFC1BE0DFF84C0972
:10242000002101720021C1600021016100210175BC
:10243000002181610021C161002180F8201000216C
:10244000416200218162002180F82C10002101638B
:1024500000214163BDE8F18F78B591B004000D0013
:102460003C21002202AE300000F05AFD0020ADF801
:1024700004000321072004F03CFA0B200090002305
:10248000DFF8782901A902A801F010FC4FF47A7353
:10249000BDF8042002A9DFF8680902F006FE12B0B8
:1024A00070BD78B591B004000D003C21002202AE51
:1024B000300000F035FD0020ADF80400DFF84409DD
:1024C00003F04EFEDFF8400903F04AFEDFF83C0956
:1024D00000210170DFF838198160002141600D2072
:1024E00000900023DFF82C2901A902A801F0DEFBEF
:1024F0004FF47A73BDF8042002A9DFF8040902F052
:10250000D4FD12B070BD38B590B004000D0003A822
:10251000DFF80419322204F0FDFBDFF80009D0E9EE
:102520000023CDE9012303A801900023DFF8F00880
:10253000027802A903A801F044FB022000900023C6
:1025400076A202A903A801F0B1FB4FF47A73BDF89B
:1025500008200199DFF8A80802F0A7FD11B030BDEE
:10256000F8B504000D0000262068007830283EDB16
:10257000206800783A283ADA002700200100C9B222
:10258000A28889B291420FD221680200D2B2895C3E
:10259000302905DB21680200D2B2895C3A2900DBD0
:1025A00002E07F1C401CE9E73900C9B2206801F055
:1025B00035FC0600B6F5807F0FD2DFF8640841785D
:1025C0003000C0B204F095F94FF47A73022254A19E
:1025D000DFF82C0802F069FD12E04FF47A7305224F
:1025E000DFF84018DFF8180802F05FFD08E04FF44C
:1025F0007A730522DFF82C18DFF8040802F055FD85
:10260000F1BD00000000A04238B590B004000D00FC
:1026100003A8DFF81418322204F07CFBDFF80C0862
:10262000D0E90023CDE9012303A801900023DFF8BE
:10263000F007427802A903A801F0C3FA0220009033
:10264000002336A202A903A801F030FB4FF47A73ED
:10265000BDF808200199DFF8A80702F026FD11B0A7
:1026600030BD0000002802080228020803280208E2
:10267000042802080528020806280208F8B5040004
:102680000D0000262068007830283DDB20680078A7
:102690003A2839DA002700200100C9B2A28889B29D
:1026A00091420FD221680200D2B2895C302905DB49
:1026B00021680200D2B2895C3A2900DB02E07F1C6B
:1026C000401CE9E73900C9B2206801F0A7FB060009
:1026D0000C2E0FD23100C9B2DFF84407007804F0A5
:1026E00008F94FF47A7302220DA1DFF8140702F003
:1026F000DCFC12E04FF47A730522DFF82817DFF8CC
:10270000000702F0D2FC08E04FF47A730522DFF8EC
:102710001417DFF8EC0602F0C8FCF1BD0D0A00004A
:102720004F4B000007280208082802080928020861
:102730000A2802080B2802080C2802080D280208A3
:102740000E2802080F280208102802081128020883
:102750001228020813280208142802081528020863
:102760001628020817280208182802081928020843
:102770001A2802081B2802081C2802081D28020823
:102780001E2802081F280208202802082128020803
:1027900022280208232802082428020825280208E3
:1027A00026280208272802082828020829280208C3
:1027B0002A2802082B2802082C28020870B52DEDC3
:1027C000028BCEB004000D0002A8DFF864164FF4AF
:1027D000967204F0AFFA0A20ADF804000A200090C7
:1027E0000023DFF8502601A902A801F05FFA9FED4F
:1027F000888ADFF84466FE2396ED000A20EE080A78
:10280000BDEEC00A10EE102A01A902A801F0D9F904
:102810000B2000900023DFF8242601A902A801F074
:1028200045FAFE2396ED010A20EE080ABDEEC00A25
:1028300010EE102A01A902A801F0C3F90B200090A4
:102840000023DFF8FC2501A902A801F02FFAFE23DE
:1028500096ED020A20EE080ABDEEC00A10EE102A1C
:1028600001A902A801F0ADF90B2000900023DFF8C8
:10287000D42501A902A801F019FAFE2396ED030A56
:1028800020EE080ABDEEC00A10EE102A01A902A827
:1028900001F097F90A2000900023DFF8AC2501A988
:1028A00002A801F003FAFE2396ED040A20EE080ABE
:1028B000BDEEC00A10EE102A01A902A801F081F9AC
:1028C0000A2000900023DFF8842501A902A801F066
:1028D000EDF9FE2396ED050A20EE080ABDEEC00ACA
:1028E00010EE102A01A902A801F06BF90A2000904D
:1028F0000023DFF85C2501A902A801F0D7F9FE2327
:1029000096ED060A20EE080ABDEEC00A10EE102A67
:1029100001A902A801F055F90A2000900023DFF870
:10292000342501A902A801F0C1F9FE2396ED070A9A
:1029300020EE080ABDEEC00A10EE102A01A902A876
:1029400001F03FF9092000900023DFF80C2501A9D0
:1029500002A801F0ABF9FE2396ED080A20EE080A62
:10296000BDEEC00A10EE102A01A902A801F029F953
:10297000092000900023DFF8E42401A902A801F057
:1029800095F9FE2396ED090A20EE080ABDEEC00A6D
:1029900010EE102A01A902A801F013F909200090F5
:1029A0000023DFF8BC2401A902A801F07FF9FE236F
:1029B00096ED0A0A20EE080ABDEEC00A10EE102AB3
:1029C00001A902A801F0FDF8092000900023DFF81A
:1029D000942401A902A801F069F9FE2396ED0B0ADF
:1029E00020EE080ABDEEC00A10EE102A01A902A8C6
:1029F00001F0E7F84FF47A73BDF8042002A9DFF87C
:102A0000000402F052FB4EB0BDEC028B70BD000022
:102A10000000C8422D2802082E2802082F2802088C
:102A200030280208102C002070B52DED028BCEB09E
:102A300004000D0002A8DFF830144FF4967204F081
:102A400079F90C20ADF80400072000900023DFF88E
:102A50001C2401A902A801F029F99FEDA08AC34E08
:102A6000FE2396ED000A20EE080ABDEEC00A10EE25
:102A7000102A01A902A801F0A4F808200090002360
:102A8000DFF8EC2301A902A801F010F9FE2396ED6E
:102A9000010A20EE080ABDEEC00A10EE102A01A9B4
:102AA00002A801F08EF8072000900023DFF8C4236D
:102AB00001A902A801F0FAF80023327A01A902A8BC
:102AC00001F07FF8062000900023EB4A01A902A83C
:102AD00001F0ECF8FE2396ED030A20EE080ABDEEA5
:102AE000C00A10EE102A01A902A801F06AF8062017
:102AF00000900023E14A01A902A801F0D7F8FE23C3
:102B000096ED040A20EE080ABDEEC00A10EE102A67
:102B100001A902A801F055F8072000900023D84A27
:102B200001A902A801F0C2F80023327D01A902A880
:102B300001F047F8062000900023D24A01A902A81C
:102B400001F0B4F8FE2396ED060A20EE080ABDEE69
:102B5000C00A10EE102A01A902A801F032F80620DE
:102B600000900023C84A01A902A801F09FF8FE23A3
:102B700096ED070A20EE080ABDEEC00A10EE102AF4
:102B800001A902A801F01DF8072000900023BF4A08
:102B900001A902A801F08AF8002396F8202001A9D3
:102BA00002A801F00EF8062000900023B84A01A9FF
:102BB00002A801F07BF8FE2396ED090A20EE080A30
:102BC000BDEEC00A10EE102A01A902A800F0F9FF1C
:102BD000062000900023AF4A01A902A801F066F880
:102BE000FE2396ED0A0A20EE080ABDEEC00A10EE9A
:102BF000102A01A902A800F0E4FF0720009000239A
:102C0000A54A01A902A801F051F8002396F82C204A
:102C100001A902A800F0D5FF0620009000239F4ADA
:102C200001A902A801F042F8FE2396ED0C0A20EE5D
:102C3000080ABDEEC00A10EE102A01A902A800F091
:102C4000C0FF062000900023954A01A902A801F0C8
:102C50002DF8FE2396ED0D0A20EE080ABDEEC00AFF
:102C600010EE102A01A902A800F0ABFF4FF47A730E
:102C7000BDF8042002A9624802F017FA4EB0BDEC7C
:102C8000028B70BD80B5FEF712FBFEF7CDFBFEF7A1
:102C9000D9FCFEF77DFFFFF7B5FA82488249C0F8FC
:102CA000A4138249C0F8B4138149C0F8C413814900
:102CB000C0F8D4138049C0F8E4138049C0F8F41375
:102CC0007F49C0F804147F49C0F8141400F0C5FE11
:102CD00000F0B4FE01BD0000312802080000C84227
:102CE000001802080218020870B500200024002510
:102CF0002800C0B2092836DA734E2800C0B200019D
:102D00003044407801282CD1012004002800C0B2B2
:102D100000013044406800280ED004F04FF829002C
:102D2000C9B2090131444968401A2900C9B20901F0
:102D300031448968884214D300202900C9B20901AE
:102D40003144487004F03AF82900C9B2090131440D
:102D500048602800C0B22900C9B209013144C968DD
:102D600088476D1CC4E72000C0B270BD102C002045
:102D700003180208041802080518020806180208B9
:102D80000718020808180208091802080A18020899
:102D90000B1802080C1802080D1802080E18020879
:102DA0000F18020810180208111802081218020859
:102DB0001318020814180208151802081618020839
:102DC0001718020818180208191802081A18020819
:102DD0001B1802081C1802081D1802081E180208F9
:102DE0001F180208201802082118020822180208D9
:102DF000231802082418020825180208742801085C
:102E00001026002000080208001002088C2D002067
:102E1000000048431425010880210108982B01086F
:102E20004C0F0020202B0108B4210108A02B010821
:102E3000C41D010880280108482C00208C280108A6
:102E400098280108A4280108B0280108BC28010816
:102E5000C8280108D4280108E0280108EC28010846
:102E6000F828010804290108F01E0108282B010890
:102E700010290108302B0108382B0108402B0108CC
:102E8000482B0108502B0108582B0108602B010822
:102E9000682B0108702B0108782B0108802B010892
:102EA000882B0108CC0A002059240008A32400081C
:102EB0000725000861250008092600087D2600086E
:102EC000BD270008292A0008280A00200200012046
:102ED0000B00DBB21B011344587000200B00DBB267
:102EE0001B01134458600120704738B504000D00E1
:102EF00001202900C9B209012144487003F05EFF96
:102F00002900C9B2090121444860012032BD0200F4
:102F100000200B00DBB21B011344587001207047E6
:102F200062F30F2262F31F42401810F0030308D02F
:102F3000C91A1FD3DB0748BF00F8012D28BF20F8AE
:102F4000022D130030B414461546103928BF20E96D
:102F50003C00FAD8490728BF20E90C0048BF40F8D8
:102F6000042D890028BF20F8022D48BF00F8012D4C
:102F700030BC7047C91818BF00F8012DCB0728BF17
:102F800000F8012D704730B403004FF6FF700024A5
:102F90008C4213DA1A5D50400822002A0CD0C50773
:102FA00006D580B2400880F4204090F0010001E096
:102FB00080B24008521EF0E7641CE9E780B230BCE2
:102FC00070472DE9F84305000E0017009846089C4D
:102FD0005FF000092868494689B2465419F1010991
:102FE0002868494689B2475419F10109404680B220
:102FF000000A29684A4692B2885419F101092868E2
:10300000494689B200F8018019F10109200080B217
:10301000000A29684A4692B2885419F101092868C1
:10302000494689B2445419F10109494689B22868D0
:10303000FFF7A9FF010028684A4692B2815419F1AE
:103040000109080080B2000A2A684B469BB2D0549E
:1030500019F10109A5F804900120BDE8F2832DE9DA
:10306000F84F06000F00904699460A9DDDF82CA007
:10307000002400213068220092B28754641C30681A
:10308000220092B200F80280641C484680B2000A16
:10309000326823009BB2D054641C3068220092B284
:1030A00000F80290641C4046C0B2062802D01028E6
:1030B00007D01CE0280080B2012801D0002040E0A9
:1030C00015E0280080B2000A326823009BB2D05479
:1030D000641C3068220092B28554641C2800C0B27F
:1030E0004000326823009BB2D054641CFFE75FF0BD
:1030F000000B584680B2290089B2B0EB410F0BDAC1
:10310000584680B21AF800003168220092B2885402
:10311000641C1BF1010BECE7210089B23068FFF75A
:1031200032FF01003068220092B28154641C080012
:1031300080B2000A326823009BB2D054641CB48071
:103140000120BDE8F28F2DE9F84F05000E001700B1
:1031500098460A9CDDF82C905FF0000B002029684F
:103160005A4692B28E541BF1010B29685A4692B20C
:103170008F541BF1010B2100C9B249002A685B463C
:103180009BB2D1541BF1010B5FF0000A504680B294
:10319000210089B2B0EB410F0CDA504680B219F829
:1031A000000029685A4692B288541BF1010B1AF1AB
:1031B000010AEBE7594689B22868FFF7E4FE0100EF
:1031C00028685A4692B281541BF1010B080080B264
:1031D000000A2A685B469BB2D0541BF1010BA5F88C
:1031E00004B00120BDE8F28F2DE9F84F05000E0074
:1031F000170098460A9CDDF82C905FF0000B5FF0FA
:10320000000A2868594689B246541BF1010B286808
:10321000594689B247541BF1010B404680B2000A5F
:1032200029685A4692B288541BF1010B2868594606
:1032300089B200F801801BF1010B3800C0B20628EA
:1032400002D010281DD02CE0200080B2012801D02F
:1032500000203EE000208246504680B2210089B224
:10326000B0EB410F0CDA504680B219F80000296823
:103270005A4692B288541BF1010B1AF1010AEBE78E
:103280000FE0200080B2000A29685A4692B28854A2
:103290001BF1010B2868594689B244541BF1010BFC
:1032A000FFE7594689B22868FFF76DFE01002868DC
:1032B0005A4692B281541BF1010B080080B2000AF9
:1032C0002A685B469BB2D0541BF1010BA5F804B0F1
:1032D0000120BDE8F28F30B4002513E050F8042B34
:1032E000D30744BFA9F101039A18091F042942F822
:1032F000045BFAD213468C0744BF15809B1CC90798
:1033000048BF1D7050F8041B0029E7D130BC70473E
:10331000F8B4030000250868E840002800F0D780D2
:1033200001260F6816FA05F007403A00002A00F05F
:10333000CC80087910F00300012804D0087910F03F
:10334000030002281DD19F685FF0030C2800C0B263
:1033500040001CFA00FC37EA0C07D1F80CC028002A
:10336000C0B240001CFA00FC5CEA07079F60586886
:10337000AE40B0434E68C6F30016AE403043040082
:103380005C60087910F0030003280ED0DE68032784
:103390002800C0B240008740BE438F682800C0B2FA
:1033A000400087403E433400DC60087910F00300A1
:1033B000022818D12800C00803EB8000066A0F27F6
:1033C00015F00700C0B280008740BE430F6915F0BA
:1033D0000700C0B2800087403E4334002800C00888
:1033E00003EB800004621E6803272800C0B240007F
:1033F0008740BE430F7917F003072800C0B2400092
:1034000087403E4334001C60486810F4403F5CD065
:103410009548066856F001060660006810F0010045
:1034200000900098914F2800800857F820605FF0C6
:103430000F0C15F00300C0B280001CFA00FC36EA45
:103440000C06B3F1904F01D1002414E08848834268
:1034500001D101240FE08748834201D102240AE010
:103460008548834201D1032405E08448834201D189
:10347000042400E0072415F00300C0B2800084405B
:1034800026432800800847F820607D4C2068904340
:103490004F68FF0200D5104320607A4E3468944391
:1034A0004F68BF0200D514433460774E30689043B4
:1034B0004F68BF0300D510433060744E34689443A6
:1034C0004F68FF0300D5144334606D1C23E7F1BC43
:1034D00070472DE9F041030000250800E84000286E
:1034E00000F0A880012616FA05F008400200002A24
:1034F00000F09E80DFF874C1280080085CF820008E
:103500000F2715F0030E5FFA8EFE5FEA8E0E17FA94
:103510000EFE1EEA00000400B3F1904F02D15FF0EE
:10352000000E19E05248834202D15FF0010E13E011
:103530005048834202D15FF0020E0DE04E488342B4
:1035400002D15FF0030E07E04C48834202D15FF0E6
:10355000040E01E05FF0070E15F00300C0B280001A
:103560001EFA00FE74452CD14848D0F800E03EEA2F
:10357000020EC0F800E04448D0F800E03EEA020E37
:10358000C0F800E03F48D0F800E03EEA020EC0F884
:1035900000E03B48D0F800E03EEA020EC0F800E050
:1035A00015F00300C0B2800017FA00F004002800F4
:1035B00080085CF82000A043AE465FEA9E0E4CF8FF
:1035C0002E005FF0030C1868AE465FFA8EFE5FEACD
:1035D0004E0E1CFA0EFE5EEA000018602800C008BD
:1035E00003EB800E2800C00803EB8000D0F8208099
:1035F00015F00700C0B28000874038EA0707CEF810
:10360000207098682F00FFB27F001CFA07F7B843BC
:1036100098605868AE4030EA06065E60DE682800B2
:10362000C0B240001CFA00FC36EA0C0CC3F80CC017
:103630006D1C52E7BDE8F081020010690B009BB2DF
:10364000184201D0012000E00020C0B270471300F2
:10365000DBB2002B03D00B009BB2836102E00B00B6
:103660009BB2836270470000601002400800014076
:103670000004004800080048000C00480010004802
:10368000080401400C04014004040140000401400E
:1036900080B5D448D44901605FF4E1314160002134
:1036A00081600021C160002101610C214161002184
:1036B0008161002101620021416201F0B9FC002812
:1036C00001D003F0E0FB01BD80B5C848C8490160E6
:1036D0004FF416514160002181600021C16000213A
:1036E00001610C214161002181610021C161002142
:1036F00001620021416201F09BFC002801D003F02F
:10370000C2FB01BD80B5BB48BB4901604FF41651F7
:103710004160002181600021C160002101610C2114
:103720004161002181610021C1610021016200210C
:10373000416201F07DFC002801D003F0A4FB01BD33
:1037400038B59EB0040014220021684603F09DFBAA
:103750006022002106A803F098FB2068A249884255
:1037600052D1202006900020119006A803F098FB6B
:10377000002801D003F087FBA048016851F0010147
:103780000160006810F00100059005989C480168F0
:1037900051F002010160006810F0020005900598E8
:1037A0004FF440600090022001900120029003201D
:1037B00003900820049069469248FFF7A9FD924DB6
:1037C00092482860042068600020A8600020E8601B
:1037D00080202861002068610020A8610020E86145
:1037E00000202862280003F0CFFD002801D003F05C
:1037F0004AFB6567AC6200220021462004F065F8B0
:10380000462004F077F8ABE020687949884251D12E
:103810000120069000200E9006A803F041FB00282E
:1038200001D003F030FB7A48016851F48041016017
:10383000006810F48040059005987148016851F0C7
:1038400002010160006810F0020005900598C02098
:103850000090022001900020029003200390072096
:10386000049069466748FFF753FD6A4D6A4828602F
:10387000022068600020A8600020E86080202861A5
:10388000002068610020A8610020E8610020286213
:10389000280003F079FD002801D003F0F4FA6567F1
:1038A000AC6200220021252004F00FF8252004F04E
:1038B00021F855E020685049884251D104200690F3
:1038C0000020109006A803F0EBFA002801D003F0C6
:1038D000DAFA5248016851F480210160006810F45E
:1038E0008020059005984648016851F00401016068
:1038F000006810F00400059005984FF440600090B7
:1039000002200190002002900320039007200490E1
:1039100069464348FFF7FCFC424D434828600220BB
:1039200068600020A8600020E860802028610020F6
:1039300068610020A8610020E8610020286228005A
:1039400003F022FD002801D003F09DFA6567AC6208
:1039500000220021272003F0B8FF272003F0CAFF30
:103960001FB030BD10B5040020681F49884210D137
:10397000224801684908490001604FF4406121482C
:10398000FFF7A7FD606F03F06FFD462003F0B9FF5E
:1039900027E02068164988420FD11D48016831F49C
:1039A00080410160C0211748FFF793FD606F03F06D
:1039B0005BFD252003F0A5FF13E020680E49884237
:1039C0000FD11648016831F4802101604FF4406145
:1039D0001348FFF77EFD606F03F046FD272003F0DC
:1039E00090FF10BD10260020008000409826002087
:1039F0000038014020270020004800405C100240B1
:103A00004C10024000040048F02A002080040240CC
:103A100060100240382B002058000240581002402D
:103A200000080048802B00203000024080B5184874
:103A300001F024FA02201749087001BD80B5012267
:103A40001549164801F097FB00220121272003F0B9
:103A50003CFF272003F04EFF01BD704738B504003E
:103A60000B480D490A78036885885A558288521C8C
:103A70008280828840F2FF139A4201D30022828022
:103A80000122064801F077FB01200249087031BD90
:103A9000FC0E00200B2E00200A2E002020270020E4
:103AA00001000800C0B2002801D1012021E0080077
:103AB000C0B2FF2801D10A201BE00800C0B2FE28D6
:103AC00001D1642015E00800C0B2FD2802D14FF4F6
:103AD0007A700EE00800C0B2FC2802D142F21070E9
:103AE00007E00800C0B2FB2802D1DFF8980300E02D
:103AF000012070472DE9F24F8246934600200021B5
:103B00000A260027B046B946009A1588BBF1000F77
:103B100008D5DBF100042D202A0092B20AF8020039
:103B20006D1C00E05C462000002142464B4603F03D
:103B300007FF002901D1002808D0A6FB080106FBD9
:103B4000091107FB081180468946ECE740464946C3
:103B50000A22002303F0F4FE06000F00002F01D11B
:103B6000002E28D02000002132003B0003F0E8FEA8
:103B70003030290089B20AF801006D1CA0465FF0C0
:103B800000092000002132003B0003F0D9FEA6FB13
:103B9000002306FB013307FB0033B8EB020079EB8F
:103BA00003010400300039000A22002303F0C8FE9C
:103BB00006000F00D2E7009805802800C0B2BDE8DB
:103BC000F28F2DE9FE4F06000F0090460020ADF861
:103BD00000000020002400215FF0000BB7F80090E7
:103BE000B8F1000F02D5D8F1000500E04546424685
:103BF00039003000FFF77EFFB7F800A0002D4FD04E
:103C00009DF80800FFF74CFF01008D4205D20A2005
:103C100045431BF1010B002DF7D15846C0B20028D7
:103C200021D050460200D2B2324412F8012C2D2A83
:103C300006D00200D2B24B4692B29BB29A4208D151
:103C400030220300DBB2F2541AF1010ABBF1010B7E
:103C5000E3E70200D2B2324412F8012C0300DBB2D7
:103C6000F254401EDEE70A20B1FBF0F450468346D2
:103C7000002C15D00A20B4FBF0F45846C0B23044F2
:103C800010F8010C5946C9B27054BBF1010B002C5D
:103C9000EED12E205946C9B270541AF1010AE7E755
:103CA000A7F800A05046C0B2BDE8FE8FF0B4049C57
:103CB00000252E00B6B2A6420BD20E88771C0F80CC
:103CC0002F00BFB217FA83F7D75DB6B287556D1CC8
:103CD000EFE7F0BC704700002DE9F34F81B02DED08
:103CE000028B9FED658A002401250026F7EE008AED
:103CF00000273800C0B2202864DA0398F84010F09A
:103D0000010004003800C0B2172829DA18EE900A22
:103D100002F072F982468B462000C0B203F028FF01
:103D2000804689463800C0B2D0F117005FF0FF31FD
:103D3000484303F02BFF41EC110B9FED500B02F0B9
:103D400088F951EC100B42464B4603F031FF5246C6
:103D50005B4603F0FFFF02F089F908EE900A2FE0BE
:103D60003800C0B21F2824DA3000C0B203F000FFD0
:103D700082468B462000C0B203F0FAFE8046894698
:103D80003800C0B2173803F001FF41EC110B9FED72
:103D90003B0B02F05EF951EC100B42464B4603F030
:103DA00007FF52465B4603F0D5FF04F091F806008A
:103DB00006E02000C0B2012802D15FF0FF3005000C
:103DC0007F1C96E7280040B203F0E0FE804689465B
:103DD0003000C0B27F3803F0D9FE41EC110B9FEDEB
:103DE000270B02F036F951EC100B42464B4603F01C
:103DF000DFFE8046894618EE900A02F0FDF8424642
:103E00004B4603F0D5FE02F031F900EE100A04989B
:103E100080ED000ABDEC028BBDE8F78F70B40300A3
:103E200000220024002000252A000E00D2B2F6B2A3
:103E3000B2421FD22A00D2B29A5C302A0ADB2A0090
:103E4000D2B29A5C3A2A05DA2A00D2B29A5C303AA7
:103E5000140001E0002214002A00D2B2002A03D18B
:103E60002200D2B2100003E00A22504350FA84F03C
:103E70006D1CD9E770BC7047000000000000000016
:103E800000000040A086010010B42DED010A0020C2
:103E90006A460023042B07D2D45C1900C9B2C900BA
:103EA0008C4020435B1CF5E712BC704738B50022FC
:103EB0004FF40071DFF83C0CFFF7C9FB00224FF410
:103EC00000715FF09040FFF7C2FB04F01FF8DFF8CD
:103ED000280CDFF8D81C0163DFF8D41C421CC1F8A1
:103EE0005821021DC1F8702110F114020A62027AF1
:103EF00081F8252010F11C028A63427A81F83D2066
:103F000010F12002C1F8D024027A81F8D52410F1F2
:103F10002402C1F8E824427A81F8ED2410F1280245
:103F2000C1F83025827A81F8352510F12C02C1F8CC
:103F30004825827A81F84D2510F13402C1F87825A0
:103F4000C27A81F87D2510F13802C1F89025C27A35
:103F500081F8952510F13C02C1F8A825C27A81F8B4
:103F6000AD2510F14002C1F8C025C27A81F8C525FF
:103F7000DFF8942C1268C1F80826DFF8842D126847
:103F8000C1F8382610F14402C1F8E821037A81F81B
:103F9000ED3110F14803C1F80032047A81F805428E
:103FA00010F14C04C1F81842057A81F81D5210F145
:103FB0005005C1F84852057A81F84D5210F1540568
:103FC000C1F86052057A81F86552C1F8A822027AD8
:103FD00081F8AD22C1F8C032027A81F8C522C1F859
:103FE000D842027A81F8DD2210F18002C1F8F02275
:103FF000027A81F8F52210F18402C1F80823027ACE
:1040000081F80D2310F15802C1F85023027A81F88B
:10401000552310F15C02C1F86823027A81F86D2300
:1040200010F16002C1F88023027A81F8852310F133
:104030006402C1F8B023027A81F8B52310F1680256
:10404000C1F8C823027A81F8CD2310F16C02C1F8BF
:104050001024027A81F8152410F17002C1F8282486
:10406000027A81F82D2410F17402C1F84024027AFA
:1040700081F8452410F17802C1F87024027A81F8A1
:10408000752410F17C02C1F88824007A81F88D042F
:1040900031BD38B5002000242000C0B2072835DA31
:1040A000DFF8C05C2000C0B200012844407801283D
:1040B0002AD12000C0B200012844406800280ED058
:1040C00002F07CFE2100C9B2090129444968401A66
:1040D0002100C9B2090129448968884214D300200B
:1040E0002100C9B209012944487002F067FE21008D
:1040F000C9B20901294448602000C0B22100C9B2F8
:1041000009012944C9688847641CC5E7002032BDFD
:1041100038B50400DFF8EC5B687800281FD1002276
:104120004FF40071DFF8CC09FFF791FA00224FF449
:1041300000715FF09040FFF78AFA03F0E7FE8920F4
:104140000090202307220521DFF81C0C03F036FF26
:10415000012068700221DFF80C0CFEF7B7FE012089
:1041600032BD7CB50400DFF8045C2878002803D059
:10417000022823D003D33DE004F068F83AE004F0CD
:10418000DBF889200090202307220521DFF8D80BD7
:1041900003F014FFDFF8D82B03212C2004F028F8BB
:1041A000DFF8D02B0421082004F022F804F021F9D4
:1041B00041F28830DFF8AC1B88611BE00120DFF89A
:1041C000441B487089200090202307220521DFF836
:1041D000980B03F0F3FEDFF88C6B02213000FEF742
:1041E00075FE03213000FEF771FE04213000FEF75A
:1041F0006DFEFFE72878401C28702100C9B2DFF867
:10420000640BFEF772FE012076BD70B5040000F06D
:10421000BCF8DFF8F05A6878012803D1A87800F0DC
:10422000C9FC04E00021DFF83C0BFEF74FFEDFF88D
:10423000480BA9780278914207D0A9780170DFF87D
:10424000400B0068DFF83C1B0860A8780E2812D1EC
:10425000DFF8306B4FF4FA61306800F0C7FD0128D9
:1042600009D1DFF81C0B00683060062215F1080147
:10427000A81C00F063FE2100C9B2DFF8E80AFEF7CF
:1042800034FE012070BD10B50400DFF8001BDFF81C
:10429000000B006900F0AAFD012827D1DFF8F40A1D
:1042A0000178012905D1002101700020DFF8541A9E
:1042B0008870DFF8E40A0188491C018042F210711D
:1042C000DFF8A02A2300DBB21B011A449268B1FB7D
:1042D000F2F102888A420DD300210180DFF8241A0E
:1042E0008878002806D00020887003E00120DFF8DD
:1042F000A41A08702100C9B2DFF8680AFEF7F5FDBC
:10430000012010BD38B5040004F0F9F8DFF8805A38
:10431000287A012808D10521DFF8480AFEF7D6FDE2
:10432000DFF85C0A006828612100C9B2DFF8340AAE
:10433000FEF7DBFD012032BD10B5040004F0C6F825
:10434000DFF84C0A0021017000210172012010BD2C
:1043500010B5040000224FF40051DFF89807FFF772
:1043600076F9012010BD10B5040001224FF4005170
:10437000DFF88007FFF76BF9DFF8E809210089B261
:1043800081660621FEF7B1FD10BD70B5DFF8684704
:10439000DFF8080A216B097850F82100DFF81018BF
:1043A000C1F81805DFF8F80901786170DFF8F41931
:1043B000407851F820006060207AFFF771FB00EE32
:1043C000100ADFF8E459B8EE400AD5ED020A20EEF3
:1043D000200ABDEEC00A84ED030A607AFFF760FB95
:1043E00000EE100AB8EE400AD5ED040A20EE200ACD
:1043F000BDEEC00A84ED040A207AFFF751FB00EEFF
:10440000100AB8EE400AD5ED050A20EE200ABDEEEE
:10441000C00A84ED050A207AFFF742FB00EE100A7D
:10442000B8EE400AD5ED060A20EE200ABDEEC00A1D
:1044300084ED060A607AFFF733FB00EE100AB8EE4F
:10444000400AD5ED080A20EE200ABDEEC00A84ED30
:10445000070A207AFFF724FB00EE100AB8EE400AA4
:10446000D5ED090A20EE200ABDEEC00A84ED080A47
:10447000607AFFF715FB00EE100AB8EE400AD5EDA2
:104480000A0A20EE200ABDEEC00A84ED090AA07ACD
:10449000FFF706FB00EE100ADFF81067B8EE400ADF
:1044A000D6ED020A20EE200ABDEEC00A84ED0A0A0B
:1044B000A07AFFF7F5FA00EE100AB8EE400AD6ED42
:1044C000010A20EE200ABDEEC00A84ED0B0AE07A54
:1044D000FFF7E6FA00EE100ADFF8D068B8EE400AFF
:1044E000D6ED000A20EE200ABDEEC00A84ED0D0ACA
:1044F000E07AFFF7D5FA00EE100AB8EE400AD6EDE2
:10450000010A20EE200ABDEEC00A84ED0E0AE07A10
:10451000FFF7C6FA00EE100AB8EE400AD6ED020A1E
:1045200020EE200ABDEEC00A84ED0F0AE07AFFF704
:10453000B7FA00EE100AB8EE400AD6ED030A20EEF4
:10454000200ABDEEC00A84ED100A207AFFF7A8FA0F
:1045500000EE100AB8EE400AD5ED010A20EE200A5E
:10456000BDEEC00A84ED110A207AFFF799FA00EE39
:10457000100AB8EE400AD5ED0B0A20EE200ABDEE77
:10458000C00A84ED120A207AFFF78AFA00EE100AB8
:10459000B8EE400AD5ED0C0A20EE200ABDEEC00AA6
:1045A00084ED130A207AFFF77BFA00EE100ADFF899
:1045B0000068B8EE400AD6ED000A20EE200ABDEEF3
:1045C000C00A84ED140A207AFFF76AFA00EE100A96
:1045D000B8EE400AD6ED020A20EE200ABDEEC00A6F
:1045E00084ED150A207AFFF75BFA00EE100AB8EEA8
:1045F000400AD5ED020A20EE200ABDEEC00A84ED85
:10460000160A207AFFF74CFA00EE100AB8EE400ABC
:10461000D5ED0D0A20EE200ABDEEC00A84ED170A82
:10462000207AFFF73DFA00EE100AB8EE400AD5ED09
:104630000E0A20EE200ABDEEC00A84ED180A207A88
:10464000FFF72EFA00EE100AB8EE400AD6ED040A83
:1046500020EE200ABDEEC00A84ED190A207AFFF789
:104660001FFA00EE100AB8EE400AD6ED060A20EE58
:10467000200ABDEEC00A84ED1A0A207AFFF710FA6C
:1046800000EE100AB8EE400AD5ED030A20EE200A2B
:10469000BDEEC00A84ED1B0A207AFFF701FA00EE96
:1046A000100AB8EE400AD5ED0F0A20EE200ABDEE42
:1046B000C00A84ED1C0A207AFFF7F2F900EE100A16
:1046C000B8EE400AD5ED100A20EE200ABDEEC00A71
:1046D00084ED1D0A207AFFF7E3F900EE100AB8EE28
:1046E000400AD6ED080A20EE200ABDEEC00A84ED8D
:1046F0001E0A207AFFF7D4F900EE100AB8EE400A3D
:10470000D6ED0A0A20EE200ABDEEC00A84ED1F0A8B
:10471000207AFFF7C5F900EE100ADFF89856B8EED8
:10472000400AD5ED070A20EE200ABDEEC00A84ED4E
:10473000200A207AFFF7B4F900EE100AB8EE400A1A
:10474000D5ED0A0A20EE200ABDEEC00A84ED210A4A
:1047500070BD2DE9F84F8AB006002021002202AC7E
:104760002000FEF7DDFB0024002500208DF8050069
:1047700000208DF806001827DFF834843000C0B21E
:104780007843404490F815903000C0B278434044DC
:104790004068002842D001213000C0B200F0AEF9DC
:1047A00000280ED13000C0B2784340444268300047
:1047B000C0B278434044017D4846C0B203F018FDC2
:1047C0001EE05FF0000A3000C0B278434044406809
:1047D00006F0F0FB5146C9B2814207D2202002A95F
:1047E0005246D2B288541AF1010AECE702AA30000C
:1047F000C0B278434044017D4846C0B203F0F8FCA3
:104800003000C0B278434044406806F0D3FBDFF884
:10481000A8150979491C484310FA89F93000C0B23B
:10482000784340448068002800F03A813000C0B2EC
:1048300078434044007B00280BD002281ED012D3BE
:10484000042830D024D3062845D036D307283ED0BC
:1048500044E03000C0B278434044806800780021D2
:1048600004000D003AE03000C0B278434044806854
:1048700090F90000C11704000D002FE03000C0B215
:104880007843404480680088002104000D0025E042
:104890003000C0B2784340448068B0F90000C117CE
:1048A00004000D001AE03000C0B278434044806834
:1048B0000068002104000D0010E03000C0B2784311
:1048C000404480680068C11704000D0006E0012024
:1048D0008DF8050002E002208DF805009DF8050026
:1048E00000280CD13000C0B278434044407B4042A5
:1048F0000200D2B202A9200000F090FA26E09DF852
:10490000050001281AD13000C0B2784340448068C5
:1049100006F050FB202819D23000C0B27843404442
:10492000806806F047FB020092B23000C0B27843C4
:104930004044816802A800F001FB07E03000C0B2EB
:1049400078434044806800788DF8080002213000E8
:10495000C0B200F0D3F8012823D13000C0B27843B0
:104960004044807DC0B200098DF806009DF8060025
:104970000F2805D0202002A99DF80620885410E0B9
:104980005FF0000A02A806F015FB5146C9B2814249
:1049900007D2202002A95246D2B288541AF1010A45
:1049A000F0E73000C0B201285ED15FF0000A0020BD
:1049B0008DF804003000C0B278434044407B0028AA
:1049C00002D009208DF80400392000902E231522F2
:1049D0000F21DFF8E80306F009FB02A806F0EAFA67
:1049E0008346DFF8D4030079401C00FB0BFB5846DC
:1049F000C0B2022190FBF1F01F280BDA5846C0B27A
:104A0000022190FBF1F0D0F140009DF8041050FA23
:104A100081FA07E05846C0B2D0F15F009DF804105B
:104A200050FA81FA02AA3000C0B278434044007DB7
:104A3000401CC0B2DFF880134979D1EBC001491E98
:104A4000C9B25046C0B206F07BFC5AFA8BF09DF812
:104A50000490B0EB0909892000902023072205214A
:104A6000C14803F0ABFA1BE0892000902023072205
:104A70000521BD4803F0A2FA02AA3000C0B2784373
:104A80004044017D4846C0B203F0B2FB02A806F0E4
:104A900091FAC9490979491C484310FA89F08146BD
:104AA0003000C0B278434044006900281ED0300076
:104AB000C0B2784340448068002817D03000C0B2AC
:104AC000784340448068BE4988420FD03000C0B26D
:104AD0007843404402693000C0B207FB00F708EB9E
:104AE0000700017D4846C0B203F082FB0BB0BDE871
:104AF000F08F0000000800487C000020F8B504009A
:104B00000D002B492200D2B21820424301EB0200D3
:104B1000817D2800C0B201402800C0B2814230D15E
:104B20004FF48A76A74F4FF496712800C0B27043B5
:104B300038442200D2B250F8220000F057F9012880
:104B40002AD12800C0B206FB00F607EB06002100C0
:104B5000C9B28B4A126840F8212045209A492A00A0
:104B6000D2B242430A442300DBB22E00F6B200FB6D
:104B700006F008442100C9B2405CD0F10100D054D5
:104B80000AE091492A00D2B24520424301EB0200DB
:104B90002100C9B2002242548B49EDB24520454361
:104BA00001EB0500E4B2005DF2BD00008C2D002099
:104BB0006801002070B50400002603F0BDFB00F082
:104BC0007AF82000C0B200F080F82000C0B200F0F7
:104BD0009BF80025280080B2452811DA7B492A007D
:104BE00092B21820424301EB0200C07D2100C9B2FD
:104BF000884203D12800C0B2FFF7ABFD6D1CE9E786
:104C000003F0F7FB70BD000078080020F0B442719B
:104C1000C47803792500EDB2AB420AD3F0256B4E80
:104C20002700FFB218235F4306EB07039D75641C42
:104C3000EFE71823654C85785D4325444679AE75CA
:104C4000002904D0857803FB05F323449960F0BC68
:104C500070472DE9F84F0700884691469A460A9E0C
:104C60000B9DDDF830B00D9C87F8008087F801902F
:104C700087F802A0FE703D712200D2B2594638007A
:104C8000FFF7C4FFBDE8F18F10B40100002210004F
:104C9000C0B204280CD21000C0B2085C4C4B140007
:104CA000E4B21B5D984201D0002002E0521CEEE706
:104CB000012010BC704780B50120009008237F229E
:104CC0000821002006F0C0FB01BD10B50400200043
:104CD000C0B2002812D134480078002807D127A29A
:104CE0003A4890F84410782003F082FA06E026A2B1
:104CF000364890F84410782003F07AFA10BD00008E
:104D000004010020542D00200100C9B20D2924D136
:104D100030490978002906D002290ED008D3042989
:104D200015D00FD318E02C49284AC2F8501618E0C5
:104D30002A49264AC2F8501613E02949234AC2F8E4
:104D400050160EE02749214AC2F8501609E02649BC
:104D50001E4AC2F8501604E003E01F491B4AC2F87D
:104D6000501670470C000020B01B0108FF2D0020DA
:104D70005C280108B8230108002E00202000000054
:104D8000E02D0020BC2D00204E00000080EE3600FB
:104D9000E42C0020012E0020F22D002060010020D4
:104DA0004C0F0020B4090020C82B0020642D0020E7
:104DB000482C0020102C0020742D00208819010898
:104DC0004E0F0020041C0020402500206801002018
:104DD0000C0100207C000020100100202001002098
:104DE00030010020400100205001002038B50400AF
:104DF0000D00DFF8FC010168200000F006F8A84271
:104E000001D3012000E0002032BD814204D25FF0D6
:104E1000FF32101A081800E0081A704738B52DED57
:104E2000048B08EE100A0C001500DFED438A280001
:104E3000C0B2FB2810DBB8EEC89A2800C0B24042CE
:104E4000C0B200F08BF829EE009A00212000B0EEED
:104E5000490A00F0B1F80EE0B8EEC89A2800C0B2D6
:104E600000F07CF889EE009A2900C9B22000B0EE6B
:104E7000490A00F0A1F8BDEC048B31BD10B400214B
:104E80000A00838892B29A4206D2002203680C007C
:104E9000A4B21A55491CF3E70022828010BC704767
:104EA00010B4040013005A1E9BB2002B02D02170D4
:104EB000641CF7E710BC704770B504000D001600C5
:104EC000DFF8240100782100C9B2884209D3DFF855
:104ED00024211068002804D0310089B2280012680B
:104EE000904770BD38B504000D00280006F062F848
:104EF000020092B229002000C0B2FFF7DDFF31BDF1
:104F000070B504000D00280006F054F8020092B2BB
:104F100029002000C0B2FFF7CFFFDFF8DC60306867
:104F2000002807D0280006F045F8010089B22800C3
:104F30003268904770BD00000000000030B40400EB
:104F40000D0013005A1E9BB2002B04D02B78237047
:104F50006D1C641CF5E730BC7047000010B5040000
:104F60002000C0B2FB2816DB2000C0B2D0F5807054
:104F700002F00CFE41EC110B9FED200B01F069F8E3
:104F800053EC102B0020194906F0F8FA01F06EF8E6
:104F900000EE100A0FE02000C0B202F0E9FD41EC83
:104FA000110B9FED160B01F054F851EC100B01F0B2
:104FB0005DF800EE100A10BD38B52DED028B82B001
:104FC000B0EE408A04000D0018EE100A01F014F84B
:104FD000CDE900012A000B49200006F0F3FB02B0E6
:104FE000BDEC028B31BD0000500F00200000F03FEF
:104FF000E02D0020E82D0020E42D0020000000001E
:1050000000002440D82B010870B5040001F0D6FE42
:105010000500260016F1010F02D00448007836186A
:1050200001F0CCFE401BB042FAD370BD4F0F002000
:1050300010B50400002C01D1012035E0A069002842
:10504000FFD1E06F002805D1002084F8780020000F
:10505000FEF776FB2420E0672068006840084000E7
:1050600021680860606A002802D0200000F0DEFBA2
:10507000200000F05FFA012801D1012014E020682F
:10508000406830F49040216848602068806830F0C3
:105090002A00216888602068006850F001002168BB
:1050A0000860200000F02FFC10BD2DE9FC47060031
:1050B0000D0017009846F06F202859D1002D03D01D
:1050C000380080B2002801D1012052E00020C6F84B
:1050D00084002120F06701F071FE8146A6F850702F
:1050E000A6F85270B068B0F5805F05D1306900282D
:1050F00002D10024AA4602E02C005FF0000AB6F8B4
:105100005200002822D0CDF800804B46002280219A
:10511000300000F061FC002803D02020F06703205D
:1051200027E0002C08D1BAF80000C005C00D316896
:1051300008851AF1020A03E0207831680885641CAA
:10514000B6F85200401EA6F85200D8E7CDF800800D
:105150004B4600224021300000F03EFC002803D0E6
:105160002020F067032004E02020F067002000E00A
:105170000220BDE8F68770B505000C001600D5F8D2
:105180008000202824D1002C03D0300080B20028D9
:1051900001D101201DE0002028662868DFF8901367
:1051A00088420ED02868406800020AD5286850E876
:1051B000000F50F0806001002A6842E800100028CB
:1051C000F4D1320092B22100280000F054FC00E03B
:1051D000022070BD2DE9F04706003068C7693068CD
:1051E000D0F800803068D0F8089040F60F043C40BA
:1051F000002C0BD1B80609D55FEA886006D5B06EE1
:10520000002802D03000B16E88478FE1002C00F0FA
:10521000AA805FEAC97005D4DFF8080618EA000F13
:1052200000F0A18017F00100C0B200280BD05FEAA7
:10523000C85008D5012031680862D6F8840050F0C3
:105240000100C6F88400B8070DD519F00100C0B2FE
:10525000002808D0022031680862D6F8840050F097
:105260000400C6F8840078070DD519F00100C0B21B
:10527000002808D0042031680862D6F8840050F075
:105280000200C6F88400380710D55FEA886004D4AD
:1052900019F00100C0B2002808D008203168086267
:1052A000D6F8840050F00800C6F8840038050CD504
:1052B0005FEA481009D54FF4006031680862D6F8FB
:1052C000840050F02000C6F88400D6F8840000283E
:1052D00048D0B80608D55FEA886005D5B06E0028CA
:1052E00002D03000B16E8847D6F8840005003068DF
:1052F0008068400602D415F0280F2DD0300000F051
:105300009EFC30688068400622D53068083050E83E
:10531000000F30F040000100306810F1080242E850
:1053200000100028F1D1706F00280DD0DFF8F804CC
:10533000716F8863706F02F077F9002812D0706F78
:10534000716F896B88470DE0300006F095FA09E02F
:10535000300006F091FA05E0300006F08DFA0020EA
:10536000C6F88400E2E0306E012840F0BD80F80607
:1053700040F1BA805FEAC86040F1B6801020316821
:1053800008623068806840066DD5706F0068D0F89C
:1053900004A0504680B2002852D05046B6F85810AB
:1053A00080B288424CD2A6F85AA0706F006800689C
:1053B000800639D4306850E8000F30F48070010066
:1053C000326842E800100028F4D13068083050E814
:1053D000000F400840000100306810F1080242E868
:1053E00000100028F1D13068083050E8000F30F08C
:1053F00040000100306810F1080242E80010002867
:10540000F1D12020C6F8800000203066306850E8D6
:10541000000F30F010000100326842E80010002850
:10542000F4D1706F02F0D6F802207066B6F858100A
:10543000B6F85A00091A89B2300006F0FEF911E0F8
:105440005046B6F8581080B288420BD1706F006891
:105450000068800606D502207066B6F85810300045
:1054600006F0EBF962E0B6F85800B6F85AA0B0EBD7
:105470000A0AB6F85A00002835D0504680B20028F3
:1054800031D0306850E8000F30F49070010032687D
:1054900042E800100028F4D13068083050E8000FCE
:1054A000400840000100306810F1080242E8001096
:1054B0000028F1D12020C6F88000002030660020AE
:1054C000B066306850E8000F30F01000010032681C
:1054D00042E800100028F4D102207066514689B2DB
:1054E000300006F0AAF921E0F8020AD55FEA492067
:1054F00007D55FF4801031680862300006F04EFA7C
:1055000014E0380609D55FEA086006D5F06E002879
:1055100002D03000F16E884708E0780606D55FEAD1
:10552000486003D5300000F054FCFFE7BDE8F08789
:10553000008000402DE9F04704000026DFF8A8199C
:1055400020688842FFD0A268206902436069024354
:10555000E069024320680368DFF8900903401343C1
:10556000206803602068436833F44053E0680343D5
:1055700020684360D4F818802068884202D0206AEE
:1055800050EA08082068806830F4306058EA00006B
:10559000226890602068DFF8482A904216D1DFF830
:1055A000440A006810F00300002805D0022805D046
:1055B00006D3032806D007E0012760E002275EE05B
:1055C00004275CE008275AE0102758E02068DFF83D
:1055D000182A904217D1DFF80C0A006810F00C006E
:1055E000002806D0042808D0082804D00C2806D0AB
:1055F00007E0002743E0022741E004273FE00827B7
:105600003DE010273BE02068DFF8E029904217D109
:10561000DFF8D009006810F03000002806D010280C
:1056200008D0202804D0302806D007E0002726E044
:10563000022724E0042722E0082720E010271EE0AC
:10564000206888421AD1DFF89C09006810F4406095
:10565000002809D0B0F5806F0AD0B0F5006F05D0F2
:10566000B0F5406F06D007E0002708E0022706E00B
:10567000042704E0082702E0102700E01027206834
:10568000884246D13800C0B2002806D0022808D08F
:10569000042809D008280BD00DE006F0EFFD814664
:1056A0000DE0DFF84C990AE006F07BFD814606E04C
:1056B0004FF4004903E05FF0000901200600B9F152
:1056C000000F00F0A580616803204143894505D3A0
:1056D00061684FF480504143494502D201200600E1
:1056E00096E04FF48072606840080021E2FB0901F7
:1056F0006268002302F024F90500B5F5407F05D368
:10570000B5F5801F02D22068C56081E00120060047
:105710007EE0E069B0F5004F41D13800C0B200280A
:1057200008D001280AD002280CD004280DD008285F
:105730000FD011E006F0A2FD814611E006F0ABFDAE
:1057400081460DE0DFF8A8980AE006F02AFD8146C0
:1057500006E04FF4004903E05FF000090120060075
:10576000B9F1000F54D06068400810EB490061683F
:10577000B0FBF1F00500102D0ED3B5F5803F0BD234
:105780004FF6F0712940C5F3420001438A46504666
:1057900080B22168C8603BE00120060038E0380094
:1057A000C0B2002808D001280AD002280CD0042852
:1057B0000DD008280FD011E006F060FD814611E001
:1057C00006F069FD81460DE0DFF824980AE006F056
:1057D000E8FC814606E04FF4004903E05FF0000971
:1057E00001200600B9F1000F12D0606819EB5000DB
:1057F0006168B0FBF1F00500102D07D3B5F5803FCF
:1058000004D2280080B22168C86001E001200600AF
:105810000020A0660020E0663000C0B2BDE8F0873E
:105820000000000020010004B95D000890F8241079
:10583000090707D501684A6832F40042416B0A4300
:1058400001684A6090F82410C90707D501684A68C2
:1058500032F40032816A0A4301684A6090F82410E9
:10586000890707D501684A6832F48032C16A0A4361
:1058700001684A6090F82410490707D501684A6812
:1058800032F48022016B0A4301684A6090F82410C8
:10589000C90607D501688A6832F48052816B0A43D1
:1058A00001688A6090F82410890607D501688A6823
:1058B00032F40052C16B0A4301688A6090F82410E8
:1058C000490613D501684A6832F48012016C0A4314
:1058D00001684A60016CB1F5801F07D101684A6810
:1058E00032F4C002416C0A4301684A6090F8241007
:1058F000090607D501684A6832F40022816C0A4320
:1059000001684A60704738B504000020C4F884007C
:1059100001F054FA05002068006800071DD57FF0EB
:105920007E4000902B0000225FF40011200000F068
:1059300053F8002811D0206850E8000F30F08000A4
:105940000100226842E800100028F4D12020E0671E
:10595000002084F8780003203DE0206800684007BC
:105960002CD57FF07E4000902B0000225FF4800158
:10597000200000F031F8002820D0206850E8000F07
:1059800030F490700100226842E800100028F4D141
:105990002068083050E8000F4008400001002068EF
:1059A00010F1080242E800100028F1D12020C4F8CC
:1059B0008000002084F8780003200CE02020E067BD
:1059C0002020C4F8800000202066002060660020AF
:1059D00084F87800002032BD2DE9F04105000E006A
:1059E00090461F00069C2868C0693040B04201D133
:1059F000012000E000204146C9B2884238D114F1AC
:105A0000010FF0D001F0DAF9C01B844201D3002C61
:105A100001D103202DE0286800684007E3D5802EDF
:105A2000E1D0402EDFD02868C06900070DD50820DE
:105A300029680862280000F002F90820C5F88400EF
:105A4000002085F87800012013E02868C06900056F
:105A5000C9D54FF4006029680862280000F0EFF80B
:105A60002020C5F88400002085F87800032000E09D
:105A70000020BDE8F08130B403005965A3F8582038
:105A8000A3F85A20002098669868B0F5805F0BD183
:105A90001869002804D140F2FF10A3F85C0023E04D
:105AA000FF20A3F85C001FE0986800280AD118695D
:105AB000002803D1FF20A3F85C0015E07F20A3F8A5
:105AC0005C0011E09868B0F1805F0AD11869002885
:105AD00003D17F20A3F85C0006E03F20A3F85C0020
