:020000040800F2
:10000000303200208D220108E91B0108EB1B01089A
:10001000ED1B0108EF1B0108F11B010800000000A7
:10002000000000000000000000000000F31B0108B9
:10003000F51B010800000000F71B0108F91B01086F
:100040001127010815270108192701081D27010894
:100050002127010825270108292701082D27010844
:100060003127010835270108392701083D270108F4
:1000700041270108491C010845270108531C0108B4
:10008000492701084D270108512701085527010874
:10009000592701085D270108612701086527010824
:1000A000692701086D2701087127010875270108D4
:1000B0007927010800000000000000007D270108EA
:1000C0008127010885270108892701088D27010854
:1000D000912701085D1C010895270108671C01088C
:1000E00099270108711C01080000000000000000B1
:1000F0000000000000000000000000000000000000
:10010000000000009D27010800000000A127010851
:100110000000000000000000A5270108A927010831
:10012000AD270108B1270108B5270108B927010843
:10013000BD270108000000000000000000000000D2
:10014000C1270108C5270108C9270108CD270108D3
:10015000D12701087B1C0108851C0108D52701084F
:10016000D9270108DD270108E12701080000000068
:10017000E5270108E9270108ED2701080000000034
:10018000F1270108F5270108F927010880B5514832
:100190000078012806D0022807D0042808D00828B3
:1001A00009D00BE000F0A2F808E001F049FB05E0FF
:1001B00001F0D2FD02E002F069F8FFE701BD2DE990
:1001C000F0470024444D2888002804D02888401E89
:1001D000288000207CE03F4E307A002877D1202113
:1001E0003E4802F0B9FE002801D1012700E00027B7
:1001F000DFF8EC800421404602F0AEFE002802D178
:100200005FF0010901E05FF000090221404602F0C1
:10021000A3FE002802D15FF0010A01E05FF0000AAE
:100220000121404602F098FE002801D1012000E0A3
:10023000002057EA490757EA8A073C0054EAC004FD
:100240002000C0B2012805D0022803D0042801D024
:10025000082834D17068401C7060706850282DD315
:100260003470012030721F490868142801D2192007
:1002700028801D4822000378D2B29A4219D10A6818
:10028000521C0A600A681E2A02D20021716014E022
:100290000A68B42A02D2412171600EE00A68F02A8D
:1002A00002D24621716008E04E227260F0220A609C
:1002B00003E00022726000220A60047007E0002060
:1002C00009490870282070600020064908603078CD
:1002D000BDE8F087242D00200C2E002000080048E7
:1002E00000040048BC2D00201A2E0020F8B52DED8A
:1002F000028B84B0DFF8584AA078002823D0012868
:1003000046D0022876D0032800F00781042800F0A8
:100310008B81052800F0BC81062800F0A582072803
:1003200000F04983082800F02D84092800F0148586
:100330000A2800F097850B2800F062860D2800F04F
:10034000658701F074BADFF8D45B0020E860DFF85D
:10035000046A0A220021300002F084FE302030704E
:10036000302070703020B0703020F070E8680001EC
:10037000801CC0B2039002960520019004200090DA
:10038000052300220121A01C03F0F3FD01F04FBA68
:10039000DFF8880BC168491CC160C16804291EDBF5
:1003A000DFF8B00903F000FE012815D1A51C0622D4
:1003B000290014F1080002F0A3FEF12003900020B0
:1003C00002900C20019007200090072300220221B8
:1003D000280003F0CEFD0BE00020A07008E0C0680C
:1003E0000001801C0200D2B20021A01C03F09EFD7F
:1003F00001F01DBA207907280AD0C0F08C800928A6
:1004000032D01BD30B285BD044D30C286ED082E0B3
:10041000A51C0622290014F1080002F071FEF1204B
:100420000390002002900F2001900E2000900E23D8
:1004300000220321280003F09CFD6CE0A51C06228D
:10044000290014F1080002F05BFEF1200390002067
:10045000029012200190112000901123002204210B
:10046000280003F086FD56E0A51C0622290014F1A1
:10047000080002F045FEF120039000200290342095
:10048000019033200090332300220921280003F03B
:1004900070FD40E0A51C0622290014F1080002F0BE
:1004A0002FFEF1200390002002903820019036208A
:1004B0000090362300220A21280003F05AFD2AE08A
:1004C000A51C0622290014F1080002F019FEF120F3
:1004D0000390002002903D2001903A2000903A23A2
:1004E00000220B21280003F044FD14E0A51C062285
:1004F000290014F1080002F003FE00200390002000
:1005000002904020019040200090402300220C21C6
:10051000280003F02EFD01F08AB920790E2802D0C0
:100520000F2840D07EE0E078002802D001281FD0BC
:1005300038E0A61C0622310014F1080002F0E0FDAC
:10054000DFF8D859F220039015F10C0002900F202B
:1005500001900E2000900E23E278521CD2B20321AB
:10056000300003F006FDDFF8380D4078E86019E050
:10057000A51C0622290014F1080002F0C1FDF0209C
:1005800003900020029043200190432000904323D9
:1005900000220D21280003F0ECFC0120DFF8001DF3
:1005A0000870FFE73EE0E078002802D001281FD065
:1005B00038E0A61C0622310014F1080002F0A0FD6C
:1005C000DFF85859F220039015F10C0002900F202B
:1005D00001900F2000900F23E278521CD2B2032129
:1005E000300003F0C6FCDFF8B80C4068E86019E0A2
:1005F000A51C0622290014F1080002F081FDF0205C
:100600000390002002904320019043200090432358
:1006100000220D21280003F0ACFC0120DFF8801C33
:100620000870FFE701F003B92079112802D01228E1
:1006300016D02BE0A51C0622290014F1080002F0B8
:100640005FFDF1200390002002901A2001901720F6
:100650000090172300220521280003F08AFC15E0F2
:10066000A51C0622290014F1080002F049FDF12022
:10067000039000200290292001902620009026233C
:1006800000220721280003F074FCFFE701F0CFB837
:100690002079172808D0C0F0E58019286FD029D319
:1006A0001A2800F0AC80DDE0A51C0622290014F118
:1006B000080002F025FDF020039000200290432066
:1006C000019043200090432300220D21280003F0D5
:1006D00050FCDFF8D00B5FF07E510160DFF8C81BE3
:1006E00000220A60D1ED000A90ED000A062004F015
:1006F000E5FBB7E0E078002802D0012824D03DE0F7
:10070000A61C0622310014F1080002F0F9FCDFF803
:100710000C58F220039015F10C0002901A20019061
:10072000172000901823E278521CD2B20521300025
:1007300003F01FFCDFF8680B006DE860E868002834
:1007400001D10120E86019E0A51C0622290014F15E
:10075000080002F0D5FCF020039000200290432016
:10076000019043200090432300220D21280003F034
:1007700000FC0120DFF8281B0870FFE772E0E0783A
:10078000002802D001281FD038E0A61C0622310024
:1007900014F1080002F0B4FCDFF88057F220039057
:1007A00015F10C0002901A200190172000901923D7
:1007B000E278521CD2B20521300003F0DAFBDFF8F8
:1007C000E00A406DE86019E0A51C0622290014F13A
:1007D000080002F095FCF0200390002002904320D6
:1007E000019043200090432300220D21280003F0B4
:1007F000C0FB0120DFF8A81A0870FFE732E0A51C53
:100800000622290014F1080002F07AFCF02003907F
:1008100000200290432001904320009043230022B7
:100820000D21280003F0A5FBDFF8784A5FF07E5029
:100830002060DFF8745A00202860DFF8702C29004F
:100840002000D2ED031A92ED021AD2ED010A92EDC8
:10085000000A04F0EDFBD5ED000A94ED000A062035
:1008600004F02CFB00F0E3BF20791F2806D0C0F075
:10087000A080212800F0848041D39AE0E07800280D
:1008800002D0012820D039E0A61C0622310014F144
:10089000080002F035FCDFF88456F220039015F1D1
:1008A0000C000290212001901F2000901F23E2786D
:1008B000521CD2B20621300003F05BFBDFF8E009E6
:1008C000D0F88000E86019E0A51C0622290014F188
:1008D000080002F015FCF020039000200290432055
:1008E000019043200090432300220D21280003F0B3
:1008F00040FB0120DFF8A8190870FFE759E0E07815
:10090000002802D0012820D039E0A61C06223100A0
:1009100014F1080002F0F4FBDFF80056F220039017
:1009200015F10C000290212001901F20009020233F
:10093000E278521CD2B20621300003F01AFBDFF835
:100940006009D0F88400E86019E0A51C062229009F
:1009500014F1080002F0D4FBF02003900020029074
:100960004320019043200090432300220D212800C2
:1009700003F0FFFA0120DFF828190870FFE718E0FC
:10098000A51C0622290014F1080002F0B9FBF02092
:1009900003900020029043200190432000904323C5
:1009A00000220D21280003F0E4FA0120DFF8F018FE
:1009B000087000F03CBF2079262808D0C0F0E08005
:1009C00028286AD029D3292800F0A780D8E0A51CC0
:1009D0000622290014F1080002F092FBF020039097
:1009E00000200290432001904320009043230022E6
:1009F0000D21280003F0BDFADFF8A8085FF07E5152
:100A00000160DFF8A41800220A60D1ED000A90ED21
:100A1000000A072004F052FAB2E0E078002802D081
:100A200001281FD038E0A61C0622310014F108006E
:100A300002F066FBDFF8E454F220039015F10C009D
:100A4000029029200190262000902723E278521C52
:100A5000D2B20721300003F08CFADFF84408406E70
:100A6000E86019E0A51C0622290014F1080002F034
:100A700047FBF02003900020029043200190432088
:100A80000090432300220D21280003F072FA012078
:100A9000DFF80C180870FFE772E0E078002802D059
:100AA00001281FD038E0A61C0622310014F10800EE
:100AB00002F026FBDFF86454F220039015F10C00DD
:100AC000029029200190262000902823E278521CD1
:100AD000D2B20721300003F04CFADFF8C407806E71
:100AE000E86019E0A51C0622290014F1080002F0B4
:100AF00007FBF02003900020029043200190432048
:100B00000090432300220D21280003F032FA012037
:100B1000DFF88C170870FFE732E0A51C06222900D9
:100B200014F1080002F0ECFAF0200390002002908B
:100B30004320019043200090432300220D212800F0
:100B400003F017FADFF85C475FF07E502060DFF8B3
:100B5000585700202860DFF8542929002000D2EDE2
:100B6000071A92ED061AD2ED050A92ED040A04F076
:100B700043FAD5ED000A94ED000A072004F09EF92F
:100B800000F055BE20792E2808D0C0F0DE80302835
:100B900069D029D3312800F0A580D6E0A51C062213
:100BA000290014F1080002F0ABFAF02003900020B5
:100BB00002904320019043200090432300220D2106
:100BC000280003F0D6F9DFF8DC065FF07E51016003
:100BD000DFF8D41600220A60D1ED000A90ED000A79
:100BE000082004F06BF9B0E0E078002802D001287A
:100BF0001ED037E0A61C0622310014F1080002F0D6
:100C00007FFAC64DF220039015F10C0002903120BE
:100C100001902E2000902F23E278521CD2B208219E
:100C2000300003F0A6F9DFF87806806FE86019E07D
:100C3000A51C0622290014F1080002F061FAF02038
:100C40000390002002904320019043200090432312
:100C500000220D21280003F08CF90120DFF8401656
:100C60000870FFE771E0E078002802D001281ED06C
:100C700037E0A61C0622310014F1080002F040FA09
:100C8000A64DF220039015F10C0002903120019046
:100C90002E2000903023E278521CD2B2082130007E
:100CA00003F067F9DFF8F805C06FE86019E0A51CEC
:100CB0000622290014F1080002F022FAF020039025
:100CC0000020029043200190432000904323002203
:100CD0000D21280003F04DF90120DFF8C41508703C
:100CE000FFE732E0A51C0622290014F1080002F0FB
:100CF00007FAF02003900020029043200190432047
:100D00000090432300220D21280003F032F9DFF880
:100D100094455FF07E502060DFF88C5500202860FD
:100D2000DFF8882729002000D2ED0B1A92ED0A1A6D
:100D3000D2ED090A92ED080A04F05EF9D5ED000A39
:100D400094ED000A082004F0B9F800F070BD00BF6F
:100D50006C2D0020000000202079332802D0342898
:100D60003FD07DE0E078002802D001281ED037E097
:100D7000A61C0622310014F1080002F0C1F9674DEB
:100D8000F220039015F10C000290342001903320E2
:100D900000903323E278521CD2B20921300003F0D4
:100DA000E8F8DFF8FC04006AE86019E0A51C0622F8
:100DB000290014F1080002F0A3F9F02003900020AC
:100DC00002904320019043200090432300220D21F4
:100DD000280003F0CEF80120DFF8C4140870FFE704
:100DE0003EE0E078002802D001281ED037E0A61CA3
:100DF0000622310014F1080002F082F9474DF2207A
:100E0000039015F10C0002903420019033200090E3
:100E10003423E278521CD2B20921300003F0A9F841
:100E2000DFF87C04406AE86019E0A51C062229006E
:100E300014F1080002F064F9F02003900020029001
:100E40004320019043200090432300220D212800DD
:100E500003F08FF80120DFF848140870FFE7FFE780
:100E600000F0E5BC2079362806D0C0F0C7803828CD
:100E700000F0868042D3C1E0E078002802D001284B
:100E800021D03AE0A71C0622390014F1080002F034
:100E900037F9224D15F10C06F22003900296382006
:100EA0000190362000903623E278521CD2B20A21FB
:100EB000380003F05EF8DFF880090078E860DFF8BA
:100EC000E003066319E0A51C0622290014F10800BE
:100ED00002F016F9F02003900020029043200190C8
:100EE00043200090432300220D21280003F041F805
:100EF0000120DFF8AC130870FFE77FE0E0780028FE
:100F000002D0012822D03AE0A61C0622310014F1BA
:100F1000080002F0F5F8014D02E000BF242D00208A
:100F2000F220039015F10C00029038200190362039
:100F300000903723E278521CD2B20A21300003F02D
:100F400018F8DFF85C03806AE86018E0A51C062248
:100F5000290014F1080002F0D3F8F02003900020DB
:100F600002904320019043200090432300220D2152
:100F7000280002F0FEFF0120C9490870FFE73DE0AC
:100F8000E078002802D001281ED036E0A61C0622F8
:100F9000310014F1080002F0B3F8DFF8A058F22095
:100FA000039015F10C00029038200190362000903B
:100FB0003823E278521CD2B20A21300002F0D9FF65
:100FC000B748C06AE86018E0A51C0622290014F1A1
:100FD000080002F095F8F0200390002002904320D2
:100FE000019043200090432300220D21280002F0AD
:100FF000C0FF0120AA490870FFE7FFE700F017BC17
:1010000020793A2809D0C0F000813C2800F0818086
:1010100041D33D2800F0BB80F7E0E078002802D003
:1010200001281ED036E0A61C0622310014F108006B
:1010300002F066F8DFF80458F220039015F10C0076
:1010400002903D2001903A2000903A23E278521C11
:10105000D2B20B21300002F08CFF9148406BE86067
:1010600018E0A51C0622290014F1080002F048F837
:10107000F020039000200290432001904320009034
:10108000432300220D21280002F073FF0120844930
:101090000870FFE7B9E0E078002802D001281ED0F0
:1010A00036E0A61C0622310014F1080002F028F8F0
:1010B000DFF88857F220039015F10C0002903D20D4
:1010C00001903A2000903B23E278521CD2B20B21CF
:1010D000300002F04EFF7248806BE86018E0A51CFB
:1010E0000622290014F1080002F00AF8F02003900B
:1010F00000200290432001904320009043230022CF
:101100000D21280002F035FF012065490870FFE736
:101110007BE0E078002802D001281ED036E0A61C33
:101120000622310014F1080001F0EAFFDFF80C5745
:10113000F220039015F10C0002903D2001903A201E
:1011400000903C23E278521CD2B20B21300002F016
:1011500010FF5348C06BE86018E0A51C0622290068
:1011600014F1080001F0CCFFF02003900020029061
:101170004320019043200090432300220D212800AA
:1011800002F0F7FE012046490870FFE73DE0E078F5
:10119000002802D001281ED036E0A61C062231000D
:1011A00014F1080001F0ACFFDFF89056F220039034
:1011B00015F10C0002903D2001903A2000903D2353
:1011C000E278521CD2B20B21300002F0D2FE344839
:1011D000006CE86018E0A51C0622290014F1080044
:1011E00001F08EFFF0200390002002904320019038
:1011F00043200090432300220D21280002F0B9FE75
:10120000012027490870FFE7FFE710E3207A032851
:1012100013D0052800F04D81062800F00982072828
:1012200000F06282082800F0B08209283FD00A2826
:1012300077D00B2800F0C080F8E2322002F023FAC9
:10124000032017490870A07A0E2802D00F280AD070
:101250002CE0DFF8E80A4178DFF8E005C068C0B2AA
:1012600005F0CFFF22E000200100C9B20B2910DAFF
:10127000DFF8CC1A0200D2B251F82210DFF8BC25F8
:10128000D268914203D1DFF8B41A487001E0401CE3
:10129000EAE7DFF8A80A4178007805F0B2FF05E038
:1012A0007C000020C02D0020C42D0020BEE2DFF80D
:1012B000945A03202870322002F0E5F9A07A3328EE
:1012C00002D0342816D02BE0287A06F0ABF900EED5
:1012D000100ADFF8740AD0ED0A0ADFF8600590ED15
:1012E000031AB8EEC11AB8EE400A81EE000A03F004
:1012F00029FF15E0687A06F095F900EE100ADFF88C
:101300003C05D0ED030AF8EEE00AB8EE400AC0EE64
:10131000800ADFF8340A90ED090A03F013FFFFE7B3
:1013200084E2DFF8205A03202870322002F0ABF963
:10133000A07A362804D03ED3382825D00DD33AE001
:10134000DFF8F404D0ED020A90ED010ADFF8EC04B6
:10135000C068C0B203F0A2FF2DE0A87A06F062F9DF
:1013600000EE100ADFF8D004DFF8D014D1ED030A44
:10137000F8EEE00AB8EE400AC0EE800A90ED010AED
:10138000007803F08BFF16E0A87A06F04BF900EE28
:10139000100ADFF8A404D0ED020ADFF8A01491EDE2
:1013A000031AB8EEC11AB8EE400A81EE000A0078BE
:1013B00003F074FFFFE739E2DFF888590320287053
:1013C000322002F060F9A07A3A2806D070D33C2887
:1013D00037D01CD33D284ED06AE0E87A06F022F9D7
:1013E00000EE100ADFF86409D0ED031A90ED021A3E
:1013F000D0ED010ADFF8440490ED032AB8EEC22ACA
:10140000B8EE400A82EE000A04F00AF850E0E87AEA
:1014100006F008F900EE100ADFF83009D0ED031AE3
:1014200090ED021ADFF81414D1ED030AF8EEE00A89
:10143000B8EE400AC0EE800A90ED000A03F0F0FF1B
:1014400036E0E87A06F0EEF800EE100ADFF8FC0865
:10145000D0ED031ADFF8E413D1ED030AF8EEE00A49
:10146000B8EE400A80EE801AD0ED010A90ED000A35
:1014700003F0D6FF1CE0E87A06F0D4F800EE100A7C
:10148000DFF8C808DFF8B413D1ED030AF8EEE00A7C
:10149000B8EE400AC0EE801A90ED021AD0ED010AB3
:1014A00090ED000A03F0BCFF02E000BF382C0020E2
:1014B000BCE1A07A172808D0C0F0B980192865D0FF
:1014C00026D31A2800F0A080B1E0DFED860A9FED58
:1014D000850A0021002004F09BFCDFED820A9FEDCD
:1014E000810A0021012004F093FCDFED7E0A9FEDCC
:1014F0007D0A0021022004F08BFCDFED7A0A9FEDCB
:10150000790A0021032004F083FC03F0C1FC8EE083
:10151000DFF8305803202870322002F0B4F8287A1F
:1015200006F080F800EE100AC44CD4ED030AF8EE81
:10153000E00AB8EE400A80EE800A002004F0BEF80F
:10154000DFF8040890ED010A012004F0B7F8287ACA
:1015500006F068F808EE100A287A06F063F800EE44
:10156000100AD4ED030AF8EEE00AB8EE481AC0EE0D
:10157000810A94ED031AB8EEC11AB8EE400A81EE62
:10158000000A0121002004F043FC50E0DFF8B457CA
:1015900003202870322002F076F8287A06F042F80C
:1015A00000EE100AA54CD4ED030AF8EEE00AB8EEFE
:1015B000400A80EE800A022004F080F8DFF88807F5
:1015C00090ED010A032004F079F8287A06F02AF851
:1015D00008EE100A287A06F025F800EE100AD4ED7D
:1015E000030AF8EEE00AB8EE481AC0EE810A94ED5C
:1015F000031AB8EEC11AB8EE400A81EE000A0121C2
:10160000032004F005FC12E0DFED360A9FED350AF9
:101610000021012004F0FCFBDFED320A9FED310ACE
:101620000021022004F0F4FB03F032FCFFE7FDE0B0
:10163000DFF8140790F8450000284ED1322002F060
:1016400022F8DFF8000703210170A17A1F2904D0D6
:1016500042D321292FD017D33EE0007A05F0E2FFD4
:1016600000EE100A7548D0ED030AF8EEE00AB8EE75
:10167000400AC0EE800ADFF8D80690ED000A01218A
:10168000012004F0C5FB2CE0007A05F0CBFF00EE52
:10169000100A6A48D0ED030AF8EEE00AB8EE400AF4
:1016A000C0EE800ADFF8A80690ED000A01210220B2
:1016B00004F0AEFB15E0DFED0B0A9FED0A0A0021F6
:1016C000012004F0A5FBDFED070A9FED060A0021CB
:1016D000022004F09DFB04E003E00420DFF8641620
:1016E0000870A3E000000000A07A262806D04BD3A3
:1016F000282826D005D3292843D045E003F0C8FB8D
:1017000042E0DFF8404603202070322001F0BBFFAA
:10171000207A05F087FF00EE100A4848D0ED030A52
:10172000F8EEE00AB8EE400A80EE800A042003F0EA
:10173000C5FFDFF8140690ED020A052003F0BEFF96
:1017400022E0DFF8004603202070322001F09BFFEA
:10175000207A05F067FF00EE100A3848D0ED030A42
:10176000F8EEE00AB8EE400A80EE800A062003F0A8
:10177000A5FFDFF8D40590ED020A072003F09EFFD5
:1017800002E003F085FBFFE750E0A07A2E2806D0A8
:101790004BD3302826D005D3312843D045E003F081
:1017A00077FB42E0DFF89C4503202070322001F0F7
:1017B0006AFF207A05F036FF00EE100A1F48D0EDD0
:1017C000030AF8EEE00AB8EE400A80EE800A08202C
:1017D00003F074FFDFF8700590ED030A092003F0B1
:1017E0006DFF22E0DFF85C4503202070322001F01D
:1017F0004AFF207A05F016FF00EE100A0F48D0EDE0
:10180000030AF8EEE00AB8EE400A80EE800A0A20E9
:1018100003F054FFDFF8300590ED030A0B2003F0CE
:101820004DFF02E003F034FBFFE7FFE7FFE704B002
:10183000BDEC028BF1BD0000A42D0020242D002062
:101840001FB5DFF81045A078002818D0022828D04E
:1018500016D3042800F0808030D3062800F0F480EE
:10186000C0F0BA80082800F06B81C0F031810A28EE
:1018700000F09E817DD30B2800F0F0815DE25CE2F8
:10188000DFF8F809DFF8F819CA68825C521CCB68E7
:10189000C254CA68825C3A2A02DB3022C9684254C8
:1018A0004BE260792179884202D22079401E207172
:1018B000F1220021A01C02F039FB3EE2E078002872
:1018C0000CD160792179884202D22079401E2071A2
:1018D000F1220021A01C02F029FB3CE020790E2817
:1018E00002D00F2812D036E0E078002802D001287C
:1018F00001D00AE009E0DFF88809C168B1F5807F0E
:1019000002DAC168491CC160FFE724E0E0780028E2
:1019100002D0012801D01EE01DE000210800C0B265
:101920000B2817DADFF81824DFF854090B00DBB2B4
:1019300052F82330C468A3420AD10B00DBB20A2B51
:1019400006DA0B00DBB202EB83025268C26001E0F0
:10195000491CE3E7FFE7F0E160792179884202D290
:101960002079401E2071F1220021A01C02F0DEFA35
:10197000E3E1E07800280CD160792179884202D235
:101980002079401E2071F1220021A01C02F0CEFA25
:1019900021E02079332802D034280ED01BE0E078F3
:1019A000002802D0012801D006E005E0DFF8D008C9
:1019B000C168491CC160FFE70DE0E078002802D053
:1019C000012801D006E005E0DFF8B408C168491C31
:1019D000C160FFE7FFE7B0E1E07800280CD1607953
:1019E0002179884202D22079401E2071F122002103
:1019F000A01C02F09BFA26E02079172806D022D3FB
:101A0000192812D003D31A281DD01CE01BE0E0785F
:101A1000002802D0012801D006E005E0DFF86008C8
:101A2000C168491CC160FFE70DE0E078002802D0E2
:101A3000012801D006E005E0DFF84408C168491C30
:101A4000C160FFE7FFE778E1E07800281BD160790B
:101A50002179884208D22079401E2071F12200218C
:101A6000A01C02F063FA32E0F12003900020029003
:101A70001A200190172000901A2300220521A01C93
:101A800002F077FA23E020791F2804D01FD3212801
:101A90001DD00ED31BE0E078002802D0012801D031
:101AA00006E005E0DFF8D807C168491CC160FFE720
:101AB0000DE0E078002802D0012801D006E005E022
:101AC000DFF8BC07C168491CC160FFE7FFE734E1EC
:101AD000E07800280CD160792179884202D22079FF
:101AE000401E2071F1220021A01C02F01FFA26E006
:101AF0002079262806D022D3282812D003D32928DB
:101B00001DD01CE01BE0E078002802D0012801D0A5
:101B100006E005E0DFF86807C168491CC160FFE71F
:101B20000DE0E078002802D0012801D006E005E0B1
:101B3000DFF84C07C168491CC160FFE7FFE7FCE024
:101B4000E07800280CD160792179884202D220798E
:101B5000401E2071F1220021A01C02F0E7F926E0CE
:101B600020792E2806D022D3302812D003D3312852
:101B70001DD01CE01BE0E078002802D0012801D035
:101B800006E005E0DFF8F806C168491CC160FFE720
:101B90000DE0E078002802D0012801D006E005E041
:101BA000DFF8DC06C168491CC160FFE7FFE7C4E05D
:101BB000E07800280CD160792179884202D220791E
:101BC000401E2071F1220021A01C02F0AFF944E078
:101BD0002079362804D040D338282BD013D33CE0CA
:101BE000E078002802D0012801D00BE00AE0DFF8FD
:101BF0009016C868002802D10120C86001E00020CA
:101C0000C860FFE729E0E078002802D0012801D071
:101C10000FE00EE04B48807A05F004FDDFF8602607
:101C2000D368C8214843834202D2D068401CD060A8
:101C3000FFE712E0E078002802D0012801D00BE095
:101C40000AE0DFF83C06C1683E4A926A914202DA35
:101C5000C168491CC160FFE7FFE76EE0E07800283B
:101C60000CD160792179884202D22079401E2071FE
:101C7000F1220021A01C02F059F95DE020793A28F8
:101C800006D059D33C282DD019D33D2841D053E05C
:101C9000E078002802D0012801D00FE00EE02948AA
:101CA000C07A05F0BFFCDFF8D825D368C8214843C7
:101CB000834202D2D068401CD060FFE73CE0E0786D
:101CC000002802D0012801D00BE00AE0DFF8B005BF
:101CD000C1681C4A526B914202DAC168491CC1605A
:101CE000FFE729E0E078002802D0012801D00FE0CA
:101CF0000EE01448C07A05F095FCDFF88425D3681F
:101D000050214843834202D2D068401CD060FFE794
:101D100012E0E078002802D0012801D00BE00AE0B0
:101D2000DFF85C05C168074AD26B914202DAC168EC
:101D3000491CC160FFE7FFE7FFE71FBD3C0F002024
:101D4000B40900207C000020B82B00207C2D00204E
:101D5000002C00206C2D00201FB5DFF82845A0784E
:101D6000002818D0022828D016D3042800F080803C
:101D700030D3062800F00981C0F0BA80082800F0AE
:101D80007B81C0F03D810A2800F0B2817DD30B2811
:101D900000F0038270E26FE2DFF8E004DFF8E014A5
:101DA000CA68825C521ECB68C254CA68825C302A00
:101DB00002DA3922C96842545EE22079A179884268
:101DC00002D22079401C2071F1220021A01C02F0D7
:101DD000ADF851E2E07800280CD12079A179884251
:101DE00002D22079401C2071F1220021A01C02F0B7
:101DF0009DF83CE020790E2802D00F2811D036E063
:101E0000E078002802D0012801D009E008E0DFF8DE
:101E10007004C168012902DBC168491EC160FFE787
:101E200025E0E078002802D0012801D01FE01EE064
:101E30000A221000C0B2002818D0DFF84C34DFF8B6
:101E400040141000C0B253F82000CC68A0420BD15F
:101E50001000C0B2002807D01000C0B203EB800011
:101E600050F8040CC86001E0521EE2E7FFE703E20D
:101E70002079A179884202D22079401C2071F12278
:101E80000021A01C02F052F8F6E1E07800280CD105
:101E90002079A179884202D22079401C2071F12258
:101EA0000021A01C02F042F821E02079332802D062
:101EB00034280ED01BE0E078002802D0012801D0A1
:101EC00006E005E0DFF8B803C168491EC160FFE71E
:101ED0000DE0E078002802D0012801D006E005E0FE
:101EE000DFF89C03C168491EC160FFE7FFE7C3E15B
:101EF000E07800281BD12079A17988420ED1F12009
:101F0000039000200290212001901F2000901F23A9
:101F100000220621A01C02F02CF835E02079401C9C
:101F20002071F1220021A01C02F000F82CE02079A1
:101F3000172806D028D3192815D003D31A2823D060
:101F400022E021E0E078002802D0012801D009E059
:101F500008E0DFF82C03C168012902DBC168491ED3
:101F6000C160FFE710E0E078002802D0012801D02E
:101F700009E008E0DFF80803C168012902DBC16855
:101F8000491EC160FFE7FFE776E1E07800280CD149
:101F90002079A179884202D22079401C2071F12257
:101FA0000021A01C01F0C2FF29E020791F2804D0E5
:101FB00025D3212823D011D321E0E078002802D0B6
:101FC000012801D009E008E0DFF8B402C168012966
:101FD00002DBC168491EC160FFE710E0E07800281D
:101FE00002D0012801D009E008E0DFF89402C168BE
:101FF000012902DBC168491EC160FFE7FFE73BE141
:10200000E07800280CD12079A179884202D2207989
:10201000401C2071F1220021A01C01F087FF2AE062
:102020002079262806D026D3282814D003D329289F
:1020300021D020E01FE0E078002802D0012801D064
:1020400008E007E08E48C168012902DBC168491E2B
:10205000C160FFE70FE0E078002802D0012801D03E
:1020600008E007E08648C168012902DBC168491E13
:10207000C160FFE7FFE7FFE0E07800280CD120799E
:10208000A179884202D22079401C2071F1220021DE
:10209000A01C01F04BFF2AE020792E2806D026D381
:1020A000302814D003D3312821D020E01FE0E0787D
:1020B000002802D0012801D008E007E07048C1687C
:1020C000012902DBC168491EC160FFE70FE0E0782B
:1020D000002802D0012801D008E007E06848C16864
:1020E000012902DBC168491EC160FFE7FFE7C3E0C9
:1020F000E07800280CD12079A179884202D2207999
:10210000401C2071F1220021A01C01F00FFF43E0D0
:102110002079362804D03FD3382826D012D33BE08C
:10212000E078002802D0012801D00AE009E05449F3
:10213000C868002802D10120C86001E00020C86002
:10214000FFE729E0E078002802D0012801D00BE069
:102150000AE04B48DFF88C1AC96AC268914202DA79
:10216000C168491EC160FFE716E0E078002802D090
:10217000012801D00FE00EE0DFF8680A807A05F050
:1021800051FA3F4A00214843D168884202D2D068C0
:10219000401ED060FFE7FFE76EE0E07800280CD13A
:1021A0002079A179884202D22079401C2071F12245
:1021B0000021A01C01F0BAFE5DE020793A2806D08B
:1021C00059D33C282DD015D33D283DD053E0E0789D
:1021D000002802D0012801D00BE00AE02848DFF8EF
:1021E000041A896BC268914202DAC168491EC16053
:1021F000FFE740E0E078002802D0012801D00FE09E
:102200000EE0DFF8E009C07A05F00CFA1C4A002164
:102210004843D168884202D2D068401ED060FFE7B0
:1022200029E0E078002802D0012801D00BE00AE084
:102230001348DFF8B019096CC268914202DAC1682C
:10224000491EC160FFE716E0E078002802D00128AF
:1022500001D00FE00EE0DFF88C09C07A05F0E2F95A
:10226000074A00214843D168884202D2D068401E04
:10227000D060FFE7FFE7FFE71FBD00000000002080
:10228000242D00206C2D0020B40900207FB5DFF83C
:102290005849A078002822D0012822D0022824D032
:1022A000032826D0042800F09880052800F0B0808C
:1022B000062800F05281072800F0DB81092800F091
:1022C0007D820A2800F0ED820B2800F095830C280F
:1022D00000F073840D2800F0778400F082BC00F0D9
:1022E00080BC0020A07000F07CBC0020A07000F03A
:1022F00078BC20790E2802D00F2836D06BE0E07829
:10230000002802D0012816D02EE0A51CF120039051
:10231000002002900C20019007200090072300224B
:102320000221280001F025FE0622290014F10800F0
:1023300000F0E6FE18E0A51C0622290014F10800B2
:1023400000F0DEFEF1200390DFF8A00802900F20DD
:1023500001900E2000900E23E078421ED2B203219D
:10236000280001F006FEFFE735E0E078002802D003
:10237000012816D02EE0A51CF12003900020029029
:102380000C20019007200090072300220221280042
:1023900001F0EFFD0622290014F1080000F0B0FE64
:1023A00018E0A51C0622290014F1080000F0A8FE80
:1023B000F1200390DFF8380802900F2001900E20E2
:1023C00000900F23E078421ED2B20321280001F0D2
:1023D000D0FDFFE7FFE700F004BC207911380128A9
:1023E00015D8A51CF1200390002002900C2001902C
:1023F00007200090082300220221280001F0B9FDE7
:102400000622290014F1080000F07AFEFFE7E8E355
:102410002079172808D0C0F09F80192850D019D3F0
:102420001A2800F0838097E0A51CF120039000207B
:10243000029012200190112000901123002204210B
:10244000280001F096FD0622290014F1080000F092
:1024500057FE81E0E078002802D0012816D02EE057
:10246000A51CF12003900020029012200190112061
:102470000090112300220421280001F07AFD062299
:10248000290014F1080000F03BFE18E0A51C06220C
:10249000290014F1080000F033FEF1200390DFF86A
:1024A000540702901A200190172000901823E0781A
:1024B000421ED2B20521280001F05BFDFFE74BE090
:1024C000E078002802D0012816D02EE0A51CF120CB
:1024D00003900020029012200190112000901123FF
:1024E00000220421280001F044FD0622290014F1F5
:1024F000080000F005FE18E0A51C0622290014F1D2
:10250000080000F0FDFDF1200390DFF8EC060290DA
:102510001A200190172000901923E078421ED2B2B1
:102520000521280001F025FDFFE715E0A51CF1209D
:10253000039000200290122001901120009011239E
:1025400000220421280001F014FD0622290014F1C4
:10255000080000F0D5FDFFE743E320791F2805D0F0
:10256000C0F0868021286DD036D381E0E078002845
:1025700002D0012816D02EE0A51CF12003900020E7
:1025800002901220019011200090112300220421BA
:10259000280001F0EEFC0622290014F1080000F0EA
:1025A000AFFD18E0A51C0622290014F1080000F078
:1025B000A7FDF1200390DFF844060290212001904E
:1025C0001F2000901F23E078421ED2B2062128006F
:1025D00001F0CFFCFFE74BE0E078002802D00128B3
:1025E00016D02EE0A51CF1200390002002901220AE
:1025F000019011200090112300220421280001F0F5
:10260000B8FC0622290014F1080000F079FD18E05A
:10261000A51C0622290014F1080000F071FDF1202C
:102620000390DFF8DC050290212001901F2000902C
:102630002023E078421ED2B20621280001F099FC46
:10264000FFE715E0A51CF120039000200290122066
:10265000019011200090112300220421280001F094
:1026600088FC0622290014F1080000F049FDFFE76C
:10267000B7E22079262808D0C0F09F80282850D0C3
:1026800019D3292800F0838097E0A51CF12003903E
:1026900000200290122001901120009012230022AD
:1026A0000421280001F065FC0622290014F108002D
:1026B00000F026FD81E0E078002802D0012816D045
:1026C0002EE0A51CF1200390002002901220019022
:1026D00011200090122300220421280001F049FC5F
:1026E0000622290014F1080000F00AFD18E0A51CDC
:1026F0000622290014F1080000F002FDF1200390E9
:10270000DFF8000502902920019026200090272361
:10271000E078421ED2B20721280001F02AFCFFE730
:102720004BE0E078002802D0012816D02EE0A51C4E
:10273000F1200390002002901220019011200090BF
:10274000122300220421280001F013FC0622290094
:1027500014F1080000F0D4FC18E0A51C06222900A2
:1027600014F1080000F0CCFCF1200390DFF898048D
:10277000029029200190262000902823E078421E14
:10278000D2B20721280001F0F4FBFFE715E0A51CF9
:10279000F12003900020029012200190112000905F
:1027A000122300220421280001F0E3FB0622290065
:1027B00014F1080000F0A4FCFFE712E220793328AE
:1027C00002D0342836D06BE0E078002802D001280F
:1027D00016D02EE0A51CF1200390002002900C20C2
:1027E000019007200090092300220221280001F017
:1027F000C0FB0622290014F1080000F081FC18E05B
:10280000A51C0622290014F1080000F079FCF12033
:102810000390DFF8F80302903420019033200090F9
:102820003323E078421ED2B20921280001F0A1FB37
:10283000FFE735E0E078002802D0012816D02EE02E
:10284000A51CF1200390002002900C20019007208D
:102850000090092300220221280001F08AFB0622B1
:10286000290014F1080000F04BFC18E0A51C06221A
:10287000290014F1080000F043FCF1200390DFF878
:102880009003029034200190332000903423E078AC
:10289000421ED2B20921280001F06BFBFFE7FFE7DF
:1028A0009FE12079362805D0C0F0A58038286DD06A
:1028B00037D3A0E0E078002802D0012816D02FE01E
:1028C000A51CF1200390002002900C20019007200D
:1028D00000900A2300220221280001F04AFB062270
:1028E000290014F1080000F00BFC19E0A51C0622D9
:1028F000290014F1080000F003FCC64EF1200390FB
:10290000029638200190362000903623E078421E4F
:10291000D2B20A21280001F02CFBB2480663FFE77F
:1029200069E0E078002802D0012816D02DE0A51C2F
:10293000F1200390002002900C20019007200090CD
:102940000A2300220221280001F013FB062229009D
:1029500014F1080000F0D4FB17E0A51C06222900A2
:1029600014F1080000F0CCFBF1200390AA4802907B
:1029700038200190362000903723E078421ED2B2F2
:102980000A21280001F0F5FAFFE734E0E07800289A
:1029900002D0012816D02DE0A51CF12003900020C4
:1029A00002900C200190072000900A2300220221AF
:1029B000280001F0DEFA0622290014F1080000F0D8
:1029C0009FFB17E0A51C0622290014F1080000F067
:1029D00097FBF12003909148029038200190362017
:1029E00000903823E078421ED2B20A21280001F07C
:1029F000C0FAFFE7FFE7F4E020793A2808D0C0F0FA
:102A0000DB803C286ED038D33D2800F0A080D3E096
:102A1000E078002802D0012816D02DE0A51CF12076
:102A20000390002002900C200190072000900B23BF
:102A300000220221280001F09CFA0622290014F14C
:102A4000080000F05DFB17E0A51C0622290014F128
:102A5000080000F055FBF1200390714802903D20E2
:102A600001903A2000903A23E078421ED2B20B2126
:102A7000280001F07EFAFFE79EE0E078002802D00F
:102A8000012816D02DE0A51CF12003900020029013
:102A90000C200190072000900B2300220221280027
:102AA00001F067FA0622290014F1080000F028FB63
:102AB00017E0A51C0622290014F1080000F020FBF5
:102AC000F1200390574802903D2001903A20009059
:102AD0003B23E078421ED2B20B21280001F049FAD4
:102AE000FFE769E0E078002802D0012816D02DE049
:102AF000A51CF1200390002002900C2001900720DB
:102B000000900B2300220221280001F032FA062255
:102B1000290014F1080000F0F3FA17E0A51C0622C2
:102B2000290014F1080000F0EBFAF12003903E4870
:102B300002903D2001903A2000903C23E078421E14
:102B4000D2B20B21280001F014FAFFE734E0E0785C
:102B5000002802D0012816D02DE0A51CF1200390FA
:102B6000002002900C200190072000900B230022EF
:102B70000221280001F0FDF90622290014F10800C5
:102B800000F0BEFA17E0A51C0622290014F1080087
:102B900000F0B6FAF1200390244802903D20019005
:102BA0003A2000903D23E078421ED2B20B2128004B
:102BB00001F0DFF9FFE7FFE713E0062214F1080157
:102BC000A01C00F09DFA0CE0064D2878022807D0E2
:102BD000062214F10801A01C00F092FA00202870CF
:102BE000FFE77FBD7C0000206C2D00207D000020D1
:102BF00080000020CC000020D0000020FC0000203D
:102C000000010020E0000020E40000209C000020E3
:102C1000A0000020A42D0020A4000020A800002077
:102C2000B0000020B4000020B8000020BC0000204C
:102C3000F8B4030000250868E840002800F0D780B9
:102C400001260F6816FA05F007403A00002A00F046
:102C5000CC80087910F00300012804D0087910F026
:102C6000030002281DD19F685FF0030C2800C0B24A
:102C700040001CFA00FC37EA0C07D1F80CC0280011
:102C8000C0B240001CFA00FC5CEA07079F6058686D
:102C9000AE40B0434E68C6F30016AE403043040069
:102CA0005C60087910F0030003280ED0DE6803276B
:102CB0002800C0B240008740BE438F682800C0B2E1
:102CC000400087403E433400DC60087910F0030088
:102CD000022818D12800C00803EB8000066A0F27DD
:102CE00015F00700C0B280008740BE430F6915F0A1
:102CF0000700C0B2800087403E4334002800C0086F
:102D000003EB800004621E6803272800C0B2400065
:102D10008740BE430F7917F003072800C0B2400078
:102D200087403E4334001C60486810F4403F5CD04C
:102D30009548066856F001060660006810F001002C
:102D400000900098914F2800800857F820605FF0AD
:102D50000F0C15F00300C0B280001CFA00FC36EA2C
:102D60000C06B3F1904F01D1002414E0884883424F
:102D700001D101240FE08748834201D102240AE0F7
:102D80008548834201D1032405E08448834201D170
:102D9000042400E0072415F00300C0B28000844042
:102DA00026432800800847F820607D4C2068904327
:102DB0004F68FF0200D5104320607A4E3468944378
:102DC0004F68BF0200D514433460774E306890439B
:102DD0004F68BF0300D510433060744E346894438D
:102DE0004F68FF0300D5144334606D1C23E7F1BC2A
:102DF00070472DE9F041030000250800E840002855
:102E000000F0A880012616FA05F008400200002A0A
:102E100000F09E80DFF874C1280080085CF8200074
:102E20000F2715F0030E5FFA8EFE5FEA8E0E17FA7B
:102E30000EFE1EEA00000400B3F1904F02D15FF0D5
:102E4000000E19E05248834202D15FF0010E13E0F8
:102E50005048834202D15FF0020E0DE04E4883429B
:102E600002D15FF0030E07E04C48834202D15FF0CD
:102E7000040E01E05FF0070E15F00300C0B2800001
:102E80001EFA00FE74452CD14848D0F800E03EEA16
:102E9000020EC0F800E04448D0F800E03EEA020E1E
:102EA000C0F800E03F48D0F800E03EEA020EC0F86B
:102EB00000E03B48D0F800E03EEA020EC0F800E037
:102EC00015F00300C0B2800017FA00F004002800DB
:102ED00080085CF82000A043AE465FEA9E0E4CF8E6
:102EE0002E005FF0030C1868AE465FFA8EFE5FEAB4
:102EF0004E0E1CFA0EFE5EEA000018602800C008A4
:102F000003EB800E2800C00803EB8000D0F820807F
:102F100015F00700C0B28000874038EA0707CEF8F6
:102F2000207098682F00FFB27F001CFA07F7B843A3
:102F300098605868AE4030EA06065E60DE68280099
:102F4000C0B240001CFA00FC36EA0C0CC3F80CC0FE
:102F50006D1C52E7BDE8F081020010690B009BB2C6
:102F6000184201D0012000E00020C0B270471300D9
:102F7000DBB2002B03D00B009BB2836102E00B009D
:102F80009BB283627047000060100240080001405D
:102F90000004004800080048000C004800100048E9
:102FA000080401400C0401400404014000040140F5
:102FB00038B504000D00DFF8FC010168200000F0C6
:102FC00006F8A84201D3012000E0002032BD814272
:102FD00004D25FF0FF32101A081800E0081A704798
:102FE00038B52DED048B08EE100A0C001500DFED4E
:102FF000438A2800C0B2FB2810DBB8EEC89A28002C
:10300000C0B24042C0B200F08BF829EE009A002115
:103010002000B0EE490A00F0B1F80EE0B8EEC89A10
:103020002800C0B200F07CF889EE009A2900C9B2ED
:103030002000B0EE490A00F0A1F8BDEC048B31BDD0
:1030400010B400210A00838892B29A4206D200226C
:1030500003680C00A4B21A55491CF3E700228280D1
:1030600010BC704710B4040013005A1E9BB2002B12
:1030700002D02170641CF7E710BC704770B50400E3
:103080000D001600DFF8240100782100C9B2884243
:1030900009D3DFF824211068002804D0310089B258
:1030A00028001268904770BD38B504000D00280054
:1030B00004F0BEFC020092B229002000C0B2FFF76B
:1030C000DDFF31BD70B504000D00280004F0B0FC38
:1030D000020092B229002000C0B2FFF7CFFFDFF854
:1030E000DC603068002807D0280004F0A1FC010053
:1030F00089B228003268904770BD000000000000CF
:1031000030B404000D0013005A1E9BB2002B04D0F3
:103110002B7823706D1C641CF5E730BC70470000F1
:1031200010B504002000C0B2FB2816DB2000C0B29E
:10313000D0F5807004F0B4FC41EC110B9FED200B36
:1031400004F0CDFC53EC102B0020194904F0D0FC06
:1031500004F0F2FD00EE100A0FE02000C0B204F00F
:103160001FFE41EC110B9FED160B04F0B8FC51EC67
:10317000100B04F0E1FD00EE100A10BD38B52DED86
:10318000028B82B0B0EE408A04000D0018EE100AE7
:1031900004F014FECDE900012A000B49200004F0E0
:1031A00031FE02B0BDEC028B31BD0000400F0020AB
:1031B0000000F03FFC2D0020042E0020002E0020F7
:1031C0000000000000002440EC26010838B5002271
:1031D0004FF40071DFF83C0CFFF7C9FE00224FF4FA
:1031E00000715FF09040FFF7C2FE04F02BFEDFF8A5
:1031F000280CDFF8D81C0163DFF8D41C421CC1F88E
:103200005821021DC1F8702110F114020A62027ADD
:1032100081F8252010F11C028A63427A81F83D2052
:1032200010F12002C1F8D024027A81F8D52410F1DF
:103230002402C1F8E824427A81F8ED2410F1280232
:10324000C1F83025827A81F8352510F12C02C1F8B9
:103250004825827A81F84D2510F13402C1F878258D
:10326000C27A81F87D2510F13802C1F89025C27A22
:1032700081F8952510F13C02C1F8A825C27A81F8A1
:10328000AD2510F14002C1F8C025C27A81F8C525EC
:10329000DFF8942C1268C1F80826DFF8842D126834
:1032A000C1F8382610F14402C1F8E821037A81F808
:1032B000ED3110F14803C1F80032047A81F805427B
:1032C00010F14C04C1F81842057A81F81D5210F132
:1032D0005005C1F84852057A81F84D5210F1540555
:1032E000C1F86052057A81F86552C1F8A822027AC5
:1032F00081F8AD22C1F8C032027A81F8C522C1F846
:10330000D842027A81F8DD2210F18002C1F8F02261
:10331000027A81F8F52210F18402C1F80823027ABA
:1033200081F80D2310F15802C1F85023027A81F878
:10333000552310F15C02C1F86823027A81F86D23ED
:1033400010F16002C1F88023027A81F8852310F120
:103350006402C1F8B023027A81F8B52310F1680243
:10336000C1F8C823027A81F8CD2310F16C02C1F8AC
:103370001024027A81F8152410F17002C1F8282473
:10338000027A81F82D2410F17402C1F84024027AE7
:1033900081F8452410F17802C1F87024027A81F88E
:1033A000752410F17C02C1F88824007A81F88D041C
:1033B00031BD38B5002000242000C0B2072835DA1E
:1033C000DFF8C05C2000C0B200012844407801282A
:1033D0002AD12000C0B200012844406800280ED045
:1033E00004F088FD2100C9B2090129444968401A46
:1033F0002100C9B2090129448968884214D30020F8
:103400002100C9B209012944487004F073FD21006C
:10341000C9B20901294448602000C0B22100C9B2E4
:1034200009012944C9688847641CC5E7002032BDEA
:1034300038B50400DFF8EC5B687800281FD1002263
:103440004FF40071DFF8CC09FFF791FD00224FF433
:1034500000715FF09040FFF78AFD04F0F3FC8920D3
:103460000090202307220521DFF81C0C04F048FD02
:10347000012068700221DFF80C0C04F089FE0120A5
:1034800032BD7CB50400DFF8045C2878002803D046
:10349000022823D003D33DE004F0A4FE3AE004F078
:1034A00017FF89200090202307220521DFF8D80B81
:1034B00004F026FDDFF8D82B03212C2004F03AFE7F
:1034C000DFF8D02B0421082004F034FE04F05DFF67
:1034D00041F28830DFF8AC1B88611BE00120DFF887
:1034E000441B487089200090202307220521DFF823
:1034F000980B04F005FDDFF88C6B0221300004F01E
:1035000047FE0321300004F043FE0421300004F0A4
:103510003FFEFFE72878401C28702100C9B2DFF881
:10352000640B04F044FE012076BD70B5040000F089
:10353000BCF8DFF8F05A6878012803D1A87800F0C9
:10354000C9FC04E00021DFF83C0B04F021FEDFF8A9
:10355000480BA9780278914207D0A9780170DFF86A
:10356000400B0068DFF83C1B0860A8780E2812D1D9
:10357000DFF8306B4FF4FA613068FFF719FD01286E
:1035800009D1DFF81C0B00683060062215F1080134
:10359000A81CFFF7B5FD2100C9B2DFF8E80A04F066
:1035A00006FE012070BD10B50400DFF8001BDFF837
:1035B000000B0069FFF7FCFC012827D1DFF8F40AB3
:1035C0000178012905D1002101700020DFF8541A8B
:1035D0008870DFF8E40A0188491C018042F210710A
:1035E000DFF8A02A2300DBB21B011A449268B1FB6A
:1035F000F2F102888A420DD300210180DFF8241AFB
:103600008878002806D00020887003E00120DFF8C9
:10361000A41A08702100C9B2DFF8680A04F0C7FDD7
:10362000012010BD38B50400FCF7C9FDDFF8805A51
:10363000287A012808D10521DFF8480A04F0A8FDFE
:10364000DFF85C0A006828612100C9B2DFF8340A9B
:1036500004F0ADFD012032BD10B50400FCF796FD6D
:10366000DFF84C0A0021017000210172012010BD19
:1036700010B5040000224FF40051DFF89807FFF75F
:1036800076FC012010BD10B5040001224FF400515A
:10369000DFF88007FFF76BFCDFF8E809210089B24B
:1036A0008166062104F083FD10BD70B5DFF8684720
:1036B000DFF8080A216B097850F82100DFF81018AC
:1036C000C1F81805DFF8F80901786170DFF8F4191E
:1036D000407851F820006060207A03F0A3FF00EEEC
:1036E000100ADFF8E459B8EE400AD5ED020A20EEE0
:1036F000200ABDEEC00A84ED030A607A03F092FF4F
:1037000000EE100AB8EE400AD5ED040A20EE200AB9
:10371000BDEEC00A84ED040A207A03F083FF00EEB8
:10372000100AB8EE400AD5ED050A20EE200ABDEEDB
:10373000C00A84ED050A207A03F074FF00EE100A37
:10374000B8EE400AD5ED060A20EE200ABDEEC00A0A
:1037500084ED060A607A03F065FF00EE100AB8EE09
:10376000400AD5ED080A20EE200ABDEEC00A84ED1D
:10377000070A207A03F056FF00EE100AB8EE400A5E
:10378000D5ED090A20EE200ABDEEC00A84ED080A34
:10379000607A03F047FF00EE100AB8EE400AD5ED5C
:1037A0000A0A20EE200ABDEEC00A84ED090AA07ABA
:1037B00003F038FF00EE100ADFF81067B8EE400A99
:1037C000D6ED020A20EE200ABDEEC00A84ED0A0AF8
:1037D000A07A03F027FF00EE100AB8EE400AD6EDFB
:1037E000010A20EE200ABDEEC00A84ED0B0AE07A41
:1037F00003F018FF00EE100ADFF8D068B8EE400AB8
:10380000D6ED000A20EE200ABDEEC00A84ED0D0AB6
:10381000E07A03F007FF00EE100AB8EE400AD6ED9A
:10382000010A20EE200ABDEEC00A84ED0E0AE07AFD
:1038300003F0F8FE00EE100AB8EE400AD6ED020AD8
:1038400020EE200ABDEEC00A84ED0F0AE07A03F0F4
:10385000E9FE00EE100AB8EE400AD6ED030A20EEAB
:10386000200ABDEEC00A84ED100A207A03F0DAFEC9
:1038700000EE100AB8EE400AD5ED010A20EE200A4B
:10388000BDEEC00A84ED110A207A03F0CBFE00EEF3
:10389000100AB8EE400AD5ED0B0A20EE200ABDEE64
:1038A000C00A84ED120A207A03F0BCFE00EE100A72
:1038B000B8EE400AD5ED0C0A20EE200ABDEEC00A93
:1038C00084ED130A207A03F0ADFE00EE100ADFF853
:1038D0000068B8EE400AD6ED000A20EE200ABDEEE0
:1038E000C00A84ED140A207A03F09CFE00EE100A50
:1038F000B8EE400AD6ED020A20EE200ABDEEC00A5C
:1039000084ED150A207A03F08DFE00EE100AB8EE61
:10391000400AD5ED020A20EE200ABDEEC00A84ED71
:10392000160A207A03F07EFE00EE100AB8EE400A76
:10393000D5ED0D0A20EE200ABDEEC00A84ED170A6F
:10394000207A03F06FFE00EE100AB8EE400AD5EDC3
:103950000E0A20EE200ABDEEC00A84ED180A207A75
:1039600003F060FE00EE100AB8EE400AD6ED040A3D
:1039700020EE200ABDEEC00A84ED190A207A03F079
:1039800051FE00EE100AB8EE400AD6ED060A20EE0F
:10399000200ABDEEC00A84ED1A0A207A03F042FE26
:1039A00000EE100AB8EE400AD5ED030A20EE200A18
:1039B000BDEEC00A84ED1B0A207A03F033FE00EE50
:1039C000100AB8EE400AD5ED0F0A20EE200ABDEE2F
:1039D000C00A84ED1C0A207A03F024FE00EE100ACF
:1039E000B8EE400AD5ED100A20EE200ABDEEC00A5E
:1039F00084ED1D0A207A03F015FE00EE100AB8EEE1
:103A0000400AD6ED080A20EE200ABDEEC00A84ED79
:103A10001E0A207A03F006FE00EE100AB8EE400AF5
:103A2000D6ED0A0A20EE200ABDEEC00A84ED1F0A78
:103A3000207A03F0F7FD00EE100ADFF89856B8EE92
:103A4000400AD5ED070A20EE200ABDEEC00A84ED3B
:103A5000200A207A03F0E6FD00EE100AB8EE400AD4
:103A6000D5ED0A0A20EE200ABDEEC00A84ED210A37
:103A700070BD2DE9F84F8AB006002021002202AC6B
:103A8000200004F0EFFC0024002500208DF8050044
:103A900000208DF806001827DFF834843000C0B20B
:103AA0007843404490F815903000C0B278434044C9
:103AB0004068002842D001213000C0B200F0AEF9C9
:103AC00000280ED13000C0B2784340444268300034
:103AD000C0B278434044017D4846C0B204F02AFB9E
:103AE0001EE05FF0000A3000C0B2784340444068F6
:103AF00003F09EFF5146C9B2814207D2202002A99D
:103B00005246D2B288541AF1010AECE702AA3000F8
:103B1000C0B278434044017D4846C0B204F00AFB7D
:103B20003000C0B278434044406803F081FFDFF8C2
:103B3000A8150979491C484310FA89F93000C0B228
:103B4000784340448068002800F03A813000C0B2D9
:103B500078434044007B00280BD002281ED012D3AB
:103B6000042830D024D3062845D036D307283ED0A9
:103B700044E03000C0B278434044806800780021BF
:103B800004000D003AE03000C0B278434044806841
:103B900090F90000C11704000D002FE03000C0B202
:103BA0007843404480680088002104000D0025E02F
:103BB0003000C0B2784340448068B0F90000C117BB
:103BC00004000D001AE03000C0B278434044806821
:103BD0000068002104000D0010E03000C0B27843FE
:103BE000404480680068C11704000D0006E0012011
:103BF0008DF8050002E002208DF805009DF8050013
:103C000000280CD13000C0B278434044407B404291
:103C10000200D2B202A92000FFF7E2F926E09DF8E7
:103C2000050001281AD13000C0B2784340448068B2
:103C300003F0FEFE202819D23000C0B27843404481
:103C4000806803F0F5FE020092B23000C0B2784303
:103C50004044816802A8FFF753FA07E03000C0B281
:103C600078434044806800788DF8080002213000D5
:103C7000C0B200F0D3F8012823D13000C0B278439D
:103C80004044807DC0B200098DF806009DF8060012
:103C90000F2805D0202002A99DF80620885410E0A6
:103CA0005FF0000A02A803F0C3FE5146C9B2814288
:103CB00007D2202002A95246D2B288541AF1010A32
:103CC000F0E73000C0B201285ED15FF0000A0020AA
:103CD0008DF804003000C0B278434044407B002897
:103CE00002D009208DF80400392000902E231522DF
:103CF0000F21DFF8E80304F0E9FB02A803F098FEC7
:103D00008346DFF8D4030079401C00FB0BFB5846C8
:103D1000C0B2022190FBF1F01F280BDA5846C0B266
:103D2000022190FBF1F0D0F140009DF8041050FA10
:103D300081FA07E05846C0B2D0F15F009DF8041048
:103D400050FA81FA02AA3000C0B278434044007DA4
:103D5000401CC0B2DFF880134979D1EBC001491E85
:103D6000C9B25046C0B204F05BFD5AFA8BF09DF820
:103D70000490B0EB09098920009020230722052137
:103D8000C14804F0BDF81BE08920009020230722E1
:103D90000521BD4804F0B4F802AA3000C0B278434F
:103DA0004044017D4846C0B204F0C4F902A803F0C3
:103DB0003FFEC9490979491C484310FA89F08146F8
:103DC0003000C0B278434044006900281ED0300063
:103DD000C0B2784340448068002817D03000C0B299
:103DE000784340448068BE4988420FD03000C0B25A
:103DF0007843404402693000C0B207FB00F708EB8B
:103E00000700017D4846C0B204F094F90BB0BDE84C
:103E1000F08F0000000800487C000020F8B5040086
:103E20000D002B492200D2B21820424301EB0200C0
:103E3000817D2800C0B201402800C0B2814230D14B
:103E40004FF48A76A74F4FF496712800C0B27043A2
:103E500038442200D2B250F82200FFF7A9F8012816
:103E60002AD12800C0B206FB00F607EB06002100AD
:103E7000C9B28B4A126840F8212045209A492A008D
:103E8000D2B242430A442300DBB22E00F6B200FB5A
:103E900006F008442100C9B2405CD0F10100D054C2
:103EA0000AE091492A00D2B24520424301EB0200C8
:103EB0002100C9B2002242548B49EDB2452045434E
:103EC00001EB0500E4B2005DF2BD0000A42D00206E
:103ED0006801002070B50400002604F0F9F900F034
:103EE0007AF82000C0B200F080F82000C0B200F0E4
:103EF0009BF80025280080B2452811DA7B492A006A
:103F000092B21820424301EB0200C07D2100C9B2E9
:103F1000884203D12800C0B2FFF7ABFD6D1CE9E772
:103F200004F033FA70BD000078080020F0B442714C
:103F3000C47803792500EDB2AB420AD3F0256B4E6D
:103F40002700FFB218235F4306EB07039D75641C2F
:103F5000EFE71823654C85785D4325444679AE75B7
:103F6000002904D0857803FB05F323449960F0BC55
:103F700070472DE9F84F0700884691469A460A9EF9
:103F80000B9DDDF830B00D9C87F8008087F801901C
:103F900087F802A0FE703D712200D2B25946380067
:103FA000FFF7C4FFBDE8F18F10B40100002210003C
:103FB000C0B204280CD21000C0B2085C4C4B1400F4
:103FC000E4B21B5D984201D0002002E0521CEEE7F3
:103FD000012010BC704780B50120009008237F228B
:103FE0000821002004F0A0FC01BD10B50400200051
:103FF000C0B2002812D134480078002807D127A287
:104000003A4890F84410782004F094F806E026A28C
:10401000364890F84410782004F08CF810BD000069
:10402000040100206C2D00200100C9B20D2924D10B
:1040300030490978002906D002290ED008D3042976
:1040400015D00FD318E02C49284AC2F8501618E0B2
:104050002A49264AC2F8501613E02949234AC2F8D1
:1040600050160EE02749214AC2F8501609E02649A9
:104070001E4AC2F8501604E003E01F491B4AC2F86A
:10408000501670470C000020A81801081B2E0020B5
:10409000E4230108501F01081C2E0020200000000E
:1040A000FC2D0020D42D00204E00000080EE3600B4
:1040B000242D00201D2E00200E2E00206001002047
:1040C0003C0F0020B4090020B82B00207C2D0020DC
:1040D000382C0020002C00208C2D00208016010898
:1040E0003E0F0020F41B0020302500206801002036
:1040F0000C0100207C000020100100202001002085
:1041000030010020400100205001002010B50400C3
:104110000121DFF83C0A04F04AF8012010BD30B557
:1041200087B004001421002202AD280004F09AF99F
:10413000DFF8200AD0E90023CDE9002302A800908F
:10414000DFF8145A2978684600F016FA2878687063
:10415000BDF80410009800F02CFFDFF8000A80780A
:10416000002809D12878022803DA2878401C287012
:1041700001E00020287008E02878052803DA287874
:10418000401C287001E000202870DFF8C45902218B
:10419000280003F0FDFF0321280004F008F82100A7
:1041A000C9B2280004F003F8012007B030BD10B5F3
:1041B0000400DFF8AC198888002810D0DFF8A409C3
:1041C00002888B889A4208D1002101800321DFF800
:1041D000800903F0DDFF012008E0898801802100CB
:1041E000C9B2DFF86C0903F0E2FF012010BD2DE930
:1041F000F041040000250026DFF86479B888032820
:104200003DDB3868B988084410F8010C3968BA8871
:10421000114411F8021C51EA00210E00B988891ED0
:10422000386804F01BFC05002800310080B289B218
:1042300088421DD10721DFF8180903F0B8FF38685C
:10424000007802280DD1DFF81089012198F80100CB
:1042500000F0ABF998F80120D7E9000100F095F9DA
:1042600013E00021DFF8F008407800F09EF90CE040
:104270000021DFF8E408407800F097F905E000211C
:10428000DFF8D408407800F090F9DFF8CC084078E7
:1042900000F0F8F80221DFF8B80803F09AFF0120D7
:1042A000BDE8F0810100DFF8940C0278032A01D008
:1042B000042202700120704701000120704710B5F0
:1042C0000400DFF8EC0B0178012936D1DFF8E41B9C
:1042D000C978012931D1DFF8E01B91ED060AD0ED54
:1042E000020AB4EE600AF1EE10FA08DA91ED060A5D
:1042F000D0ED010AB4EE600AF1EE10FA0ED50122FB
:104300004FF400615FF09040FEF731FE01224FF460
:1043100080515FF09040FEF72AFE1CE000224FF42F
:1043200000615FF09040FEF722FE00224FF48051C2
:104330005FF09040FEF71BFE0DE000224FF400619D
:104340005FF09040FEF713FE00224FF480515FF0C3
:104350009040FEF70CFEDFF8F8074FF47A718166A3
:104360002100C9B203F023FF012010BD38B50400BD
:10437000DFF8CC1B087800281FD101200870DFF877
:10438000C45B012210212800FEF7F1FD0022082164
:104390002800FEF7ECFD00220421DFF8AC0BFEF74D
:1043A000E6FD4FF4FA60DFF8A817886704F038FDDF
:1043B00004F0E1FE04F0D0FE12E0002008700122BB
:1043C0000821DFF8800BFEF7D2FD01220421DFF87F
:1043D000780BFEF7CCFD4EF66020DFF87417886787
:1043E0002100C9B2DFF8680703F0E1FE012032BD09
:1043F00010B50400DFF8C01A0878002803D10020A7
:1044000081F8440023E0DFF854078278052A17D0AA
:1044100082780D2A02D1027A052A11D08278062AE2
:104420000ED082780D2A02D1027A062A08D082782C
:10443000072A05D082780D2A06D1007A072803D1F1
:10444000032081F8440002E0022081F84400DFF8F4
:10445000640AC078012806D1012081F845000120B6
:1044600081F8460005E0002081F84500002081F831
:1044700046002100C9B2DFF8D80603F098FE0120FB
:1044800010BD000070B52DED028B04009FED948AE5
:104490002000C0B200286CD1DFF81C5ADFF8540BA2
:1044A0000068686095ED010ADFED8E0A20EE200AB3
:1044B000BDEEC00A10EE100A00F050FA85ED010AB8
:1044C000DFF8786C6868306096ED000A00F04CFB0D
:1044D00086ED010A7068686095ED010A00F0ACFA9B
:1044E00085ED050A95ED040A00F006FB85ED080A46
:1044F000A868A86195ED080AD5ED0A0A30EE200AF1
:10450000DFF83C0CD0ED020AF4EE400AF1EE10FAAE
:1045100002D5D0ED020A0BE0D0ED030AB4EE600A3A
:10452000F1EE10FA02D5D0ED030A01E0F0EE400AF8
:10453000C5ED080AD5ED050A95ED091A30EE818A18
:10454000D0ED000AF4EE480AF1EE10FA02D590ED33
:10455000000A0BE090ED010AB4EE408AF1EE10FA89
:1045600002D590ED010A01E0B0EE480A85ED050A9A
:10457000FFE7BDEC028B70BD38B504000D002900CB
:10458000C9B2200000F01BF831BD70B504000D0069
:10459000160020000078C0B2022805D13200D2B245
:1045A0002000290000F0A0F870BD38B504000D000F
:1045B0002900C9B22000C0B200F03FF931BD3EB5BC
:1045C00004000D002800C0B200280CD002281ED024
:1045D00013D304282FD024D3062840D035D308285D
:1045E00067D051D37AE0062000904FF42053032285
:1045F0000221200004F050FA70E0042000904FF4F3
:10460000185303220221200004F046FA66E002203B
:1046100000904FF4105303220221200004F03CFAD2
:104620005CE0042000904FF4585303220221200044
:1046300004F032FA52E0042000904FF48853032231
:104640000221200004F028FA48E0042000904FF4F2
:10465000545303220221200004F01EFA3EE0DFF84A
:10466000340C818808290ED10168019180880221CB
:1046700090FBF1F080B200904FF4585310220221C9
:10468000200004F057FA29E0DFF8080C8188082997
:104690000ED1016801918088022190FBF1F080B277
:1046A00000904FF4885310220221200004F042FAB7
:1046B00014E0DFF8E00B818808290ED10168019130
:1046C0008088022190FBF1F080B200904FF45453A7
:1046D00010220221200004F02DFAFFE737BD000070
:1046E000000000000000C8422DE9F84304000D005E
:1046F00016000020ADF8000000273000C0B20028EE
:104700000FD0022831D01BD3042859D03CD306281F
:1047100000F08E8070D3082800F08A80C0F0888076
:1047200089E00320ADF8000004226946200000F073
:104730000DFC0700DFF8601B380003F08FF87AE00B
:104740000320ADF8000004226946200000F0FEFBC3
:10475000804604226946200000F0F8FB0700DFF8DD
:10476000101C380003F07AF865E00320ADF8000073
:1047700004226946200000F0E9FB0700DFF8F41B83
:10478000380003F06BF856E00320ADF80000042277
:104790006946200000F0DAFB8046DFF81C9719F12B
:1047A0002C01404603F05AF804226946200000F02C
:1047B000CDFB070019F13001380003F04FF83AE063
:1047C0000320ADF8000004226946200000F0BEFB83
:1047D0008046DFF8E49619F13401404603F03EF8D4
:1047E00004226946200000F0B1FB070019F13801EE
:1047F000380003F033F81EE00320ADF80000042277
:104800006946200000F0A2FB8046DFF8AC9619F163
:104810003C01404603F022F804226946200000F0E3
:1048200095FB070019F14001380003F017F802E08A
:1048300000F021FBFFE7BDE8F1830200D2B2002ABD
:10484000082A1BD80A00D2B2012A0ED1DFF8682646
:1048500000235370012313700200D2B2002A0CD13E
:104860000122DFF85036DA7007E0DFF84C26537883
:10487000032B02DA53785B1C5370FFE7DFF83836FE
:104880005A78002A1CD05A78032A19DB00221A70A1
:1048900000225A6000229A600022DA6000221A6127
:1048A0000022DA6200221A6300225A6300229A630D
:1048B0000022DA6300221A640022DFF8F835DA7089
:1048C00070472DE9F04100242500EDB20A2D43DAAE
:1048D00000252E00F6B2092E3CDA2E00F6B201EBCE
:1048E000860676682F00FFB251F82770BE422FDA95
:1048F00000262F00FFB251F82770AC465FFA8CFCFF
:1049000001EB8C0CDCF804C0AE465FFA8EFE41F879
:104910002EC0AC465FFA8CFC01EB8C0CCCF804701A
:10492000AC465FFA8CFC50F82CC0AE465FFA8EFEA7
:1049300000EB8E0EDEF804E0A8465FFA88F840F837
:1049400028E0AE465FFA8EFE00EB8E0ECEF804C075
:104950006D1CBEE7641CB7E7BDE8F08138B52DEDEE
:10496000028B04009FED748ADFF8B01A08780028E3
:104970002AD10120087000210800C0B20A2815DAE7
:104980000800C0B2DFF8FC2B0B00DBB242F82300BA
:10499000DFF8F42B0800C0B252F82000002803D141
:1049A0000800C0B242F82040491CE5E7DFF8D85BB8
:1049B000092300222900DFF8CC0BFFF782FF95EDD9
:1049C000050AB8EEC00A30E000200100C9B20A2989
:1049D0001EDADFF8B01B0200D2B251F82220092AF9
:1049E0000BD100220300DBB241F82320DFF8981B33
:1049F0000200D2B241F8224008E00200D2B251F8DF
:104A00002220521C0300DBB241F82320401CDCE7CB
:104A1000DFF8745B092300222900DFF8680BFFF739
:104A200050FF95ED050AB8EEC00ADFED440A80EEAE
:104A3000200ABDEC028B31BDF0EE400A9FED401A1A
:104A40009FED403ADFED3C3AF5EE400AF1EE10FA08
:104A500040D0F0EE603A9FED3C0ADFF8500C90ED4C
:104A6000004A34EE634AB4EE404AF1EE10FA08DA36
:104A700090ED004A33EEC44AB4EE404AF1EE10FA2B
:104A800003DB9FED320A21EE001ADFF8000B90EDF8
:104A9000000AF0EE401ADFF8F81A91ED000A30EE45
:104AA000010AB0EE402A32EE030A82EE000AF0EE6E
:104AB000402A33EEE10AB0EE614A00EE224A80ED70
:104AC000004AB7EE000A30EE620A20EE020A81EDDB
:104AD000000A08E0DFF8B80A5FF07E510160DFF8F5
:104AE000AC0A00210160DFF8A40ADFF8C01B0268ED
:104AF0000A6090ED000A704770470000F0EE402A0F
:104B00009FED0D3AF4EE601AF1EE10FA04D0B4EE17
:104B1000412AF1EE10FA02D1B0EE620A0BE032EE59
:104B2000E00A72EE413A20EE230A71EEE03A80EE9E
:104B3000230A30EE010A7047000000000000C8425E
:104B400095BFD63317B7D138CDCC4C3E00007A4450
:104B5000280A0020A4260108162E00206C2D002013
:104B6000EC0E0020142E0020F8B52DED028B9CB029
:104B7000B0EE408A0024DFF8C415087A00280DD072
:104B80000CAA2300DBB20C20434302EB030011F11B
:104B9000080292E8680080E86800641C087D00282C
:104BA0000DD00CAA2300DBB20C20434302EB030020
:104BB00011F1140292E8680080E86800641C91F822
:104BC000200000280DD00CAA2300DBB20C204343A8
:104BD00002EB030011F1200292E8680080E868000F
:104BE000641C91F82C0000280CD00CAA2300DBB226
:104BF0000C20434302EB03002C3191E82C0080E8A9
:104C00002C00641C2000C0B2022802DAB0EE480A70
:104C10002DE100200100C9B22200D2B2521E914201
:104C20003EDA411C0A002300D2B2DBB29A4235D2EE
:104C30000C220CAB0D00EDB255432B4493ED010A51
:104C40000CAB0500EDB255432B44D3ED010AB4EE95
:104C5000600AF1EE10FA1FD50CAB18AD0600F6B2E3
:104C600056431E4496E8805085E880500500EDB21A
:104C700055431D440E00F6B256431E4496E880503C
:104C800085E880500D00EDB202FB05F21A4418AB26
:104C900093E8E00082E8E000491CC3E7401CB9E764
:104CA00000200100C9B22200D2B2521E914236DA6F
:104CB0000C210CAA0300DBB24B431A4492ED010A0B
:104CC0000CAA0300DBB24B431A44D2ED040AB4EE43
:104CD000600AF1EE10FA12D00CAA0300DBB24B43CB
:104CE0001A4492ED020A0CAA0300DBB24B431A44A9
:104CF000D2ED050AB4EE600AF1EE10FA0DDB0022E7
:104D00000CAB0500EDB24D435A550CAA0300DBB2C3
:104D100001FB03F1114400220A73401CC1E7002586
:104D2000002108002200C0B2D2B2904218D20C2258
:104D30000CAB0800C0B25043185C00280ED0684687
:104D40002E00F6B2564330440E00F6B202FB06F2D5
:104D50001A4492E8C80080E8C8006D1C491CE0E7CE
:104D60002800C0B2022802DAB0EE480A7FE06846A6
:104D700090ED010AB4EE480AF1EE10FA0CDB90ED6A
:104D8000052AD0ED041A90ED021AD0ED010AB0EE1A
:104D9000480AFFF7B3FE6AE000263000C0B22900DF
:104DA000C9B2491E88423CDA0C2069463200D2B2B0
:104DB0004243114491ED010AB4EE408AF1EE10FA3B
:104DC0002DDB69463200D2B24243114491ED040A10
:104DD000B4EE480AF1EE10FA21DB69463200D2B295
:104DE0004243114491ED052A69463200D2B2424352
:104DF0001144D1ED041A69463200D2B24243114443
:104E000091ED021A69463200D2B200FB02F008446A
:104E1000D0ED010AB0EE480AFFF770FE27E0761CDD
:104E2000BBE70C2069462A00D2B242431144091F55
:104E300091ED002A69462A00D2B242431144083952
:104E4000D1ED001A69462A00D2B24243114410390A
:104E500091ED001A69462A00D2B200FB02F0084424
:104E60001438D0ED000AB0EE480AFFF747FE1CB038
:104E7000BDEC028BF1BD80B50320304908700421E0
:104E8000DFF8440C03F0A5F93220FEF7FCFB01BD6E
:104E900080B5DFF81C080078DFF8181808700220C9
:104EA000264908700421DFF8200C03F080F901BDC9
:104EB000A42D0020E42D0020B82B0020F8B52DED06
:104EC000028B0400F0EE408AB0EE608A0025DFF825
:104ED000C4633000FEF7B4F8B0EE680A02F096FD45
:104EE0000700306807703800000A316848703800E1
:104EF000000C316888703800000E3168C870B0EE60
:104F0000480A02F083FD316808710100090A32681D
:104F100051710100090C326891710100090E32686B
:104F2000D1710821B180DFF888170C700121DFF8FA
:104F300088271170BDEC028BF1BD00007C000020C1
:104F4000232E002000040048000C0048F0B40300A9
:104F500000200C881500EDB2042D16D12500ADB24D
:104F60001D44EE782500ADB21D44AD7855EA062506
:104F70002600B6B21E4476782700BFB2DF5D57EA3E
:104F8000062757EA054738000DE01500EDB2022D5F
:104F900009D12500ADB25D5D2600B6B21E4476781B
:104FA00056EA052630000D8855FA82F50D80F0BCD2
:104FB000704770B504000D00DFF8106B01224FF44C
:104FC00080513000FDF7D3FF0A2004F0F7F804F019
:104FD000BBF84FF47A732A0092B22100DFF8E40D97
:104FE00004F03DF900224FF480513000FDF7BFFF7F
:104FF00070BD0000E82D0020F4EE601AF1EE10FA0A
:1050000005D15FF07E52026000220A600FE031EEAF
:10501000402A71EEE02A82EE222A80ED002A90EDED
:10502000002AF0EE402A42EE602AC1ED002A7047C5
:1050300038B52DED088BB0EE408AF0EE608AB0EE08
:10504000419AF0EE619A04000D009FEDC8AADFEDD1
:10505000C7AA9FEDC6BADFEDC5BAB5EE408AF1EE3C
:1050600010FA62D0F5EE408AF1EE10FA5DD0B5EE9E
:10507000409AF1EE10FA58D0F5EE409AF1EE10FA9F
:1050800053D018EE100A02F099FE41EC100B02F01A
:1050900020FD51EC100B02F04FFE0AEE100A19EE43
:1050A000100A02F08BFE41EC100B02F012FD51ECE5
:1050B000100B02F041FE0AEE900A18EE900A02F080
:1050C0007DFE41EC100B02F004FD51EC100B02F0E0
:1050D00033FE0BEE100A19EE900A02F06FFE41EC5F
:1050E000100B02F0F6FC51EC100B02F025FE0BEE5B
:1050F000900AF4EE4BBAF1EE10FA05D15FF07E5053
:1051000020600020286015E03AEECA0A7BEECB0A48
:1051100080EE200A84ED000A94ED000AF0EE4A0ABF
:1051200040EE4B0AC5ED000A04E05FF07E502060BF
:1051300000202860BDEC088B31BD0000002C002051
:105140007C2D00202DE9F0412DED028B8EB0F0EE8C
:10515000408AB0EE608A322100226C46200003F0C3
:1051600081F9002700240025DFF86489C8ED098A49
:1051700088ED0A8A98ED090A02F048FC060098EDCD
:105180000A0A02F043FC804668463100090E3A00E4
:10519000D2B281547F1C3100090C3A00D2B2815442
:1051A0007F1C3100090A3A00D2B281547F1C3900B9
:1051B000C9B246547F1C4146090E3A00D2B281540E
:1051C0007F1C4146090C3A00D2B281547F1C4146F3
:1051D000090A3A00D2B281547F1C3900C9B200F8E2
:1051E00001807F1C3A00D2B292B26946DFF8E4082F
:1051F00005F052F80EB0BDEC028BBDE8F08170B541
:1052000000240025DFF8CC080078C0B2FF283AD08F
:10521000DFF8C4080178C9B20906DFF8C0080078D1
:10522000C0B251EA0041DFF8A00B0078C0B251EAE9
:105230000021DFF8980B0078C0B201430C00DFF8C2
:10524000900B0178C9B20906DFF8880B0078C0B26C
:1052500051EA0041DFF8800B0078C0B251EA00212A
:10526000DFF8780B0078C0B201430D00DFF860680A
:1052700016F12401200002F0F1FA16F128012800AD
:1052800002F0ECFA05E0DFF8480800214162002155
:10529000816270BDB80A0020BC2B00202DE9F047C8
:1052A0002DED028B8EB00400F0EE408AB0EE608AE5
:1052B000322100226D46280003F0D4F80025002694
:1052C0000027DFF81CAB8AF800408AED028ACAED9D
:1052D000018A9AED020A02F099FB80469AED010AD2
:1052E00002F094FB814668469AF800102A00D2B278
:1052F00081546D1C4146090E2A00D2B281546D1CA6
:105300004146090C2A00D2B281546D1C4146090A5B
:105310002A00D2B281546D1C2900C9B200F8018064
:105320006D1C4946090E2A00D2B281546D1C4946B3
:10533000090C2A00D2B281546D1C4946090A2A0080
:10534000D2B281546D1C2900C9B200F801906D1CC5
:105350002A00D2B292B26946DFF8880A04F09CFFB4
:105360000EB0BDEC028BBDE8F0870000000000002D
:10537000C02B0020C82B002070B500240025DFF8CA
:10538000640A0078C0B2FF283DD0DFF8546ADFF825
:10539000580A00783070DFF8540A0178C9B209065B
:1053A000DFF84C0A0078C0B251EA0041DFF8440A45
:1053B0000078C0B251EA0021DFF83C0A0078C0B2A0
:1053C00001430C00DFF8340A0178C9B20906DFF89E
:1053D000300A0078C0B251EA0041DFF8280A0078AC
:1053E000C0B251EA0021DFF8200A0078C0B20143C0
:1053F0000D0016F10801200002F030FA311D2800DE
:1054000002F02CFA08E0DFF8D80900210170DFF87B
:10541000F81C81600021416070BD0000242E002036
:105420002DE9F84F2DED048B8EB0F0EE409AB0EEE2
:10543000608AF0EE418AB0EE619A3221002201AC1E
:10544000200003F00FF85FF0000B00200090002414
:1054500000250026DFF8B4A9CAED009A8AED018A7A
:10546000CAED028A8AED039A9AED000A02F0CEFA9A
:1054700007009AED010A02F0C9FA80469AED020A85
:1054800002F0C4FA81469AED030A02F0BFFA82469E
:1054900001A83900090E5A46D2B281541BF1010B02
:1054A0003900090C5A46D2B281541BF1010B390064
:1054B000090A5A46D2B281541BF1010B5946C9B2AE
:1054C00047541BF1010B4146090E5A46D2B2815492
:1054D0001BF1010B4146090C5A46D2B281541BF113
:1054E000010B4146090A5A46D2B281541BF1010B05
:1054F0005946C9B200F801801BF1010B4946090E5B
:105500005A46D2B281541BF1010B4946090C5A4646
:10551000D2B281541BF1010B4946090A5A46D2B254
:1055200081541BF1010B5946C9B200F801901BF1DF
:10553000010B5146090E5A46D2B281541BF1010BA0
:105540005146090C5A46D2B281541BF1010B514607
:10555000090A5A46D2B281541BF1010B5946C9B20D
:1055600000F801A01BF1010B5A46D2B292B201A978
:10557000DFF8980B04F090FE0EB0BDEC048BBDE894
:10558000F18F0000942C0020BC2C0020EC2D00207A
:10559000C00A00202DE9F041002400250026002744
:1055A000DFF8680B0078C0B2FF2871D0DFF8600B1D
:1055B0000178C9B20906DFF85C0B0078C0B251EA85
:1055C0000041DFF8540B0078C0B251EA0021DFF847
:1055D0004C0B0078C0B201430C00DFF8440B01789B
:1055E000C9B20906DFF83C0B0078C0B251EA0041AD
:1055F000DFF8340B0078C0B251EA0021DFF82C0B41
:105600000078C0B201430D00DFF8240B0178C9B265
:105610000906DFF8200B0078C0B251EA0041DFF83C
:10562000180B0078C0B251EA0021DFF8100B0078A7
:10563000C0B201430E00DFF8080B0178C9B20906B9
:10564000DFF8000B0078C0B251EA0041DFF8F80A39
:105650000078C0B251EA0021DFF8F00A0078C0B249
:1056600001430F00DFF8A4874146200002F0F6F85E
:1056700018F10401280002F0F1F818F108013000D7
:1056800002F0ECF818F10C01380002F0E7F80BE03A
:10569000DFF87807DFF8701A016000214160DFF859
:1056A000B41E81600021C160BDE8F081F02D0020B2
:1056B000222E0020162E00207C0000202DE9F14F24
:1056C0002DED028BBEB0B0EE408AC82100220CAC9A
:1056D000200002F0C7FE5FF0000B002004900020C5
:1056E00003900020029000200190002000900020F4
:1056F0000B9000200A9000200990002008900020C4
:10570000079000200690002005909DF800010028D9
:1057100011D0022819D013D3042820D01AD3062878
:1057200027D021D308282ED028D30A2835D02FD32C
:105730000B2837D03BE0DFF8180A80ED008A36E00E
:10574000DFF80C0A80ED018A31E0DFF8040A80ED11
:10575000028A2CE0DFF8F80980ED038A27E0DFF801
:10576000F00980ED048A22E0DFF8E40980ED058A83
:105770001DE0DFF8DC0980ED068A18E0DFF8D009CB
:1057800080ED078A13E0DFF8C80980ED088A0EE093
:10579000DFF8BC0980ED098A09E0DFF8B40980ED83
:1057A0000A8A04E0DFF8A80980ED0B8AFFE7DFF83A
:1057B000A0A99AED000A02F029F904909AED010AD5
:1057C00002F024F903909AED020A02F01FF9029008
:1057D0009AED030A02F01AF901909AED040A02F018
:1057E00015F900909AED050A02F010F904009AEDFF
:1057F000060A02F00BF905009AED070A02F006F915
:1058000006009AED080A02F001F907009AED090A6C
:1058100002F0FCF880469AED0A0A02F0F7F8814699
:105820009AED0B0A02F0F2F882460CA80499090ED0
:105830005A46D2B281541BF1010B0499090C5A4605
:10584000D2B281541BF1010B0499090A5A46D2B213
:1058500081541BF1010B04995A46D2B281541BF1B9
:10586000010B0399090E5A46D2B281541BF1010B68
:105870000399090C5A46D2B281541BF1010B0399CA
:10588000090A5A46D2B281541BF1010B03995A46B8
:10589000D2B281541BF1010B0299090E5A46D2B2C1
:1058A00081541BF1010B0299090C5A46D2B2815462
:1058B0001BF1010B0299090A5A46D2B281541BF11D
:1058C000010B02995A46D2B281541BF1010B019986
:1058D000090E5A46D2B281541BF1010B0199090CF1
:1058E0005A46D2B281541BF1010B0199090A5A465A
:1058F000D2B281541BF1010B01995A46D2B28154A4
:105900001BF1010B0099090E5A46D2B281541BF1CA
:10591000010B0099090C5A46D2B281541BF1010BBC
:105920000099090A5A46D2B281541BF1010B009921
:105930005A46D2B281541BF1010B2100090E5A467E
:10594000D2B281541BF1010B2100090C5A46D2B28C
:1059500081541BF1010B2100090A5A46D2B281542D
:105960001BF1010B5946C9B244541BF1010B29002C
:10597000090E5A46D2B281541BF1010B2900090CC1
:105980005A46D2B281541BF1010B2900090A5A462A
:10599000D2B281541BF1010B5946C9B245541BF1D7
:1059A000010B3100090E5A46D2B281541BF1010B92
:1059B0003100090C5A46D2B281541BF1010B31005F
:1059C000090A5A46D2B281541BF1010B5946C9B299
:1059D00046541BF1010B3900090E5A46D2B28154CC
:1059E0001BF1010B3900090C5A46D2B281541BF14C
:1059F000010B3900090A5A46D2B281541BF1010B3E
:105A00005946C9B247541BF1010B4146090E5A468B
:105A1000D2B281541BF1010B4146090C5A46D2B255
:105A200081541BF1010B4146090A5A46D2B28154F6
:105A30001BF1010B5946C9B200F801801BF1010BA3
:105A40004946090E5A46D2B281541BF1010B494610
:105A5000090C5A46D2B281541BF1010B4946090A7E
:105A60005A46D2B281541BF1010B5946C9B200F813
:105A700001901BF1010B5146090E5A46D2B28154D6
:105A80001BF1010B5146090C5A46D2B281541BF14D
:105A9000010B5146090A5A46D2B281541BF1010B3F
:105AA0005946C9B200F801A01BF1010B5A46D2B207
:105AB00092B20CA9DFF8FC0A04F0EEFB3EB0BDEC9C
:105AC000028BBDE8F18F0000280A00200008004882
:105AD000B82B002000080208020802080308020888
