:020000040800F2
:1040000068750020B119020885F9010887F90108CF
:1040100089F901088BF901088DF9010800000000F9
:104020000000000000000000000000008FF90108FF
:1040300091F901080000000093F9010895F90108C1
:10404000A1220208A5220208A9220208AD22020824
:10405000B1220208B5220208B9220208BD220208D4
:10406000C1220208C5220208C9220208CD22020884
:10407000D1220208B1F90108D5220208C1F90108CC
:10408000D1F90108D9220208DD220208E122020842
:10409000E5220208E9220208ED220208E1F90108FE
:1040A000F1220208F5220208F9220208FD22020884
:1040B000012302080523020800000000092302086A
:1040C0000D230208112302081523020819230208F0
:1040D0001D230208FFF901080FFA01081FFA010861
:1040E0002FFA010849FA0108000000000000000052
:1040F00000000000000000000000000000000000C0
:10410000000000002123020800000000252302080F
:1041100029230208000000002D23020800000000EF
:104120003123020835230208392302083D230208FF
:104130004123020845230208492302080000000029
:104140004D2302085123020855230208592302086F
:104150005D23020859FA010869FA0108612302087F
:1041600065230208692302086D230208000000008D
:1041700000000000712302080000000000000000A1
:1041800075230208792302087D230208812302088F
:104190008523020870B504000020022506E02900EE
:1041A000C9B2DFF88C0C02F005F86D1C2800C0B213
:1041B0000F28F4DBDFF8B05A2868007800281CD1FB
:1041C000DFF8A86A3088B5F86A10401A01F0F9FFE4
:1041D000022808DADFF8980A807901280DD102F068
:1041E000A3FD012809D0B5F86A0030800E21DFF860
:1041F000400C01F0C1FF01201CE000F093FE0128FB
:1042000011D1DFF8D41A022003F024FAB5F86A00BD
:10421000401CA5F86A0001F027FD0221DFF8100C10
:1042200001F0AAFF05E02100C9B2DFF8040C01F09B
:10423000B0FF012070BD38B504000020DFF89C1AE3
:10424000032003F007FA4FF4645003F011FBC0B2EF
:104250000090DFF88C3A00220021032003F02FFDAC
:104260004FF4385003F004FBC0B20090DFF8743A0A
:1042700000220021032003F022FD4FF4645003F0DC
:10428000F7FADFF8E459022185F86010C0B204287B
:1042900010D100F0FFFE01F03BF8002085F861002E
:1042A0000321DFF88C0B01F067FF0020DFF8381ADC
:1042B000087015E0DFF8300A01784A1C0270C9B2B4
:1042C0000A2907DB002101700121DFF8640B01F0EE
:1042D00053FF05E02100C9B2DFF8540B01F059FF8C
:1042E000012032BD38B50400002001F02DF800286F
:1042F00035D1DFF8A80A01784A1C0270C9B2052935
:1043000025DB00210170DFF86059B5F86A00401C18
:10431000A5F86A00032085F86000DFF8841A0220FF
:1043200003F098F9002085F86100042506E02900D3
:10433000C9B2DFF8B00C01F03DFF6D1C2800C0B21F
:104340000F28F4DB0121DFF89C0C01F015FF2100A0
:10435000C9B2DFF8900C01F01CFF012032BD002033
:10436000DFF8381A0870DFF8005995F86100002866
:1043700047D1DFF8C01A022003F06CF9032085F85A
:104380006000A86F007800280AD0286F0078696F55
:104390000870A86F0078296F08700020A96F087056
:1043A00004F0D0FF286F0078002803D0286F007831
:1043B000012815D1286A0078012805D10421DFF8E9
:1043C000240C01F0D9FE06E006F02FFC0521DFF8F1
:1043D000140C01F0D1FE0020DFF8B41A087510E0CB
:1043E000A86C0078012805D10421DFF8F80B01F052
:1043F000C3FE06E006F019FC0521DFF8E80B01F02A
:10440000BBFE012085F86100DFF8A81A686E02F093
:104410003FFF01289BD10121DFF8C80B01F0ACFE62
:1044200001209BE77FB504005FF0FF30DFF83828FC
:10443000052082F86000DFF8AC0A00685066106F53
:104440000078002803D0106F0078012803D150684D
:104450000168526902E0506A0168126CDFF8A85ADC
:104460002878002803D0022819D006D338E0DFF8D6
:104470009C1A062006F014FF51E0DFF8940A06F0BB
:1044800018FF01280ADBDFF88C1A032003F0E2F89A
:104490000A2028700120DFF8801A08703FE0DFF85A
:1044A0007C0A06F006FF01280BDBDFF8741A0320F4
:1044B00003F0D0F80120DFF8601A08700A20287095
:1044C0000DE010F1010F05D1DFF8D81A032003F039
:1044D000C1F804E0DFF8D01A032003F0BBF81EE0B7
:1044E00000202870DFF8306A3078012817D1D078A2
:1044F0000390907802905078019010780090DFF847
:10450000AC3A00220021022003F0D9FB00203070D9
:104510000521DFF8D00A01F02FFE012009E021007B
:10452000C9B2DFF8C00A01F034FE2878401C2870B8
:10453000012004B070BD2DE9F04104000020DFF837
:104540002877062087F86000DFF89889D8F80000FF
:104550007866DFF8DC580621280001F02BFEDFF832
:10456000886A3078002802D0012837D072E0DFF85E
:104570007C0A01784A1C0270C9B20A2907DB0021B3
:1045800001700121280001F0F7FD012068E0DFF84B
:10459000EC0A807D022811D1DFF8E41A032003F031
:1045A00059F8DFF86819002006F0BEFBDFF8D41ACE
:1045B000DFF8D42A080005F044FC06E0DFF8CC1A46
:1045C000032003F047F800F0B1FE3078401C307053
:1045D000D8F80000DFF8B81A08603BE000F0E8FE09
:1045E00001000800C0B2042815D10020307000205E
:1045F000DFF8F8190870DFF8181B022003F02AF81A
:104600000621280001F0B8FD002087F8620001F0C3
:104610003DFB012024E00800C0B2002802D0C9B24E
:10462000052906D100203070DFF8E81A032003F0D6
:1046300011F842F21071DFF8580A006802F028FE03
:10464000012806D100203070DFF8DC1C022003F0C6
:1046500001F8FFE72100C9B2280001F09AFD01200E
:10466000BDE8F0812DE9F84785B004000020002066
:104670000025DFF8F465DFF86C7838687066306F15
:104680000078002806D002285CD003D3032800F06D
:104690001A8126E10A20DFF84C198866DFF8783A9B
:1046A000B06902887169002000F042FD0100C9B2C2
:1046B000172935D13868DFF8641A086096F8620067
:1046C000002803D096F8600007283ADAB06900881D
:1046D00004907069C0780390706980780290706966
:1046E00040780190706940780090DFF8343A0022F9
:1046F0000021022003F0E3FA072086F86000012081
:1047000086F86200DFF81C0A06F05BFE0020DFF886
:10471000181A08700221DFF8140A00F0D5FE10E024
:10472000C0B200280DD1DFF8F48942F21071D8F838
:10473000000002F0ADFD012803D13868C8F8000080
:104740000125CEE0DFF8488798F814000A2804DB3A
:10475000012001F073FC0120E3E0DFF888980020DD
:10476000C9F86800DFF8B0A95346706C0288316C54
:10477000022000F0DDFC0100C9B217293CD13868E5
:10478000DFF89819086096F8620000282AD1706C4A
:1047900000880490306CC0780390306C8078029070
:1047A000306C40780190306C40780090DFF87039C0
:1047B00000220021022003F082FA0B2086F860001C
:1047C000012086F8620001F025FBDFF8580906F0A9
:1047D000F8FD0020DFF8501908700721DFF82C0BD6
:1047E00000F072FE022003F048F9002819D00C21D5
:1047F000484601F0C1FC14E0C0B2002811D1DFF836
:104800001C9942F21071D9F8000002F041FD012814
:1048100007D13868C9F800004CF25030AAF80000FF
:10482000012598F8010001282CD198F80A000128E8
:104830000AD0DFF8083BB8F8082018F1030103207C
:1048400000F076FC070004E04FF45A7003F010F813
:1048500007003800C0B2172802D1012088F80A00EA
:1048600098F80A0001280DD101F08EFA002802D034
:10487000FFB2172F06D0022006F004FF032006F037
:1048800001FF01254EF66021D8F8100002F000FD6E
:10489000012800D10125F06C002813D0706DF16C57
:1048A00088420FD396F85B0096F85A10884204D1DC
:1048B000002001F0C3FB012033E0052001F0BEFB26
:1048C00000202EE00DE04EF66021DFF8C4050069FF
:1048D00002F0DEFC012803D10125052086F86800DE
:1048E000FFE7EDB2012D15D196F86800401C86F85F
:1048F000680096F86800052805DB0121DFF8E4066A
:1049000001F03AFC04E00521DFF8D80601F034FCA0
:10491000012006E02100C9B2DFF8C80601F039FC29
:10492000012006B0BDE8F08770B5002000F086FDDC
:104930000400DFF8B0050168CB4A51662100C9B216
:104940000E293ADADFF8E057012129700068DFF814
:10495000F0190860DFF8EC692000C0B200013044B3
:104960004068002810D02000C0B2000130444068E8
:104970008047002808D10B21DFF8B40401F0FCFBCC
:104980000020287001201DE02000C0B2000130444A
:10499000C06800280BD10020E4B2210131448968AD
:1049A00088470A21DFF8880401F0E6FB09E00B21C3
:1049B000DFF87C0401F0EDFB03E00020DFF868176E
:1049C0000870012070BD10B5012000F037FDDFF840
:1049D00014460B21200001F0EDFB0921200001F01D
:1049E000D8FB012010BD10B5002000F027FD040009
:1049F000DFF8B819022002F02DFE9B48B0F86A10CB
:104A0000491CA0F86A1007F0C1FBE4B2002C012C8D
:104A100006D9E41E012C11D9A41E082C1CD92FE0A4
:104A2000DFF8000706F0CDFC0020DFF8FC16087068
:104A30000521DFF8B00501F09FFB21E0DFF8E40677
:104A400006F0BFFC0020DFF8E01608700221DFF856
:104A5000DC0600F039FD13E00622DFF8AC19022075
:104A600006F008FFDFF8BC0606F0ABFC0020DFF81C
:104A7000B81608700521DFF86C0501F07DFBFFE733
:104A8000012010BDF8B584B05FF0FF30002000F0C9
:104A9000D5FC040000200020DFF89809D0E90023AD
:104AA000CDE90023DFF89009D0E90023CDE9022306
:104AB0006D49086F0078002803D0086F007801283E
:104AC00021D1002002F0D9FF050080B2002848D093
:104AD000280080B240F60101884201DB40F2FF75F8
:104AE000DFF890692A0092B2DFF8401A002006F041
:104AF00065FF30803088ADF804003088ADB2A84240
:104B00002FD0002095E0022002F0B7FF050080B210
:104B1000002826D04FF400610022DFF8106A370029
:104B2000380008F04FF8280080B240F601018842B2
:104B300001D340F2FF75DFF83C792A0092B23100D0
:104B4000022006F03BFF38803888ADB2A84201D081
:104B500000206EE00020398870543888401CADF881
:104B60000400DFF810592888002857D0DFF85419BE
:104B7000022002F06FFDBDF804200099022002F02F
:104B800059FD9CA1022002F065FDDFF8B867200006
:104B9000C0B200013044C06802902000C0B20001E1
:104BA0003044C06808F042F8ADF80C0002980028C4
:104BB0000FD0694602A808F054F8002809D46846C6
:104BC000E4B221013144896888470A21984801F0FC
:104BD000D3FA00241EE0DFF85869200080B20001FB
:104BE0003044C0680290200080B200013044C068A8
:104BF00008F01CF8ADF80C00694602A808F031F87E
:104C0000002806D46846210089B209013144896828
:104C10008847641C200080B20028DCD00020288057
:104C20004FF400610022DFF80449200007F0CAFFBA
:104C3000012005B0F0BD80B50B4991F860200A2A2B
:104C400001D001200EE009680978012909D101216C
:104C5000DFF8E02851650100C9B2DFF8880301F0F0
:104C600098FA012002BD000058600020266D002047
:104C7000086C002038B50400DFF8BC5895F86000D7
:104C80000A2801D001200EE000F030F801280BD1F5
:104C90000721674801F07DFA2100C9B2DFF89C08BE
:104CA00001F077FA012032BD28680078012809D187
:104CB0005F4A92F871000028EED10721100001F040
:104CC00068FAE9E702F030F80128E5D00E215848EB
:104CD00001F052FA0120E6E7F40B0208100C02087A
:104CE000D00702082C0C0208446D0020F8B5002003
:104CF0000024DFF84C586F49286802F0C9FA0128EF
:104D000004D10020DFF82C1881F8C100002609E04A
:104D10000020310089B247F8210002E0022000F0B3
:104D2000ABFB761C300080B21B2834DADFF8047845
:104D3000300080B257F820000128F2D1300080B254
:104D40001428EED0012497F8C1000228E9D087F892
:104D5000C060300080B2DFF8C019320092B2120198
:104D60001144496888470128D2D1022087F8C10040
:104D70005C480068286097F8C000152803D104201B
:104D800000F07AFBCDE7D7F894000028C6D00320C6
:104D900000F072FBC5E72000C0B2F2BD456D0020F7
:104DA000F007020810B50400DFF88C17086F0078D0
:104DB000002803D0086F0078012803D10868007824
:104DC000002810D191F86000072802DA08F098FE58
:104DD00009E0DFF8C8098078082804D00421DFF84A
:104DE0005C0701F0C9F92100C9B27E4801F0D1F990
:104DF000012010BD0D0A000010B5040000F053FAA8
:104E000000280ED1DFF8080B0178491C01700078EA
:104E1000052806DA2100C9B2054801F0BAF90120D7
:104E200004E00020DFF8E81A0870012010BD00003F
:104E3000C4030020DC02020838B5DFF8B8190220EC
:104E400002F008FCDFF8F046002084F86000012240
:104E50000121DFF8A40909F096F9002505E02900F1
:104E6000C9B2604801F0A6F96D1C2800C0B20E2836
:104E7000F5DB20680078012808D15A4C0121200078
:104E800001F07AF90021200001F083F9012032BD00
:104E9000586A002080B500220421DFF8780B09F061
:104EA00072F901BD80B501220421DFF8680B09F019
:104EB0006AF901BDC0D40100E0B500208DF80400FE
:104EC000A5208DF805004FF47A700090012301AA07
:104ED0000DF10501DFF8400B09F00AFA9DF8040016
:104EE0000EBD0000006D002001B582B000208DF8DD
:104EF00004004FF47A700090012301AA02A9DFF8A0
:104F0000180B09F0F5F907BD466D00206028002058
:104F1000BE030020E0120208476D0020B404002008
:104F2000F412020838B50024DFF8A05928780028C8
:104F300005D002281CD011D3032823D02CE0DFF8A1
:104F4000D419022002F086FB01220121DFF8A80813
:104F500009F019F92878401C28701FE0002201216F
:104F6000DFF8940809F00FF92878401C287015E044
:104F700000220221DFF8800809F005F92878401C9A
:104F800028700BE0012401220221DFF86C0809F0EF
:104F9000FAF80020287001E0002028702000C0B23C
:104FA00032BD0000F0FE01082015020800030208CF
:104FB00080B5DFF8B019DFF8B00909F012FCDFF8AE
:104FC000AC19DFF8AC0909F020FC0120DFF864150A
:104FD000C865DFF8EC3901221421524806F0DAF9ED
:104FE00001BD0000C4030020486D0020496D002071
:104FF00070B500240020002539E0DFF87C6B280024
:10500000C0B200013044407801282FD12800C0B23E
:10501000002800D001242800C0B2000130444068BC
:1050200000280ED009F032FF2900C9B2090131442D
:105030004968401A2900C9B2090131448968884287
:1050400014D300202900C9B209013144487009F085
:105050001DFF2900C9B20901314448602800C0B2CF
:105060002900C9B209013144C96888476D1C28006C
:10507000C0B20F28C1DB2000C0B270BDAC0300205D
:10508000F01002085F53000891530008480C020812
:10509000C86C0020F8B56846DFF8D019102209F076
:1050A0000BFFDFF8CC19032002F0D4FA6946012087
:1050B00009F0C0FB10F1010F04D1DFF8FC19032047
:1050C00002F0C8FADFF8F419032002F0C3FA07214E
:1050D0004FF4C85002F0F5FBD0214FF4D05002F04D
:1050E000F0FB04214FF4D85002F0EBFBDFF8981BE3
:1050F000032002F0AFFA0F214FF4C05002F0E1FBA1
:105100001F2142F6084002F0DCFB05B000BD0000A4
:10511000640C0208800C020802140020CC6C0020F1
:105120002CFF0108406A0020436D0020FE13002080
:105130002DE9FC4104000D0016001F001A2020007C
:10514000C0B28000C00010F5427002F091FB8046B2
:105150002000C0B28000C00010F5427002F088FB51
:10516000002814D013283CD0172802D01C2805D0C2
:105170008BE00020DFF8B019087091E00020DFF824
:10518000A81908702000C0B206F03CFB88E000209F
:10519000DFF8941908702000C0B20090DFF8DC3905
:1051A00000220021032002F08AFD2000C0B206F098
:1051B00069FA3A88501C3880002392B201212000FD
:1051C000C0B206F09DF9E4B200B224B2A04207D00A
:1051D00038884FF6FF71884202D14CF25030388047
:1051E0005EE0DFF844793878002821D12000C0B291
:1051F0000090DFF88C3900220021032002F05FFDCF
:10520000320092B229002000C0B206F080FA0128D4
:1052100004D02000C0B206F035FA35E03878401CE2
:105220003870DFF8E8090068DFF8541B08602BE0ED
:105230002000C0B28000C00010F5027002F018FB20
:10524000000714D508212000C0B28000C00010F56E
:10525000027002F036FB2000C0B20090DFF8B039D7
:1052600000220021022002F02AFD0020387042F2C4
:105270001071DFF80C0B006802F00AF8012803D166
:105280002000C0B206F0FEF90AE02000C0B206F02D
:10529000F9F90121E4B2A000401CC00002F011FBAA
:1052A0004046BDE8F68110B500204FF4B85002F03A
:1052B000DFFA10F00100C0B2002825D04FF40270D0
:1052C00002F0D6FA040014F01F0414F01F014FF48A
:1052D000027002F0F6FADFF8600290F86000082829
:1052E00010DB600704D50C21DFF88C0800F044FFC8
:1052F000200707D5002006F0C5F90521DFF878085A
:1053000000F03AFF002000E0012010BDB8040020AA
:1053100080B5DFF89C19032002F09CF9DFF8641ACD
:10532000002009F025FB01BD9C0C020880B5DFF8C8
:10533000541A012009F01CFB01BD000004140020D8
:10534000C46C0020D004002080B500208DF800003F
:1053500069460F2009F06EFA9DF8000002BD10B5F5
:10536000DFF8204AA01D05F051FD14F10E0005F0F4
:1053700057FD14F10A0005F05DFD14F1120005F06F
:1053800063FD0220A075FFF7C3FFFFF7CFFF10BD3D
:1053900080B5DFF8C41A032002F05CF90121DFF8C0
:1053A000D80700F0E9FE01BD00000000B80C0208BB
:1053B00038B55FF0FF34DFF8CC09807D02281FD1BB
:1053C00005F062FB0400200040B200280AD0022849
:1053D00006D0032804D0042803D005280FD00FE0FE
:1053E0000EE00DE0DFF8405C2878401C287028783B
:1053F000032803DB05F019FC0020287000E0FFE71C
:10540000200040B232BD0000B01D020810B54A496C
:1054100091F8600000280CD1012081F86000DFF8CD
:10542000A44C0121200000F0A7FE0021200000F084
:10543000B0FE10BDC81D0208D01D020838B504001A
:1054400000208DF80000DFF8E45B280006F02DF85E
:10545000002801D10E200BE02200D2B269462800BC
:1054600005F0C5FF002801D10E2001E09DF80000E5
:1054700032BD0000246D002001B59DF800000E280B
:1054800001DB00201DE000226946DFF8A00B05F0DB
:105490009FFF002801D1002013E0DFF8940B007873
:1054A000002808D0DFF88C1BDFF88C0B006801F0B7
:1054B000EFFE012804D10921DFF8080C00F05CFEA2
:1054C000012002BDD40C020870B504000D000020BC
:1054D000002600E0761C30002900C0B2C9B2884224
:1054E00008D23000C0B2205CFFF7C6FF0028F1D11F
:1054F000002000E0012070BD0120704780B5DFF87A
:10550000C81B022002F0A6F801200A49486006F0F4
:105510003DFE0821DFF8600600F02EFE0A20DFF8CD
:10552000AC1B81F86000012002BD0000603000204B
:10553000B0050020741000205860002020070020D3
:10554000D06C00207CB5DFF8881B022002F082F8C6
:10555000DFF8784B0A2084F86000DFF8785B0120E0
:1055600085F8C10095F8C000022810D0032829D082
:10557000062842D007285BD00B2874D00C2800F0F6
:1055800087800D2800F08480102879D08DE0DFF826
:10559000486B0121300001F06AFB00280FD1DFF8D1
:1055A0003C0B00210174318C0191B5F8C8100091B9
:1055B000D5F8C43000220121407C01F039F907F010
:1055C000F3FA77E0DFF8106B0121300001F04FFBB8
:1055D00000280FD1DFF8040B00210174318C0191F8
:1055E000B5F8C8100091D5F8C43000220121407CE4
:1055F00001F01EF907F0D8FA5CE0DFF8E46A012157
:10560000300001F034FB00280FD1DFF8D00A002170
:105610000174318C0191B5F8C8100091D5F8C430EF
:1056200000220321407C01F003F907F0BDFA41E0BC
:10563000DFF8B06A0121300001F019FB00280FD11A
:10564000DFF8980A00210174318C0191B5F8C81077
:105650000091D5F8C43000220621407C01F0E8F822
:1056600007F0A2FA26E0002095F8C01045F82100C6
:10567000D4F88400002802D0D4F88400804719E0D0
:10568000D4F88000002802D0D4F88000804711E0D0
:10569000002095F8C01045F82100D4F880000028BB
:1056A00002D0D4F88000804704E0002095F8C010B4
:1056B00045F821000020A4F86A00DFF850050068D2
:1056C000E0660821DFF8FC0900F063FD012076BDEB
:1056D00080B5006800F0EEFA10F1010F07D1DFF895
:1056E000083A00220021022002F0E9FA0CE0DFF87B
:1056F000FC3900220021022002F0E1FADFF8F00973
:105700000021817001214170012002BD0120DFF8DC
:10571000E019C8720120704794F601087FB50400B3
:105720005FF0FF300020ADF800000020DFF8C46912
:10573000D6F8AC000190D6F8AC0007F077FAADF8D7
:105740000800210001A807F08CFA0500002D19D4EB
:10575000D6F8AC0007F06AFA4519ADF80050694672
:10576000200002F050F810F1010F08D1DFF888395D
:1057700000220021022002F0A2FA002003E0DFF85C
:105780004C19C864012004B070BD0120704701208D
:10579000DFF85C190873012070470000086C0020D6
:1057A00070B504000020002000251CE0DFF84C69E3
:1057B00021002800C0B200013044083007F051FA3F
:1057C000010000290ED42800C0B200013044406816
:1057D000002807D009B220002A00D2B212013244B8
:1057E000526890476D1C2800C0B20928DEDB0120FA
:1057F00070BD0000081102080008004838B58EB0DE
:105800002821002204AC200007F0DCF9DFF8F008C2
:10581000D0E90023CDE9002304A80090DFF8E408D4
:10582000D0E90023CDE90223DFF8A058082085F84D
:105830006000DFF8A048D4F8A410684607F01FFB0A
:1058400002A9684607F01BFBE8690368DBB2286918
:105850000268E8680168009807F0EFF8B4F8802063
:10586000E16F022001F0E6FEB4F88020E16F002035
:1058700006F000F810F1010F01D1002003E0022032
:1058800084F8C10001200FB030BD10B50920DFF849
:105890003C1881F8600007F0EFF8DFF83848B4F8FA
:1058A0008020E16F022001F0C5FEB4F88020E16F96
:1058B000002005F0DFFF10F1010F01D1002003E00F
:1058C000022084F8C100012010BD00004B6D0020B3
:1058D00010B5DFF83418022001F0BCFEDFF8F44701
:1058E000B4F88020E16F022001F0A4FEDDA10220C7
:1058F00001F0B0FEB4F88020E16F002005F0BAFF9F
:1059000010F1010F01D1002000E0012010BD0000C6
:105910004A6D00202403020810B58EB03221002207
:1059200001AC200007F04EF9DFF8A007C06A02685A
:10593000DFF8D81701A809F003FB01A80090DFF8F1
:10594000D03700220021022002F0B9F901A807F0A7
:105950006DF9020092B201A9022005F08BFF01202F
:105960000EB010BDA54E0008954E0008E94E000887
:10597000B94E000810B58EB03221002201AC2000D3
:1059800007F020F9DFF84407006B0268DFF884179E
:1059900001A809F0D5FA01A80090DFF87C370022B1
:1059A0000021022002F08BF901A807F03FF9020064
:1059B00092B201A9022005F05DFF01200EB010BDDA
:1059C000C06B002010B58EB03221002201AC200047
:1059D00007F0F8F84122DFF8441701A809F0B0FAFF
:1059E00001A80090DFF8383700220021022002F0E1
:1059F00066F90020DFF8F816087001A807F016F91C
:105A0000020092B201A9022005F034FF01200EB07D
:105A100010BD0000000C00485C64002010B58EB082
:105A20003221002201AC200007F0CCF84922DFF837
:105A3000EC1601A809F084FA01A80090DFF8E0361E
:105A400000220021022002F03AF90020DFF8A0161F
:105A5000087001A807F0EAF8020092B201A902203A
:105A600005F008FF01200EB010BD0000301502083F
:105A7000F00C020810B58EB03221002201AC2000DB
:105A800007F0A0F8DFF89C1601A809F059FA01A860
:105A90000090DFF8943600220021022002F00FF976
:105AA00001A807F0C3F8020092B201A9022005F094
:105AB000E1FE01200EB010BD480302080C0D0208E3
:105AC00010B58EB03221002201AC200007F07AF828
:105AD000DFF8F815486B8088002807D1886B0268CA
:105AE000DFF8481601A809F02BFA08E0886B036874
:105AF000486B0268DFF8381601A809F021FA01A8FE
:105B00000090DFF8303600220021022002F0D7F8A2
:105B100001A807F08BF8020092B201A9022005F05B
:105B2000A9FE01200EB010BD4C6D002010B58EB046
:105B30003221002201AC200007F044F8DFF88C0588
:105B4000406B0268DFF8F01501A809F0F9F901A827
:105B50000090DFF8E83500220021022002F0AFF8C3
:105B600001A807F063F8020092B201A9022005F033
:105B700081FE01200EB010BDC4030020440D0208B8
:105B80001008020818B597B0322100220AAC200094
:105B900007F018F848F6B804DFF8540580780028B4
:105BA00005D1DFF89C150AA809F0CAF919E004A983
:105BB000012008F0DDFE2000C0B20390A4B2240A48
:105BC000E4B202949DF8190001909DF8180000902D
:105BD0009DF817309DF81620DFF868150AA809F01F
:105BE000AFF90AA80090DFF86035002200210220FA
:105BF00002F065F80AA807F019F8020092B20AA9A3
:105C0000022005F037FE012018B010BD006D002005
:105C10006C03020818B595B05021002201AC200099
:105C200006F0D0FFDFF8A404816B0B68406B0268BC
:105C3000DFF8181501A809F083F901A80090DFF832
:105C4000103500220021022002F039F801A806F0E8
:105C5000EDFF020092B201A9022005F00BFE012027
:105C600016B010BD0D0A0000DFF86004012180F8B5
:105C70006010002180F86110002180F8621000217E
:105C800080F8681070470000280D0208DFF86004F3
:105C9000002181720021C172002101730021417035
:105CA000DFF8B01409680161017D491C0175704776
:105CB000600D0208F0B585B00600002063A1300039
:105CC00009F05EF9002500E06D1C042D20DA002D9E
:105CD00005D15FA1002009F053F9040004E05DA1A3
:105CE000002009F04DF90400200009F00FFADFF858
:105CF00000142944C870002CE6D10096DFF858340F
:105D000000220021022001F0DAFF5FF0FF3035E0D1
:105D1000DFF8DC5300202881002700E07F1C022FE1
:105D20001ADA4BA1002009F02BF90400288900029F
:105D30002881200009F0EAF9298940182881002CDF
:105D4000ECD10096DFF8103400220021022001F08F
:105D5000B6FF5FF0FF3011E028890490A879039026
:105D60006879029028790190E8780090DFF8EC33A8
:105D700000220021022001F0A2FF002005B0F0BDAA
:105D8000D46C0020AC030020F8B5002000200020D7
:105D9000DFF8C0030568DFF85803C07A012837D15F
:105DA000032001F06AFE0400002C31D040F601000F
:105DB000844202D34FF4006200E02200DFF8A073B7
:105DC00092B23900032005F0F9FD0600002E1BD425
:105DD0003000020092B23900022001F02BFC3000AA
:105DE000010089B2380000F039F800280ED0A61B57
:105DF0003400002C0CD041F28831280001F048FA20
:105E00000128D3D1002004E0002002E0002000E0BF
:105E10000120F2BD10B5D34C5A21200009F0D8F969
:105E2000AA480465002180F85C100021A0F85810F1
:105E3000002141650021C164002180F85A10002131
:105E400080F85B10002180F85D1010BD2800000074
:105E50002C0D0A002C0000003008020838B586B06E
:105E60005FF0FF320090ADF8041000200020082100
:105E7000002202AC200006F0A5FE944CB4F85800B5
:105E8000002830D108220021B74801F0CAFB0020C9
:105E9000B6490870D4F888008047006804900C2048
:105EA000ADF81400694604A806F0DBFE002802D411
:105EB000012084F85C0094F85C00002804D10320E1
:105EC00000F0BCF80020ADE00098C07F84F85A00D4
:105ED000009820300090BDF804002038ADF8040090
:105EE000606D20306065002109E094F85B20009827
:105EF0000B009BB2C05C821884F85B20491C080030
:105F0000BDF8042080B29042EFD3B4F85800401C92
:105F1000A4F85800606DBDF8041010FA81F06065B7
:105F2000606DE16C884225D394F8540010F0070F9F
:105F300020D094F8541011F00701D1F11001002085
:105F40000AE0FF22009BBDF804505A55BDF804201A
:105F5000521CADF80420401C02000B0092B29BB210
:105F60009A42EED3606D10FA81F0606502E0206D18
:105F700008302065BDF8040008283EDB7B4D2878FA
:105F8000002815D0002008E07749020092B2895C11
:105F900002AA03009BB2D154401C01002A7889B2A6
:105FA00092B29142F0D3082200216F4801F039FBF0
:105FB000287809E00099097802AA03009BB2D1541D
:105FC0000099491C0091401C010089B20829F1DBAD
:105FD000BDF80400297808390818ADF8040000203D
:105FE0002870082202A9206D09F096F80028BED07A
:105FF000042000F023F8002014E000200BE05B49AF
:10600000009A03009BB2D25C574B0C781A550A7861
:10601000521C0A70401C0100BDF8042089B2914254
:10602000EDD3012007B030BD4D6D0020406A002047
:10603000436D002080380100C46C002038B5040096
:106040002000C0B2002803D0401E03282AD938E01F
:10605000474D0121280009F0BBF809F06AF90A2030
:1060600009F0E8F9AA2200232900002009F008F924
:10607000164D6A6D00233F49002009F001F90A20FE
:1060800009F0D8F909F065F985F85D40012011495A
:106090000863686F0078296F08700121094800F0D3
:1060A0006BF80EE0094880F85D400121094A516310
:1060B000416F0978006F01700121024800F05CF81F
:1060C000FFE731BDC40300205008020858600020DB
:1060D0007008020874100020E0050020D869002034
:1060E0000C06002064060020081302082011020894
:1060F000586A0020D0040020900302081CFD01080B
:10610000D81D0208E01D0208B4030208C0190208E5
:1061100038110208CC1902087C0D0208D8190208AF
:106120001C130208B81D020830130208E419020803
:106130004015020850110208F01902084413020821
:10614000C01D0208980D0208FC190208501502082B
:10615000081A0208006D002058130208900802086F
:106160006030002000200308646C00204E6D002089
:1061700000F8070808F8070801220B00DBB21B0132
:1061800003445A700022C9B2090108444260012048
:10619000704738B504000D0001202900C9B209017B
:1061A0002144487008F072FEEDB229012144486094
:1061B000012032BD0022C9B2090108444270012009
:1061C0007047002848BF4042704730B4002513E0B4
:1061D00050F8042BD30744BFA9F101039A18091FF3
:1061E000042942F8045BFAD213468C0744BF158099
:1061F0009B1CC90748BF1D7050F8041B0029E7D13C
:1062000030BC704738B50500DFF8144B2078002803
:1062100003D0022810D008D317E04FF4FA70DFF84B
:106220002C1C886000F07EFD11E06420DFF81C1C4F
:10623000886000F078FD0AE0002020700121DFF87E
:106240000C0CFFF799FF01200BE000202070207854
:10625000401C20702900C9B2DFF8F00BFFF799FF4E
:10626000012032BD80B50100C9B2DFF8E00BFFF7B5
:1062700090FF012002BD0120704770B5040000F0BE
:10628000CBFF012842D1DFF8C05A42F21070DFF88C
:10629000BC1B896CB0FBF1F0288000F0B1FF012835
:1062A00012D1DFF8A80A417801290DD1017C491CDF
:1062B0000174017C2A8889B2914205D300210174BE
:1062C0000021417006F070FCDFF8845AA88CE98C3C
:1062D00088421BD0DFF8746A7078002816D1DFF886
:1062E000741A022001F0B6F9002030740120707099
:1062F0000020B070022006F0F9FB032006F0F6FB48
:106300002B8C00220121707C00F0E9FA2100C9B237
:10631000DFF8380BFFF73DFF012070BD70B50400BA
:1063200000F07AFF01281ED1DFF82C5AA88CE98CE6
:10633000884218D0DFF8146A7078002813D1DFF88B
:10634000101B022001F086F90020307401207070CB
:106350000020B070062006F0C9FB2B8C0022032120
:10636000707C00F0BCFA2100C9B2DFF8E00AFFF748
:1063700010FF012070BD70B5040000F04DFF012832
:106380001ED1DFF8D05AA88CE98C884218D0DFF8EB
:10639000BC697078002813D1DFF8BC1A022001F024
:1063A00059F900203074012070700020B07007206F
:1063B00006F09CFB2B8C00220621707C00F08FFAEB
:1063C0002100C9B2DFF8840AFFF7E3FE012070BDA7
:1063D00038B5ADF5027D0400DFF8805A280005F0DD
:1063E00064F8002848D0DFF8781A032001F032F969
:1063F00000226946280004F0FAFF9DF807020028F1
:1064000003D0022831D02FD330E0DFF8585A287853
:10641000012828D195F81C02012824D001219DF8DB
:10642000060200F03FFE10F1010F07D001219DF898
:10643000060200F037FEC5F8040202E08098C5F8B5
:106440000402BDF80402A5F80802BDF8042269465A
:10645000281D01F0CDF9012085F81C020021DFF88C
:10646000080AFFF789FE01E000E0FFE72100C9B25A
:10647000DFF8D809FFF78DFE01200DF5037D30BD53
:1064800038B5040000F0C8FE012827D1DFF8BC5859
:106490002879012822D1E888298988422AD0012038
:1064A000A870DFF8C00990F81D02002816D1E8682E
:1064B000038CE868C268E988E868008C00FB012268
:1064C0000721687C00F00BFAE888411CE980E96844
:1064D000498C80B2884201D30020E880DFF86C0844
:1064E000407901280AD12100C9B2DFF86009FFF71D
:1064F00043FE09E000202871012006E02100C9B216
:10650000DFF84809FFF745FE012032BD80B509F0EC
:106510005EF8002806D1DFF8101C022001F09AF87E
:1065200000F054FA012002BD70B5002000240025BF
:1065300041E0DFF818692800C0B20001304440781B
:10654000012837D12800C0B2042808D02800C0B2E2
:10655000052804D02800C0B2062800D00124280055
:10656000C0B200013044406800280ED008F08EFC14
:106570002900C9B2090131444968401A2900C9B249
:10658000090131448968884214D300202900C9B226
:1065900009013144487008F079FC2900C9B20901A9
:1065A000314448602800C0B22900C9B20901314411
:1065B000C96888476D1C2800C0B20928B9DB09F0FA
:1065C00050F9044309F0BFF804432000C0B270BD85
:1065D00080B5DFF8CC3A4FF402720A21DFF87C086C
:1065E00004F0D8FEDFF8443B08221421DFF8400B0A
:1065F00004F0D0FE0020DFF85417487400F036FC99
:1066000009F09DF8DFF85C08012101700FF24901E3
:10661000C0F820120FF2A111C0F824120FF21131AC
:10662000C0F82C120FF2A531C0F83012DFF8040BBD
:10663000DFF8E01B41670FF2FD31C0F88C100FF25C
:106640000541C0F890100FF20D41C0F894100FF200
:106650001541C0F8981001BD1CB5040001220021AD
:10666000DFF8F80704F0C3FE200000F065FD002805
:106670000AD0022837D026D3042863D052D3062864
:1066800000F0898068D396E0DFF82C1B022000F030
:10669000E1FFDFF8BC46200000F08DFA00280CD1A5
:1066A000208C019011200090DFF8343B0022012162
:1066B000DFF89806407C00F0BBF80421DFF8600B9F
:1066C000FFF75AFD77E0DFF81C1B022000F0C2FF45
:1066D0000121DFF87C0600F0A6FA0421DFF8400B68
:1066E000FFF74AFD67E0DFF8141B022000F0B2FF5D
:1066F000DFF86446200000F05EFA00280CD1208C00
:10670000019011200090DFF8D83A00220321DFF831
:106710003C06407C00F08CF80521DFF8040BFFF705
:106720002BFD48E0DFF8FC1A022000F093FF012166
:10673000DFF8240600F077FA0521DFF8E40AFFF716
:106740001BFD38E0DFF8E01A022000F083FFDFF8DD
:10675000DC0A00F030FA2EE0DFF8D41A022000F054
:1067600079FFDFF8F046200000F025FA00280CD170
:10677000208C019011200090DFF8643A002206215D
:10678000DFF8C805407C00F053F80621DFF8900AD6
:10679000FFF7F2FC0FE0DFF89C1A022000F05AFF2E
:1067A0000121DFF8B00600F03EFA0621DFF8700A9A
:1067B000FFF7E2FCFFE713BD7CB504000D001600F7
:1067C000002001220021DFF8680904F010FE009586
:1067D000ADF8046000984078000200998978451867
:1067E000DFF868058078002803D0022818D00AD383
:1067F0001DE0200000F0A0FC2A0092B20099C0B277
:1068000000F0ACFA13E0280080B2B0F5807F00DB26
:10681000FC25290089B20098C01C00F0FBF806E0B6
:10682000BDF804200099200000F080F8FFE773BD58
:10683000F8B5ADF5027D889C0025002600268DF870
:1068400007028DF806128092A52069462A0092B2AE
:1068500088546D1C200080B2000A69462A0092B25A
:1068600088546D1C6846290089B244546D1C002070
:1068700008E0010089B2595C6A462F00BFB2D155C9
:106880006D1C401C0100220089B292B29142F0D3EB
:106890008998010089B2491E2A0092B2914200DA19
:1068A000451E6D1C002105E068460A0092B2805C1E
:1068B0004640491C080080B22A0092B2521E904203
:1068C000F2DB6846290089B2084400F8016CADF893
:1068D0000452684600F078FC0DF5037DF0BD70B5FC
:1068E0000C0015001E0000212000C0B200F0DAFBF1
:1068F00010F1010F09D000212000C0B200F0D2FB3E
:10690000DFF86015C1F80C0203E0DFF85805C0F8A5
:106910000C52DFF85005A0F81062012180F81D121A
:106920000121DFF84405FFF727FC70BD7047000028
:1069300070B504000D00160001220021DFF81C05CF
:1069400004F055FD320092B22900200000F0B4F9A5
:1069500000F09CFC012833D0200000F0EDFB002863
:1069600006D002280ED0042816D005281ED027E015
:10697000DFF8C418022000F06DFEDFF8D40300F049
:106980001AF91DE0DFF8B418022000F063FEDFF80A
:10699000C80300F010F913E0DFF8A418022000F09B
:1069A00059FEDFF8880800F006F909E0DFF89418CE
:1069B000022000F04FFEDFF89C0400F0FCF8FFE737
:1069C0000021DFF85C08FFF7D7FB70BD80B5DFF86A
:1069D0008003002181840021C184DFF87C03002131
:1069E00081840021C184DFF84408002181840021D2
:1069F000C184DFF86004002181840021C18400F09B
:106A0000F1FADFF848134869002801D04869804747
:106A100001BD704710B50A00DFF83043A1690029B5
:106A200005D0002392B201006079A469A04710BD8F
:106A30000000000080B5010089B2042000F019F8C0
:106A400001BD000080B5010089B2002000F011F8FE
:106A500001BD000080B5010089B2022000F009F8F4
:106A600001BD000080B5010089B2052000F001F8E9
:106A700001BD38B505000C00200080B200284AD0C6
:106A800000F0CAFB012846D1EDB2002D06D0022D40
:106A900008D0042D0AD0052D0DD011E0AC48AB492B
:106AA000C8600DE0AC48A949C86009E0DFF87C0780
:106AB000A649C86004E0DFF89C03A449C860FFE76A
:106AC000A2492000CA68528C80B2904223D2012091
:106AD0000871DFF8740700784871C868C08C0881B5
:106AE0000889220092B2904203D30889041BCC800B
:106AF00005E0C868428C08898218141BCC800821E4
:106B0000DFF84803FFF738FBDFF84017022000F0FA
:106B1000A1FD012005E0DFF83817022000F09AFD02
:106B2000002032BD1CB5C0B20028012806D9801E45
:106B3000012817D9C01E012828D93BE0844C012127
:106B4000200000F094F800280BD1208C01900E203A
:106B50000090DFF80037002201217C48407CFFF7DD
:106B600067FE27E07C4C0121200000F080F800281F
:106B70000BD1208C01900E200090DFF8D836002237
:106B800003217248407CFFF753FE13E0B14C012112
:106B9000200000F06CF800280BD1208C01900E2012
:106BA0000090DFF8B036002206216848407CFFF7ED
:106BB0003FFEFFE713BD38B504000125E08C401C03
:106BC000618C90FBF1F201FB1200E084E168E28C41
:106BD000208C00FB0211216000F058FB012803D13A
:106BE0002068FFF716FF01E000F0FCF9E08CA18CB3
:106BF000884215D100F04AFB012801D100250FE0A1
:106C0000A08C401C618C90FBF1F201FB1200A0846F
:106C10006169A28C208C00FB0211616000F0E2F936
:106C20002800C0B232BD10B504000020474A5070A1
:106C3000A08CE28C904218D0A08CC9B20818618C4C
:106C400090FBF1F201FB1200A0846169A28C208C00
:106C500000FB0211616000F019FB012803D160689C
:106C6000FFF7D7FE01E000F0BDF9012010BD70B5BF
:106C700005000E000124A88CE98C884219D000F090
:106C800005FB012801D1002413E000202F494870A2
:106C9000A88CF6B23018698C90FBF1F201FB12005F
:106CA000A8846969AA8C288C00FB0211696000F035
:106CB00099F92000C0B270BD70B50C001500032119
:106CC00000F03AFA002804D0022824D0052824D065
:106CD00025E00226DFF88015032000F0BBFC2A1F08
:106CE00092B2E11C3000C0B205F0D4FEDFF86C2592
:106CF00092F85100002803D105211000FFF73CFA5B
:106D0000DFF85C2592F88100002803D108211000EB
:106D1000FFF732FA70BD0626DCE70726DAE7F9E767
:106D20004F6D0020704770470948818CC08C8142AC
:106D300005D1DFF83005818CC08C814201D0012063
:106D400000E0002070470000286D0020D869002076
:106D5000E0050020D80302080C060020FEB5040060
:106D600003250020002301262700FFB2002F012F5A
:106D700006D9BF1E012F07D9FF1E012F08D90AE02F
:106D80000225DFF8E40406E00625DFF8D80402E077
:106D900007253048FFE71700008CBFB287421CD29E
:106DA000C81C0090ADF80420002704E0380080B231
:106DB000085C43407F1C380080B294461FFA8CFC6C
:106DC0001CF1030C6045F1DB92B201EB0200C078CC
:106DD000DBB2834202D0002600E00026F6B2012E8C
:106DE0002AD1DFF88814022000F034FCBDF804201A
:106DF0000099032000F03CFCA8A1032000F02AFC2D
:106E0000BDF8042000992800C0B205F043FEDFF869
:106E10004C2492F85100002803D105211000FFF7FF
:106E2000ABF9DFF83C2492F8810000280DD108214D
:106E30001000FFF7A1F908E0DFF83414022000F099
:106E40005EFC2000C0B2FFF76DFEF7BD900600208B
:106E5000FC0302086406002020040208886A00205F
:106E600074000208704E0020D002002010B586B0D9
:106E70000020182100226C46200005F0A3FE00200F
:106E8000DFF8F0030078C0B2FF2873D018226946FB
:106E9000DFF8E40308F0ABF99DF800109DF801005D
:106EA00050EA0120DFF8C01302004B8C92B29A42E4
:106EB00000D3488C88849DF802209DF8030050EA96
:106EC000022002004B8C92B29A4200D3488CC884B4
:106ED000684602799DF8051051EA0221DFF8842303
:106EE0000B00548C9BB2A34200D3518C91849DF82B
:106EF00006309DF8071051EA03210B00548C9BB219
:106F0000A34200D3518CD184027A9DF8091051EA32
:106F10000221DFF868230B00548C9BB2A34200D3FC
:106F2000518C91849DF80A309DF80B1051EA032191
:106F30000B00548C9BB2A34200D3518CD184017BB3
:106F40009DF80D0050EA0120B84902004B8C92B226
:106F50009A4200D3488C88849DF80E209DF80F003B
:106F600050EA022002004B8C92B29A4200D3488C25
:106F7000C88401E000F036F8BB49CA68CB8C088CA5
:106F800000FB03220A604A698B8C088C00FB0322F9
:106F90004A60B449CA68CB8C088C00FB03220A60A3
:106FA0004A698B8C088C00FB03224A609F49CA689F
:106FB000CB8C088C00FB03220A604A698B8C088CFE
:106FC00000FB03224A60AD49CA68CB8C088C00FBE9
:106FD00003220A604A698B8C088C00FB03224A60FA
:106FE00006B010BD10B586B0182100226C462000F6
:106FF00005F0E8FDA5208DF8000068460C214170E1
:1070000099498A8C92B2120A8DF802208A8C8DF8E6
:107010000320CA8C92B2120A8DF80420C98C8DF814
:10702000051090498A8C92B2120A8DF806208A8C3B
:107030008DF80720CA8C92B2120A0272C98C8DF8A0
:1070400009108E498A8C92B2120A8DF80A208A8C15
:107050008DF80B20CA8C92B2120A0273C88C8DF87C
:107060000D007248818C89B2090A8DF80E10818C4E
:107070008DF80F10C18C89B2090A8DF81010C08CE0
:107080008DF811007B4C0121200008F0A1F8182296
:107090006946200008F040F806B010BD0D0A000057
:1070A0001014002002000020D2B2002A0BD0022AC5
:1070B00017D00BD3042A22D016D3062A25D021D3E9
:1070C000072A2DD02FE0684800682CE0C9B20029BB
:1070D00004D1654841688068081A01E06248406848
:1070E00021E0604800681EE0C9B2002904D15D4873
:1070F00041688068081A01E05A48406813E04B482C
:10710000006810E05D4800680DE0C9B2002904D1B4
:107110005A4841688068081A01E05848406802E00F
:107120005FF0FF30FFE770471C000208B85F0020E7
:10713000706A0020E05E002000214B4AD36898422C
:1071400004D31369984201D2002131E05369984277
:1071500004D39269904201D2012129E0414AD368C7
:10716000984204D31369984201D2022120E0536966
:10717000984204D39269904201D2032118E03F4A19
:10718000D368984204D31369984201D205210FE0D5
:107190005369984204D39269904201D2062107E0D4
:1071A000224AD368984203D31269904200D2042144
:1071B0000800C0B2704700004404020880B50221F4
:1071C0001748FEF7E6FF01BD80B5010000222D48FB
:1071D00004F0FEF807211248FEF7CEFF01BD0000C3
:1071E0006C1302086804020880B5264804F05DF9B3
:1071F000002801D1012000E0002002BD8C0402081B
:1072000080B51F4804F051F9002801D1012000E0A9
:10721000002002BDBD7100081B48007870470000C7
:1072200090060020B0040208D404020838060020AA
:10723000F80402081C05020840050208640502085B
:1072400088050208AC0502085D6D0020E81D0208F3
:10725000D005020860150208B008020820070020C7
:10726000C40300200C060020E0050020F4050208FD
:107270009C00020800A8070802A80708640600206E
:10728000706A0020886A0020704E0020002070473D
:1072900010B50C00DFF89C14096800F006F8A04255
:1072A00001D3012000E0002010BD814204D25FF034
:1072B000FF32101A081800E0081A704701B49DED5B
:1072C000000A01B07047F8B58AB0070014001D002D
:1072D0000020002000201E21002202AE300005F018
:1072E00071FCDFF85404D0E90023CDE9002302A8A3
:1072F0000090002D22D1002C20D130203968BA888E
:107300008854B888401CB88061E0200029000A2217
:10731000002308F0EDFA1600200029000A220023BD
:1073200008F0E6FA04000D0030360098BDF80410AD
:107330004654BDF80400401CADF80400002DE4D113
:10734000002CE2D100201CE00099BDF8042011447B
:10735000020092B25242114411F8011C009ABDF889
:1073600004301A4403009BB25B421A44009B0400A1
:10737000A4B21B5D02F8013C009A03009BB2D154F9
:10738000401CBDF80410022291FBF2F1020092B2FF
:107390008A42D9DB1099C9B2684600F01BF8002078
:1073A0000AE03968BA881144020092B2009B0400D6
:1073B000A4B21B5D8B54401C0100BDF8042089B2AF
:1073C0009142EED3B988BDF804004118B9800BB0E2
:1073D000F0BD000078B585B004000E000020142137
:1073E00000226D46280005F0EDFB0025002000205E
:1073F0000020A088012803D120680078302803D01D
:107400003000C0B2002800D18DE03000C0B2A188A9
:1074100080B288422BD3694630202A00D2B28854E9
:107420006D1C2E202A00D2B288546D1CA088361AFA
:10743000002005E030222B00DBB2CA546D1C401C3A
:1074400002003300DBB292B29BB29A42F2D3002028
:107450000200A38892B29A4234D2226803009BB2FF
:10746000D25C2B00DBB2CA546D1C401CF0E7A08834
:10747000861B002009E02168020092B2895C6A46FE
:107480002B00DBB2D1546D1C401C01003200D2B283
:1074900089B292B29142EED368462E212A00D2B22E
:1074A00081546D1CF6B208E02168320092B2895C0A
:1074B0002A00D2B281546D1C761C3100A28889B298
:1074C0009142F1D32800C0B2411E06E00A0092B2F8
:1074D000805C302800D16D1E491E080080B2002853
:1074E0000AD068460A0092B2825C302AEED089B295
:1074F000405C2E2800D16D1E200000F016F8002000
:107500000AE0A1884A1CA2806A4603009BB2D25CB2
:10751000236889B25A54401C01002A00D2B289B2B1
:1075200092B29142EDD306B070BD10B4002105E0D7
:10753000002203680C00A4B21A55491C0A00838873
:1075400092B29A42F4D30021818010BC704730B4CB
:10755000002200220022002300230DE00A25E4B2CD
:1075600005FB0244220006E000241D00EDB2002DC0
:10757000F4D1E4B222005B1C1C000D00E4B2EDB2B9
:10758000AC4209D21C00E4B2045D2500EDB2303DEE
:107590000A2DE9D2303CE8E7100030BC704730B427
:1075A00000220022002200221FE037330468150069
:1075B000ADB204EB4504637016E037330468150080
:1075C000ADB204F815300B681400A4B21B5D13F0C3
:1075D0000F031C00E4B20A2CE7DA3033046815000C
:1075E000ADB204EB45046370521C13008C889BB24F
:1075F000A34210D20B681400A4B21B5DDBB21B09BE
:107600001C00E4B20A2CD8DA303304681500ADB29D
:1076100004F81530D7E7898889B24900818030BCE9
:10762000704701E00170401C13005A1E9BB2002BF2
:10763000F8D1704780B50B001100C0B2032808DAFA
:10764000DFF8F8201068002803D089B2180012680B
:10765000904701BD38B504000D00280005F0E6FA9A
:10766000020092B229002000C0B2FFF7E3FF31BD53
:10767000F0B585B004000D001600022100226F460F
:10768000380005F09FFADFF8B800D0E90023CDE913
:10769000012368460190002715E0380080B2284495
:1076A00003900120ADF810000020ADF8080003A9F8
:1076B00001A8FFF774FFBDF8082001992000C0B2AF
:1076C000FFF7B8FF7F1C3800310080B289B28842D2
:1076D000E3D305B0F0BD38B50C0015002A0092B216
:1076E0002100C0B2FFF7A6FFDFF85820106800287D
:1076F00004D0290089B220001268904731BD38B506
:1077000004000D00280005F091FA020092B2290051
:107710002000C0B2FFF78EFFDFF828402068002865
:1077200007D0280005F082FA010089B228002268FB
:10773000904731BD006D002030220208086D002006
:1077400038220208046D00207CB505000C000621DB
:1077500000226E46300005F035FA0020002000209F
:107760000022002100E0491C0B00DBB2AE889BB276
:10777000B3422BD22B680E00F6B29B5D1E00F6B210
:107780002E2E0BD16B460600F6B29A55401C0022F5
:107790000300DBB2072BE6DB002028E01E00F6B278
:1077A000303E0A2E10D20A2606FB0233B3F1300215
:1077B0000B00DBB2AE88761EB342D4D16B46060016
:1077C000F6B29A55401CCEE7002010E0002107E0F9
:1077D0006A460B00DBB2D25C0B00DBB2E254491C00
:1077E0000A000300D2B2DBB29A42F1D3012076BD87
:1077F00003E00B780370491C401C13005A1E9BB217
:10780000002BF6D1704770B45FF0FF3200230023E5
:1078100000230C8800E0641C8588AC4205D2056812
:107820002D5DEDB2303D0A2DF5D28588AC4216D2E1
:10783000002205E00A26EDB2303D06FB02525B1C39
:107840008588AC420BD205682D5D641C1E00F6B223
:10785000082E04DA2E00F6B2303E0A2EEAD30C804F
:10786000100070BC70470268531C036011707047B1
:107870007CB50500002003220021684608F050F97D
:107880005C4C606980472800000C8DF800006E4653
:107890002800000A70708DF80250002505E02800CD
:1078A000C0B2305C216A88476D1C2800C0B2032832
:1078B000F5DBE06980470500A06980472800C0B279
:1078C00076BDF8B506000C0004220021684608F0D9
:1078D00027F90020474D6869804756F004063000BC
:1078E000000C8DF800006F463000000A78708DF8AB
:1078F00002608DF80340002405E02000C0B2385C2F
:10790000296A8847641C2000C0B20428F5DBA869F6
:107910008047F1BD2DE9FC4107000C001500032252
:107920000021684608F0FCF8324E70698047380044
:10793000000C8DF80000E8463800000A88F80100C5
:107940008DF80270002706E0380080B218F80000B9
:10795000316A88477F1C380080B20328F4DB002797
:1079600005E0F0698047390089B260547F1C380017
:10797000290080B289B28842F3D3B0698047BDE85C
:10798000F3812DE9FC4107000C00150003220021C2
:10799000684608F0C5F8174E7069804757F004072D
:1079A0003800000C8DF80000E8463800000A88F81E
:1079B00001008DF80270002706E0380080B218F848
:1079C0000000316A88477F1C380080B20328F4DB4E
:1079D000002705E0380080B2205C316A88477F1CB0
:1079E0003800290080B289B28842F3D3B069804759
:1079F000BDE8F381381300202DE9F0410400002593
:107A0000002042F208062000C0B2800016EBC00041
:107A1000FFF72EFF804642F208171FFA88F85FEA48
:107A200008282000C0B2800017EBC000FFF720FF3D
:107A300058FA80F8404680B2002814D02000C0B226
:107A4000800016EBC0063000FFF712FF0500ADB254
:107A50002D022000C0B2800017EBC0073800FFF7EE
:107A600007FF55FA80F5280080B21FFA88F84045D4
:107A7000C7D1280080B2BDE8F0812DE9F0410400B3
:107A80000025002042F208662000C0B2800016EBFC
:107A9000C000FFF7EDFE804642F208771FFA88F833
:107AA0005FEA08282000C0B2800017EBC000FFF793
:107AB000DFFE58FA80F8404680B2002814D020003B
:107AC000C0B2800016EBC0063000FFF7D1FE050003
:107AD000ADB22D022000C0B2800017EBC007380005
:107AE000FFF7C6FE55FA80F5280080B21FFA88F825
:107AF0004045C7D1280080B2BDE8F0812DE9F843A8
:107B000004000D00160000200020300080B2002884
:107B10003DD042F208472000C0B2800017EBC00001
:107B2000FFF7A6FE814642F208585FFA89F95FEA3C
:107B300009292000C0B2800018EBC000FFF798FEB2
:107B400059FA80F9494689B22000C0B28000801CF1
:107B5000C00010EB0120320092B22900FFF711FFA4
:107B600016EB0906310089B2090AC9B22000C0B279
:107B7000800017EBC0073800FFF7A3FE3100C9B241
:107B8000E4B2A00018EBC0084046FFF79AFEBDE83B
:107B9000F1832DE9F84304000D00160000200020B9
:107BA000300080B200283DD042F608072000C0B265
:107BB000800017EBC000FFF75BFE814642F6081815
:107BC0005FFA89F95FEA09292000C0B2800018EB4A
:107BD000C000FFF74DFE59FA80F9494689B22000EE
:107BE000C0B28000C01CC00010EB0120320092B275
:107BF0002900FFF78FFE16EB0906310089B2090A4A
:107C0000C9B22000C0B2800017EBC0073800FFF7F0
:107C100058FE3100C9B2E4B2A00018EBC0084046DB
:107C2000FFF74FFEBDE8F1832DE9F04104000D00A0
:107C3000002042F608062000C0B2800016EBC0000B
:107C4000FFF716FE804642F608175FFA88F85FEAEB
:107C500008282000C0B2800017EBC000FFF708FE24
:107C600058FA80F02D18290089B2090AC9B22000FB
:107C7000C0B2800016EBC0063000FFF722FE2900DC
:107C8000C9B2E4B2A00017EBC0073800FFF719FE35
:107C9000BDE8F08180B518220021DFF8C002FFF7AF
:107CA000C0FC4FF480620021DFF8B402FFF7B9FC9A
:107CB0000FF25D10DFF8AC120968884702BD78B595
:107CC00085B01C000023ADF802300023DFF88C32B1
:107CD0001D7A854202D27FF0040052E0D868084045
:107CE000884202D07FF005004BE05868002806D09B
:107CF000002A04D00DF1020101A85A6890470AAD8C
:107D00002B0022004FF40071DFF85C0207F0B9FF8E
:107D1000060000F011F96946BDF80200861930002E
:107D200080B200F0BCF810F1010F26D000200EE068
:107D300001A9020092B2895CDFF82422BDF800306C
:107D4000D154BDF80010491CADF80010401C0100D2
:107D5000BDF8022089B29142EAD32B0022004FF4F1
:107D60000071DFF8FC01BDF80040204407F089FFF6
:107D700000F0E7F800F00AF803E000F0E2F87FF026
:107D8000020006B070BD75490872704738B500250D
:107D9000002000F0DBF8002837D100F0CDF86F4C60
:107DA000208A618A88422ED0A07801280ED12188AD
:107DB000208A091AA1820220A07000202080A08AB7
:107DC000002803D10020A07000202082A078002885
:107DD0000CD1208A618A884204D2618A208A091AD9
:107DE000A18203E0208AD0F58060A0825C48218ACD
:107DF00000EB010500F0BAF8A18A2800594A926800
:107E00009047050001E000F09CF8280040B232BD28
:107E100080B5002051498878022804D1002088705C
:107E20000020088205E0088A8A8A10188005800DE3
:107E30000882088A4A8A90422CD0C88A012829D10F
:107E4000887801280ED10A88088A121A8A820220AC
:107E5000887000200880888A002803D1002088705C
:107E600000200882887800280CD1088A4A8A90422B
:107E700004D24A8A088A121A8A8203E0088AD0F554
:107E80008060888236480A8A1044898A354A926816
:107E9000904703E007F0BAFF00F053F801BD70B45B
:107EA0005FF0FF322D4B5C8A1D8AAC4215D15C8A93
:107EB000D4F5806405002600ADB2B6B2B54229D330
:107EC00005001E8AADB2B54224D201249C705C8AA2
:107ED0001C801C8A00255D821CE01C8A5D8AAC42E5
:107EE00015D25C8AD4F5806405002600ADB2B6B226
:107EF000B5420FD305001E8AADB2B5420AD20124A5
:107F00009C705C8A1C801C8A00255D8202E01D8AB0
:107F10005C8A2C1B0500ADB2A4B2A54208D25A8AD5
:107F20000A80598A80B240188005800D588200224C
:107F3000100000B270BC70470848C18A491CC18259
:107F400070470648C18A491EC18270470348C08AEB
:107F5000002801D1002000E001207047106A0020B5
:107F600070460020801D0208E05400207047002069
:107F7000BFF34F8FDFF8101A0A6812F4E062DFF8DF
:107F8000C00C02430A60BFF34F8F00BFFDE72DE92D
:107F9000F84F00F064F900F01DF900F0D7F9DFF8B0
:107FA000B00ADFF8B01A0A6802604A6842608A685C
:107FB0008260CA68C2608A6A8262CA6AC2620A6BE6
:107FC00002634A6B4263CA6BC2634A6E42668A6E40
:107FD00082660A6F02678A6F82674A694261CA696C
:107FE000C2618A6982610A6A02624A6A4262CA6F2F
:107FF000C267D1F88010C0F88010DFF85C6A0FF219
:108000001D60C6F8A8020FF25D61C6F8AC12DFF879
:108010004C2AC6F8B0220022C6F8B422DFF8402A63
:10802000C6F8B822DFF83C2AC6F8BC22DFF8382AA6
:10803000C6F8C022DFF8B82C12F10C03C6F8A4323F
:10804000DFF8284AC6F89842DFF8245AC6F89C524E
:10805000A71CC6F8A072DFF81C6ADFF81C7AFE6065
:1080600012F18007DFF814AACAF8007012F1880C28
:10807000CAF804C012F1A00ECAF808E012F1A8086C
:10808000CAF80C8012F1B009CAF81090DFF8F0A914
:10809000DFF8F0B9CAF804B0DFF8ECB9CAF800B0FC
:1080A000DFF8E8B9CAF808B0DFF8E4B9CAF80CB0EC
:1080B000DFF8E0A90FF2D55BCAF850B00FF2296BD8
:1080C000CAF854B0DFF8D0B9CAF85CB0CAF840308A
:1080D00012F1C00BCAF848B0DFF8C0A9CAF8140002
:1080E0000FF2696BCAF818B0DFF858ABCAF87C0019
:1080F000CAF880100020CAF88400CAF88860CAF85C
:108100000030CAF87040CAF87850A01CCAF8740051
:10811000CAF82470CAF828C012F19000CAF82C00DE
:1081200012F19800CAF83000CAF834E0CAF8388072
:10813000CAF83C9012F1B800CAF8400012F1BC0035
:10814000CAF8440012F1BE00CAF84800DFF8481B24
:10815000101DC1F8A400DFF8443B12780C20424304
:1081600003EB0200001DC1F8A000DFF8340BC1F8DA
:10817000CC00DFF8300BC1F8D000DFF8600BC1F89D
:10818000D400DFF85C0BC1F8D800DFF8680BC1F849
:10819000DC00DFF8740BC1F8E000DFF8780BC1F801
:1081A000E400DFF8740BC1F8E800DFF8700BC1F8E9
:1081B000EC000020C1F8F000DFF8800BC1F8F400FB
:1081C000DFF87C0BC1F8F800DFF8000CC1F8FC0008
:1081D000BDE8F18F80B50020DFF8F40B0078C0B265
:1081E000FF280AD0DFF8080B0E2310F108024168BF
:1081F000DFF8E00B07F020F801E000F001F801BD26
:1082000010B58AB00020282100226C46200004F01E
:10821000D9FCA5208DF80000DFF8D41A08898DF864
:108220000100002009E04A680300DBB2D25C6B4623
:108230000400E4B223449A70401C0200D2B20B89BD
:1082400092B29A42EFD3DFF8884B200006F09CFFF1
:1082500028226946200006F05FFF0AB010BD10B565
:1082600086B00020182100226C46200004F0AAFCF1
:108270000020DFF8640B0078C0B2FF282ED018224F
:108280006946DFF8540B06F0B2FF9DF80100C0B25A
:10829000182825DADFF8580A9DF8021001749DF8B5
:1082A0000310416141699DF8042052EA01224261B4
:1082B0009DF80510816181699DF8062052EA01222E
:1082C000826181699DF8072052EA012282618169F9
:1082D0009DF8082052EA0122826101E000F002F8D4
:1082E00006B010BD10B586B0182100226C462000E3
:1082F00004F068FCA5208DF8000068460721417055
:10830000DFF8EC190A7C8DF802204A69120A8DF810
:1083100003204A698DF804208A69120E8DF8052021
:108320008A69120C8DF806208A69120AC27189695D
:108330000172DFF8A44A0121200006F049FF102253
:108340006946200006F0E8FE06B010BD70B50020BA
:108350000020DFF8EC0B0078C0B2A52840F089803F
:108360000126DFF8DC4BDFF88859282315F12402B9
:10837000296A54FA86F006F05FFFA88C401C861923
:108380000A2315F12C02A96A54FA86F006F054FF6C
:10839000A88D401C8619282315F13402296B54FA44
:1083A00086F006F049FFA88E401C8619282315F197
:1083B0003C02A96B54FA86F006F03EFF40262823C3
:1083C00015F15402296D54FA86F006F035FFB5F820
:1083D0005400401C86190A2315F15C02A96D54FA59
:1083E00086F006F029FFB5F85C00401C86192823AA
:1083F00015F16402296E54FA86F006F01DFFB5F8F7
:108400006400401C8619282315F16C02A96E54FAE9
:1084100086F006F011FF15F1400115F12000FFF77D
:1084200093F9012803D1002085F84C0002E00120D7
:1084300085F84C00A98DC9B2A86AFFF788F8A5F89D
:10844000440015F1700115F15000FFF77DF9012886
:1084500003D1002085F87C0002E0012085F87C0033
:10846000B5F85C10C9B2A86DFFF771F8A5F87400F3
:1084700001E000F001F870BD38B5C0B04FF4807174
:1084800000226C46200004F09DFB0022002068467C
:10849000A5211300DBB2C154521CDFF854188B8C99
:1084A0001400E4B20355521C002308E00C6A1D00BE
:1084B000ADB2645D1500EDB24455521C5B1C1C004E
:1084C0008D8CA4B2AC42F1D38B8D1400E4B2035571
:1084D000521C002308E08C6A1D00ADB2645D1500DB
:1084E000EDB24455521C5B1C1C008D8DA4B2AC42F5
:1084F000F1D38B8E1400E4B20355521C002308E024
:108500000C6B1D00ADB2645D1500EDB24455521CFC
:108510005B1C1C008D8EA4B2AC42F1D38B8F140077
:10852000E4B20355521C002308E08C6B1D00ADB271
:10853000645D1500EDB24455521C5B1C1C008D8F10
:10854000A4B2AC42F1D34022B1F854301400E4B2EA
:108550000355521C002308E00C6D1D00ADB2645D94
:108560001500EDB24455521C5B1C1C00B1F8545070
:10857000A4B2AC42F0D3B1F85C301400E4B20355BD
:10858000521C002308E08C6D1D00ADB2645D150027
:10859000EDB24455521C5B1C1C00B1F85C50A4B2F7
:1085A000AC42F0D3B1F864301400E4B20355521C6D
:1085B000002308E00C6E1D00ADB2645D1500EDB245
:1085C0004455521C5B1C1C00B1F86450A4B2AC4270
:1085D000F0D3B1F86C301400E4B20355521C002300
:1085E00008E08C6E1D00ADB2645D1500EDB244551F
:1085F000521C5B1C1C00B1F86C50A4B2AC42F0D30E
:10860000DFF83C49200006F0BFFD4FF48072694658
:10861000200006F081FD41B030BD000080B5DFF8DC
:108620008C0B007D012816D1DFF8840B007D01281A
:1086300011D1DFF8800B00F057F808F0FBFD01289E
:108640000ED100220421DFF8B00B05F09CFD72B6BC
:10865000FFF78EFC04E0DFF8E81B0120FEF7FAFFCD
:10866000002002BD80B5DFF8940B00F03DF808F063
:10867000E1FD012808D100220421DFF87C0B05F080
:1086800082FD72B6FFF774FC002002BD70B50400D5
:108690000D002A0092B221000220FFF71CF8DFF83B
:1086A000CC0323210269838AD154818A491C8182A7
:1086B000002109E00A0092B2A25C0369868A9A55F9
:1086C000828A521C8282491C0A002B0092B29BB201
:1086D0009A4203D2828AB2F5007FEBDB0120DFF8F9
:1086E000B815C86470BD000070B50400200004F027
:1086F0009DFA0500DFF87463B08A10FA85F0401C1B
:10870000B0F5007F20DA21000220FEF7F8FF2320D9
:108710003169B28A8854B08A401CB082002009E0D6
:10872000010089B2615C3269B38AD154B18A491CB3
:10873000B182401C01002A0089B292B29142EFD36B
:108740000120DFF85415C86470BD0000F8B50C00B6
:1087500015001E000021C0B2401E03D0401E01289B
:108760000AD963E04FF47A732A0092B22100DFF84D
:10877000D40A09F0F4FA59E0DFF8CC7A4FF48072A9
:1087800000213800FEF74DFFB848002181812821E3
:108790008289B9548189491C8181002209E00968D4
:1087A00013009BB2C95C8389F9548189491C81817A
:1087B000521CDFF88C1B1300B1F804C09BB2634558
:1087C000EDD329228389FA548289521C828128227E
:1087D0008389FA548289521C828100220AE01300A4
:1087E0009BB2E35CB0F80CC007F80C3083895B1CCB
:1087F0008381521C1300AC469BB21FFA8CFC63456C
:10880000EDD329228389FA548289521C8281002067
:108810008880F6B2002E04D10120DFF87C14886332
:1088200003E00120DFF870144862FFE7F1BD2DE995
:10883000F8430C0015000021C0B2401E03D0401EBA
:1088400001280DD968E0200004F0F0F94FF47A73A4
:10885000020092B22100DFF8EC0909F080FA5BE037
:10886000DFF8E4694FF4807200213000FEF7D9FE92
:108870007E4F0020B8812820B9897054B889401CE7
:10888000B88100200AE0D8F80010020092B2895C9A
:10889000BA89B154B989491CB981401CDFF8A08A52
:1088A0000100B8F8042089B29142ECD32920B9899B
:1088B0007054B889401CB8812820B9897054B8898F
:1088C000401CB8815FF0000909E0484680B2205C96
:1088D000B9897054B889401CB88119F10109200088
:1088E00004F0A4F9494689B28142EED32920B9891E
:1088F0007054B889401CB8810020A8F80400EDB27B
:10890000002D04D10120DFF89013886303E00120DB
:10891000DFF884134862FFE7BDE8F18380B507F014
:10892000DBFF00F033F80AF0D1F9DFF8000B0AF0B2
:10893000C8FB0BF0E0F8DFF8F80A09F0E8F90BF0F3
:10894000E0F8DFF8000909F0E2F90BF0E0F8DFF8F1
:10895000E40A09F0DCF9DFF8380C09F0D8F901BDB8
:1089600080B500F09DF80BF0C6F80BF041FB0BF062
:1089700083F80BF0C6F80BF05BFB0BF092F80BF0F2
:10898000F9FA01BD704770470CED00E010B586B0F4
:10899000142100226C46200004F014F9DFF8F40BD7
:1089A000016851F004010160016811F004010591B2
:1089B0000599016851F080010160016811F08001A2
:1089C00005910599016851F001010160016811F0FC
:1089D000010105910599016851F0020101600168EA
:1089E00011F0020105910599016851F0080101603B
:1089F000006810F008000590059803200190002001
:108A0000029040F21310009069465FF0904005F02C
:108A100039FA442000906946DFF87C0B05F032FA01
:108A200042F24A1000906946DFF8CC0705F02AFAB6
:108A3000042000906946DFF8640B05F023FA032058
:108A400000906946DFF8700D05F01CFA06B010BD05
:108A5000E05E00209C0F002000000020498D0008EF
:108A6000EF930008DF930008C19A0008980E0020D9
:108A7000990E0020C78D0008B8690020F867002013
:108A8000186C0020F7930008059400081394000860
:108A90001D940008280A0020938C0008D869002043
:108AA00070B586B0142100226C46200004F08AF8CC
:108AB000DFF8E00A016851F004010160016811F07B
:108AC000040105910599016851F080010160016878
:108AD00011F0800105910599016851F001010160D3
:108AE000016811F0010105910599016851F0020139
:108AF0000160016811F0020105910599016851F0CA
:108B000008010160006810F008000590059842F225
:108B10000A05DFF8E46600222900300005F033FB87
:108B2000002240F203115FF0904005F02CFBDFF8CB
:108B30006C4A00220421200005F025FB009501204D
:108B4000019000200290002003906946300005F05B
:108B500099F90320009000200190002002906946BE
:108B6000DFF8540C05F08EF90120009001200190EF
:108B7000022002900020039069465FF0904005F0CB
:108B800081F9022000900120019000200290002035
:108B9000039069465FF0904005F074F91020009052
:108BA000002001900020029069465FF0904005F09F
:108BB00069F9042000900020019001200290DFF864
:108BC000D8596946280005F05DF94FF4A07000906F
:108BD00000200190002002906946300005F052F913
:108BE0004FF480700090012001900020029003203B
:108BF000039069465FF0904005F044F9042000902E
:108C0000012001900020029000200390694620007E
:108C100005F038F9402000905FF404100190012025
:108C200002906946280005F02DF900220021172046
:108C30000BF08BFC17200BF099FC06B070BD000008
:108C40000400FA055860002038B50A0092B2142AD0
:108C500000D31421002208E013009BB2C35CDFF8AC
:108C60009C4B1500ADB26355521C13000C009BB217
:108C7000A4B2A342F0D3DFF8840B00220B009BB216
:108C8000C254304A50601181FFF7BAFAFFF7EAFC8C
:108C900031BDDFF8EC0C70477410002034FE010881
:108CA00039940008A195000880B50200D2B2002ACC
:108CB00011D00200D2B2332A0DDA0A0092B23D2A54
:108CC00009DA204A107489B25161FFF70BFB0BF0EF
:108CD000D2FE012000E0002002BD0000399700080C
:108CE0006B970008174A137C03705069088070471F
:108CF000C00E00207397000880B512498861FFF705
:108D0000F1FA0BF0B8FE01BDBD9700080D49896965
:108D10000160704701980008519800088D9900087B
:108D200080B50100C9B2332905DA06490874FFF796
:108D3000D9FA012000E0002002BD0000599A000885
:108D4000639A0008C00E002070B505000E002800D0
:108D50000CF00FF8012831D1DFF8284CA87984F8FD
:108D60002200687984F82100287984F82000287886
:108D7000207768786077A878A077E878E077310086
:108D8000C9B214F11C000CF01EF8012314F11C00F0
:108D900007C80CF06BF8DFF8F01BB0FBF1F0801D9A
:108DA0000721B0FBF1F201FB1200401CE077032128
:108DB000DFF8E40CFDF7E0F9012000E0002070BDD1
:108DC000DFF8D80C7047DFF8D80C70476D9A0008B0
:108DD00000F0070801F0070800E807082DE9F04156
:108DE00004000D0016001F000020A088002800F0DD
:108DF000A380A088282880F29F80A888002800F0FF
:108E00009B80A8880A2880F29780B088292801DBF7
:108E10002820B080B888292801DB2820B8802822A3
:108E20000021DFF8280CFEF7FCFB0A220021DFF806
:108E3000200CFEF7F6FB28220021DFF8180CFEF7C5
:108E4000F0FB28220021DFF85C0CFEF7EAFBDFF8DC
:108E5000588CA088A8F82400002009E021680200AE
:108E600092B2895CD8F8202003009BB2D154401CF8
:108E70000100B8F8242089B29142EFD3A888A8F85D
:108E80002C00002009E02968020092B2895CD8F821
:108E9000282003009BB2D154401C0100B8F82C20BC
:108EA00089B29142EFD3B088A8F83400002009E0DD
:108EB0003168020092B2895CD8F8302003009BB27E
:108EC000D154401C0100B8F8342089B29142EFD34C
:108ED000B888A8F83C00002009E03968020092B286
:108EE000895CD8F8382003009BB2D154401C0100A3
:108EF000B8F83C2089B29142EFD30698C8F84800F0
:108F000018F1400118F12000FEF71EFC012803D1E2
:108F1000002088F84C0002E0012088F84C00B8F8E6
:108F20002C10C9B2D8F82800FEF711FBA8F84400AD
:108F3000FFF7A2FA012000E00020BDE8F081000068
:108F400000E007082DE9F04104000D0016001F00A5
:108F50000020A088002800F0A380A088282880F2A4
:108F60009F80A888002800F09B80A8880A2880F2AB
:108F70009780B088292801DB2820B080B88829286C
:108F800001DB2820B88028220021DFF8200BFEF723
:108F900048FB0A220021DFF8180BFEF742FB2822CB
:108FA0000021DFF8100BFEF73CFB28220021DFF840
:108FB000080BFEF736FBDFF8F08AA088A8F854000B
:108FC000002009E02168020092B2895CD8F85020A4
:108FD00003009BB2D154401C0100B8F8542089B260
:108FE0009142EFD3A888A8F85C00002009E0296826
:108FF000020092B2895CD8F8582003009BB2D15489
:10900000401C0100B8F85C2089B29142EFD3B088CF
:10901000A8F86400002009E03168020092B2895C7F
:10902000D8F8602003009BB2D154401C0100B8F86E
:10903000642089B29142EFD3B888A8F86C00002070
:1090400009E03968020092B2895CD8F86820030010
:109050009BB2D154401C0100B8F86C2089B29142F7
:10906000EFD30698C8F8780018F1700118F1500095
:10907000FEF76AFB012803D1002088F87C0002E09B
:10908000012088F87C00B8F85C10C9B2D8F8580004
:10909000FEF75DFAA8F87400FFF7EEF9012000E092
:1090A0000020BDE8F08130B400210021002308E059
:1090B000126A1C00A4B2125D0C00A4B20255491C35
:1090C0005B1CDFF87C2C1C00958CA4B2AC42EFD367
:1090D0003A230C00A4B20355491C002308E0946A0B
:1090E0001D00ADB2645D0D00ADB24455491C5B1C62
:1090F0001C00958DA4B2AC42F1D3080080B230BC04
:10910000704730B400210021002308E0126D1C00DC
:10911000A4B2125D0C00A4B20255491C5B1CDFF81E
:10912000202C1C00B2F85450A4B2AC42EED33A2327
:109130000C00A4B20355491C002308E0946D1D00E7
:10914000ADB2645D0D00ADB24455491C5B1C1C0002
:10915000B2F85C50A4B2AC42F0D3080080B230BC8C
:10916000704710B5DFF81C180878012804D10020DA
:10917000087000F0E7F806E00878002803D1012025
:10918000087000F0DFF8DFF8BC4B012084F86000C5
:109190000121DFF8B40BFCF7EFFF94F8600007281B
:1091A00001DA04F0C6FC012010BD0000B86A0020FE
:1091B000D06A0020381002081FB5089C0294079C52
:1091C0000194069C009400F041F80320DFF8B417E6
:1091D0004870DFF8704B012084F860000121DFF84F
:1091E000680BFCF7C9FF94F86000072801DA04F067
:1091F000A0FC012004B010BD000800486401020872
:109200001FB5089C0294079C0194069C009400F0F2
:109210001DF80220DFF86C174870DFF8284B01209A
:1092200084F860000121DFF8200BFCF7A5FF94F81B
:109230006000072801DA04F07CFC012004B010BDB6
:10924000B00A020870620020E05D00202DE9FF4FA7
:1092500081B0DFF85448DFF8F4BA5846FEF765F9F4
:10926000DFF8EC5A2800FEF760F9DFF8E86A300012
:10927000FEF75BF9DFF8E07A3800FEF756F9DFF821
:10928000DC8A4046FEF751F9DFF8D49A4846FEF7EB
:109290004CF9DFF8D0AA5046FEF747F92823019889
:1092A0008288D2B20199584603F0C1FD0A23029880
:1092B0008288D2B20299280003F0B9FD28230398CE
:1092C0008288D2B20399300003F0B1FD28230498BC
:1092D0008288D2B20499380003F0A9FD1E230E98AB
:1092E0008288D2B20E99404603F0A1FD1E230F984A
:1092F0008288D2B20F99484603F099FDC82310988E
:109300008288D2B21099504603F091FD14F1B80151
:109310005846FEF719FA012803D1002084F8BE0050
:1093200002E0012084F8BE00B4F88C10C9B2D4F871
:109330008800FEF70CF9A4F8BC0005B0BDE8F08F7A
:10934000940F002070B4DFF83C060078002822D18A
:10935000DFF8540710F12002DFF8E8194A6010F135
:1093600028038B6010F13004CC6010F138050D61DA
:1093700010F140064E6110F144068E6110F148066E
:10938000CE614C300862DFF8E0098261C36104629B
:109390004562866221E0DFF8100710F15002DFF825
:1093A000A4194A6010F158038B6010F16004CC607E
:1093B00010F168050D6110F170064E6110F1740630
:1093C0008E6110F17806CE617C300862DFF8980972
:1093D0008261C36104624562866270BC704780B579
:1093E0000AF089FB0AF004FE0AF046FB01BD80B5D5
:1093F0000AF081FB01BD80B50121DFF89C06FCF776
:10940000BBFE01BD80B50121DFF86009FCF7B4FEA9
:1094100001BD0120DFF858190870704780B502219E
:10942000DFF87406FCF7A8FE01BD0000F46300201D
:10943000EC6100206861002070B58AB00400002053
:1094400000252021002202AE300003F0BBFB0020EB
:10945000AA20019006200090DFF840360122211D4D
:1094600020680BF067FD0020019001200090DFF8DC
:1094700004390622211D20680BF05CFD00200190BC
:1094800002200090DFF8F0380822211D20680BF040
:1094900051FD04F075FC0100888800280AD0AA203C
:1094A00001908888C0B200900B680B22211D2068B3
:1094B0000BF040FDDFF8CC04007800280DD102A8A5
:1094C000FFF7F1FDAA210191C0B2009002AB0C227E
:1094D000211D20680BF02EFD0CE002A8FFF7E3FD34
:1094E000AA210191C0B2009002AB0C22211D20687C
:1094F0000BF020FDDFF8A805AA2101918188C9B2EF
:10950000009103680F22211D20680BF013FDDFF886
:10951000340890F860000A280BD1AA200190082096
:109520000090DFF858381022211D20680BF002FD52
:109530000AE0AA20019008200090DFF844381022A9
:10954000211D20680BF0F6FCAA200190012000905C
:10955000DFF830386722211D20680BF0EBFCA08873
:10956000401CA080002105E020680A00D2B2805C87
:109570004540491C0800C0B2A288521E9042F3DB4D
:109580002068A188084400F8015C0AB070BD0000A2
:10959000E46000204C10024000040048000C004829
:1095A00078B585B004000020002503A8DFF8D8179F
:1095B000D1E90023C0E9002301A8DFF8D017D1E9E1
:1095C0000023C0E90023A088411CA1802321226838
:1095D00080B2115404F0D4FB00210AE0A288531C8D
:1095E000A38003680E00F6B29B5D266892B2B35466
:1095F000491C0A00D2B2838892B29A42EED3A08864
:10960000411CA1802321226880B2115400200AE06D
:10961000A288531CA38009680300DBB2C95C2368DD
:1096200092B29954401CDFF878140200D2B28B88B1
:1096300092B29A42ECD3A088411CA18023212268D7
:1096400080B21154A088411CA1802321226880B2DD
:109650001154A088411CA1804321226880B211547A
:10966000A088411CA1805321226880B21154A08897
:10967000411CA1805121226880B21154A088411C54
:10968000A1802D21226880B2115400200090DFF8C3
:10969000D806027A00232000FDF715FEA088411CA1
:1096A000A1802321226880B21154DFF8980690F837
:1096B00060000A2810D100200100C9B208291CDA74
:1096C000A1884A1CA28001AA0300DBB2D25C2368F5
:1096D00089B25A54401CEFE700200AE0A1884A1CD6
:1096E000A28003AA0300DBB2D25C236889B25A5479
:1096F000401C0100C9B20829F0DBA088411CA180F0
:109700002321226880B21154A088401CA08000212F
:1097100005E020680A00D2B2805C4540491C080080
:10972000C0B2A288521E9042F3DB2068A188084490
:1097300000F8015C06B070BD10B400210BE0838816
:109740005C1C8480D2F8C4200C00A4B2125D0468B2
:109750009BB2E254491CDFF838260B00B2F8C8402F
:109760009BB2A342EBD310BC704780B507F09AF9C7
:1097700001BD38B5DFF81C168A8A40F201239A42EF
:1097800002DB4FF400728A8200220AE083885C1CAC
:1097900084800C691500ADB2645D05689BB2EC5421
:1097A000521C13008C8A9BB2A342EFD311F110001C
:1097B000FDF7BBFE31BD0000001C004830B4DFF8EF
:1097C000D4158A8940F201139A4202DB4FF4807269
:1097D0008A8100220AE083885C1C84808C681500E2
:1097E000ADB2645D05689BB2EC54521C13008C89C9
:1097F0009BB2A342EFD330BC70470000F00B0020B7
:109800003EB504000020002504F0BAFAAA21019117
:109810008188C9B2009103680B22211D20680BF0DA
:1098200089FBA088401CA080002105E020680A0078
:10983000D2B2805C4540491C0800C0B2A288521ECA
:109840009042F3DB2068A188084400F8015C37BD32
:10985000F8B504000D00002000200020002019E0D1
:1098600020682F00BFB2C05D50EA06266D1C5B1C4D
:1098700018001700C0B2FFB2B842F1D3B6B24E61C1
:10988000FEF730FD0122DFF810150220FEF7CFFFB2
:109890000BF0F1F8A088290089B2091D88426EDB1F
:1098A00000202068290089B2405C6D1CC0B20128EC
:1098B00006D0022829D0032833D006283CD05DE00A
:1098C0007949087B012818D1002620682A0092B225
:1098D000825C6D1C002307E020682F00BFB2C05DD2
:1098E00050EA06266D1C5B1C18001700C0B2FFB2C0
:1098F000B842F1D3B6B28E61C2E7002620682A00D2
:1099000092B2825C6D1C0023B2E76D1C0020DFF870
:109910008C1408600122DFF888140220FEF787FF0C
:10992000B8E7AD1C0122DFF870140220FEF77FFFBC
:1099300001201449C870ADE72068290089B2405C55
:109940006D1C21682A0092B2895C6D1CC0B201288E
:109950000DD10800C0B2332809DA53480174FEF76C
:10996000C1FC0122B9A10220FEF761FF05E000223F
:10997000DFF830140220FEF75AFF8BE7FFE7F1BD56
:10998000C40E0020980E0020805101007FB5040015
:109990000D000C2100226E46300003F013F9280060
:1099A00080B200282FD02068290089B2405C8DF851
:1099B00006002068290089B2084440788DF8050027
:1099C0002068290089B2084480788DF80400206856
:1099D000290089B20844C0788DF803002068290066
:1099E00089B2084400798DF800002068290089B206
:1099F000084440798DF801002068290089B20844A4
:109A000080798DF8020000216846FFF79DF9012852
:109A100004D10120DFF87813086615E020682900DA
:109A200089B20844807855280AD12068ADB228440C
:109A3000C078642804D10120DFF85413C86503E01E
:109A40000120DFF84C1348667FBD0000040C0020A5
:109A50002C0C0020380C002080B5022100F030F8DA
:109A600001BD80B5032100F02BF801BD80B50E4A81
:109A7000127B012A0AD189B200F020F801280AD00D
:109A80000022C9490220FEF7D2FE04E00022C649A6
:109A90000220FEF7CCFE01BD34030020406C002004
:109AA000A4030020600C0020C00E0020880C0020C1
:109AB000B00C0020BC0C0020E40C002001207047FA
:109AC0002DE9FE4305000C005FF0FF300020B74891
:109AD000D0E90023CDE90023002010E0296802002E
