:020000040800F2
:10000000D8300020F50E0108310801083308010836
:100010003508010837080108390801080000000008
:100020000000000000000000000000003B08010884
:100030003D080108000000003F08010841080108D0
:10004000591301085D1301086113010865130108C4
:10005000691301086D130108711301087513010874
:10006000791301087D130108811301088513010824
:1000700089130108910801088D1301089B080108E4
:100080009113010895130108991301089D130108A4
:10009000A1130108A5130108A9130108AD13010854
:1000A000B1130108B5130108B9130108BD13010804
:1000B000C11301080000000000000000C513010882
:1000C000C9130108CD130108D1130108D513010884
:1000D000D9130108A5080108DD130108AF080108BC
:1000E000E1130108B9080108000000000000000049
:1000F0000000000000000000000000000000000000
:1001000000000000E513010800000000E9130108E9
:100110000000000000000000ED130108F1130108C9
:10012000F5130108F9130108FD1301080114010872
:10013000051401080000000000000000000000009D
:10014000091401080D1401081114010815140108FF
:1001500019140108C3080108CD0801081D1401087D
:1001600021140108251401082914010800000000C9
:100170002D14010831140108351401080000000095
:10018000391401083D1401084114010880B5514893
:100190000078012806D0022807D0042808D00828B3
:1001A00009D00BE000F0A2F808E001F0C1F905E089
:1001B00001F0F6FB02E001F03FFEFFE701BD2DE993
:1001C000F0470024444D2888002804D02888401E89
:1001D000288000207CE03F4E307A002877D1202113
:1001E0003E4802F0F7FB002801D1012700E000277C
:1001F000DFF8EC800421404602F0ECFB002802D13D
:100200005FF0010901E05FF000090221404602F0C1
:10021000E1FB002802D15FF0010A01E05FF0000A73
:100220000121404602F0D6FB002801D1012000E068
:10023000002057EA490757EA8A073C0054EAC004FD
:100240002000C0B2012805D0022803D0042801D024
:10025000082834D17068401C7060706850282DD315
:100260003470012030721F490868142801D2192007
:1002700028801D4822000378D2B29A4219D10A6818
:10028000521C0A600A681E2A02D20021716014E022
:100290000A68B42A02D2412171600EE00A68F02A8D
:1002A00002D24621716008E04E227260F0220A609C
:1002B00003E00022726000220A60047007E0002060
:1002C00009490870282070600020064908603078CD
:1002D000BDE8F087D42B0020B82C0020000800488F
:1002E000000400486C2C0020C62C0020F8B584B017
:1002F000DFF8E448A078002820D0012843D0022865
:1003000073D0032800F00481042800F088810528B8
:1003100000F0B981062800F09082072800F074836D
:10032000082800F05D84092800F0E0840A2800F025
:10033000A8850C2800F0AE8601F0EFB8DFF8F85B76
:100340000020E860DFF894680A220021300002F003
:10035000C7FB30203070302070703020B0703020FB
:10036000F070E8680001801CC0B20390029605207E
:10037000019004200090052300220121A01C03F01D
:10038000F7FA01F0CAB8DFF8B00BC168491CC160C8
:10039000C16804291EDBDFF8440803F004FB0128D0
:1003A00015D1A51C0622290014F1080002F0E6FB75
:1003B000F1200390002002900C2001900720009073
:1003C000072300220221280003F0D2FA0BE00020CC
:1003D000A07008E0C0680001801C0200D2B20021B9
:1003E000A01C03F09FFA01F098B8207907280AD0E2
:1003F000C0F08C80092832D01BD30B285BD044D3AB
:100400000C286ED082E0A51C0622290014F10800F9
:1004100002F0B4FBF1200390002002900F20019025
:100420000E2000900E2300220321280003F0A0FAE2
:100430006CE0A51C0622290014F1080002F09EFBC6
:10044000F1200390002002901220019011200090D2
:10045000112300220421280003F08AFA56E0A51C8B
:100460000622290014F1080002F088FBF120039015
:10047000002002902D2001902C2000902C2300229F
:100480000821280003F074FA40E0A51C0622290088
:1004900014F1080002F072FBF1200390002002909A
:1004A000312001902F2000902F23002209212800C5
:1004B00003F05EFA2AE0A51C0622290014F10800C8
:1004C00002F05CFBF12003900020029036200190A6
:1004D00033200090332300220A21280003F048FA39
:1004E00014E0A51C0622290014F1080002F046FBC6
:1004F00000200390002002903920019039200090C4
:10050000392300220B21280003F032FA01F005B84C
:1005100020790E2802D00F2840D07EE0E078002815
:1005200002D001281FD038E0A61C0622310014F1A9
:10053000080002F023FBDFF8005AF220039015F1C7
:100540000C0002900F2001900E2000900E23E27804
:10055000521CD2B20321300003F00AFADFF8E80C93
:100560004078E86019E0A51C0622290014F1080073
:1005700002F004FBF0200390002002903C20019048
:100580003C2000903C2300220C21280003F0F0F9CD
:100590000120DFF8B41C0870FFE73EE0E078002897
:1005A00002D001281FD038E0A61C0622310014F129
:1005B000080002F0E3FADFF88059F220039015F109
:1005C0000C0002900F2001900F2000900F23E27882
:1005D000521CD2B20321300003F0CAF9DFF8680CD4
:1005E0004068E86019E0A51C0622290014F1080003
:1005F00002F0C4FAF0200390002002903C20019009
:100600003C2000903C2300220C21280003F0B0F98C
:100610000120DFF8341C0870FFE700F07EBF20796E
:10062000112802D0122816D02BE0A51C0622290082
:1006300014F1080002F0A2FAF120039000200290C9
:100640001A2001901720009017230022052128006E
:1006500003F08EF915E0A51C0622290014F108000C
:1006600002F08CFAF12003900020029022200190E9
:100670001F2000901F2300220621280003F078F994
:10068000FFE700F04ABF2079172808D0C0F0D380D8
:1006900019286AD029D31A2800F0A780CBE0A51C1E
:1006A0000622290014F1080002F068FAF0200390F5
:1006B000002002903C2001903C2000903C2300222E
:1006C0000C21280003F054F9DFF8500C5FF07E5144
:1006D0000160DFF84C1C00220A60D1ED000A90EDA9
:1006E000000A062003F028FFA5E0E078002802D0E9
:1006F00001281FD038E0A61C0622310014F10800A2
:1007000002F03CFADFF83058F220039015F10C00AB
:1007100002901A200190172000901823E278521CB2
:10072000D2B20521300003F023F9DFF81C0B006D75
:10073000E86019E0A51C0622290014F1080002F067
:100740001DFAF0200390002002903C2001903C20F4
:1007500000903C2300220C21280003F009F901201D
:10076000DFF8E41A0870FFE765E0E078002802D0BF
:1007700001281FD038E0A61C0622310014F1080021
:1007800002F0FCF9DFF8B057F220039015F10C00ED
:1007900002901A200190172000901923E278521C31
:1007A000D2B20521300003F0E3F8DFF89C0A406D77
:1007B000E86019E0A51C0622290014F1080002F0E7
:1007C000DDF9F0200390002002903C2001903C20B5
:1007D00000903C2300220C21280003F0C9F80120DE
:1007E000DFF8641A0870FFE725E0A51C062229003F
:1007F00014F1080002F0C2F9F020039000200290EA
:100800003C2001903C2000903C2300220C21280039
:1008100003F0AEF8DFF8040BDFF8041D0160DFF829
:10082000001BDFF8002D0A60D1ED000A90ED000AF0
:10083000062003F081FE00F070BE20791F2808D04A
:10084000C0F0E08021286AD029D3222800F0A780B8
:10085000D8E0A51C0622290014F1080002F08EF948
:10086000F0200390002002903C2001903C2000905A
:100870003C2300220C21280003F07AF8DFF89C0AC0
:100880005FF07E510160DFF8981A00220A60D1ED16
:10089000000A90ED000A072003F04EFEB2E0E07877
:1008A000002802D001281FD038E0A61C0622310003
:1008B00014F1080002F062F9DFF87C56F220039090
:1008C00015F10C000290222001901F20009020239F
:1008D000E278521CD2B20621300003F049F8DFF86A
:1008E0006809406EE86019E0A51C0622290014F191
:1008F000080002F043F9F0200390002002903C2011
:1009000001903C2000903C2300220C21280003F0A1
:100910002FF80120DFF830190870FFE772E0E07867
:10092000002802D001281FD038E0A61C0622310082
:1009300014F1080002F022F9DFF8FC55F2200390D0
:1009400015F10C000290222001901F20009021231D
:10095000E278521CD2B20621300003F009F8DFF829
:10096000E808806EE86019E0A51C0622290014F151
:10097000080002F003F9F0200390002002903C20D0
:1009800001903C2000903C2300220C21280002F022
:10099000EFFF0120DFF8B0180870FFE732E0A51C78
:1009A0000622290014F1080002F0E8F8F020039074
:1009B000002002903C2001903C2000903C2300222B
:1009C0000C21280002F0D4FFDFF850495FF07E5080
:1009D0002060DFF84C5900202860DFF84C2B2900FC
:1009E0002000D2ED071A92ED061AD2ED050A92ED1B
:1009F000040A03F04BFED5ED000A94ED000A07202F
:100A000003F09AFD00F089BD2079272808D0C0F0B6
:100A1000E08029286AD029D32A2800F0A780D8E0CE
:100A2000A51C0622290014F1080002F0A7F8F02006
:100A30000390002002903C2001903C2000903C2339
:100A400000220C21280002F093FFDFF8D0085FF0AD
:100A50007E510160DFF8C81800220A60D1ED000A5B
:100A600090ED000A082003F067FDB2E0E07800286E
:100A700002D001281FD038E0A61C0622310014F154
:100A8000080002F07BF8DFF8B054F220039015F173
:100A90000C0002902A200190272000902823E27861
:100AA000521CD2B20721300002F062FFDFF8980733
:100AB000806FE86019E0A51C0622290014F10800E7
:100AC00002F05CF8F0200390002002903C2001909E
:100AD0003C2000903C2300220C21280002F048FF1B
:100AE0000120DFF864170870FFE772E0E078002863
:100AF00002D001281FD038E0A61C0622310014F1D4
:100B0000080002F03BF8DFF83054F220039015F1B2
:100B10000C0002902A200190272000902923E278DF
:100B2000521CD2B20721300002F022FFDFF8180772
:100B3000C06FE86019E0A51C0622290014F1080026
:100B400002F01CF8F0200390002002903C2001905D
:100B50003C2000903C2300220C21280002F008FFDA
:100B60000120DFF8E4160870FFE732E0A51C06223A
:100B7000290014F1080002F001F8F0200390002091
:100B800002903C2001903C2000903C2300220C214C
:100B9000280002F0EDFEDFF884475FF07E50206011
:100BA000DFF87C5700202860DFF87C29290020002E
:100BB000D2ED0B1A92ED0A1AD2ED090A92ED080A4B
:100BC00003F064FDD5ED000A94ED000A082003F05F
:100BD000B3FC00F0A2BC00BF1C2C002000000020D1
:100BE00020792C2802D02D283FD07DE0E078002805
:100BF00002D001281ED037E0A61C0622310014F1D5
:100C0000080001F0BBFFCC4DF220039015F10C0061
:100C100002902D2001902C2000902C23E278521C71
:100C2000D2B20821300002F0A3FEDFF81C06006AF1
:100C3000E86019E0A51C0622290014F1080001F063
:100C40009DFFF0200390002002903C2001903C206A
:100C500000903C2300220C21280002F089FE012094
:100C6000DFF8E4150870FFE73EE0E078002802D0E6
:100C700001281ED037E0A61C0622310014F108001E
:100C800001F07CFFAC4DF220039015F10C000290B6
:100C90002D2001902C2000902D23E278521CD2B2FE
:100CA0000821300002F064FEDFF89C05406AE8602D
:100CB00019E0A51C0622290014F1080001F05EFFCE
:100CC000F0200390002002903C2001903C200090F6
:100CD0003C2300220C21280002F04AFE0120DFF80C
:100CE00068150870FFE7FFE700F017BC20792F2890
:100CF00006D0C0F0C580312800F0838042D3BFE029
:100D0000E078002802D0012821D03AE0A71C062272
:100D1000390014F1080001F031FF874D15F10C0680
:100D2000F22003900296312001902F2000902F2373
:100D3000E278521CD2B20921380002F019FEDFF825
:100D4000EC070078E860DFF80005066319E0A51CF1
:100D50000622290014F1080001F010FFF020039092
:100D6000002002903C2001903C2000903C23002277
:100D70000C21280002F0FCFD0120DFF8CC140870E3
:100D8000FFE77DE0E078002802D001281ED037E0A0
:100D9000A61C0622310014F1080001F0EFFE664D9A
:100DA000F220039015F10C000290312001902F20C9
:100DB00000903023E278521CD2B20921300002F0B8
:100DC000D7FDDFF88404806AE86019E0A51C0622DC
:100DD000290014F1080001F0D1FEF020039000205A
:100DE00002903C2001903C2000903C2300220C21EA
:100DF000280002F0BDFD0120DFF84C140870FFE769
:100E00003EE0E078002802D001281ED037E0A61C82
:100E10000622310014F1080001F0B0FE464DF22028
:100E2000039015F10C000290312001902F200090CA
:100E30003123E278521CD2B20921300002F098FD31
:100E4000DFF80404C06AE86019E0A51C0622290046
:100E500014F1080001F092FEF020039000200290AF
:100E60003C2001903C2000903C2300220C212800D3
:100E700002F07EFD0120DFF8D0130870FFE7FFE7E6
:100E80004BE32079332809D0C0F00381352800F0E6
:100E9000848042D3362800F0BE80FAE0E078002853
:100EA00002D001281ED037E0A61C0622310014F122
:100EB000080001F063FE204DF220039015F10C00B4
:100EC000029036200190332000903323E278521CA8
:100ED000D2B20A21300002F04BFDDFF86C03406B08
:100EE000E86019E0A51C0622290014F1080001F0B1
:100EF00045FEF0200390002002903C2001903C2011
:100F000000903C2300220C21280002F031FD01203A
:100F1000DFF834130870FFE7BBE0E078002802D068
:100F2000012820D038E0A61C0622310014F1080068
:100F300001F024FE004D01E0D42B0020F2200390AC
:100F400015F10C00029036200190332000903423DC
:100F5000E278521CD2B20A21300002F009FDBA48F0
:100F6000806BE86018E0A51C0622290014F1080037
:100F700001F004FEF0200390002002903C2001903C
:100F80003C2000903C2300220C21280002F0F0FCC1
:100F90000120AD490870FFE77BE0E078002802D02F
:100FA00001281ED036E0A61C0622310014F10800EC
:100FB00001F0E4FDDFF8D059F220039015F10C00A8
:100FC000029036200190332000903523E278521CA5
:100FD000D2B20A21300002F0CBFC9B48C06BE86023
:100FE00018E0A51C0622290014F1080001F0C6FD36
:100FF000F0200390002002903C2001903C200090C3
:101000003C2300220C21280002F0B2FC01208E4972
:101010000870FFE73DE0E078002802D001281ED0EC
:1010200036E0A61C0622310014F1080001F0A6FDEE
:10103000DFF85459F220039015F10C00029036208D
:101040000190332000903623E278521CD2B20A215C
:10105000300002F08DFC7C48006CE86018E0A51CB4
:101060000622290014F1080001F088FDF020039009
:10107000002002903C2001903C2000903C23002264
:101080000C21280002F074FC01206F490870FFE772
:10109000FFE742E2207A032810D0052800F04381C0
:1010A000062800F09381072800F0E381082839D052
:1010B000092870D00A2800F0B6802DE2322002F014
:1010C00003F8032060490870A07A0E2802D00F2888
:1010D0000AD026E0DFF8B4084178DFF8AC08C06831
:1010E000C0B205F060F81CE000200100C9B20B2975
:1010F00010DADFF89C180200D2B251F82210DFF8A3
:101100008828D268914203D1DFF88018487001E046
:10111000401CEAE7DFF874084178007805F043F8EE
:10112000FFE7F9E1484D03202870322001F0CCFFA1
:10113000A07A2C2802D02D2816D02BE0287A05F092
:1011400043FA00EE100ADFF84C08D0ED0A0ADFF887
:10115000380890ED031AB8EEC11AB8EE400A81EED5
:10116000000A03F0B5FA15E0687A05F02DFA00EEF2
:10117000100ADFF81408D0ED030AF8EEE00AB8EE22
:10118000400AC0EE800ADFF80C0890ED090A03F06F
:101190009FFAFFE7C0E12C4D03202870322001F0B8
:1011A00093FFA07A2F2804D03CD3312824D00DD32C
:1011B00038E0DFF87803D0ED020A90ED010ADFF89D
:1011C000C807C068C0B203F035FB2BE0A87A05F071
:1011D000FBF900EE100AD548DFF8AC17D1ED030A91
:1011E000F8EEE00AB8EE400AC0EE800A90ED010A7F
:1011F000007803F01FFB15E0A87A05F0E5F900EE92
:10120000100ACA48D0ED020ADFF87C1791ED031AE4
:10121000B8EEC11AB8EE400A81EE000A007803F079
:1012200009FBFFE778E1084D03202870322001F028
:101230004BFFA07A332809D074D335283AD01FD376
:10124000362851D06EE000BF7C000020E87A05F01F
:10125000BBF900EE100ADFF84007D0ED031A90ED5D
:10126000021AD0ED010ADFF8200790ED032AB8EE4C
:10127000C22AB8EE400A82EE000A03F096FB51E063
:10128000E87A05F0A1F900EE100ADFF80C07D0EDBE
:10129000031A90ED021ADFF8F016D1ED030AF8EE0A
:1012A000E00AB8EE400AC0EE800A90ED000A03F0B2
:1012B0007CFB37E0E87A05F087F900EE100ADFF8EA
:1012C000D806D0ED031ADFF8C016D1ED030AF8EE08
:1012D000E00AB8EE400A80EE801AD0ED010A90EDE7
:1012E000000A03F062FB1DE0E87A05F06DF900EEFC
:1012F000100ADFF8A406DFF89016D1ED030AF8EE25
:10130000E00AB8EE400AC0EE801A90ED021AD0ED65
:10131000010A90ED000A03F048FB03E0702C002066
:10132000742C0020F8E0A07A172806D04DD3192895
:1013300027D005D31A2845D047E003F0EBF844E066
:10134000DFF8584603202070322001F0BDFE207ADD
:1013500005F03AF900EE100ADFF82C06D0ED030A8A
:10136000F8EEE00AB8EE400A80EE800A002003F0B2
:101370006FFCDFF8200690ED010A012003F068FC05
:1013800023E0DFF8184603202070322001F09CFE95
:10139000207A05F019F900EE100ADFF8EC05D0ED1F
:1013A000030AF8EEE00AB8EE400A80EE800A022056
:1013B00003F04EFCDFF8DC0590ED010A032003F09A
:1013C00047FC02E003F0A6F8FFE7A5E0A07A1F289B
:1013D00006D04DD3212827D005D3222845D047E079
:1013E00003F098F844E0DFF8B44503202070322081
:1013F00001F06AFE207A05F0E7F800EE100ADFF847
:101400008805D0ED030AF8EEE00AB8EE400A80EE57
:10141000800A042003F01CFCDFF8780590ED020A36
:10142000052003F015FC23E0DFF870450320207051
:10143000322001F049FE207A05F0C6F800EE100ACD
:10144000DFF84405D0ED030AF8EEE00AB8EE400AF2
:1014500080EE800A062003F0FBFBDFF8380590EDF4
:10146000020A072003F0F4FB02E003F053F8FFE761
:1014700052E0A07A272806D04DD3292827D005D3BB
:101480002A2845D047E003F045F844E0DFF80C4552
:1014900003202070322001F017FE207A05F094F826
:1014A00000EE100ADFF8E004D0ED030AF8EEE00ADF
:1014B000B8EE400A80EE800A082003F0C9FBDFF88E
:1014C000D40490ED030A092003F0C2FB23E0DFF807
:1014D000CC4403202070322001F0F6FD207A05F084
:1014E00073F800EE100ADFF8A004D0ED030AF8EE5E
:1014F000E00AB8EE400A80EE800A0A2003F0A8FB5A
:10150000DFF8900490ED030A0B2003F0A1FB02E04A
:1015100003F000F8FFE7FFE7FFE705B0F0BD0000CC
:1015200048E17A3F000080BEE82A0020542C0020C9
:1015300010B5DFF8F4389878002815D0022825D0A7
:1015400013D304287DD02ED3062800F0F180C0F0FC
:10155000B880082800F08280C0F020810A2800F0BE
:10156000A681C0F051810DE20CE2DFF8C008DFF87F
:101570001814CA68825C521CCB68C254CA68825C68
:101580003A2A02DB3022C9684254FBE158791979C2
:10159000884202D21879401E1871F1220021981C4D
:1015A00002F0C0F9EEE1D87800280CD15879197909
:1015B000884202D21879401E1871F1220021981C2D
:1015C00002F0B0F93CE018790E2802D00F2812D0B2
:1015D00036E0D878002802D0012801D00AE009E0DE
:1015E000DFF8A403C168B1F5807F02DAC168491C45
:1015F000C160FFE724E0D878002802D0012801D09C
:101600001EE01DE000210800C0B20B2817DADFF849
:101610008023DFF874030B00DBB252F82330C46878
:10162000A3420AD10B00DBB20A2B06DA0B00DBB2B5
:1016300002EB83025268C26001E0491CE3E7FFE766
:10164000A0E158791979884202D21879401E1871A0
:10165000F1220021981C02F065F993E1D878002866
:101660000CD158791979884202D21879401E187124
:10167000F1220021981C02F055F921E018792C285C
:1016800002D02D280ED01BE0D878002802D00128E7
:1016900001D006E005E0DFF8F002C168491CC16036
:1016A000FFE70DE0D878002802D0012801D006E03D
:1016B00005E0DFF8D402C168491CC160FFE7FFE71D
:1016C00060E1D87800280CD158791979884202D283
:1016D0001879401E1871F1220021981C02F022F99D
:1016E00025E01879172806D021D3192812D003D362
:1016F0001A281CD01BE01AE0D878002802D0012854
:1017000001D006E005E0DFF88002C168491CC16035
:10171000FFE70CE0D878002802D0012801D005E0CE
:1017200004E09948C168491CC160FFE7FFE729E16F
:10173000D87800280CD158791979884202D21879C2
:10174000401E1871F1220021981C02F0EBF824E0F1
:1017500018791F2806D020D3212811D003D322289E
:101760001BD01AE019E0D878002802D0012801D057
:1017700005E004E08448C168491CC160FFE70CE053
:10178000D878002802D0012801D005E004E07E4886
:10179000C168491CC160FFE7FFE7F3E0D878002883
:1017A0000CD158791979884202D21879401E1871E3
:1017B000F1220021981C02F0B5F824E018792728BE
:1017C00006D020D3292811D003D32A281BD01AE011
:1017D00019E0D878002802D0012801D005E004E003
:1017E0006948C168491CC160FFE70CE0D87800284F
:1017F00002D0012801D005E004E06348C168491C1B
:10180000C160FFE7FFE7BDE0D87800280CD1587928
:101810001979884202D21879401E1871F1220021EC
:10182000981C02F07FF841E018792F2804D03DD3AE
:10183000312829D012D339E0D878002802D00128E5
:1018400001D00AE009E05049C868002802D101200F
:10185000C86001E00020C860FFE727E0D8780028D2
:1018600002D0012801D00EE00DE04C48807A04F04F
:10187000ABFE454AD368C8214843834202D2D068B0
:10188000401CD060FFE711E0D878002802D0012882
:1018900001D00AE009E03C48C168404A926A91429E
:1018A00002DAC168491CC160FFE7FFE76AE0D87847
:1018B00000280CD158791979884202D21879401E33
:1018C0001871F1220021981C02F02CF859E01879C7
:1018D000332806D055D335282BD018D336283ED000
:1018E0004FE0D878002802D0012801D00EE00DE0AA
:1018F0002A48C07A04F068FE234AD368C8214843C6
:10190000834202D2D068401CD060FFE739E0D8782B
:10191000002802D0012801D00AE009E01A48C16875
:101920001E4A526B914202DAC168491CC160FFE74E
:1019300027E0D878002802D0012801D00EE00DE081
:101940001648C07A04F040FE0F4AD368502148433D
:10195000834202D2D068401CD060FFE711E0D87803
:10196000002802D0012801D00AE009E00648C16839
:101970000A4AD26B914202DAC168491CC160FFE792
:10198000FFE7FFE710BD0000D42B00208C0E0020E5
:1019900004090020A02A00202C2C00207C0000201C
:1019A00010B5DFF884349878002815D0022825D0A7
:1019B00013D304287DD02ED3062800F0F880C0F081
:1019C000B880082800F08280C0F02D810A2800F03D
:1019D000BB81C0F0648126E225E2DFF85004DFF825
:1019E0005014CA68825C521ECB68C254CA68825CBA
:1019F000302A02DA3922C968425414E218799979F6
:101A0000884202D21879401C1871F1220021981CDA
:101A100001F088FF07E2D87800280CD1187999796D
:101A2000884202D21879401C1871F1220021981CBA
:101A300001F078FF3CE018790E2802D00F2811D071
:101A400036E0D878002802D0012801D009E008E06B
:101A5000DFF8DC03C168012902DBC168491EC160EF
:101A6000FFE725E0D878002802D0012801D01FE048
:101A70001EE00A221000C0B2002818D0DFF8B433EC
:101A8000DFF8AC131000C0B253F82000CC68A042BD
:101A90000BD11000C0B2002807D01000C0B203EB79
:101AA000800050F8040CC86001E0521EE2E7FFE736
:101AB000B9E118799979884202D21879401C1871D5
:101AC000F1220021981C01F02DFFACE1D87800280C
:101AD0000CD118799979884202D21879401C187172
:101AE000F1220021981C01F01DFF21E018792C281B
:101AF00002D02D280ED01BE0D878002802D0012873
:101B000001D006E005E0DFF82803C168491EC16086
:101B1000FFE70DE0D878002802D0012801D006E0C8
:101B200005E0DFF80C03C168491EC160FFE7FFE76D
:101B300079E1D87800280CD118799979884202D2B5
:101B40001879401C1871F1220021981C01F0EAFE5E
:101B50002CE01879172806D028D3192815D003D3DC
:101B60001A2823D022E021E0D878002802D00128CA
:101B700001D009E008E0DFF8B802C168012902DB02
:101B8000C168491EC160FFE710E0D878002802D084
:101B9000012801D009E008E0DFF89402C1680129BA
:101BA00002DBC168491EC160FFE7FFE73BE1D8786F
:101BB00000280CD118799979884202D21879401CF2
:101BC0001871F1220021981C01F0ACFE2AE018796E
:101BD0001F2806D026D3212814D003D3222821D0B1
:101BE00020E01FE0D878002802D0012801D008E0CA
:101BF00007E08F48C168012902DBC168491EC16046
:101C0000FFE70FE0D878002802D0012801D008E0D3
:101C100007E08748C168012902DBC168491EC1602D
:101C2000FFE7FFE7FFE0D87800280CD11879997911
:101C3000884202D21879401C1871F1220021981CA8
:101C400001F070FE2AE01879272806D026D329282B
:101C500014D003D32A2821D020E01FE0D878002810
:101C600002D0012801D008E007E07148C1680129CD
:101C700002DBC168491EC160FFE70FE0D878002889
:101C800002D0012801D008E007E06948C1680129B5
:101C900002DBC168491EC160FFE7FFE7C3E0D878F7
:101CA00000280CD118799979884202D21879401C01
:101CB0001871F1220021981C01F034FE43E01879DC
:101CC0002F2804D03FD3312826D012D33BE0D87838
:101CD000002802D0012801D00AE009E05449C86870
:101CE000002802D10120C86001E00020C860FFE7A1
:101CF00029E0D878002802D0012801D00BE00AE0C2
:101D00004B48DFF86419C96AC268914202DAC168B7
:101D1000491EC160FFE716E0D878002802D00128EC
:101D200001D00FE00EE0DFF84009807A04F04CFCAF
:101D30003F4A00214843D168884202D2D068401E01
:101D4000D060FFE7FFE76EE0D87800280CD1187963
:101D50009979884202D21879401C1871F122002129
:101D6000981C01F0DFFD5DE01879332806D059D3C7
:101D700035282DD015D336283DD053E0D87800280B
:101D800002D0012801D00BE00AE02948DFF8D8187A
:101D9000896BC268914202DAC168491EC160FFE7DF
:101DA00040E0D878002802D0012801D00FE00EE0F2
:101DB000DFF8B408C07A04F007FC1D4A002148434C
:101DC000D168884202D2D068401ED060FFE729E087
:101DD000D878002802D0012801D00BE00AE014488E
:101DE000DFF88418096CC268914202DAC168491EA2
:101DF000C160FFE716E0D878002802D0012801D0A2
:101E00000FE00EE0DFF86008C07A04F0DDFB084A5E
:101E100000214843D168884202D2D068401ED06079
:101E2000FFE7FFE7FFE710BD1C2C002000000020AB
:101E3000D42B0020040900207FB5DFF83048A078BB
:101E400000281ED001281DD002281ED003281FD034
:101E5000042800F09080052800F0A880062800F0F3
:101E60004A81082800F0EC81092800F05C820A28E9
:101E700000F004830B2800F0E2830C2800F0E683D6
:101E8000F1E3F0E30020A070EDE30020A070EAE3AE
:101E900020790E2802D00F2836D06BE0E078002899
:101EA00002D0012816D02EE0A51CF12003900020BE
:101EB00002900C20019007200090072300220221AD
:101EC000280001F055FD0622290014F1080000F059
:101ED00055FE18E0A51C0622290014F1080000F0A8
:101EE0004DFEF1200390DFF8880702900F2001904B
:101EF0000E2000900E23E078421ED2B2032128006B
:101F000001F036FDFFE735E0E078002802D0012837
:101F100016D02EE0A51CF1200390002002900C208A
:101F2000019007200090072300220221280001F0E1
:101F30001FFD0622290014F1080000F01FFE18E022
:101F4000A51C0622290014F1080000F017FEF1205C
:101F50000390DFF8200702900F2001900E200090E0
:101F60000F23E078421ED2B20321280001F000FDC9
:101F7000FFE7FFE777E320791138012815D8A51C82
:101F8000F1200390002002900C2001900720009087
:101F9000082300220221280001F0EAFC0622290081
:101FA00014F1080000F0EAFDFFE75CE32079172850
:101FB00008D0C0F09F80192850D019D31A2800F0FB
:101FC000838097E0A51CF12003900020029012204E
:101FD000019011200090112300220421280001F01B
:101FE000C7FC0622290014F1080000F0C7FD81E0BB
:101FF000E078002802D0012816D02EE0A51CF120A0
:1020000003900020029012200190112000901123D3
:1020100000220421280001F0ABFC0622290014F163
:10202000080000F0ABFD18E0A51C0622290014F101
:10203000080000F0A3FDF1200390DFF83C060290B9
:102040001A200190172000901823E078421ED2B287
:102050000521280001F08CFCFFE74BE0E078002828
:1020600002D0012816D02EE0A51CF12003900020FC
:1020700002901220019011200090112300220421CF
:10208000280001F075FC0622290014F1080000F078
:1020900075FD18E0A51C0622290014F1080000F0C7
:1020A0006DFDF1200390DFF8D40502901A20019015
:1020B000172000901923E078421ED2B20521280093
:1020C00001F056FCFFE715E0A51CF120039000206D
:1020D000029012200190112000901123002204216F
:1020E000280001F045FC0622290014F1080000F048
:1020F00045FDFFE7B7E220791F2808D0C0F09F8098
:10210000212850D019D3222800F0838097E0A51C05
:10211000F1200390002002901220019011200090E5
:10212000122300220421280001F022FC06222900AB
:1021300014F1080000F022FD81E0E078002802D0D0
:10214000012816D02EE0A51CF1200390002002905B
:102150001220019011200090122300220421280057
:1021600001F006FC0622290014F1080000F006FD2B
:1021700018E0A51C0622290014F1080000F0FEFC5E
:10218000F1200390DFF8F8040290222001901F2034
:1021900000902023E078421ED2B20621280001F0F0
:1021A000E7FBFFE74BE0E078002802D0012816D0DB
:1021B0002EE0A51CF1200390002002901220019037
:1021C00011200090122300220421280001F0D0FBEE
:1021D0000622290014F1080000F0D0FC18E0A51C2C
:1021E0000622290014F1080000F0C8FCF120039039
:1021F000DFF890040290222001901F2000902123FC
:10220000E078421ED2B20621280001F0B1FBFFE7C0
:1022100015E0A51CF12003900020029012200190EF
:1022200011200090122300220421280001F0A0FBBD
:102230000622290014F1080000F0A0FCFFE712E2DA
:1022400020792C2802D02D2836D06BE0E0780028A9
:1022500002D0012816D02EE0A51CF120039000200A
:1022600002900C20019007200090092300220221F7
:10227000280001F07DFB0622290014F1080000F07F
:102280007DFC18E0A51C0622290014F1080000F0CE
:1022900075FCF1200390DFF8F00302902D200190EF
:1022A0002C2000902C23E078421ED2B20821280076
:1022B00001F05EFBFFE735E0E078002802D001285E
:1022C00016D02EE0A51CF1200390002002900C20D7
:1022D000019007200090092300220221280001F02C
:1022E00047FB0622290014F1080000F047FC18E023
:1022F000A51C0622290014F1080000F03FFCF12083
:102300000390DFF8880302902D2001902C2000908C
:102310002D23E078421ED2B20821280001F028FBCC
:10232000FFE7FFE79FE120792F2805D0C0F0A580C7
:1023300031286DD037D3A0E0E078002802D0012802
:1023400016D02FE0A51CF1200390002002900C2055
:102350000190072000900A2300220221280001F0AA
:1023600007FB0622290014F1080000F007FC19E021
:10237000A51C0622290014F1080000F0FFFBC44E42
:10238000F12003900296312001902F2000902F23FE
:10239000E078421ED2B20921280001F0E9FAB248E1
:1023A0000663FFE769E0E078002802D0012816D034
:1023B0002DE0A51CF1200390002002900C2001903C
:1023C000072000900A2300220221280001F0D0FA01
:1023D0000622290014F1080000F0D0FB17E0A51C2C
:1023E0000622290014F1080000F0C8FBF120039038
:1023F000A8480290312001902F2000903023E078EF
:10240000421ED2B20921280001F0B2FAFFE734E0FF
:10241000E078002802D0012816D02DE0A51CF1207C
:102420000390002002900C200190072000900A23C6
:1024300000220221280001F09BFA0622290014F153
:10244000080000F09BFB17E0A51C0622290014F1F0
:10245000080000F093FBF12003908F480290312098
:1024600001902F2000903123E078421ED2B2092142
:10247000280001F07DFAFFE7FFE7F4E02079332838
:1024800008D0C0F0DB8035286ED038D3362800F075
:10249000A080D3E0E078002802D0012816D02DE0FB
:1024A000A51CF1200390002002900C200190072031
:1024B00000900B2300220221280001F059FA062285
:1024C000290014F1080000F059FB17E0A51C0622B2
:1024D000290014F1080000F051FBF12003906F482F
:1024E000029036200190332000903323E078421E82
:1024F000D2B20A21280001F03BFAFFE79EE0E07823
:10250000002802D0012816D02DE0A51CF120039050
:10251000002002900C200190072000900B23002245
:102520000221280001F024FA0622290014F10800F3
:1025300000F024FB17E0A51C0622290014F1080076
:1025400000F01CFBF12003905548029036200190CA
:10255000332000903423E078421ED2B20A212800B2
:1025600001F006FAFFE769E0E078002802D00128D0
:1025700016D02DE0A51CF1200390002002900C2025
:102580000190072000900B2300220221280001F077
:10259000EFF90622290014F1080000F0EFFA17E025
:1025A000A51C0622290014F1080000F0E7FAF1202A
:1025B00003903C4802903620019033200090352350
:1025C000E078421ED2B20A21280001F0D1F9FFE7DB
:1025D00034E0E078002802D0012816D02DE0A51CB8
:1025E000F1200390002002900C2001900720009021
:1025F0000B2300220221280001F0BAF9062229004B
:1026000014F1080000F0BAFA17E0A51C0622290010
:1026100014F1080000F0B2FAF12003902248029071
:1026200036200190332000903623E078421ED2B24B
:102630000A21280001F09CF9FFE7FFE713E00622DA
:1026400014F10801A01C00F099FA0CE0064D28785E
:10265000022807D0062214F10801A01C00F08EFA0F
:1026600000202870FFE77FBD7C0000201C2C00208C
:102670007D00002080000020CC000020D000002041
:10268000E0000020E40000209C000020A0000020CA
:10269000542C0020A4000020A8000020B00000203E
:1026A000B4000020B8000020BC000020F8B40300F3
:1026B00000250868E840002800F0D78001260F6850
:1026C00016FA05F007403A00002A00F0CC8008799D
:1026D00010F00300012804D0087910F0030002284C
:1026E0001DD19F685FF0030C2800C0B240001CFAA7
:1026F00000FC37EA0C07D1F80CC02800C0B240003B
:102700001CFA00FC5CEA07079F605868AE40B043C3
:102710004E68C6F30016AE40304304005C60087992
:1027200010F0030003280ED0DE6803272800C0B293
:1027300040008740BE438F682800C0B240008740F9
:102740003E433400DC60087910F00300022818D101
:102750002800C00803EB8000066A0F2715F0070069
:10276000C0B280008740BE430F6915F00700C0B2B9
:10277000800087403E4334002800C00803EB8000FF
:1027800004621E6803272800C0B240008740BE4391
:102790000F7917F003072800C0B2400087403E437E
:1027A00034001C60486810F4403F5CD095480668CF
:1027B00056F001060660006810F0010000900098D5
:1027C000914F2800800857F820605FF00F0C15F03B
:1027D0000300C0B280001CFA00FC36EA0C06B3F11C
:1027E000904F01D1002414E08848834201D1012494
:1027F0000FE08748834201D102240AE085488342E2
:1028000001D1032405E08448834201D1042400E07F
:10281000072415F00300C0B280008440264328003E
:10282000800847F820607D4C206890434F68FF0285
:1028300000D5104320607A4E346894434F68BF023D
:1028400000D514433460774E306890434F68BF031F
:1028500000D510433060744E346894434F68FF03D2
:1028600000D5144334606D1C23E7F1BC70472DE99B
:10287000F041030000250800E840002800F0A8808F
:10288000012616FA05F008400200002A00F09E809A
:10289000DFF874C1280080085CF820000F2715F0CD
:1028A000030E5FFA8EFE5FEA8E0E17FA0EFE1EEA28
:1028B00000000400B3F1904F02D15FF0000E19E068
:1028C0005248834202D15FF0010E13E05048834228
:1028D00002D15FF0020E0DE04E48834202D15FF05C
:1028E000030E07E04C48834202D15FF0040E01E082
:1028F0005FF0070E15F00300C0B280001EFA00FE64
:1029000074452CD14848D0F800E03EEA020EC0F8E9
:1029100000E04448D0F800E03EEA020EC0F800E0D3
:102920003F48D0F800E03EEA020EC0F800E03B4825
:10293000D0F800E03EEA020EC0F800E015F0030017
:10294000C0B2800017FA00F00400280080085CF88C
:102950002000A043AE465FEA9E0E4CF82E005FF0CA
:10296000030C1868AE465FFA8EFE5FEA4E0E1CFA44
:102970000EFE5EEA000018602800C00803EB800E1F
:102980002800C00803EB8000D0F8208015F0070075
:10299000C0B28000874038EA0707CEF820709868F8
:1029A0002F00FFB27F001CFA07F7B8439860586801
:1029B000AE4030EA06065E60DE682800C0B2400025
:1029C0001CFA00FC36EA0C0CC3F80CC06D1C52E774
:1029D000BDE8F081020010690B009BB2184201D0E3
:1029E000012000E00020C0B270471300DBB2002BD2
:1029F00003D00B009BB2836102E00B009BB28362A9
:102A000070470000601002400800014000040048C8
:102A100000080048000C004800100048080401406D
:102A20000C040140040401400004014038B50400D6
:102A30000D00DFF8FC010168200000F006F8A84254
:102A400001D3012000E0002032BD814204D25FF0BA
:102A5000FF32101A081800E0081A704738B52DED3B
:102A6000048B08EE100A0C001500DFED438A2800E5
:102A7000C0B2FB2810DBB8EEC89A2800C0B24042B2
:102A8000C0B200F08BF829EE009A00212000B0EED1
:102A9000490A00F0B1F80EE0B8EEC89A2800C0B2BA
:102AA00000F07CF889EE009A2900C9B22000B0EE4F
:102AB000490A00F0A1F8BDEC048B31BD10B400212F
:102AC0000A00838892B29A4206D2002203680C0060
:102AD000A4B21A55491CF3E70022828010BC70474B
:102AE00010B4040013005A1E9BB2002B02D02170B8
:102AF000641CF7E710BC704770B504000D001600A9
:102B0000DFF8240100782100C9B2884209D3DFF838
:102B100024211068002804D0310089B228001268EE
:102B2000904770BD38B504000D00280003F052FF37
:102B3000020092B229002000C0B2FFF7DDFF31BDD4
:102B400070B504000D00280003F044FF020092B2AB
:102B500029002000C0B2FFF7CFFFDFF8DC6030684B
:102B6000002807D0280003F035FF010089B22800B3
:102B70003268904770BD00000000000030B40400CF
:102B80000D0013005A1E9BB2002B04D02B7823702B
:102B90006D1C641CF5E730BC7047000010B50400E4
:102BA0002000C0B2FB2816DB2000C0B2D0F5807038
:102BB00003F048FF41EC110B9FED200B03F05BFF8E
:102BC00053EC102B0020194903F05EFF04F080F84D
:102BD00000EE100A0FE02000C0B204F0ADF841ECA6
:102BE000110B9FED160B03F046FF51EC100B04F098
:102BF0006FF800EE100A10BD38B52DED028B82B0D3
:102C0000B0EE408A04000D0018EE100A04F0A2F89D
:102C1000CDE900012A000B49200004F0BFF802B002
:102C2000BDEC028B31BD0000900E00200000F03F93
:102C3000A82C0020B02C0020AC2C002000000000AC
:102C4000000024403413010880B500224FF40071C5
:102C5000DFF86C0CFFF7C9FE00224FF400715FF043
:102C60009040FFF7C2FE04F0B9F8DFF8AC0CDFF8D3
:102C7000AC1C0163DFF8A81C421CC1F85821021DDE
:102C8000C1F8702110F114020A62027A81F825203D
:102C900010F11C028A63427A81F83D2010F1200273
:102CA000C1F82824027A81F82D2410F12402C1F8F9
:102CB0004024427A81F8452410F12802C1F8882482
:102CC000827A81F88D2410F12C02C1F8A024827A36
:102CD00081F8A52410F13402C1F8D024C27A81F819
:102CE000D52410F13802C1F8E824C27A81F8ED2425
:102CF00010F13C02C1F80025C27A81F8052510F1D7
:102D00004002C1F81825C27A81F81D25DFF85C2C35
:102D10001268C1F86025DFF8042D1268C1F890250B
:102D200010F14402C1F8E821027A81F8ED2110F196
:102D30004802C1F80022027A81F8052210F14C0203
:102D4000C1F81822027A81F81D2210F15002C1F850
:102D50004822027A81F84D2210F15402C1F8602213
:102D6000027A81F8652210F15802C1F8A822027A8D
:102D700081F8AD2210F15C02C1F8C022027A81F81C
:102D8000C52210F16002C1F8D822027A81F8DD2252
:102D900010F16402C1F80823027A81F80D2310F1C2
:102DA0006802C1F82023027A81F8252310F16C0211
:102DB000C1F86823027A81F86D2310F17002C1F81E
:102DC0008023027A81F8852310F17402C1F89823D8
:102DD000027A81F89D2310F17802C1F8C823027AA3
:102DE00081F8CD2310F17C02C1F8E023007A81F84C
:102DF000E50301BD38B5002000242000C0B207283B
:102E000035DADFF8785C2000C0B200012844407851
:102E100001282AD12000C0B20001284440680028BF
:102E20000ED004F033F82100C9B2090129444968E1
:102E3000401A2100C9B2090129448968884214D383
:102E400000202100C9B209012944487004F01EF88D
:102E50002100C9B20901294448602000C0B2210004
:102E6000C9B209012944C9688847641CC5E7002024
:102E700032BD38B50400DFF8085C687800281FD13F
:102E800000224FF40071DFF8380AFFF7AEFD002290
:102E90004FF400715FF09040FFF7A7FD03F09EFF35
:102EA00089200090202307220521DFF8D80B03F0AA
:102EB000F3FF012068700221DFF8C00B04F034F941
:102EC000012032BD7CB50400DFF8BC5B2878002807
:102ED00003D0022823D003D33DE004F04FF93AE0B9
:102EE00004F0C2F989200090202307220521DFF891
:102EF000940B03F0D1FFDFF8942B03212C2004F076
:102F0000E5F8DFF88C2B0421082004F0DFF804F04A
:102F100008FA41F28830DFF8641B88611BE0012069
:102F2000DFF85C1B487089200090202307220521D0
:102F3000DFF8500B03F0B0FFDFF8406B02213000E8
:102F400004F0F2F80321300004F0EEF80421300020
:102F500004F0EAF8FFE72878401C28702100C9B285
:102F6000DFF8180B04F0EFF8012076BD70B504000F
:102F700000F0BCF8DFF8085B6878012803D1A87876
:102F800000F0A0FC04E00021DFF8F00A04F0CCF827
:102F9000DFF8080BA9780278914207D0A978017070
:102FA000DFF8FC0A0068DFF8FC1A0860A8780D2832
:102FB00012D1DFF8F06A4FF4FA613068FFF736FD9E
:102FC000012809D1DFF8D80A00683060062215F11F
:102FD0000801A81CFFF7D2FD2100C9B2DFF89C0A46
:102FE00004F0B1F8012070BD10B50400DFF8B81A84
:102FF000DFF8B80A0069FFF719FD012827D1DFF8CB
:10300000B00A0178012905D1002101700020DFF804
:10301000701A8870DFF89C0A0188491C018042F20E
:103020001071DFF8582A2300DBB21B011A449268A2
:10303000B1FBF2F102888A420DD300210180DFF852
:10304000401A8878002806D00020887003E001200C
:10305000DFF85C1A08702100C9B2DFF8200A04F01A
:1030600072F8012010BD38B50400FDF7A8F8DFF8AC
:103070003C5A287A012808D10521DFF8000A04F01B
:1030800053F8DFF81C0A006828612100C9B2DFF894
:10309000EC0904F058F8012032BD10B50400FDF72A
:1030A00075F8DFF8080A0021017000210172012083
:1030B00010BD10B5040000224FF40051DFF80008E5
:1030C000FFF793FC012010BD10B5040001224FF45E
:1030D0000051DFF8EC07FFF788FCDFF8A0092100BA
:1030E00089B28166062104F02EF810BD70B5DFF8B4
:1030F0002848DFF8C409216B097850F82100DFF86F
:103100002018C1F87004DFF8B40901786170DFF8A5
:10311000B019407851F820006060207A03F054FA2A
:1031200000EE100ADFF89C59B8EE400AD5ED020A0D
:1031300020EE200ABDEEC00A84ED030A607A03F097
:1031400043FA00EE100AB8EE400AD5ED040A20EE6C
:10315000200ABDEEC00A84ED040A207A03F034FA96
:1031600000EE100AB8EE400AD5ED050A20EE200A5E
:10317000BDEEC00A84ED050A207A03F025FA00EEC0
:10318000100AB8EE400AD5ED060A20EE200ABDEE80
:10319000C00A84ED060A607A03F016FA00EE100AFF
:1031A000B8EE400AD5ED080A20EE200ABDEEC00AAE
:1031B00084ED070A207A03F007FA00EE100AB8EE51
:1031C000400AD5ED090A20EE200ABDEEC00A84EDC2
:1031D000080A607A03F0F8F900EE100AB8EE400A27
:1031E000D5ED0A0A20EE200ABDEEC00A84ED090AD8
:1031F000A07A03F0E9F900EE100ADFF82067B8EED4
:10320000400AD6ED020A20EE200ABDEEC00A84ED87
:103210000A0AA07A03F0D8F900EE100AB8EE400AC4
:10322000D6ED010A20EE200ABDEEC00A84ED0B0A9D
:10323000E07A03F0C9F900EE100ADFF88C68B8EE06
:10324000400AD6ED000A20EE200ABDEEC00A84ED49
:103250000D0AE07A03F0B8F900EE100AB8EE400A61
:10326000D6ED010A20EE200ABDEEC00A84ED0E0A5A
:10327000E07A03F0A9F900EE100AB8EE400AD6EDA4
:10328000020A20EE200ABDEEC00A84ED0F0AE07AA1
:1032900003F09AF900EE100AB8EE400AD6ED030AE0
:1032A00020EE200ABDEEC00A84ED100A207A03F059
:1032B0008BF900EE100AB8EE400AD5ED010A20EEB7
:1032C000200ABDEEC00A84ED110A207A03F07CF9D1
:1032D00000EE100AB8EE400AD5ED0B0A20EE200AE7
:1032E000BDEEC00A84ED120A207A03F06DF900EEFB
:1032F000100AB8EE400AD5ED0C0A20EE200ABDEE09
:10330000C00A84ED130A207A03F05EF900EE100A79
:10331000DFF8B867B8EE400AD6ED000A20EE200AC2
:10332000BDEEC00A84ED140A207A03F04DF900EED8
:10333000100AB8EE400AD6ED020A20EE200ABDEED1
:10334000C00A84ED150A207A03F03EF900EE100A57
:10335000B8EE400AD5ED020A20EE200ABDEEC00A02
:1033600084ED160A207A03F02FF900EE100AB8EE69
:10337000400AD5ED0D0A20EE200ABDEEC00A84ED0C
:10338000170A207A03F020F900EE100AB8EE400A7E
:10339000D5ED0E0A20EE200ABDEEC00A84ED180A13
:1033A000207A03F011F900EE100AB8EE400AD6EDCB
:1033B000040A20EE200ABDEEC00A84ED190A207A24
:1033C00003F002F900EE100AB8EE400AD6ED060A44
:1033D00020EE200ABDEEC00A84ED1A0A207A03F01E
:1033E000F3F800EE100AB8EE400AD5ED030A20EE1D
:1033F000200ABDEEC00A84ED1B0A207A03F0E4F82F
:1034000000EE100AB8EE400AD5ED0F0A20EE200AB1
:10341000BDEEC00A84ED1C0A207A03F0D5F800EE58
:10342000100AB8EE400AD5ED100A20EE200ABDEED3
:10343000C00A84ED1D0A207A03F0C6F800EE100AD7
:10344000B8EE400AD6ED080A20EE200ABDEEC00A0A
:1034500084ED1E0A207A03F0B7F800EE100AB8EEE9
:10346000400AD6ED0A0A20EE200ABDEEC00A84ED1D
:103470001F0A70BD2DE9F84F8AB0060020210022F6
:1034800002AC200003F0BAFF0024002500208DF8D4
:10349000050000208DF806001827DFF8848430002E
:1034A000C0B27843404490F815903000C0B27843E1
:1034B00040444068002842D001213000C0B200F0F2
:1034C000A9F900280ED13000C0B2784340444268C8
:1034D0003000C0B278434044017D4846C0B203F09A
:1034E000F5FD1EE05FF0000A3000C0B278434044B2
:1034F000406803F06FFA5146C9B2814207D22020DA
:1035000002A95246D2B288541AF1010AECE702AA83
:103510003000C0B278434044017D4846C0B203F059
:10352000D5FD3000C0B278434044406803F052FA01
:10353000DFF89C150979491C484310FA89F93000D5
:10354000C0B2784340448068002800F03A813000DF
:10355000C0B278434044007B00280BD002281ED024
:1035600012D3042830D024D3062845D036D30728D8
:103570003ED044E03000C0B27843404480680078D8
:10358000002104000D003AE03000C0B2784340440E
:10359000806890F90000C11704000D002FE0300092
:1035A000C0B27843404480680088002104000D00C8
:1035B00025E03000C0B2784340448068B0F9000094
:1035C000C11704000D001AE03000C0B27843404437
:1035D00080680068002104000D0010E03000C0B2D7
:1035E0007843404480680068C11704000D0006E07D
:1035F00001208DF8050002E002208DF805009DF8FD
:10360000050000280CD13000C0B278434044407B14
:1036100040420200D2B202A92000FFF71FFA26E0C2
:103620009DF8050001281AD13000C0B2784340440B
:10363000806803F0CFF9202819D23000C0B2784357
:103640004044806803F0C6F9020092B23000C0B274
:1036500078434044816802A8FFF790FA07E0300001
:10366000C0B278434044806800788DF80800022199
:103670003000C0B200F0CEF8012823D13000C0B233
:1036800078434044807DC0B200098DF806009DF863
:1036900006000F2805D0202002A99DF80620885496
:1036A00010E05FF0000A02A803F094F95146C9B295
:1036B000814207D2202002A95246D2B288541AF180
:1036C000010AF0E73000C0B201285ED15FF0000AC5
:1036D00000208DF804003000C0B278434044407BA5
:1036E000002802D009208DF80400392000902E23F4
:1036F00015220F21DFF8DC0303F0B4FE02A803F06B
:1037000069F98346DFF8C8030079401C00FB0BFB16
:103710005846C0B2022190FBF1F01F280BDA584640
:10372000C0B2022190FBF1F0D0F140009DF80410EE
:1037300050FA81FA07E05846C0B2D0F15F009DF818
:10374000041050FA81FA02AA3000C0B27843404413
:10375000007D401CC0B2DFF878134979D1EBC0017D
:10376000491EC9B25046C0B204F026F85AFA8BF08E
:103770009DF80490B0EB09098920009020230722CE
:103780000521C04803F088FB1BE08920009020231E
:1037900007220521BB4803F07FFB02AA3000C0B21C
:1037A00078434044017D4846C0B203F08FFC02A834
:1037B00003F010F9C6490979491C484310FA89F009
:1037C00081463000C0B278434044006900281ED0D2
:1037D0003000C0B2784340448068002817D03000E1
:1037E000C0B2784340448068BB4988420FD0300063
:1037F000C0B27843404402693000C0B207FB00F712
:1038000008EB0700017D4846C0B203F05FFC0BB037
:10381000BDE8F08FF8B504000D0041492200D2B296
:103820001820424301EB0200817D2800C0B2014014
:103830002800C0B281422FD1F826A84F4FF49671CC
:103840002800C0B2704338442200D2B250F822009F
:10385000FFF7ECF801282AD12800C0B206FB00F6D9
:1038600007EB06002100C9B28D4A126840F82120FA
:103870003E209B492A00D2B242430A442300DBB2D5
:103880002E00F6B200FB06F008442100C9B2405CED
:10389000D0F10100D0540AE091492A00D2B23E2072
:1038A000424301EB02002100C9B2002242548C497C
:1038B000EDB23E20454301EB0500E4B2005DF2BDF0
:1038C0000008004870B50400002603F0CDFC00F0AD
:1038D00081F82000C0B200F087F82000C0B200F0EC
:1038E0009FF80025280080B23E2811DA0C492A00F2
:1038F00092B21820424301EB0200C07D2100C9B200
:10390000884203D12800C0B2FFF7B4FD6D1CE9E77F
:1039100003F007FD70BD00007C000020542C002047
:1039200060010020F0B44271C47803792500EDB243
:10393000AB420AD3F0256B4E2700FFB218235F433A
:1039400006EB07039D75641CEFE71823654C85782B
:103950005D4325444679AE75002904D0857803FB84
:1039600005F323449960F0BC70470000C8070020AD
:103970002DE9F84F0700884691469A460A9E0B9D0E
:10398000DDF830B00D9C87F8008087F8019087F84B
:1039900002A0FE703D712200D2B259463800FFF7F6
:1039A000C1FFBDE8F18F10B4010000221000C0B2C9
:1039B00004280CD21000C0B2085C4B4B1400E4B2D7
:1039C0001B5D984201D0002002E0521CEEE701206E
:1039D00010BC704780B50120009008237F22082189
:1039E000002003F06DFF01BD10B504002000C0B23F
:1039F000002812D133480078002807D125A2394881
:103A000090F84410782003F061FB06E022A23548CC
:103A100090F84410782003F059FB10BDFC00002002
:103A20000100C9B20C2924D130490978002906D0F7
:103A300002290ED008D3042915D00FD318E02C4941
:103A4000284AC2F8A81518E02A49264AC2F8A8153B
:103A500013E02949234AC2F8A8150EE02749214A54
:103A6000C2F8A81509E026491E4AC2F8A81504E0C4
:103A700003E01F491B4AC2F8A81570470C0000203C
:103A80001C2C0020F0040108C72C00203410010871
:103A9000B80B0108200000004E000000C82C0020D8
:103AA000A82C0020842C002080EE3600D42B00208F
:103AB000C92C0020BA2C0020580100208C0E0020B8
:103AC00004090020A02A00202C2C0020E82A002035
:103AD0003C2C0020C80201088E0E0020441B002050
:103AE0002C24002060010020040100207C00002024
:103AF00008010020180100202801002038010020C2
:103B00004801002010B504000121DFF8700B03F01C
:103B10001AFB012010BD30B587B00400142100222B
:103B200002AD280003F06AFCDFF8940AD0E9002314
:103B3000CDE9002302A80090DFF8885A297868466A
:103B400000F01BFA28786870BDF80410009800F0A7
:103B50006EFDDFF82C0B8078002809D12878022828
:103B600003DA2878401C287001E00020287008E063
:103B70002878052803DA2878401C287001E0002006
:103B80002870DFF8F85A0221280003F0CDFA03214B
:103B9000280003F0D8FA2100C9B2280003F0D3FAB4
:103BA000012007B030BD10B50400DFF8D81A8888AE
:103BB000002810D0DFF8D00A02888B889A4208D1FA
:103BC000002101800321DFF8B40A03F0ADFA0120DF
:103BD00008E0898801802100C9B2DFF8A00A03F05B
:103BE000B2FA012010BD2DE9F041040000250026A5
:103BF000DFF8907AB88803283DDB3868B988084434
:103C000010F8010C3968BA88114411F8021C51EA05
:103C100000210E00B988891E386803F0EBFE05000C
:103C20002800310080B289B288421DD10721DFF817
:103C30004C0A03F088FA3868007802280DD1DFF8C2
:103C40008489012198F8010000F0B0F998F801206A
:103C5000D7E9000100F09AF913E00021DFF86409C8
:103C6000407800F0A3F90CE00021DFF85809407813
:103C700000F09CF905E00021DFF84809407800F0E9
:103C800095F9DFF84009407800F0EEF80221DFF8FE
:103C9000EC0903F06AFA0120BDE8F0810100DFF8C9
:103CA000900B0278032A01D0042202700120704791
:103CB00001000120704710B50400DFF8080A017800
:103CC000012936D1DFF8001AC978012931D1DFF88E
:103CD000FC1991ED060AD0ED020AB4EE600AF1EE8D
:103CE00010FA08DA91ED060AD0ED010AB4EE600A86
:103CF000F1EE10FA0ED501224FF400615FF0904012
:103D0000FEF773FE01224FF480515FF09040FEF702
:103D10006CFE1CE000224FF400615FF09040FEF763
:103D200064FE00224FF480515FF09040FEF75DFE8C
:103D30000DE000224FF400615FF09040FEF755FE69
:103D400000224FF480515FF09040FEF74EFEDFF806
:103D50002C094FF47A7181662100C9B203F0F3F99E
:103D6000012010BD38B50400DFF8201A08780028BB
:103D70001FD101200870DFF8185A012210212800F5
:103D8000FEF733FE002208212800FEF72EFE002257
:103D90000421DFF8000AFEF728FE4FF4FA60DFF88E
:103DA000DC18886704F008F804F0B1F904F0A0F911
:103DB00012E00020087001220821DFF8D409FEF784
:103DC00014FE01220421DFF8CC09FEF70EFE4EF6A8
:103DD0006020DFF8A81888672100C9B2DFF89C08C6
:103DE00003F0B1F9012032BD10B50400DFF8DC1892
:103DF0000878002803D1002081F844001AE0DFF899
:103E000080088278052A0ED082780C2A02D1027AA4
:103E1000052A08D08278062A05D082780C2A06D195
:103E2000007A062803D1032081F8440002E0022032
:103E300081F84400DFF89008C078012806D10120FD
:103E400081F84500012081F8460005E0002081F856
:103E50004500002081F846002100C9B2DFF81C08A7
:103E600003F071F9012010BD38B52DED028B04006F
:103E70009FED9B8A2000C0B200285CD1DFF84C582F
:103E800095ED010ADFED970A20EE200ABDEEC00A8B
:103E900010EE100A00F062FA85ED010A95ED010AB4
:103EA00000F0CAFA85ED050A95ED040A00F024FB3E
:103EB00085ED080AA868A86195ED080AD5ED0A0AFB
:103EC00030EE200ADFF83C0AD0ED020AF4EE400A98
:103ED000F1EE10FA02D5D0ED020A0BE0D0ED030AA4
:103EE000B4EE600AF1EE10FA02D5D0ED030A01E05B
:103EF000F0EE400AC5ED080AD5ED050A95ED091A60
:103F000030EE818AD0ED000AF4EE480AF1EE10FAA4
:103F100002D590ED000A0BE090ED010AB4EE408A64
:103F2000F1EE10FA02D590ED010A01E0B0EE480A78
:103F300085ED050AFFE7DFF894572878002807D1B8
:103F40000020686095ED010A00F076FA85ED050A1B
:103F50002878002803D10020A8610020A8612878D3
:103F6000002807D10020286195ED040A00F0C4FA6A
:103F700085ED080ABDEC028B31BD38B504000D009B
:103F80002900C9B2200000F01BF831BD70B5040053
:103F90000D00160020000078C0B2022805D13200C2
:103FA000D2B22000290000F09FF870BD38B504009F
:103FB0000D002900C9B22000C0B200F03EF931BDA9
:103FC0003EB504000D002800C0B200280CD0022825
:103FD0001ED013D304282FD024D3062840D035D3A5
:103FE000082867D051D37AE0062000904FF4205380
:103FF00003220221200003F01BFD70E0042000904A
:104000004FF4185303220221200003F011FD66E053
:10401000022000904FF4105303220221200003F0ED
:1040200007FD5CE0042000904FF458530322022166
:10403000200003F0FDFC52E0042000904FF4885370
:1040400003220221200003F0F3FC48E0042000904A
:104050004FF4545303220221200003F0E9FC3EE018
:10406000DFF8CC0B818808290ED101680191808886
:10407000022190FBF1F080B200904FF458531022CF
:104080000221200003F022FD29E0DFF8A40B818843
:1040900008290ED1016801918088022190FBF1F07E
:1040A00080B200904FF4885310220221200003F0C8
:1040B0000DFD14E0DFF8780B818808290ED1016826
:1040C00001918088022190FBF1F080B200904FF4C2
:1040D000545310220221200003F0F8FCFFE737BD03
:1040E000000000000000C8422DE9F84304000D0064
:1040F00016000020ADF8000000273000C0B20028F4
:104100000FD0022831D01BD3042859D03CD3062825
:1041100000F08E8070D3082800F08A80C0F088807C
:1041200089E00320ADF8000004226946200000F079
:104130004BFA0700DFF8D419380002F061FB7AE08F
:104140000320ADF8000004226946200000F03CFA8C
:10415000804604226946200000F036FA0700DFF8A6
:10416000B019380002F04CFB65E00320ADF8000008
:1041700004226946200000F027FA0700DFF89419AE
:10418000380002F03DFB56E00320ADF800000422A9
:104190006946200000F018FA8046DFF8309519F1E2
:1041A0002C01404602F02CFB04226946200000F05E
:1041B0000BFA070019F13001380002F021FB3AE058
:1041C0000320ADF8000004226946200000F0FCF94D
:1041D0008046DFF8F89419F13401404602F010FBF4
:1041E00004226946200000F0EFF9070019F13801B8
:1041F000380002F005FB1EE00320ADF800000422A9
:104200006946200000F0E0F98046DFF8C09419F11B
:104210003C01404602F0F4FA04226946200000F016
:10422000D3F9070019F14001380002F0E9FA02E081
:1042300000F063F9FFE7BDE8F1830200D2B2002A83
:10424000082A1BD80A00D2B2012A0ED1DFF87C243A
:1042500000235370012313700200D2B2002A0CD144
:104260000122DFF86434DA7007E0DFF86024537865
:10427000032B02DA53785B1C5370FFE7DFF84C34F2
:104280005A78002A1CD05A78032A19DB00221A70A7
:1042900000225A6000229A600022DA6000221A612D
:1042A0000022DA6200221A6300225A6300229A6313
:1042B0000022DA6300221A640022DFF80C34DA707C
:1042C00070472DE9F04100242500EDB20A2D43DAB4
:1042D00000252E00F6B2092E3CDA2E00F6B201EBD4
:1042E000860676682F00FFB251F82770BE422FDA9B
:1042F00000262F00FFB251F82770AC465FFA8CFC05
:1043000001EB8C0CDCF804C0AE465FFA8EFE41F87F
:104310002EC0AC465FFA8CFC01EB8C0CCCF8047020
:10432000AC465FFA8CFC50F82CC0AE465FFA8EFEAD
:1043300000EB8E0EDEF804E0A8465FFA88F840F83D
:1043400028E0AE465FFA8EFE00EB8E0ECEF804C07B
:104350006D1CBEE7641CB7E7BDE8F08138B52DEDF4
:10436000028B04009FED738ADFF8C81808780028D4
:104370002AD10120087000210800C0B20A2815DAED
:104380000800C0B2DFF8B0280B00DBB242F823000F
:10439000DFF8A8280800C0B252F82000002803D196
:1043A0000800C0B242F82040491CE5E7DFF88C580D
:1043B000092300222900DFF88008FFF782FF95ED2E
:1043C000050AB8EEC00A30E000200100C9B20A298F
:1043D0001EDADFF864180200D2B251F82220092A4E
:1043E0000BD100220300DBB241F82320DFF84C1888
:1043F0000200D2B241F8224008E00200D2B251F8E5
:104400002220521C0300DBB241F82320401CDCE7D1
:10441000DFF82858092300222900DFF81C08FFF7DD
:1044200050FF95ED050AB8EEC00ADFED910A80EE67
:10443000200ABDEC028B31BDF0EE400A9FED5E1A02
:104440009FED5E3ADFED3B3AF5EE400AF1EE10FAF1
:1044500040D0F0EE603A9FED870ADFF8000C90ED57
:10446000004A34EE634AB4EE404AF1EE10FA08DA3C
:1044700090ED004A33EEC44AB4EE404AF1EE10FA31
:1044800003DB9FED7D0A21EE001ADFF8B40790ED03
:10449000000AF0EE401ADFF8AC1791ED000A30EE9A
:1044A000010AB0EE402A32EE030A82EE000AF0EE74
:1044B000402A33EEE10AB0EE614A00EE224A80ED76
:1044C000004AB7EE000A30EE620A20EE020A81EDE1
:1044D000000A08E0DFF86C075FF07E510160DFF84A
:1044E000600700210160DFF85807DFF8701B0268E1
:1044F0000A6090ED000A7047704780B50320DFF82E
:104500003013087004215D4802F02FFE3220FEF7C0
:10451000DBFD01BD80B5DFF8300700782949087060
:104520000220DFF80C1308700421544802F00BFE3F
:1045300001BD000000000000F8B52DED028B040065
:10454000F0EE408AB0EE608A0025DFF8E4663000C5
:10455000FEF7B4FAB0EE680A02F02AFA07003068F3
:1045600007703800000A316848703800000C316864
:1045700088703800000E3168C870B0EE480A02F04A
:1045800017FA316808710100090A32685171010097
:10459000090C326891710100090E3268D17108214D
:1045A000B180DFF8A4160C700121DFF8A02611708D
:1045B000BDEC028BF1BD000095BFD63317B7D138E3
:1045C000EC120108C22C0020F0B4030000200C887B
:1045D0001500EDB2042D16D12500ADB21D44EE78C4
:1045E0002500ADB21D44AD7855EA06252600B6B2C9
:1045F0001E4476782700BFB2DF5D57EA062757EAE8
:10460000054738000DE01500EDB2022D09D1250057
:10461000ADB25D5D2600B6B21E44767856EA052638
:1046200030000D8855FA82F50D80F0BC704770B5EA
:1046300004000D00DFF8286A01224FF48051300099
:10464000FEF7D3F90A2003F085FD03F049FD4FF48E
:104650007A732A0092B22100DFF85C0D03F0CBFDE3
:1046600000224FF480513000FEF7BFF970BD00000A
:104670000000C842CDCC4C3E00007A4478090020AE
:104680001C2C00203C0E0020C02C0020F4EE601AF0
:10469000F1EE10FA05D15FF07E52026000220A604E
:1046A0000FE031EE402A71EEE02A82EE222A80ED00
:1046B000002A90ED002AF0EE402A42EE602AC1ED79
:1046C000002A7047542C0020942C0020A02A00209F
:1046D0002DE9F0412DED028B8EB0F0EE408AB0EE68
:1046E000608A322100226C46200002F087FE0027FB
:1046F00000240025DFF86C89C8ED098A88ED0A8A54
:1047000098ED090A02F054F9060098ED0A0A02F041
:104710004FF9804668463100090E3A00D2B2815402
:104720007F1C3100090C3A00D2B281547F1C310049
:10473000090A3A00D2B281547F1C3900C9B24654EA
:104740007F1C4146090E3A00D2B281547F1C41467B
:10475000090C3A00D2B281547F1C4146090A3A0042
:10476000D2B281547F1C3900C9B200F801807F1C8D
:104770003A00D2B292B26946DFF8EC0804F058FD74
:104780000EB0BDEC028BBDE8F0810000CF2C002004
:1047900000040048000C004870B500240025DFF834
:1047A000C8080078C0B2FF283AD0DFF8C008017806
:1047B000C9B20906DFF8B8080078C0B251EA004172
:1047C000DFF8940B0078C0B251EA0021DFF88C0BBF
:1047D0000078C0B201430C00DFF8840B0178C9B245
:1047E0000906DFF8800B0078C0B251EA0041DFF81B
:1047F000780B0078C0B251EA0021DFF8C00B0078D6
:10480000C0B201430D00DFF85C6816F124012000FE
:1048100001F0F6FF16F12801280001F0F1FF05E094
:10482000DFF84008002141620021816270BD000074
:104830007C0000202DE9F0472DED028B8EB00400A6
:10484000F0EE408AB0EE608A322100226D462800E8
:1048500002F0D4FD002500260027DFF864AB8AF8BB
:1048600000408AED028ACAED018A9AED020A02F03E
:104870009FF880469AED010A02F09AF88146684650
:104880009AF800102A00D2B281546D1C4146090EDC
:104890002A00D2B281546D1C4146090C2A00D2B2C2
:1048A00081546D1C4146090A2A00D2B281546D1C04
:1048B0002900C9B200F801806D1C4946090E2A0082
:1048C000D2B281546D1C4946090C2A00D2B28154DF
:1048D0006D1C4946090A2A00D2B281546D1C290078
:1048E000C9B200F801906D1C2A00D2B292B269469A
:1048F000DFF88C0B04F09CFC0EB0BDEC028BBDE825
:10490000F08700002C2C002070B500240025DFF873
:10491000700B0078C0B2FF283DD0DFF8A46ADFF842
:10492000640B00783070DFF8600B0178C9B20906BB
:10493000DFF8580B0078C0B251EA0041DFF8500BA5
:104940000078C0B251EA0021DFF8480B0078C0B20D
:1049500001430C00DFF8400B0178C9B20906DFF80B
:104960003C0B0078C0B251EA0041DFF8340B00780C
:10497000C0B251EA0021DFF82C0B0078C0B201432D
:104980000D0016F10801200001F03AFF311D28004A
:1049900001F036FF08E0DFF8280A00210170DFF897
:1049A000B01C81600021416070BD2DE9F84F2DEDF4
:1049B000048B8EB0F0EE409AB0EE608AF0EE418A41
:1049C000B0EE619A3221002201AC200002F016FD07
:1049D0005FF0000B00200090002400250026DFF887
:1049E0006CABCAED009A8AED018ACAED028A8AEDA3
:1049F000039A9AED000A01F0DBFF07009AED010A25
:104A000001F0D6FF80469AED020A01F0D1FF8146FF
:104A10009AED030A01F0CCFF824601A83900090E85
:104A20005A46D2B281541BF1010B3900090C5A4687
:104A3000D2B281541BF1010B3900090A5A46D2B295
:104A400081541BF1010B5946C9B247541BF1010BAC
:104A50004146090E5A46D2B281541BF1010B414620
:104A6000090C5A46D2B281541BF1010B4146090A86
:104A70005A46D2B281541BF1010B5946C9B200F813
:104A800001801BF1010B4946090E5A46D2B28154EE
:104A90001BF1010B4946090C5A46D2B281541BF155
:104AA000010B4946090A5A46D2B281541BF1010B47
:104AB0005946C9B200F801901BF1010B5146090E8D
:104AC0005A46D2B281541BF1010B5146090C5A4689
:104AD000D2B281541BF1010B5146090A5A46D2B297
:104AE00081541BF1010B5946C9B200F801A01BF11A
:104AF000010B5A46D2B292B201A9DFF85C0B04F066
:104B000097FB0EB0BDEC048BBDE8F18FA42A00200A
:104B1000A82A0020B02A00202DE9F0410024002519
:104B200000260027DFF8300B0078C0B2FF2871D0D4
:104B3000DFF8280B0178C9B20906DFF8240B0078EA
:104B4000C0B251EA0041DFF81C0B0078C0B251EA54
:104B50000021DFF8140B0078C0B201430C00DFF82D
:104B60000C0B0178C9B20906DFF8040B0078C0B25B
:104B700051EA0041DFF8FC0A0078C0B251EA002196
:104B8000DFF8F40A0078C0B201430D00DFF8EC0A48
:104B90000178C9B20906DFF8E80A0078C0B251EA24
:104BA0000041DFF8E00A0078C0B251EA0021DFF8E6
:104BB000D80A0078C0B201430E00DFF8D00A0178AD
:104BC000C9B20906DFF8C80A0078C0B251EA00414C
:104BD000DFF8C00A0078C0B251EA0021DFF8B80A55
:104BE0000078C0B201430F00DFF860894146200021
:104BF00001F006FE18F10401280001F001FE18F191
:104C00000801300001F0FCFD18F10C01380001F042
:104C1000F7FD0BE0DFF83409DFF8341A01600021FA
:104C20004160DFF8041D81600021C160BDE8F081B2
:104C3000080A0020D02C0020442B00206C2B0020E0
:104C4000982C0020100A0020CE2C00207C00002090
:104C50002DE9F14F2DED028BBEB0B0EE408AC82198
:104C600000220CAC200002F0C9FB5FF0000B00201A
:104C7000049000200390002002900020019000206A
:104C8000009000200B9000200A9000200990002046
:104C900008900020079000200690002005909DF8C5
:104CA0000001002811D0022819D013D3042820D0E5
:104CB0001AD3062827D021D308282ED028D30A2893
:104CC00035D02FD30B2837D03BE0DFF8D00980ED6B
:104CD000008A36E0DFF8C40980ED018A31E0DFF8B0
:104CE000BC0980ED028A2CE0DFF8B00980ED038A70
:104CF00027E0DFF8A80980ED048A22E0DFF89C09AC
:104D000080ED058A1DE0DFF8940980ED068A18E041
:104D1000DFF8880980ED078A13E0DFF8800980ED6D
:104D2000088A0EE0DFF8740980ED098A09E0DFF8EF
:104D30006C0980ED0A8A04E0DFF8600980ED0B8AD7
:104D4000FFE7DFF858A99AED000A01F031FE049060
:104D50009AED010A01F02CFE03909AED020A01F08F
:104D600027FE02909AED030A01F022FE01909AEDCF
:104D7000040A01F01DFE00909AED050A01F018FEEC
:104D800004009AED060A01F013FE05009AED070AE9
:104D900001F00EFE06009AED080A01F009FE070078
:104DA0009AED090A01F004FE80469AED0A0A01F024
:104DB000FFFD81469AED0B0A01F0FAFD82460CA830
:104DC0000499090E5A46D2B281541BF1010B049981
:104DD000090C5A46D2B281541BF1010B0499090AFD
:104DE0005A46D2B281541BF1010B04995A46D2B2F1
:104DF00081541BF1010B0399090E5A46D2B281541A
:104E00001BF1010B0399090C5A46D2B281541BF1D4
:104E1000010B0399090A5A46D2B281541BF1010BC6
:104E200003995A46D2B281541BF1010B0299090E23
:104E30005A46D2B281541BF1010B0299090C5A4611
:104E4000D2B281541BF1010B0299090A5A46D2B21F
:104E500081541BF1010B02995A46D2B281541BF1C5
:104E6000010B0199090E5A46D2B281541BF1010B74
:104E70000199090C5A46D2B281541BF1010B0199D8
:104E8000090A5A46D2B281541BF1010B01995A46C4
:104E9000D2B281541BF1010B0099090E5A46D2B2CD
:104EA00081541BF1010B0099090C5A46D2B281546E
:104EB0001BF1010B0099090A5A46D2B281541BF129
:104EC000010B00995A46D2B281541BF1010B21000B
:104ED000090E5A46D2B281541BF1010B2100090C74
:104EE0005A46D2B281541BF1010B2100090A5A46DD
:104EF000D2B281541BF1010B5946C9B244541BF183
:104F0000010B2900090E5A46D2B281541BF1010B44
:104F10002900090C5A46D2B281541BF1010B290019
:104F2000090A5A46D2B281541BF1010B5946C9B243
:104F300045541BF1010B3100090E5A46D2B281547F
:104F40001BF1010B3100090C5A46D2B281541BF1FE
:104F5000010B3100090A5A46D2B281541BF1010BF0
:104F60005946C9B246541BF1010B3900090E5A4685
:104F7000D2B281541BF1010B3900090C5A46D2B24E
:104F800081541BF1010B3900090A5A46D2B28154EF
:104F90001BF1010B5946C9B247541BF1010B4146A5
:104FA000090E5A46D2B281541BF1010B4146090C3D
:104FB0005A46D2B281541BF1010B4146090A5A46A6
:104FC000D2B281541BF1010B5946C9B200F80180DD
:104FD0001BF1010B4946090E5A46D2B281541BF10E
:104FE000010B4946090C5A46D2B281541BF1010B00
:104FF0004946090A5A46D2B281541BF1010B59465F
:10500000C9B200F801901BF1010B5146090E5A4636
:10501000D2B281541BF1010B5146090C5A46D2B24F
:1050200081541BF1010B5146090A5A46D2B28154F0
:105030001BF1010B5946C9B200F801A01BF1010B8D
:105040005A46D2B292B20CA9DFF8640904F0F0F823
:105050003EB0BDEC028BBDE8F18F00009C2C00201F
:1050600000080048A02A00200008020802080208E0
:10507000030802082DE9F04F85B0002004900020BD
:105080000390002002900020019000200090002456
:105090000025002600275FF000085FF000095FF0A0
:1050A000000ADFF80C090078C0B2FF2800F0518137
:1050B000DFF800090178C9B20906DFF8FC080078BA
:1050C000C0B251EA0041DFF8F4080078C0B251EAFA
:1050D0000021DFF8EC080078C0B201430491DFF84A
:1050E000E4080178C9B20906DFF8DC080078C0B22C
:1050F00051EA0041DFF8D4080078C0B251EA00213B
:10510000DFF8CC080078C0B201430391DFF8C4088F
:105110000178C9B20906DFF8C0080078C0B251EAC8
:105120000041DFF8B8080078C0B251EA0021DFF88A
:10513000B0080078C0B201430291DFF8A8080178F6
:10514000C9B20906DFF8A0080078C0B251EA0041F0
:10515000DFF898080078C0B251EA0021DFF8900823
:105160000078C0B201430191DFF830B55946049888
:1051700001F046FB1BF10401039801F041FB1BF118
:105180000801029801F03CFB1BF10C01019801F0B1
:1051900037FBDFF860080178C9B20906DFF8580864
:1051A0000078C0B251EA0041DFF850080078C0B280
:1051B00051EA0021DFF848080078C0B201430091AD
:1051C000DFF840080178C9B20906DFF83C0800782A
:1051D000C0B251EA0041DFF834080078C0B251EAA9
:1051E0000021DFF82C080078C0B201430C00DFF882
:1051F00024080178C9B20906DFF81C080078C0B29B
:1052000051EA0041DFF814080078C0B251EA0021E9
:10521000DFF80C080078C0B201430D00DFF8040885
:105220000178C9B20906DFF800080078C0B251EA77
:105230000041DFF8F8070078C0B251EA0021DFF83A
:10524000F0070078C0B201430E001BF11001009876
:1052500001F0D6FA1BF11401200001F0D1FA1BF184
:105260001801280001F0CCFA1BF11C01300001F0FC
:10527000C7FADFF8C0070178C9B20906DFF8B80736
:105280000078C0B251EA0041DFF8B0070078C0B240
:1052900051EA0021DFF8A8070078C0B201430F00EF
:1052A000DFF8A0070178C9B20906DFF89C0700788B
:1052B000C0B251EA0041DFF894070078C0B251EA69
:1052C0000021DFF88C070078C0B201438846DFF880
:1052D00084070178C9B20906DFF87C070078C0B2FC
:1052E00051EA0041DFF874070078C0B251EA0021AA
:1052F000DFF86C070078C0B201438946DFF8640725
:105300000178C9B20906DFF860070078C0B251EA37
:105310000041DFF858070078C0B251EA0021DFF8F9
:1053200050070078C0B201438A461BF120013800C3
:1053300001F066FA1BF12401404601F061FA1BF10D
:105340002801484601F05CFA1BF12C01504601F09F
:1053500057FA05B0BDE8F08F0408020805080208F6
:1053600006080208070802080808020878B591B084
:1053700004000D003C21002202AE300002F03EF895
:105380000020ADF804000321072000F00CFF0B20E3
:1053900000900023DFF8DC2601A902A801F01AFA28
:1053A0004FF47A73BDF8042002A9DFF8CC0602F0AE
:1053B00022FF12B070BD0000F82500200908020885
:1053C000542C002078B591B004000D003C2100223F
:1053D00002AE300002F012F80020ADF80400DFF851
:1053E0009C0603F0F5FE264803F0F2FEDFF8900677
:1053F0000021017096498160002141600D200090DC
:105400000023DFF8802601A902A801F0E3F94FF498
:105410007A73BDF8042002A9DFF85C0602F0EBFE07
:1054200012B070BD38B590B004000D0003A8DFF8CD
:105430005816322203F040FFDFF85006D0E900236F
:10544000CDE9012303A801900023DFF84406027888
:1054500002A903A801F049F90220009000237BA2D1
:1054600002A903A801F0B6F94FF47A73BDF8082039
:105470000199DFF8040602F0BEFE11B030BD000055
:1054800000100208021002080310020804100208AB
:10549000051002080610020807100208081002088A
:1054A000091002080A100208F8B504000D000026D1
:1054B0002068007830283EDB206800783A283ADA05
:1054C000002700200100C9B2A28889B291420FD200
:1054D00021680200D2B2895C302905DB2168020014
:1054E000D2B2895C3A2900DB02E07F1C401CE9E76C
:1054F0003900C9B2206801F025FA0600B6F5807FB0
:105500000FD2DFF88C0541783000C0B200F04BFEBE
:105510004FF47A7302224FA1DFF85C0502F06BFEB4
:1055200012E04FF47A730522DFF86815DFF84805BA
:1055300002F061FE08E04FF47A730522DFF854159B
:10554000DFF8340502F057FEF1BD00002C2C0020DE
:1055500038B590B004000D0003A8DFF83C153222E6
:1055600003F0AAFEDFF83405D0E90023CDE90123DA
:1055700003A801900023DFF81805427802A903A8C8
:1055800001F0B3F802200090002330A202A903A882
:1055900001F020F94FF47A73BDF808200199DFF883
:1055A000D80402F028FE11B030BDF8B504000D009B
:1055B00000262068007830283DDB206800783A28F3
:1055C00039DA002700200100C9B2A28889B29142CD
:1055D0000FD221680200D2B2895C302905DB216834
:1055E0000200D2B2895C3A2900DB02E07F1C401C39
:1055F000E9E73900C9B2206801F0A4F906000C2ED1
:105600000FD23100C9B2DFF88804007800F0CBFD7A
:105610004FF47A7302220FA1DFF85C0402F0EBFD75
:1056200012E04FF47A730522DFF86814DFF84804BB
:1056300002F0E1FD08E04FF47A730522DFF854141C
:10564000DFF8340402F0D7FDF1BD00000D0A0000C0
:10565000000048434F4B00000020020802200208CF
:105660000320020804200208052002080620020880
:105670000720020808200208092002080A20020860
:105680000B2002080C2002080D2002080E20020840
:105690000F2002081020020811200208E82A00202A
:1056A00070B52DED028BCEB004000D0002A8DFF81E
:1056B000F0134FF4967203F00FFE0A20ADF80400C9
:1056C0000A2000900023DFF8DC2301A902A801F0E2
:1056D00081F89FED948ADFF8D063FE2396ED000AEF
:1056E00020EE080ABDEEC00A10EE102A01A902A899
:1056F00000F0FBFF0B2000900023DFF8B02301A98E
:1057000002A801F067F8FE2396ED010A20EE080AD0
:10571000BDEEC00A10EE102A01A902A800F0E5FFB4
:105720000B2000900023E24A01A902A801F052F8E0
:10573000FE2396ED020A20EE080ABDEEC00A10EE26
:10574000102A01A902A800F0D0FF0B20009000232E
:10575000D84A01A902A801F03DF8FE2396ED030AFC
:1057600020EE080ABDEEC00A10EE102A01A902A818
:1057700000F0BBFF0A2000900023CF4A01A902A835
:1057800001F028F8FE2396ED040A20EE080ABDEE8B
:10579000C00A10EE102A01A902A800F0A6FF0A20F4
:1057A00000900023C54A01A902A801F013F8FE23C6
:1057B00096ED050A20EE080ABDEEC00A10EE102A8A
:1057C00001A902A800F091FF0A2000900023BC4A22
:1057D00001A902A800F0FEFFFE2396ED060A20EEC6
:1057E000080ABDEEC00A10EE102A01A902A800F0B6
:1057F0007CFF0A2000900023B24A01A902A800F011
:10580000E9FFFE2396ED070A20EE080ABDEEC00A66
:1058100010EE102A01A902A800F067FF09200090ED
:105820000023A94A01A902A800F0D4FFFE2396EDA7
:10583000080A20EE080ABDEEC00A10EE102A01A9DF
:1058400002A800F052FF0920009000239F4A01A9FE
:1058500002A800F0BFFFFE2396ED090A20EE080A19
:10586000BDEEC00A10EE102A01A902A800F03DFF0B
:10587000092000900023964A01A902A800F0AAFF7F
:10588000FE2396ED0A0A20EE080ABDEEC00A10EECD
:10589000102A01A902A800F028FF09200090002387
:1058A0008C4A01A902A800F095FFFE2396ED0B0A91
:1058B00020EE080ABDEEC00A10EE102A01A902A8C7
:1058C00000F013FF4FF47A73BDF8042002A96A4870
:1058D00002F091FC4EB0BDEC028B70BD80B5FEF7BE
:1058E0005BFFFFF711F8FFF717F9FFF7C3FB7A48E3
:1058F0007A49C0F8A4137A49C0F8B4137949C0F8BA
:10590000C4137949C0F8D4137849C0F8E41378492E
:10591000C0F8F4137749C0F8041402F0F8FB02F061
:10592000E7FB01BD0000C8420000A04270B50020A6
:10593000002400252800C0B2092836DA6E4E28005F
:10594000C0B200013044407801282CD1012004006D
:105950002800C0B200013044406800280ED001F099
:1059600095FA2900C9B2090131444968401A290051
:10597000C9B2090131448968884214D30020290042
:10598000C9B209013144487001F080FA2900C9B256
:105990000901314448602800C0B22900C9B2090198
:1059A0003144C96888476D1CC4E72000C0B270BD8F
:1059B0000028020802280208032802080428020816
:1059C00005280208062802080728020808280208F5
:1059D000092802080A2802080B2802080C280208D5
:1059E0000D2802080E2802080F28020810280208B5
:1059F0001128020812280208132802081428020895
:105A00001528020816280208172802081828020874
:105A1000192802081A2802081B2802081C28020854
:105A20001D2802081E2802081F2802082028020834
:105A30002128020822280208232802082428020814
:105A400025280208262802082728020828280208F4
:105A5000292802082A2802082B2802082C280208D4
:105A60002D2802082E2802082F28020830280208B4
:105A7000312802084C100108E82400200008020820
:105A8000542C0020140D010894090108F412010897
:105A90008C0E0020E4120108C8090108FC1201085C
:105AA0000407010858100108E82A002064100108C2
:105AB000701001087C10010888100108941001087A
:105AC000A0100108AC100108B8100108C4100108AA
:105AD000D0100108DC1001081C0A00206D530008DA
