:020000040800F2
:10000000D83000203D130108790C01087B0C010851
:100010007D0C01087F0C0108810C01080000000024
:10002000000000000000000000000000830C010838
:10003000850C010800000000870C0108890C0108EC
:10004000A1170108A5170108A9170108AD17010894
:10005000B1170108B5170108B9170108BD17010844
:10006000C1170108C5170108C9170108CD170108F4
:10007000D1170108D90C0108D5170108E30C0108B4
:10008000D9170108DD170108E1170108E517010874
:10009000E9170108ED170108F1170108F517010824
:1000A000F9170108FD1701080118010805180108D2
:1000B0000918010800000000000000000D180108E8
:1000C0001118010815180108191801081D18010850
:1000D00021180108ED0C010825180108F70C01088A
:1000E00029180108010D01080000000000000000AF
:1000F0000000000000000000000000000000000000
:10010000000000002D18010800000000311801084F
:10011000000000000000000035180108391801082F
:100120003D1801084118010845180108491801083F
:100130004D18010800000000000000000000000051
:100140005118010855180108591801085D180108CF
:10015000611801080B0D0108150D0108651801084B
:10016000691801086D1801087118010800000000E5
:1001700075180108791801087D18010800000000B1
:1001800081180108851801088918010880B55148AF
:100190000078012806D0022807D0042808D00828B3
:1001A00009D00BE000F0A2F808E001F0C9F905E081
:1001B00001F0FEFB02E001F047FEFFE701BD2DE983
:1001C000F0470024444D2888002804D02888401E89
:1001D000288000207CE03F4E307A002877D1202113
:1001E0003E4802F0FFFB002801D1012700E0002774
:1001F000DFF8EC800421404602F0F4FB002802D135
:100200005FF0010901E05FF000090221404602F0C1
:10021000E9FB002802D15FF0010A01E05FF0000A6B
:100220000121404602F0DEFB002801D1012000E060
:10023000002057EA490757EA8A073C0054EAC004FD
:100240002000C0B2012805D0022803D0042801D024
:10025000082834D17068401C7060706850282DD315
:100260003470012030721F490868142801D2192007
:1002700028801D4822000378D2B29A4219D10A6818
:10028000521C0A600A681E2A02D20021716014E022
:100290000A68B42A02D2412171600EE00A68F02A8D
:1002A00002D24621716008E04E227260F0220A609C
:1002B00003E00022726000220A60047007E0002060
:1002C00009490870282070600020064908603078CD
:1002D000BDE8F087D42B0020B82C0020000800488F
:1002E000000400486C2C0020C62C0020F8B584B017
:1002F000DFF8FC48A078002820D0012843D002284D
:1003000073D0032800F00481042800F088810528B8
:1003100000F0B981062800F09D82072800F0818353
:10032000082800F06984092800F0EC840A2800F00D
:10033000B4850C2800F0BA8601F0FBB8DFF8105C39
:100340000020E860DFF8AC680A220021300002F0EB
:10035000CFFB30203070302070703020B0703020F3
:10036000F070E8680001801CC0B20390029605207E
:10037000019004200090052300220121A01C03F01D
:10038000FFFA01F0D6B8DFF8C80BC168491CC1609C
:10039000C16804291EDBDFF85C0803F00CFB0128B0
:1003A00015D1A51C0622290014F1080002F0EEFB6D
:1003B000F1200390002002900C2001900720009073
:1003C000072300220221280003F0DAFA0BE00020C4
:1003D000A07008E0C0680001801C0200D2B20021B9
:1003E000A01C03F0A7FA01F0A4B8207907280AD0CE
:1003F000C0F08C80092832D01BD30B285BD044D3AB
:100400000C286ED082E0A51C0622290014F10800F9
:1004100002F0BCFBF1200390002002900F2001901D
:100420000E2000900E2300220321280003F0A8FADA
:100430006CE0A51C0622290014F1080002F0A6FBBE
:10044000F1200390002002901220019011200090D2
:10045000112300220421280003F092FA56E0A51C83
:100460000622290014F1080002F090FBF12003900D
:10047000002002902D2001902C2000902C2300229F
:100480000821280003F07CFA40E0A51C0622290080
:1004900014F1080002F07AFBF12003900020029092
:1004A000312001902F2000902F23002209212800C5
:1004B00003F066FA2AE0A51C0622290014F10800C0
:1004C00002F064FBF120039000200290362001909E
:1004D00033200090332300220A21280003F050FA31
:1004E00014E0A51C0622290014F1080002F04EFBBE
:1004F00000200390002002903920019039200090C4
:10050000392300220B21280003F03AFA01F011B838
:1005100020790E2802D00F2840D07EE0E078002815
:1005200002D001281FD038E0A61C0622310014F1A9
:10053000080002F02BFBDFF8185AF220039015F1A7
:100540000C0002900F2001900E2000900E23E27804
:10055000521CD2B20321300003F012FADFF8000D72
:100560004078E86019E0A51C0622290014F1080073
:1005700002F00CFBF0200390002002903C20019040
:100580003C2000903C2300220C21280003F0F8F9C5
:100590000120DFF8CC1C0870FFE73EE0E07800287F
:1005A00002D001281FD038E0A61C0622310014F129
:1005B000080002F0EBFADFF89859F220039015F1E9
:1005C0000C0002900F2001900F2000900F23E27882
:1005D000521CD2B20321300003F0D2F9DFF8800CB4
:1005E0004068E86019E0A51C0622290014F1080003
:1005F00002F0CCFAF0200390002002903C20019001
:100600003C2000903C2300220C21280003F0B8F984
:100610000120DFF84C1C0870FFE700F08ABF20794A
:10062000112802D0122816D02BE0A51C0622290082
:1006300014F1080002F0AAFAF120039000200290C1
:100640001A2001901720009017230022052128006E
:1006500003F096F915E0A51C0622290014F1080004
:1006600002F094FAF12003900020029022200190E1
:100670001F2000901F2300220621280003F080F98C
:10068000FFE700F056BF2079172808D0C0F0E080BF
:1006900019286AD029D31A2800F0A780D8E0A51C11
:1006A0000622290014F1080002F070FAF0200390ED
:1006B000002002903C2001903C2000903C2300222E
:1006C0000C21280003F05CF9DFF8680C5FF07E5124
:1006D0000160DFF8641C00220A60D1ED000A90ED91
:1006E000000A062003F030FFB2E0E078002802D0D4
:1006F00001281FD038E0A61C0622310014F10800A2
:1007000002F044FADFF84858F220039015F10C008B
:1007100002901A200190172000901823E278521CB2
:10072000D2B20521300003F02BF9DFF8340B006D55
:10073000E86019E0A51C0622290014F1080002F067
:1007400025FAF0200390002002903C2001903C20EC
:1007500000903C2300220C21280003F011F9012015
:10076000DFF8FC1A0870FFE772E0E078002802D09A
:1007700001281FD038E0A61C0622310014F1080021
:1007800002F004FADFF8C857F220039015F10C00CC
:1007900002901A200190172000901923E278521C31
:1007A000D2B20521300003F0EBF8DFF8B40A406D57
:1007B000E86019E0A51C0622290014F1080002F0E7
:1007C000E5F9F0200390002002903C2001903C20AD
:1007D00000903C2300220C21280003F0D1F80120D6
:1007E000DFF87C1A0870FFE732E0A51C062229001A
:1007F00014F1080002F0CAF9F020039000200290E2
:100800003C2001903C2000903C2300220C21280039
:1008100003F0B6F8DFF81C4B5FF07E502060DFF885
:10082000185B00202860DFF8102D29002000D2ED91
:10083000031A92ED021AD2ED010A92ED000A03F0BA
:1008400049FFD5ED000A94ED000A062003F07CFE76
:1008500000F06FBE20791F2808D0C0F0E08021286A
:100860006AD029D3222800F0A780D8E0A51C062250
:10087000290014F1080002F089F9F020039000200B
:1008800002903C2001903C2000903C2300220C214F
:10089000280003F075F8DFF89C0A5FF07E510160D4
:1008A000DFF8941A00220A60D1ED000A90ED000AE8
:1008B000072003F049FEB2E0E078002802D00128CA
:1008C0001FD038E0A61C0622310014F1080002F007
:1008D0005DF9DFF87C56F220039015F10C000290D0
:1008E000222001901F2000902023E278521CD2B2D7
:1008F0000621300003F044F8DFF86409406EE86038
:1009000019E0A51C0622290014F1080002F03EF9A6
:10091000F0200390002002903C2001903C200090A9
:100920003C2300220C21280003F02AF80120DFF8E4
:1009300030190870FFE772E0E078002802D0012843
:100940001FD038E0A61C0622310014F1080002F086
:100950001DF9DFF8FC55F220039015F10C00029010
:10096000222001901F2000902123E278521CD2B255
:100970000621300003F004F8DFF8E408806EE86038
:1009800019E0A51C0622290014F1080002F0FEF867
:10099000F0200390002002903C2001903C20009029
:1009A0003C2300220C21280002F0EAFF0120DFF89E
:1009B000B0180870FFE732E0A51C0622290014F1E8
:1009C000080002F0E3F8F0200390002002903C20A1
:1009D00001903C2000903C2300220C21280002F0D2
:1009E000CFFFDFF850495FF07E502060DFF84859B4
:1009F00000202860DFF8402B29002000D2ED071AE4
:100A000092ED061AD2ED050A92ED040A03F046FEB5
:100A1000D5ED000A94ED000A072003F095FD00F0E3
:100A200088BD2079272808D0C0F0E08029286AD026
:100A300029D32A2800F0A780D8E0A51C0622290087
:100A400014F1080002F0A2F8F020039000200290B8
:100A50003C2001903C2000903C2300220C212800E7
:100A600002F08EFFDFF8CC085FF07E510160DFF806
:100A7000C81800220A60D1ED000A90ED000A082093
:100A800003F062FDB2E0E078002802D001281FD018
:100A900038E0A61C0622310014F1080002F076F8B6
:100AA000DFF8AC54F220039015F10C0002902A20DC
:100AB0000190272000902823E278521CD2B207210F
:100AC000300002F05DFFDFF89807806FE86019E002
:100AD000A51C0622290014F1080002F057F8F020A6
:100AE0000390002002903C2001903C2000903C2389
:100AF00000220C21280002F043FF0120DFF86017DC
:100B00000870FFE772E0E078002802D001281FD0CB
:100B100038E0A61C0622310014F1080002F036F875
:100B2000DFF82C54F220039015F10C0002902A20DB
:100B30000190272000902923E278521CD2B207218D
:100B4000300002F01DFFDFF81807C06FE86019E001
:100B5000A51C0622290014F1080002F017F8F02065
:100B60000390002002903C2001903C2000903C2308
:100B700000220C21280002F003FF0120DFF8E0161C
:100B80000870FFE732E0A51C0622290014F10800D6
:100B900001F0FCFFF0200390002002903C20019027
:100BA0003C2000903C2300220C21280002F0E8FEAB
:100BB000DFF880475FF07E502060DFF87C57002030
:100BC0002860DFF8742929002000D2ED0B1A92ED7D
:100BD0000A1AD2ED090A92ED080A03F05FFDD5ED7D
:100BE000000A94ED000A082003F0AEFC00F0A1BC5E
:100BF0001C2C00200000002020792C2802D02D2859
:100C00003FD07DE0E078002802D001281ED037E0F8
:100C1000A61C0622310014F1080001F0B7FFCC4DEC
:100C2000F220039015F10C0002902D2001902C2051
:100C300000902C23E278521CD2B20821300002F03E
:100C40009FFEDFF81C06006AE86019E0A51C06227A
:100C5000290014F1080001F099FFF0200390002012
:100C600002903C2001903C2000903C2300220C216B
:100C7000280002F085FE0120DFF8E4150870FFE788
:100C80003EE0E078002802D001281ED037E0A61C04
:100C90000622310014F1080001F078FFAC4DF2207B
:100CA000039015F10C0002902D2001902C20009053
:100CB0002D23E278521CD2B20821300002F060FEEF
:100CC000DFF89C05406AE86019E0A51C06222900AF
:100CD00014F1080001F05AFFF02003900020029068
:100CE0003C2001903C2000903C2300220C21280055
:100CF00002F046FE0120DFF868150870FFE7FFE705
:100D000000F017BC20792F2806D0C0F0C58031280C
:100D100000F0838042D3BFE0E078002802D00128B1
:100D200021D03AE0A71C0622390014F1080001F096
:100D30002DFF874D15F10C06F2200390029631200D
:100D400001902F2000902F23E278521CD2B209216B
:100D5000380002F015FEDFF8E4070078E860DFF8FD
:100D60000005066319E0A51C0622290014F10800FD
:100D700001F00CFFF0200390002002903C20019035
:100D80003C2000903C2300220C21280002F0F8FDBA
:100D90000120DFF8CC140870FFE77DE0E078002840
:100DA00002D001281ED037E0A61C0622310014F123
:100DB000080001F0EBFE664DF220039015F10C00E7
:100DC0000290312001902F2000903023E278521CB5
:100DD000D2B20921300002F0D3FDDFF88404806A2A
:100DE000E86019E0A51C0622290014F1080001F0B2
:100DF000CDFEF0200390002002903C2001903C208A
:100E000000903C2300220C21280002F0B9FD0120B3
:100E1000DFF84C140870FFE73EE0E078002802D0CD
:100E200001281ED037E0A61C0622310014F108006C
:100E300001F0ACFE464DF220039015F10C0002903B
:100E4000312001902F2000903123E278521CD2B241
:100E50000921300002F094FDDFF80404C06AE86064
:100E600019E0A51C0622290014F1080001F08EFEED
:100E7000F0200390002002903C2001903C20009044
:100E80003C2300220C21280002F07AFD0120DFF82B
:100E9000D0130870FFE7FFE74BE32079332809D030
:100EA000C0F00381352800F0848042D3362800F05A
:100EB000BE80FAE0E078002802D001281ED037E09A
:100EC000A61C0622310014F1080001F05FFE204D3F
:100ED000F220039015F10C0002903620019033208F
:100EE00000903323E278521CD2B20A21300002F083
:100EF00047FDDFF86C03406BE86019E0A51C062293
:100F0000290014F1080001F041FEF02003900020B8
:100F100002903C2001903C2000903C2300220C21B8
:100F2000280002F02DFD0120DFF834130870FFE7E0
:100F3000BBE0E078002802D0012820D038E0A61CD1
:100F40000622310014F1080001F020FE004D01E0FE
:100F5000D42B0020F220039015F10C0002903620D3
:100F60000190332000903423E278521CD2B20A213F
:100F7000300002F005FDBA48806BE86018E0A51C5F
:100F80000622290014F1080001F000FEF020039071
:100F9000002002903C2001903C2000903C23002245
:100FA0000C21280002F0ECFC0120AD490870FFE79D
:100FB0007BE0E078002802D001281ED036E0A61C95
:100FC0000622310014F1080001F0E0FDDFF8C859F5
:100FD000F220039015F10C0002903620019033208E
:100FE00000903523E278521CD2B20A21300002F080
:100FF000C7FC9B48C06BE86018E0A51C06222900CE
:1010000014F1080001F0C2FDF020039000200290CE
:101010003C2001903C2000903C2300220C21280021
:1010200002F0AEFC01208E490870FFE73DE0E07859
:10103000002802D001281ED036E0A61C062231006E
:1010400014F1080001F0A2FDDFF84C59F2200390E2
:1010500015F10C00029036200190332000903623C9
:10106000E278521CD2B20A21300002F089FC7C489E
:10107000006CE86018E0A51C0622290014F10800A5
:1010800001F084FDF0200390002002903C200190AC
:101090003C2000903C2300220C21280002F070FC30
:1010A00001206F490870FFE7FFE742E2207A03283A
:1010B00010D0052800F04381062800F0938107280E
:1010C00000F0E381082839D0092870D00A2800F000
:1010D000B6802DE2322001F0FFFF03206049087046
:1010E000A07A0E2802D00F280AD026E0DFF8AC083C
:1010F0004178DFF8A408C068C0B205F0E4F81CE04D
:1011000000200100C9B20B2910DADFF894180200A0
:10111000D2B251F82210DFF88028D268914203D170
:10112000DFF87818487001E0401CEAE7DFF86C0847
:101130004178007805F0C7F8FFE7F9E1484D032052
:101140002870322001F0C8FFA07A2C2802D02D2868
:1011500016D02BE0287A05F0C7FA00EE100ADFF867
:101160004408D0ED0A0ADFF8300890ED031AB8EE13
:10117000C11AB8EE400A81EE000A03F037FB15E011
:10118000687A05F0B1FA00EE100ADFF80C08D0ED2D
:10119000030AF8EEE00AB8EE400AC0EE800ADFF873
:1011A000040890ED090A03F021FBFFE7C0E12C4D94
:1011B00003202870322001F08FFFA07A2F2804D05E
:1011C0003CD3312824D00DD338E0DFF87003D0EDC4
:1011D000020A90ED010ADFF8C007C068C0B203F050
:1011E000B7FB2BE0A87A05F07FFA00EE100AD3488F
:1011F000DFF8A417D1ED030AF8EEE00AB8EE400AD2
:10120000C0EE800A90ED010A007803F0A1FB15E022
:10121000A87A05F069FA00EE100AC848D0ED020A73
:10122000DFF8741791ED031AB8EEC11AB8EE400A50
:1012300081EE000A007803F08BFBFFE778E1084DB0
:1012400003202870322001F047FFA07A332809D00C
:1012500074D335283AD01FD3362851D06EE000BF62
:101260007C000020E87A05F03FFA00EE100ADFF873
:101270003807D0ED031A90ED021AD0ED010ADFF81D
:10128000180790ED032AB8EEC22AB8EE400A82EEA3
:10129000000A03F01AFC51E0E87A05F025FA00EEA6
:1012A000100ADFF80407D0ED031A90ED021ADFF8F8
:1012B000E816D1ED030AF8EEE00AB8EE400AC0EEF7
:1012C000800A90ED000A03F000FC37E0E87A05F0B0
:1012D0000BFA00EE100ADFF8D006D0ED031ADFF8A3
:1012E000B816D1ED030AF8EEE00AB8EE400A80EE37
:1012F000801AD0ED010A90ED000A03F0E6FB1DE034
:10130000E87A05F0F1F900EE100ADFF89C06DFF844
:101310008816D1ED030AF8EEE00AB8EE400AC0EEF6
:10132000801A90ED021AD0ED010A90ED000A03F048
:10133000CCFB03E0702C0020742C0020F8E0A07A95
:10134000172806D04DD3192827D005D31A2845D001
:1013500047E003F0E7F844E0DFF850460320207050
:10136000322001F0B9FE207A05F0BEF900EE100A35
:10137000DFF82406D0ED030AF8EEE00AB8EE400AE2
:1013800080EE800A002003F0F3FCDFF8180690EDF1
:10139000010A012003F0ECFC23E0DFF810460320F3
:1013A0002070322001F098FE207A05F09DF900EEC1
:1013B000100ADFF8E405D0ED030AF8EEE00AB8EE13
:1013C000400A80EE800A022003F0D2FCDFF8D40548
:1013D00090ED010A032003F0CBFC02E003F0A2F839
:1013E000FFE7A5E0A07A1F2806D04DD3212827D0FB
:1013F00005D3222845D047E003F094F844E0DFF815
:10140000AC4503202070322001F066FE207A05F002
:101410006BF900EE100ADFF88005D0ED030AF8EE54
:10142000E00AB8EE400A80EE800A042003F0A0FC37
:10143000DFF8700590ED020A052003F099FC23E027
:10144000DFF8684503202070322001F045FE207A45
:1014500005F04AF900EE100ADFF83C05D0ED030A6A
:10146000F8EEE00AB8EE400A80EE800A062003F0AB
:101470007FFCDFF8300590ED020A072003F078FCCE
:1014800002E003F04FF8FFE752E0A07A272806D0E9
:101490004DD3292827D005D32A2845D047E003F08B
:1014A00041F844E0DFF8044503202070322001F0C9
:1014B00013FE207A05F018F900EE100ADFF8D804C0
:1014C000D0ED030AF8EEE00AB8EE400A80EE800A9A
:1014D000082003F04DFCDFF8CC0490ED030A09204E
:1014E00003F046FC23E0DFF8C444032020703220E0
:1014F00001F0F2FD207A05F0F7F800EE100ADFF8AF
:101500009804D0ED030AF8EEE00AB8EE400A80EE47
:10151000800A0A2003F02CFCDFF8880490ED030A0F
:101520000B2003F025FC02E002F0FCFFFFE7FFE7E1
:10153000FFE705B0F0BD0000E82A0020542C002091
:1015400010B5DFF8F4389878002815D0022825D097
:1015500013D304287DD02ED3062800F0F180C0F0EC
:10156000B880082800F08280C0F020810A2800F0AE
:10157000A681C0F051810DE20CE2DFF8C008DFF86F
:101580001814CA68825C521CCB68C254CA68825C58
:101590003A2A02DB3022C9684254FBE158791979B2
:1015A000884202D21879401E1871F1220021981C3D
:1015B00002F0C0F9EEE1D87800280CD158791979F9
:1015C000884202D21879401E1871F1220021981C1D
:1015D00002F0B0F93CE018790E2802D00F2812D0A2
:1015E00036E0D878002802D0012801D00AE009E0CE
:1015F000DFF8A403C168B1F5807F02DAC168491C35
:10160000C160FFE724E0D878002802D0012801D08B
:101610001EE01DE000210800C0B20B2817DADFF839
:101620008023DFF874030B00DBB252F82330C46868
:10163000A3420AD10B00DBB20A2B06DA0B00DBB2A5
:1016400002EB83025268C26001E0491CE3E7FFE756
:10165000A0E158791979884202D21879401E187190
:10166000F1220021981C02F065F993E1D878002856
:101670000CD158791979884202D21879401E187114
:10168000F1220021981C02F055F921E018792C284C
:1016900002D02D280ED01BE0D878002802D00128D7
:1016A00001D006E005E0DFF8F002C168491CC16026
:1016B000FFE70DE0D878002802D0012801D006E02D
:1016C00005E0DFF8D402C168491CC160FFE7FFE70D
:1016D00060E1D87800280CD158791979884202D273
:1016E0001879401E1871F1220021981C02F022F98D
:1016F00025E01879172806D021D3192812D003D352
:101700001A281CD01BE01AE0D878002802D0012843
:1017100001D006E005E0DFF88002C168491CC16025
:10172000FFE70CE0D878002802D0012801D005E0BE
:1017300004E09948C168491CC160FFE7FFE729E15F
:10174000D87800280CD158791979884202D21879B2
:10175000401E1871F1220021981C02F0EBF824E0E1
:1017600018791F2806D020D3212811D003D322288E
:101770001BD01AE019E0D878002802D0012801D047
:1017800005E004E08448C168491CC160FFE70CE043
:10179000D878002802D0012801D005E004E07E4876
:1017A000C168491CC160FFE7FFE7F3E0D878002873
:1017B0000CD158791979884202D21879401E1871D3
:1017C000F1220021981C02F0B5F824E018792728AE
:1017D00006D020D3292811D003D32A281BD01AE001
:1017E00019E0D878002802D0012801D005E004E0F3
:1017F0006948C168491CC160FFE70CE0D87800283F
:1018000002D0012801D005E004E06348C168491C0A
:10181000C160FFE7FFE7BDE0D87800280CD1587918
:101820001979884202D21879401E1871F1220021DC
:10183000981C02F07FF841E018792F2804D03DD39E
:10184000312829D012D339E0D878002802D00128D5
:1018500001D00AE009E05049C868002802D10120FF
:10186000C86001E00020C860FFE727E0D8780028C2
:1018700002D0012801D00EE00DE04C48807A04F03F
:1018800033FF454AD368C8214843834202D2D06817
:10189000401CD060FFE711E0D878002802D0012872
:1018A00001D00AE009E03C48C168404A926A91428E
:1018B00002DAC168491CC160FFE7FFE76AE0D87837
:1018C00000280CD158791979884202D21879401E23
:1018D0001871F1220021981C02F02CF859E01879B7
:1018E000332806D055D335282BD018D336283ED0F0
:1018F0004FE0D878002802D0012801D00EE00DE09A
:101900002A48C07A04F0F0FE234AD368C82148432D
:10191000834202D2D068401CD060FFE739E0D8781B
:10192000002802D0012801D00AE009E01A48C16865
:101930001E4A526B914202DAC168491CC160FFE73E
:1019400027E0D878002802D0012801D00EE00DE071
:101950001648C07A04F0C8FE0F4AD36850214843A5
:10196000834202D2D068401CD060FFE711E0D878F3
:10197000002802D0012801D00AE009E00648C16829
:101980000A4AD26B914202DAC168491CC160FFE782
:10199000FFE7FFE710BD0000D42B00208C0E0020D5
:1019A00004090020A02A00202C2C00207C0000200C
:1019B00010B5DFF884349878002815D0022825D097
:1019C00013D304287DD02ED3062800F0F880C0F071
:1019D000B880082800F08280C0F02D810A2800F02D
:1019E000BB81C0F0648126E225E2DFF85004DFF815
:1019F0005014CA68825C521ECB68C254CA68825CAA
:101A0000302A02DA3922C968425414E218799979E5
:101A1000884202D21879401C1871F1220021981CCA
:101A200001F088FF07E2D87800280CD1187999795D
:101A3000884202D21879401C1871F1220021981CAA
:101A400001F078FF3CE018790E2802D00F2811D061
:101A500036E0D878002802D0012801D009E008E05B
:101A6000DFF8DC03C168012902DBC168491EC160DF
:101A7000FFE725E0D878002802D0012801D01FE038
:101A80001EE00A221000C0B2002818D0DFF8B433DC
:101A9000DFF8AC131000C0B253F82000CC68A042AD
:101AA0000BD11000C0B2002807D01000C0B203EB69
:101AB000800050F8040CC86001E0521EE2E7FFE726
:101AC000B9E118799979884202D21879401C1871C5
:101AD000F1220021981C01F02DFFACE1D8780028FC
:101AE0000CD118799979884202D21879401C187162
:101AF000F1220021981C01F01DFF21E018792C280B
:101B000002D02D280ED01BE0D878002802D0012862
:101B100001D006E005E0DFF82803C168491EC16076
:101B2000FFE70DE0D878002802D0012801D006E0B8
:101B300005E0DFF80C03C168491EC160FFE7FFE75D
:101B400079E1D87800280CD118799979884202D2A5
:101B50001879401C1871F1220021981C01F0EAFE4E
:101B60002CE01879172806D028D3192815D003D3CC
:101B70001A2823D022E021E0D878002802D00128BA
:101B800001D009E008E0DFF8B802C168012902DBF2
:101B9000C168491EC160FFE710E0D878002802D074
:101BA000012801D009E008E0DFF89402C1680129AA
:101BB00002DBC168491EC160FFE7FFE73BE1D8785F
:101BC00000280CD118799979884202D21879401CE2
:101BD0001871F1220021981C01F0ACFE2AE018795E
:101BE0001F2806D026D3212814D003D3222821D0A1
:101BF00020E01FE0D878002802D0012801D008E0BA
:101C000007E08F48C168012902DBC168491EC16035
:101C1000FFE70FE0D878002802D0012801D008E0C3
:101C200007E08748C168012902DBC168491EC1601D
:101C3000FFE7FFE7FFE0D87800280CD11879997901
:101C4000884202D21879401C1871F1220021981C98
:101C500001F070FE2AE01879272806D026D329281B
:101C600014D003D32A2821D020E01FE0D878002800
:101C700002D0012801D008E007E07148C1680129BD
:101C800002DBC168491EC160FFE70FE0D878002879
:101C900002D0012801D008E007E06948C1680129A5
:101CA00002DBC168491EC160FFE7FFE7C3E0D878E7
:101CB00000280CD118799979884202D21879401CF1
:101CC0001871F1220021981C01F034FE43E01879CC
:101CD0002F2804D03FD3312826D012D33BE0D87828
:101CE000002802D0012801D00AE009E05449C86860
:101CF000002802D10120C86001E00020C860FFE791
:101D000029E0D878002802D0012801D00BE00AE0B1
:101D10004B48DFF86419C96AC268914202DAC168A7
:101D2000491EC160FFE716E0D878002802D00128DC
:101D300001D00FE00EE0DFF84009807A04F0D4FC17
:101D40003F4A00214843D168884202D2D068401EF1
:101D5000D060FFE7FFE76EE0D87800280CD1187953
:101D60009979884202D21879401C1871F122002119
:101D7000981C01F0DFFD5DE01879332806D059D3B7
:101D800035282DD015D336283DD053E0D8780028FB
:101D900002D0012801D00BE00AE02948DFF8D8186A
:101DA000896BC268914202DAC168491EC160FFE7CF
:101DB00040E0D878002802D0012801D00FE00EE0E2
:101DC000DFF8B408C07A04F08FFC1D4A00214843B4
:101DD000D168884202D2D068401ED060FFE729E077
:101DE000D878002802D0012801D00BE00AE014487E
:101DF000DFF88418096CC268914202DAC168491E92
:101E0000C160FFE716E0D878002802D0012801D091
:101E10000FE00EE0DFF86008C07A04F065FC084AC5
:101E200000214843D168884202D2D068401ED06069
:101E3000FFE7FFE7FFE710BD1C2C0020000000209B
:101E4000D42B0020040900207FB5DFF83048A078AB
:101E500000281ED001281DD002281ED003281FD024
:101E6000042800F09080052800F0A880062800F0E3
:101E70004A81082800F0EC81092800F05C820A28D9
:101E800000F004830B2800F0E2830C2800F0E683C6
:101E9000F1E3F0E30020A070EDE30020A070EAE39E
:101EA00020790E2802D00F2836D06BE0E078002889
:101EB00002D0012816D02EE0A51CF12003900020AE
:101EC00002900C200190072000900723002202219D
:101ED000280001F055FD0622290014F1080000F049
:101EE00055FE18E0A51C0622290014F1080000F098
:101EF0004DFEF1200390DFF8880702900F2001903B
:101F00000E2000900E23E078421ED2B2032128005A
:101F100001F036FDFFE735E0E078002802D0012827
:101F200016D02EE0A51CF1200390002002900C207A
:101F3000019007200090072300220221280001F0D1
:101F40001FFD0622290014F1080000F01FFE18E012
:101F5000A51C0622290014F1080000F017FEF1204C
:101F60000390DFF8200702900F2001900E200090D0
:101F70000F23E078421ED2B20321280001F000FDB9
:101F8000FFE7FFE777E320791138012815D8A51C72
:101F9000F1200390002002900C2001900720009077
:101FA000082300220221280001F0EAFC0622290071
:101FB00014F1080000F0EAFDFFE75CE32079172840
:101FC00008D0C0F09F80192850D019D31A2800F0EB
:101FD000838097E0A51CF12003900020029012203E
:101FE000019011200090112300220421280001F00B
:101FF000C7FC0622290014F1080000F0C7FD81E0AB
:10200000E078002802D0012816D02EE0A51CF1208F
:1020100003900020029012200190112000901123C3
:1020200000220421280001F0ABFC0622290014F153
:10203000080000F0ABFD18E0A51C0622290014F1F1
:10204000080000F0A3FDF1200390DFF83C060290A9
:102050001A200190172000901823E078421ED2B277
:102060000521280001F08CFCFFE74BE0E078002818
:1020700002D0012816D02EE0A51CF12003900020EC
:1020800002901220019011200090112300220421BF
:10209000280001F075FC0622290014F1080000F068
:1020A00075FD18E0A51C0622290014F1080000F0B7
:1020B0006DFDF1200390DFF8D40502901A20019005
:1020C000172000901923E078421ED2B20521280083
:1020D00001F056FCFFE715E0A51CF120039000205D
:1020E000029012200190112000901123002204215F
:1020F000280001F045FC0622290014F1080000F038
:1021000045FDFFE7B7E220791F2808D0C0F09F8087
:10211000212850D019D3222800F0838097E0A51CF5
:10212000F1200390002002901220019011200090D5
:10213000122300220421280001F022FC062229009B
:1021400014F1080000F022FD81E0E078002802D0C0
:10215000012816D02EE0A51CF1200390002002904B
:102160001220019011200090122300220421280047
:1021700001F006FC0622290014F1080000F006FD1B
:1021800018E0A51C0622290014F1080000F0FEFC4E
:10219000F1200390DFF8F8040290222001901F2024
:1021A00000902023E078421ED2B20621280001F0E0
:1021B000E7FBFFE74BE0E078002802D0012816D0CB
:1021C0002EE0A51CF1200390002002901220019027
:1021D00011200090122300220421280001F0D0FBDE
:1021E0000622290014F1080000F0D0FC18E0A51C1C
:1021F0000622290014F1080000F0C8FCF120039029
:10220000DFF890040290222001901F2000902123EB
:10221000E078421ED2B20621280001F0B1FBFFE7B0
:1022200015E0A51CF12003900020029012200190DF
:1022300011200090122300220421280001F0A0FBAD
:102240000622290014F1080000F0A0FCFFE712E2CA
:1022500020792C2802D02D2836D06BE0E078002899
:1022600002D0012816D02EE0A51CF12003900020FA
:1022700002900C20019007200090092300220221E7
:10228000280001F07DFB0622290014F1080000F06F
:102290007DFC18E0A51C0622290014F1080000F0BE
:1022A00075FCF1200390DFF8F00302902D200190DF
:1022B0002C2000902C23E078421ED2B20821280066
:1022C00001F05EFBFFE735E0E078002802D001284E
:1022D00016D02EE0A51CF1200390002002900C20C7
:1022E000019007200090092300220221280001F01C
:1022F00047FB0622290014F1080000F047FC18E013
:10230000A51C0622290014F1080000F03FFCF12072
:102310000390DFF8880302902D2001902C2000907C
:102320002D23E078421ED2B20821280001F028FBBC
:10233000FFE7FFE79FE120792F2805D0C0F0A580B7
:1023400031286DD037D3A0E0E078002802D00128F2
:1023500016D02FE0A51CF1200390002002900C2045
:102360000190072000900A2300220221280001F09A
:1023700007FB0622290014F1080000F007FC19E011
:10238000A51C0622290014F1080000F0FFFBC44E32
:10239000F12003900296312001902F2000902F23EE
:1023A000E078421ED2B20921280001F0E9FAB248D1
:1023B0000663FFE769E0E078002802D0012816D024
:1023C0002DE0A51CF1200390002002900C2001902C
:1023D000072000900A2300220221280001F0D0FAF1
:1023E0000622290014F1080000F0D0FB17E0A51C1C
:1023F0000622290014F1080000F0C8FBF120039028
:10240000A8480290312001902F2000903023E078DE
:10241000421ED2B20921280001F0B2FAFFE734E0EF
:10242000E078002802D0012816D02DE0A51CF1206C
:102430000390002002900C200190072000900A23B6
:1024400000220221280001F09BFA0622290014F143
:10245000080000F09BFB17E0A51C0622290014F1E0
:10246000080000F093FBF12003908F480290312088
:1024700001902F2000903123E078421ED2B2092132
:10248000280001F07DFAFFE7FFE7F4E02079332828
:1024900008D0C0F0DB8035286ED038D3362800F065
:1024A000A080D3E0E078002802D0012816D02DE0EB
:1024B000A51CF1200390002002900C200190072021
:1024C00000900B2300220221280001F059FA062275
:1024D000290014F1080000F059FB17E0A51C0622A2
:1024E000290014F1080000F051FBF12003906F481F
:1024F000029036200190332000903323E078421E72
:10250000D2B20A21280001F03BFAFFE79EE0E07812
:10251000002802D0012816D02DE0A51CF120039040
:10252000002002900C200190072000900B23002235
:102530000221280001F024FA0622290014F10800E3
:1025400000F024FB17E0A51C0622290014F1080066
:1025500000F01CFBF12003905548029036200190BA
:10256000332000903423E078421ED2B20A212800A2
:1025700001F006FAFFE769E0E078002802D00128C0
:1025800016D02DE0A51CF1200390002002900C2015
:102590000190072000900B2300220221280001F067
:1025A000EFF90622290014F1080000F0EFFA17E015
:1025B000A51C0622290014F1080000F0E7FAF1201A
:1025C00003903C4802903620019033200090352340
:1025D000E078421ED2B20A21280001F0D1F9FFE7CB
:1025E00034E0E078002802D0012816D02DE0A51CA8
:1025F000F1200390002002900C2001900720009011
:102600000B2300220221280001F0BAF9062229003A
:1026100014F1080000F0BAFA17E0A51C0622290000
:1026200014F1080000F0B2FAF12003902248029061
:1026300036200190332000903623E078421ED2B23B
:102640000A21280001F09CF9FFE7FFE713E00622CA
:1026500014F10801A01C00F099FA0CE0064D28784E
:10266000022807D0062214F10801A01C00F08EFAFF
:1026700000202870FFE77FBD7C0000201C2C00207C
:102680007D00002080000020CC000020D000002031
:10269000E0000020E40000209C000020A0000020BA
:1026A000542C0020A4000020A8000020B00000202E
:1026B000B4000020B8000020BC000020F8B40300E3
:1026C00000250868E840002800F0D78001260F6840
:1026D00016FA05F007403A00002A00F0CC8008798D
:1026E00010F00300012804D0087910F0030002283C
:1026F0001DD19F685FF0030C2800C0B240001CFA97
:1027000000FC37EA0C07D1F80CC02800C0B240002A
:102710001CFA00FC5CEA07079F605868AE40B043B3
:102720004E68C6F30016AE40304304005C60087982
:1027300010F0030003280ED0DE6803272800C0B283
:1027400040008740BE438F682800C0B240008740E9
:102750003E433400DC60087910F00300022818D1F1
:102760002800C00803EB8000066A0F2715F0070059
:10277000C0B280008740BE430F6915F00700C0B2A9
:10278000800087403E4334002800C00803EB8000EF
:1027900004621E6803272800C0B240008740BE4381
:1027A0000F7917F003072800C0B2400087403E436E
:1027B00034001C60486810F4403F5CD095480668BF
:1027C00056F001060660006810F0010000900098C5
:1027D000914F2800800857F820605FF00F0C15F02B
:1027E0000300C0B280001CFA00FC36EA0C06B3F10C
:1027F000904F01D1002414E08848834201D1012484
:102800000FE08748834201D102240AE085488342D1
:1028100001D1032405E08448834201D1042400E06F
:10282000072415F00300C0B280008440264328002E
:10283000800847F820607D4C206890434F68FF0275
:1028400000D5104320607A4E346894434F68BF022D
:1028500000D514433460774E306890434F68BF030F
:1028600000D510433060744E346894434F68FF03C2
:1028700000D5144334606D1C23E7F1BC70472DE98B
:10288000F041030000250800E840002800F0A8807F
:10289000012616FA05F008400200002A00F09E808A
:1028A000DFF874C1280080085CF820000F2715F0BD
:1028B000030E5FFA8EFE5FEA8E0E17FA0EFE1EEA18
:1028C00000000400B3F1904F02D15FF0000E19E058
:1028D0005248834202D15FF0010E13E05048834218
:1028E00002D15FF0020E0DE04E48834202D15FF04C
:1028F000030E07E04C48834202D15FF0040E01E072
:102900005FF0070E15F00300C0B280001EFA00FE53
:1029100074452CD14848D0F800E03EEA020EC0F8D9
:1029200000E04448D0F800E03EEA020EC0F800E0C3
:102930003F48D0F800E03EEA020EC0F800E03B4815
:10294000D0F800E03EEA020EC0F800E015F0030007
:10295000C0B2800017FA00F00400280080085CF87C
:102960002000A043AE465FEA9E0E4CF82E005FF0BA
:10297000030C1868AE465FFA8EFE5FEA4E0E1CFA34
:102980000EFE5EEA000018602800C00803EB800E0F
:102990002800C00803EB8000D0F8208015F0070065
:1029A000C0B28000874038EA0707CEF820709868E8
:1029B0002F00FFB27F001CFA07F7B84398605868F1
:1029C000AE4030EA06065E60DE682800C0B2400015
:1029D0001CFA00FC36EA0C0CC3F80CC06D1C52E764
:1029E000BDE8F081020010690B009BB2184201D0D3
:1029F000012000E00020C0B270471300DBB2002BC2
:102A000003D00B009BB2836102E00B009BB2836298
:102A100070470000601002400800014000040048B8
:102A200000080048000C004800100048080401405D
:102A30000C040140040401400004014038B50400C6
:102A40000D00DFF8FC010168200000F006F8A84244
:102A500001D3012000E0002032BD814204D25FF0AA
:102A6000FF32101A081800E0081A704738B52DED2B
:102A7000048B08EE100A0C001500DFED438A2800D5
:102A8000C0B2FB2810DBB8EEC89A2800C0B24042A2
:102A9000C0B200F08BF829EE009A00212000B0EEC1
:102AA000490A00F0B1F80EE0B8EEC89A2800C0B2AA
:102AB00000F07CF889EE009A2900C9B22000B0EE3F
:102AC000490A00F0A1F8BDEC048B31BD10B400211F
:102AD0000A00838892B29A4206D2002203680C0050
:102AE000A4B21A55491CF3E70022828010BC70473B
:102AF00010B4040013005A1E9BB2002B02D02170A8
:102B0000641CF7E710BC704770B504000D00160098
:102B1000DFF8240100782100C9B2884209D3DFF828
:102B200024211068002804D0310089B228001268DE
:102B3000904770BD38B504000D00280003F0DAFF9F
:102B4000020092B229002000C0B2FFF7DDFF31BDC4
:102B500070B504000D00280003F0CCFF020092B213
:102B600029002000C0B2FFF7CFFFDFF8DC6030683B
:102B7000002807D0280003F0BDFF010089B228001B
:102B80003268904770BD00000000000030B40400BF
:102B90000D0013005A1E9BB2002B04D02B7823701B
:102BA0006D1C641CF5E730BC7047000010B50400D4
:102BB0002000C0B2FB2816DB2000C0B2D0F5807028
:102BC00003F0D0FF41EC110B9FED200B03F0E9FF68
:102BD00053EC102B0020194903F0ECFF04F00EF920
:102BE00000EE100A0FE02000C0B204F03BF941EC07
:102BF000110B9FED160B03F0D4FF51EC100B04F0FA
:102C0000FDF800EE100A10BD38B52DED028B82B034
:102C1000B0EE408A04000D0018EE100A04F030F9FE
:102C2000CDE900012A000B49200004F04DF902B063
:102C3000BDEC028B31BD0000900E00200000F03F83
:102C4000A82C0020B02C0020AC2C0020000000009C
:102C5000000024407C17010880B500224FF4007169
:102C6000DFF86C0CFFF7C9FE00224FF400715FF033
:102C70009040FFF7C2FE04F047F9DFF8AC0CDFF834
:102C8000AC1C0163DFF8A81C421CC1F85821021DCE
:102C9000C1F8702110F114020A62027A81F825202D
:102CA00010F11C028A63427A81F83D2010F1200263
:102CB000C1F82824027A81F82D2410F12402C1F8E9
:102CC0004024427A81F8452410F12802C1F8882472
:102CD000827A81F88D2410F12C02C1F8A024827A26
:102CE00081F8A52410F13402C1F8D024C27A81F809
:102CF000D52410F13802C1F8E824C27A81F8ED2415
:102D000010F13C02C1F80025C27A81F8052510F1C6
:102D10004002C1F81825C27A81F81D25DFF85C2C25
:102D20001268C1F86025DFF8042D1268C1F89025FB
:102D300010F14402C1F8E821027A81F8ED2110F186
:102D40004802C1F80022027A81F8052210F14C02F3
:102D5000C1F81822027A81F81D2210F15002C1F840
:102D60004822027A81F84D2210F15402C1F8602203
:102D7000027A81F8652210F15802C1F8A822027A7D
:102D800081F8AD2210F15C02C1F8C022027A81F80C
:102D9000C52210F16002C1F8D822027A81F8DD2242
:102DA00010F16402C1F80823027A81F80D2310F1B2
:102DB0006802C1F82023027A81F8252310F16C0201
:102DC000C1F86823027A81F86D2310F17002C1F80E
:102DD0008023027A81F8852310F17402C1F89823C8
:102DE000027A81F89D2310F17802C1F8C823027A93
:102DF00081F8CD2310F17C02C1F8E023007A81F83C
:102E0000E50301BD38B5002000242000C0B207282A
:102E100035DADFF8785C2000C0B200012844407841
:102E200001282AD12000C0B20001284440680028AF
:102E30000ED004F0C1F82100C9B209012944496843
:102E4000401A2100C9B2090129448968884214D373
:102E500000202100C9B209012944487004F0ACF8EF
:102E60002100C9B20901294448602000C0B22100F4
:102E7000C9B209012944C9688847641CC5E7002014
:102E800032BD38B50400DFF8085C687800281FD12F
:102E900000224FF40071DFF8380AFFF7AEFD002280
:102EA0004FF400715FF09040FFF7A7FD04F02CF89D
:102EB00089200090202307220521DFF8D80B04F099
:102EC00081F8012068700221DFF8C00B04F0C2F91C
:102ED000012032BD7CB50400DFF8BC5B28780028F7
:102EE00003D0022823D003D33DE004F0DDF93AE01B
:102EF00004F050FA89200090202307220521DFF8F2
:102F0000940B04F05FF8DFF8942B03212C2004F0DD
:102F100073F9DFF88C2B0421082004F06DF904F01C
:102F200096FA41F28830DFF8641B88611BE00120CB
:102F3000DFF85C1B487089200090202307220521C0
:102F4000DFF8500B04F03EF8DFF8406B0221300050
:102F500004F080F90321300004F07CF904213000F2
:102F600004F078F9FFE72878401C28702100C9B2E6
:102F7000DFF8180B04F07DF9012076BD70B5040070
:102F800000F0BCF8DFF8085B6878012803D1A87866
:102F900000F0A0FC04E00021DFF8F00A04F05AF988
:102FA000DFF8080BA9780278914207D0A978017060
:102FB000DFF8FC0A0068DFF8FC1A0860A8780D2822
:102FC00012D1DFF8F06A4FF4FA613068FFF736FD8E
:102FD000012809D1DFF8D80A00683060062215F10F
:102FE0000801A81CFFF7D2FD2100C9B2DFF89C0A36
:102FF00004F03FF9012070BD10B50400DFF8B81AE5
:10300000DFF8B80A0069FFF719FD012827D1DFF8BA
:10301000B00A0178012905D1002101700020DFF8F4
:10302000701A8870DFF89C0A0188491C018042F2FE
:103030001071DFF8582A2300DBB21B011A44926892
:10304000B1FBF2F102888A420DD300210180DFF842
:10305000401A8878002806D00020887003E00120FC
:10306000DFF85C1A08702100C9B2DFF8200A04F00A
:1030700000F9012010BD38B50400FDF7A0F8DFF815
:103080003C5A287A012808D10521DFF8000A04F00B
:10309000E1F8DFF81C0A006828612100C9B2DFF8F6
:1030A000EC0904F0E6F8012032BD10B50400FDF78C
:1030B0006DF8DFF8080A002101700021017201207B
:1030C00010BD10B5040000224FF40051DFF80008D5
:1030D000FFF793FC012010BD10B5040001224FF44E
:1030E0000051DFF8EC07FFF788FCDFF8A0092100AA
:1030F00089B28166062104F0BCF810BD70B5DFF816
:103100002848DFF8C409216B097850F82100DFF85E
:103110002018C1F87004DFF8B40901786170DFF895
:10312000B019407851F820006060207A03F0DCFA92
:1031300000EE100ADFF89C59B8EE400AD5ED020AFD
:1031400020EE200ABDEEC00A84ED030A607A03F087
:10315000CBFA00EE100AB8EE400AD5ED040A20EED4
:10316000200ABDEEC00A84ED040A207A03F0BCFAFE
:1031700000EE100AB8EE400AD5ED050A20EE200A4E
:10318000BDEEC00A84ED050A207A03F0ADFA00EE28
:10319000100AB8EE400AD5ED060A20EE200ABDEE70
:1031A000C00A84ED060A607A03F09EFA00EE100A67
:1031B000B8EE400AD5ED080A20EE200ABDEEC00A9E
:1031C00084ED070A207A03F08FFA00EE100AB8EEB9
:1031D000400AD5ED090A20EE200ABDEEC00A84EDB2
:1031E000080A607A03F080FA00EE100AB8EE400A8E
:1031F000D5ED0A0A20EE200ABDEEC00A84ED090AC8
:10320000A07A03F071FA00EE100ADFF82067B8EE3A
:10321000400AD6ED020A20EE200ABDEEC00A84ED77
:103220000A0AA07A03F060FA00EE100AB8EE400A2B
:10323000D6ED010A20EE200ABDEEC00A84ED0B0A8D
:10324000E07A03F051FA00EE100ADFF88C68B8EE6D
:10325000400AD6ED000A20EE200ABDEEC00A84ED39
:103260000D0AE07A03F040FA00EE100AB8EE400AC8
:10327000D6ED010A20EE200ABDEEC00A84ED0E0A4A
:10328000E07A03F031FA00EE100AB8EE400AD6ED0B
:10329000020A20EE200ABDEEC00A84ED0F0AE07A91
:1032A00003F022FA00EE100AB8EE400AD6ED030A47
:1032B00020EE200ABDEEC00A84ED100A207A03F049
:1032C00013FA00EE100AB8EE400AD5ED010A20EE1E
:1032D000200ABDEEC00A84ED110A207A03F004FA38
:1032E00000EE100AB8EE400AD5ED0B0A20EE200AD7
:1032F000BDEEC00A84ED120A207A03F0F5F900EE63
:10330000100AB8EE400AD5ED0C0A20EE200ABDEEF8
:10331000C00A84ED130A207A03F0E6F900EE100AE1
:10332000DFF8B867B8EE400AD6ED000A20EE200AB2
:10333000BDEEC00A84ED140A207A03F0D5F900EE40
:10334000100AB8EE400AD6ED020A20EE200ABDEEC1
:10335000C00A84ED150A207A03F0C6F900EE100ABF
:10336000B8EE400AD5ED020A20EE200ABDEEC00AF2
:1033700084ED160A207A03F0B7F900EE100AB8EED1
:10338000400AD5ED0D0A20EE200ABDEEC00A84EDFC
:10339000170A207A03F0A8F900EE100AB8EE400AE6
:1033A000D5ED0E0A20EE200ABDEEC00A84ED180A03
:1033B000207A03F099F900EE100AB8EE400AD6ED33
:1033C000040A20EE200ABDEEC00A84ED190A207A14
:1033D00003F08AF900EE100AB8EE400AD6ED060AAC
:1033E00020EE200ABDEEC00A84ED1A0A207A03F00E
:1033F0007BF900EE100AB8EE400AD5ED030A20EE84
:10340000200ABDEEC00A84ED1B0A207A03F06CF995
:1034100000EE100AB8EE400AD5ED0F0A20EE200AA1
:10342000BDEEC00A84ED1C0A207A03F05DF900EEBF
:10343000100AB8EE400AD5ED100A20EE200ABDEEC3
:10344000C00A84ED1D0A207A03F04EF900EE100A3E
:10345000B8EE400AD6ED080A20EE200ABDEEC00AFA
:1034600084ED1E0A207A03F03FF900EE100AB8EE50
:10347000400AD6ED0A0A20EE200ABDEEC00A84ED0D
:103480001F0A70BD2DE9F84F8AB0060020210022E6
:1034900002AC200004F048F80024002500208DF83C
:1034A000050000208DF806001827DFF8848430001E
:1034B000C0B27843404490F815903000C0B27843D1
:1034C00040444068002842D001213000C0B200F0E2
:1034D000A9F900280ED13000C0B2784340444268B8
:1034E0003000C0B278434044017D4846C0B203F08A
:1034F00083FE1EE05FF0000A3000C0B27843404413
:10350000406803F0F7FA5146C9B2814207D2202041
:1035100002A95246D2B288541AF1010AECE702AA73
:103520003000C0B278434044017D4846C0B203F049
:1035300063FE3000C0B278434044406803F0DAFADA
:10354000DFF89C150979491C484310FA89F93000C5
:10355000C0B2784340448068002800F03A813000CF
:10356000C0B278434044007B00280BD002281ED014
:1035700012D3042830D024D3062845D036D30728C8
:103580003ED044E03000C0B27843404480680078C8
:10359000002104000D003AE03000C0B278434044FE
:1035A000806890F90000C11704000D002FE0300082
:1035B000C0B27843404480680088002104000D00B8
:1035C00025E03000C0B2784340448068B0F9000084
:1035D000C11704000D001AE03000C0B27843404427
:1035E00080680068002104000D0010E03000C0B2C7
:1035F0007843404480680068C11704000D0006E06D
:1036000001208DF8050002E002208DF805009DF8EC
:10361000050000280CD13000C0B278434044407B04
:1036200040420200D2B202A92000FFF71FFA26E0B2
:103630009DF8050001281AD13000C0B278434044FB
:10364000806803F057FA202819D23000C0B27843BE
:103650004044806803F04EFA020092B23000C0B2DB
:1036600078434044816802A8FFF790FA07E03000F1
:10367000C0B278434044806800788DF80800022189
:103680003000C0B200F0CEF8012823D13000C0B223
:1036900078434044807DC0B200098DF806009DF853
:1036A00006000F2805D0202002A99DF80620885486
:1036B00010E05FF0000A02A803F01CFA5146C9B2FC
:1036C000814207D2202002A95246D2B288541AF170
:1036D000010AF0E73000C0B201285ED15FF0000AB5
:1036E00000208DF804003000C0B278434044407B95
:1036F000002802D009208DF80400392000902E23E4
:1037000015220F21DFF8DC0303F042FF02A803F0CB
:10371000F1F98346DFF8C8030079401C00FB0BFB7E
:103720005846C0B2022190FBF1F01F280BDA584630
:10373000C0B2022190FBF1F0D0F140009DF80410DE
:1037400050FA81FA07E05846C0B2D0F15F009DF808
:10375000041050FA81FA02AA3000C0B27843404403
:10376000007D401CC0B2DFF878134979D1EBC0016D
:10377000491EC9B25046C0B204F0B4F85AFA8BF0F0
:103780009DF80490B0EB09098920009020230722BE
:103790000521C04803F016FC1BE08920009020237F
:1037A00007220521BB4803F00DFC02AA3000C0B27D
:1037B00078434044017D4846C0B203F01DFD02A895
:1037C00003F098F9C6490979491C484310FA89F071
:1037D00081463000C0B278434044006900281ED0C2
:1037E0003000C0B2784340448068002817D03000D1
:1037F000C0B2784340448068BB4988420FD0300053
:10380000C0B27843404402693000C0B207FB00F701
:1038100008EB0700017D4846C0B203F0EDFC0BB099
:10382000BDE8F08FF8B504000D0041492200D2B286
:103830001820424301EB0200817D2800C0B2014004
:103840002800C0B281422FD1F826A84F4FF49671BC
:103850002800C0B2704338442200D2B250F822008F
:10386000FFF7ECF801282AD12800C0B206FB00F6C9
:1038700007EB06002100C9B28D4A126840F82120EA
:103880003E209B492A00D2B242430A442300DBB2C5
:103890002E00F6B200FB06F008442100C9B2405CDD
:1038A000D0F10100D0540AE091492A00D2B23E2062
:1038B000424301EB02002100C9B2002242548C496C
:1038C000EDB23E20454301EB0500E4B2005DF2BDE0
:1038D0000008004870B50400002603F05BFD00F00E
:1038E00081F82000C0B200F087F82000C0B200F0DC
:1038F0009FF80025280080B23E2811DA0C492A00E2
:1039000092B21820424301EB0200C07D2100C9B2EF
:10391000884203D12800C0B2FFF7B4FD6D1CE9E76F
:1039200003F095FD70BD00007C000020542C0020A9
:1039300060010020F0B44271C47803792500EDB233
:10394000AB420AD3F0256B4E2700FFB218235F432A
:1039500006EB07039D75641CEFE71823654C85781B
:103960005D4325444679AE75002904D0857803FB74
:1039700005F323449960F0BC70470000C80700209D
:103980002DE9F84F0700884691469A460A9E0B9DFE
:10399000DDF830B00D9C87F8008087F8019087F83B
:1039A00002A0FE703D712200D2B259463800FFF7E6
:1039B000C1FFBDE8F18F10B4010000221000C0B2B9
:1039C00004280CD21000C0B2085C4B4B1400E4B2C7
:1039D0001B5D984201D0002002E0521CEEE701205E
:1039E00010BC704780B50120009008237F22082179
:1039F000002003F0FBFF01BD10B504002000C0B2A1
:103A0000002812D133480078002807D125A2394870
:103A100090F84410782003F0EFFB06E022A235482E
:103A200090F84410782003F0E7FB10BDFC00002064
:103A30000100C9B20C2924D130490978002906D0E7
:103A400002290ED008D3042915D00FD318E02C4931
:103A5000284AC2F8A81518E02A49264AC2F8A8152B
:103A600013E02949234AC2F8A8150EE02749214A44
:103A7000C2F8A81509E026491E4AC2F8A81504E0B4
:103A800003E01F491B4AC2F8A81570470C0000202C
:103A90001C2C002038090108C72C00207C140108C8
:103AA00000100108200000004E000000C82C00207B
:103AB000A82C0020842C002080EE3600D42B00207F
:103AC000C92C0020BA2C0020580100208C0E0020A8
:103AD00004090020A02A00202C2C0020E82A002025
:103AE0003C2C0020100701088E0E0020441B0020F3
:103AF0002C24002060010020040100207C00002014
:103B000008010020180100202801002038010020B1
:103B10004801002010B504000121DFF8700B03F00C
:103B2000A8FB012010BD30B587B00400142100228D
:103B300002AD280003F0F8FCDFF8940AD0E9002376
:103B4000CDE9002302A80090DFF8885A297868465A
:103B500000F01BFA28786870BDF80410009800F097
:103B60006EFDDFF82C0B8078002809D12878022818
:103B700003DA2878401C287001E00020287008E053
:103B80002878052803DA2878401C287001E00020F6
:103B90002870DFF8F85A0221280003F05BFB0321AC
:103BA000280003F066FB2100C9B2280003F061FB86
:103BB000012007B030BD10B50400DFF8D81A88889E
:103BC000002810D0DFF8D00A02888B889A4208D1EA
:103BD000002101800321DFF8B40A03F03BFB012040
:103BE00008E0898801802100C9B2DFF8A00A03F04B
:103BF00040FB012010BD2DE9F04104000025002606
:103C0000DFF8907AB88803283DDB3868B988084423
:103C100010F8010C3968BA88114411F8021C51EAF5
:103C200000210E00B988891E386803F079FF05006D
:103C30002800310080B289B288421DD10721DFF807
:103C40004C0A03F016FB3868007802280DD1DFF823
:103C50008489012198F8010000F0B0F998F801205A
:103C6000D7E9000100F09AF913E00021DFF86409B8
:103C7000407800F0A3F90CE00021DFF85809407803
:103C800000F09CF905E00021DFF84809407800F0D9
:103C900095F9DFF84009407800F0EEF80221DFF8EE
:103CA000EC0903F0F8FA0120BDE8F0810100DFF82B
:103CB0009C0C0278032A01D0042202700120704774
:103CC00001000120704710B50400DFF8140B0178E3
:103CD000012936D1DFF80C1BC978012931D1DFF871
:103CE000081B91ED060AD0ED020AB4EE600AF1EE6F
:103CF00010FA08DA91ED060AD0ED010AB4EE600A76
:103D0000F1EE10FA0ED501224FF400615FF0904001
:103D1000FEF773FE01224FF480515FF09040FEF7F2
:103D20006CFE1CE000224FF400615FF09040FEF753
:103D300064FE00224FF480515FF09040FEF75DFE7C
:103D40000DE000224FF400615FF09040FEF755FE59
:103D500000224FF480515FF09040FEF74EFEDFF8F6
:103D60002C094FF47A7181662100C9B203F081FAFF
:103D7000012010BD38B50400DFF82C1B087800289E
:103D80001FD101200870DFF8245B012210212800D8
:103D9000FEF733FE002208212800FEF72EFE002247
:103DA0000421DFF80C0BFEF728FE4FF4FA60DFF871
:103DB000DC18886704F096F804F03FFA04F02EFA55
:103DC00012E00020087001220821DFF8E00AFEF767
:103DD00014FE01220421DFF8D80AFEF70EFE4EF68B
:103DE0006020DFF8A81888672100C9B2DFF89C08B6
:103DF00003F03FFA012032BD10B50400DFF8E819E6
:103E00000878002803D1002081F844001AE0DFF888
:103E100080088278052A0ED082780C2A02D1027A94
:103E2000052A08D08278062A05D082780C2A06D185
:103E3000007A062803D1032081F8440002E0022022
:103E400081F84400DFF89C09C078012806D10120E0
:103E500081F84500012081F8460005E0002081F846
:103E60004500002081F846002100C9B2DFF81C0897
:103E700003F0FFF9012010BD38B52DED028B0400D1
:103E80009FED9B8A2000C0B200285CD1DFF8585912
:103E900095ED010ADFED970A20EE200ABDEEC00A7B
:103EA00010EE100A00F062FA85ED010A95ED010AA4
:103EB00000F0CAFA85ED050A95ED040A00F024FB2E
:103EC00085ED080AA868A86195ED080AD5ED0A0AEB
:103ED00030EE200ADFF84C0BD0ED020AF4EE400A77
:103EE000F1EE10FA02D5D0ED020A0BE0D0ED030A94
:103EF000B4EE600AF1EE10FA02D5D0ED030A01E04B
:103F0000F0EE400AC5ED080AD5ED050A95ED091A4F
:103F100030EE818AD0ED000AF4EE480AF1EE10FA94
:103F200002D590ED000A0BE090ED010AB4EE408A54
:103F3000F1EE10FA02D590ED010A01E0B0EE480A68
:103F400085ED050AFFE7DFF8A0582878002807D19B
:103F50000020686095ED010A00F076FA85ED050A0B
:103F60002878002803D10020A8610020A8612878C3
:103F7000002807D10020286195ED040A00F0C4FA5A
:103F800085ED080ABDEC028B31BD38B504000D008B
:103F90002900C9B2200000F01BF831BD70B5040043
:103FA0000D00160020000078C0B2022805D13200B2
:103FB000D2B22000290000F09FF870BD38B504008F
:103FC0000D002900C9B22000C0B200F03EF931BD99
:103FD0003EB504000D002800C0B200280CD0022815
:103FE0001ED013D304282FD024D3062840D035D395
:103FF000082867D051D37AE0062000904FF4205370
:1040000003220221200003F0A9FD70E004200090AB
:104010004FF4185303220221200003F09FFD66E0B5
:10402000022000904FF4105303220221200003F0DD
:1040300095FD5CE0042000904FF4585303220221C8
:10404000200003F08BFD52E0042000904FF48853D1
:1040500003220221200003F081FD48E004200090AB
:104060004FF4545303220221200003F077FD3EE079
:10407000DFF8DC0C818808290ED101680191808865
:10408000022190FBF1F080B200904FF458531022BF
:104090000221200003F0B0FD29E0DFF8B40C818894
:1040A00008290ED1016801918088022190FBF1F06E
:1040B00080B200904FF4885310220221200003F0B8
:1040C0009BFD14E0DFF8880C818808290ED1016877
:1040D00001918088022190FBF1F080B200904FF4B2
:1040E000545310220221200003F086FDFFE737BD64
:1040F000000000000000C8422DE9F84304000D0054
:1041000016000020ADF8000000273000C0B20028E3
:104110000FD0022831D01BD3042859D03CD3062815
:1041200000F08E8070D3082800F08A80C0F088806C
:1041300089E00320ADF8000004226946200000F069
:104140004BFA0700DFF8E41A380002F0E9FB7AE0E6
:104150000320ADF8000004226946200000F03CFA7C
:10416000804604226946200000F036FA0700DFF896
:10417000C01A380002F0D4FB65E00320ADF800005F
:1041800004226946200000F027FA0700DFF8A41A8D
:10419000380002F0C5FB56E00320ADF80000042211
:1041A0006946200000F018FA8046DFF83C9619F1C5
:1041B0002C01404602F0B4FB04226946200000F0C6
:1041C0000BFA070019F13001380002F0A9FB3AE0C0
:1041D0000320ADF8000004226946200000F0FCF93D
:1041E0008046DFF8049619F13401404602F098FB4E
:1041F00004226946200000F0EFF9070019F13801A8
:10420000380002F08DFB1EE00320ADF80000042210
:104210006946200000F0E0F98046DFF8CC9519F1FE
:104220003C01404602F07CFB04226946200000F07D
:10423000D3F9070019F14001380002F071FB02E0E8
:1042400000F063F9FFE7BDE8F1830200D2B2002A73
:10425000082A1BD80A00D2B2012A0ED1DFF888251D
:1042600000235370012313700200D2B2002A0CD134
:104270000122DFF87035DA7007E0DFF86C2553783B
:10428000032B02DA53785B1C5370FFE7DFF85835D5
:104290005A78002A1CD05A78032A19DB00221A7097
:1042A00000225A6000229A600022DA6000221A611D
:1042B0000022DA6200221A6300225A6300229A6303
:1042C0000022DA6300221A640022DFF81835DA705F
:1042D00070472DE9F04100242500EDB20A2D43DAA4
:1042E00000252E00F6B2092E3CDA2E00F6B201EBC4
:1042F000860676682F00FFB251F82770BE422FDA8B
:1043000000262F00FFB251F82770AC465FFA8CFCF4
:1043100001EB8C0CDCF804C0AE465FFA8EFE41F86F
:104320002EC0AC465FFA8CFC01EB8C0CCCF8047010
:10433000AC465FFA8CFC50F82CC0AE465FFA8EFE9D
:1043400000EB8E0EDEF804E0A8465FFA88F840F82D
:1043500028E0AE465FFA8EFE00EB8E0ECEF804C06B
:104360006D1CBEE7641CB7E7BDE8F08138B52DEDE4
:10437000028B04009FED738ADFF8D81908780028B3
:104380002AD10120087000210800C0B20A2815DADD
:104390000800C0B2DFF8C0290B00DBB242F82300EE
:1043A000DFF8B8290800C0B252F82000002803D175
:1043B0000800C0B242F82040491CE5E7DFF89C59EC
:1043C000092300222900DFF89009FFF782FF95ED0D
:1043D000050AB8EEC00A30E000200100C9B20A297F
:1043E0001EDADFF874190200D2B251F82220092A2D
:1043F0000BD100220300DBB241F82320DFF85C1967
:104400000200D2B241F8224008E00200D2B251F8D4
:104410002220521C0300DBB241F82320401CDCE7C1
:10442000DFF83859092300222900DFF82C09FFF7AB
:1044300050FF95ED050AB8EEC00ADFED910A80EE57
:10444000200ABDEC028B31BDF0EE400A9FED5E1AF2
:104450009FED5E3ADFED3B3AF5EE400AF1EE10FAE1
:1044600040D0F0EE603A9FED870ADFF8100D90ED36
:10447000004A34EE634AB4EE404AF1EE10FA08DA2C
:1044800090ED004A33EEC44AB4EE404AF1EE10FA21
:1044900003DB9FED7D0A21EE001ADFF8C40890EDE2
:1044A000000AF0EE401ADFF8BC1891ED000A30EE79
:1044B000010AB0EE402A32EE030A82EE000AF0EE64
:1044C000402A33EEE10AB0EE614A00EE224A80ED66
:1044D000004AB7EE000A30EE620A20EE020A81EDD1
:1044E000000A08E0DFF87C085FF07E510160DFF829
:1044F000700800210160DFF86808DFF8801C02689E
:104500000A6090ED000A7047704780B50320DFF81D
:104510003C14087004215D4802F0BDFE3220FEF715
:10452000DBFD01BD80B5DFF840080078294908703F
:104530000220DFF8181408700421544802F099FE94
:1045400001BD000000000000F8B52DED028B040055
:10455000F0EE408AB0EE608A0025DFF8F4673000A4
:10456000FEF7B4FAB0EE680A02F0B2FA070030685B
:1045700007703800000A316848703800000C316854
:1045800088703800000E3168C870B0EE480A02F03A
:104590009FFA316808710100090A326851710100FF
:1045A000090C326891710100090E3268D17108213D
:1045B000B180DFF8B4170C700121DFF8B02711705B
:1045C000BDEC028BF1BD000095BFD63317B7D138D3
:1045D00034170108C22C0020F0B4030000200C881E
:1045E0001500EDB2042D16D12500ADB21D44EE78B4
:1045F0002500ADB21D44AD7855EA06252600B6B2B9
:104600001E4476782700BFB2DF5D57EA062757EAD7
:10461000054738000DE01500EDB2022D09D1250047
:10462000ADB25D5D2600B6B21E44767856EA052628
:1046300030000D8855FA82F50D80F0BC704770B5DA
:1046400004000D00DFF8386B01224FF48051300078
:10465000FEF7D3F90A2003F013FE03F0D7FD4FF461
:104660007A732A0092B22100DFF86C0E03F059FE33
:1046700000224FF480513000FEF7BFF970BD0000FA
:104680000000C842CDCC4C3E00007A44780900209E
:104690001C2C00203C0E0020C02C0020F4EE601AE0
:1046A000F1EE10FA05D15FF07E52026000220A603E
:1046B0000FE031EE402A71EEE02A82EE222A80EDF0
:1046C000002A90ED002AF0EE402A42EE602AC1ED69
:1046D000002A704738B52DED088BB0EE408AF0EE19
:1046E000608AB0EE419AF0EE619A04000D009FEDF1
:1046F000CCAADFEDCBAA9FEDCABADFEDC9BAB5EE01
:10470000408AF1EE10FA62D0F5EE408AF1EE10FA2E
:104710005DD0B5EE409AF1EE10FA58D0F5EE409A21
:10472000F1EE10FA53D018EE100A02F0A9FB41EC9A
:10473000100B02F030FA51EC100B02F05FFB0AEEA6
:10474000100A19EE100A02F09BFB41EC100B02F06C
:1047500022FA51EC100B02F051FB0AEE900A18EE0F
:10476000900A02F08DFB41EC100B02F014FA51ECB0
:10477000100B02F043FB0BEE100A19EE900A02F048
:104780007FFB41EC100B02F006FA51EC100B02F02B
:1047900035FB0BEE900AF4EE4BBAF1EE10FA05D1B0
:1047A0005FF07E5020600020286015E03AEECA0AD3
:1047B0007BEECB0A80EE200A84ED000A94ED000A1D
:1047C000F0EE4A0A40EE4B0AC5ED000A04E05FF045
:1047D0007E50206000202860BDEC088B31BD0000B9
:1047E000542C0020942C0020A02A00202DE9F04118
:1047F0002DED028B8EB0F0EE408AB0EE608A322151
:1048000000226C46200002F08FFE002700240025C5
:10481000DFF87089C8ED098A88ED0A8A98ED090ADF
:1048200002F056F9060098ED0A0A02F051F98046A6
:1048300068463100090E3A00D2B281547F1C310023
:10484000090C3A00D2B281547F1C3100090A3A00A7
:10485000D2B281547F1C3900C9B246547F1C4146F4
:10486000090E3A00D2B281547F1C4146090C3A002D
:10487000D2B281547F1C4146090A3A00D2B2815417
:104880007F1C3900C9B200F801807F1C3A00D2B207
:1048900092B26946DFF8F00804F060FD0EB0BDEC9E
:1048A000028BBDE8F0810000CF2C002000040048FE
:1048B000000C004870B500240025DFF8CC08007813
:1048C000C0B2FF283AD0DFF8C4080178C9B209069F
:1048D000DFF8BC080078C0B251EA0041DFF8980B5D
:1048E0000078C0B251EA0021DFF8900B0078C0B226
:1048F00001430C00DFF8880B0178C9B20906DFF824
:10490000840B0078C0B251EA0041DFF87C0B0078DC
:10491000C0B251EA0021DFF8C40B0078C0B20143F5
:104920000D00DFF8606816F12401200001F0F8FFA7
:1049300016F12801280001F0F3FF05E0DFF8440834
:10494000002141620021816270BD00007C000020D6
:104950002DE9F0472DED028B8EB00400F0EE408A79
:10496000B0EE608A322100226D46280002F0DCFDA4
:10497000002500260027DFF868AB8AF800408AEDA2
:10498000028ACAED018A9AED020A02F0A1F8804675
:104990009AED010A02F09CF8814668469AF80010E8
:1049A0002A00D2B281546D1C4146090E2A00D2B2AF
:1049B00081546D1C4146090C2A00D2B281546D1CF1
:1049C0004146090A2A00D2B281546D1C2900C9B29D
:1049D00000F801806D1C4946090E2A00D2B28154AC
:1049E0006D1C4946090C2A00D2B281546D1C4946FF
:1049F000090A2A00D2B281546D1C2900C9B200F8FC
:104A000001906D1C2A00D2B292B26946DFF8900B79
:104A100004F0A4FC0EB0BDEC028BBDE8F0870000F2
:104A2000000000002C2C002070B500240025DFF8C9
:104A3000700B0078C0B2FF283DD0DFF8A46ADFF821
:104A4000640B00783070DFF8600B0178C9B209069A
:104A5000DFF8580B0078C0B251EA0041DFF8500B84
:104A60000078C0B251EA0021DFF8480B0078C0B2EC
:104A700001430C00DFF8400B0178C9B20906DFF8EA
:104A80003C0B0078C0B251EA0041DFF8340B0078EB
:104A9000C0B251EA0021DFF82C0B0078C0B201430C
:104AA0000D0016F10801200001F03AFF311D280029
:104AB00001F036FF08E0DFF8280A00210170DFF876
:104AC000B01C81600021416070BD2DE9F84F2DEDD3
:104AD000048B8EB0F0EE409AB0EE608AF0EE418A20
:104AE000B0EE619A3221002201AC200002F01CFDE0
:104AF0005FF0000B00200090002400250026DFF866
:104B00006CABCAED009A8AED018ACAED028A8AED81
:104B1000039A9AED000A01F0DBFF07009AED010A03
:104B200001F0D6FF80469AED020A01F0D1FF8146DE
:104B30009AED030A01F0CCFF824601A83900090E64
:104B40005A46D2B281541BF1010B3900090C5A4666
:104B5000D2B281541BF1010B3900090A5A46D2B274
:104B600081541BF1010B5946C9B247541BF1010B8B
:104B70004146090E5A46D2B281541BF1010B4146FF
:104B8000090C5A46D2B281541BF1010B4146090A65
:104B90005A46D2B281541BF1010B5946C9B200F8F2
:104BA00001801BF1010B4946090E5A46D2B28154CD
:104BB0001BF1010B4946090C5A46D2B281541BF134
:104BC000010B4946090A5A46D2B281541BF1010B26
:104BD0005946C9B200F801901BF1010B5146090E6C
:104BE0005A46D2B281541BF1010B5146090C5A4668
:104BF000D2B281541BF1010B5146090A5A46D2B276
:104C000081541BF1010B5946C9B200F801A01BF1F8
:104C1000010B5A46D2B292B201A9DFF85C0B04F044
:104C20009DFB0EB0BDEC048BBDE8F18FA42A0020E3
:104C3000A82A0020B02A00202DE9F04100240025F8
:104C400000260027DFF8300B0078C0B2FF2871D0B3
:104C5000DFF8280B0178C9B20906DFF8240B0078C9
:104C6000C0B251EA0041DFF81C0B0078C0B251EA33
:104C70000021DFF8140B0078C0B201430C00DFF80C
:104C80000C0B0178C9B20906DFF8040B0078C0B23A
:104C900051EA0041DFF8FC0A0078C0B251EA002175
:104CA000DFF8F40A0078C0B201430D00DFF8EC0A27
:104CB0000178C9B20906DFF8E80A0078C0B251EA03
:104CC0000041DFF8E00A0078C0B251EA0021DFF8C5
:104CD000D80A0078C0B201430E00DFF8D00A01788C
:104CE000C9B20906DFF8C80A0078C0B251EA00412B
:104CF000DFF8C00A0078C0B251EA0021DFF8B80A34
:104D00000078C0B201430F00DFF8608941462000FF
:104D100001F006FE18F10401280001F001FE18F16F
:104D20000801300001F0FCFD18F10C01380001F021
:104D3000F7FD0BE0DFF83409DFF8341A01600021D9
:104D40004160DFF8041D81600021C160BDE8F08191
:104D5000080A0020D02C0020442B00206C2B0020BF
:104D6000982C0020100A0020CE2C00207C0000206F
:104D70002DE9F14F2DED028BBEB0B0EE408AC82177
:104D800000220CAC200002F0CFFB5FF0000B0020F3
:104D90000490002003900020029000200190002049
:104DA000009000200B9000200A9000200990002025
:104DB00008900020079000200690002005909DF8A4
:104DC0000001002811D0022819D013D3042820D0C4
:104DD0001AD3062827D021D308282ED028D30A2872
:104DE00035D02FD30B2837D03BE0DFF8D00980ED4A
:104DF000008A36E0DFF8C40980ED018A31E0DFF88F
:104E0000BC0980ED028A2CE0DFF8B00980ED038A4E
:104E100027E0DFF8A80980ED048A22E0DFF89C098A
:104E200080ED058A1DE0DFF8940980ED068A18E020
:104E3000DFF8880980ED078A13E0DFF8800980ED4C
:104E4000088A0EE0DFF8740980ED098A09E0DFF8CE
:104E50006C0980ED0A8A04E0DFF8600980ED0B8AB6
:104E6000FFE7DFF858A99AED000A01F031FE04903F
:104E70009AED010A01F02CFE03909AED020A01F06E
:104E800027FE02909AED030A01F022FE01909AEDAE
:104E9000040A01F01DFE00909AED050A01F018FECB
:104EA00004009AED060A01F013FE05009AED070AC8
:104EB00001F00EFE06009AED080A01F009FE070057
:104EC0009AED090A01F004FE80469AED0A0A01F003
:104ED000FFFD81469AED0B0A01F0FAFD82460CA80F
:104EE0000499090E5A46D2B281541BF1010B049960
:104EF000090C5A46D2B281541BF1010B0499090ADC
:104F00005A46D2B281541BF1010B04995A46D2B2CF
:104F100081541BF1010B0399090E5A46D2B28154F8
:104F20001BF1010B0399090C5A46D2B281541BF1B3
:104F3000010B0399090A5A46D2B281541BF1010BA5
:104F400003995A46D2B281541BF1010B0299090E02
:104F50005A46D2B281541BF1010B0299090C5A46F0
:104F6000D2B281541BF1010B0299090A5A46D2B2FE
:104F700081541BF1010B02995A46D2B281541BF1A4
:104F8000010B0199090E5A46D2B281541BF1010B53
:104F90000199090C5A46D2B281541BF1010B0199B7
:104FA000090A5A46D2B281541BF1010B01995A46A3
:104FB000D2B281541BF1010B0099090E5A46D2B2AC
:104FC00081541BF1010B0099090C5A46D2B281544D
:104FD0001BF1010B0099090A5A46D2B281541BF108
:104FE000010B00995A46D2B281541BF1010B2100EA
:104FF000090E5A46D2B281541BF1010B2100090C53
:105000005A46D2B281541BF1010B2100090A5A46BB
:10501000D2B281541BF1010B5946C9B244541BF161
:10502000010B2900090E5A46D2B281541BF1010B23
:105030002900090C5A46D2B281541BF1010B2900F8
:10504000090A5A46D2B281541BF1010B5946C9B222
:1050500045541BF1010B3100090E5A46D2B281545E
:105060001BF1010B3100090C5A46D2B281541BF1DD
:10507000010B3100090A5A46D2B281541BF1010BCF
:105080005946C9B246541BF1010B3900090E5A4664
:10509000D2B281541BF1010B3900090C5A46D2B22D
:1050A00081541BF1010B3900090A5A46D2B28154CE
:1050B0001BF1010B5946C9B247541BF1010B414684
:1050C000090E5A46D2B281541BF1010B4146090C1C
:1050D0005A46D2B281541BF1010B4146090A5A4685
:1050E000D2B281541BF1010B5946C9B200F80180BC
:1050F0001BF1010B4946090E5A46D2B281541BF1ED
:10510000010B4946090C5A46D2B281541BF1010BDE
:105110004946090A5A46D2B281541BF1010B59463D
:10512000C9B200F801901BF1010B5146090E5A4615
:10513000D2B281541BF1010B5146090C5A46D2B22E
:1051400081541BF1010B5146090A5A46D2B28154CF
:105150001BF1010B5946C9B200F801A01BF1010B6C
:105160005A46D2B292B20CA9DFF8640904F0F6F8FC
:105170003EB0BDEC028BBDE8F18F00009C2C0020FE
:1051800000080048A02A00200008020802080208BF
:10519000030802082DE9F04F85B00020049000209C
:1051A0000390002002900020019000200090002435
:1051B0000025002600275FF000085FF000095FF07F
:1051C000000ADFF80C090078C0B2FF2800F0518116
:1051D000DFF800090178C9B20906DFF8FC08007899
:1051E000C0B251EA0041DFF8F4080078C0B251EAD9
:1051F0000021DFF8EC080078C0B201430491DFF829
:10520000E4080178C9B20906DFF8DC080078C0B20A
:1052100051EA0041DFF8D4080078C0B251EA002119
:10522000DFF8CC080078C0B201430391DFF8C4086E
:105230000178C9B20906DFF8C0080078C0B251EAA7
:105240000041DFF8B8080078C0B251EA0021DFF869
:10525000B0080078C0B201430291DFF8A8080178D5
:10526000C9B20906DFF8A0080078C0B251EA0041CF
:10527000DFF898080078C0B251EA0021DFF8900802
:105280000078C0B201430191DFF830B55946049867
:1052900001F046FB1BF10401039801F041FB1BF1F7
:1052A0000801029801F03CFB1BF10C01019801F090
:1052B00037FBDFF860080178C9B20906DFF8580843
:1052C0000078C0B251EA0041DFF850080078C0B25F
:1052D00051EA0021DFF848080078C0B2014300918C
:1052E000DFF840080178C9B20906DFF83C08007809
:1052F000C0B251EA0041DFF834080078C0B251EA88
:105300000021DFF82C080078C0B201430C00DFF860
:1053100024080178C9B20906DFF81C080078C0B279
:1053200051EA0041DFF814080078C0B251EA0021C8
:10533000DFF80C080078C0B201430D00DFF8040864
:105340000178C9B20906DFF800080078C0B251EA56
:105350000041DFF8F8070078C0B251EA0021DFF819
:10536000F0070078C0B201430E001BF11001009855
:1053700001F0D6FA1BF11401200001F0D1FA1BF163
:105380001801280001F0CCFA1BF11C01300001F0DB
:10539000C7FADFF8C0070178C9B20906DFF8B80715
:1053A0000078C0B251EA0041DFF8B0070078C0B21F
:1053B00051EA0021DFF8A8070078C0B201430F00CE
:1053C000DFF8A0070178C9B20906DFF89C0700786A
:1053D000C0B251EA0041DFF894070078C0B251EA48
:1053E0000021DFF88C070078C0B201438846DFF85F
:1053F00084070178C9B20906DFF87C070078C0B2DB
:1054000051EA0041DFF874070078C0B251EA002188
:10541000DFF86C070078C0B201438946DFF8640703
:105420000178C9B20906DFF860070078C0B251EA16
:105430000041DFF858070078C0B251EA0021DFF8D8
:1054400050070078C0B201438A461BF120013800A2
:1054500001F066FA1BF12401404601F061FA1BF1EC
:105460002801484601F05CFA1BF12C01504601F07E
:1054700057FA05B0BDE8F08F0408020805080208D5
:1054800006080208070802080808020878B591B063
:1054900004000D003C21002202AE300002F044F86E
:1054A0000020ADF804000321072000F00CFF0B20C2
:1054B00000900023DFF8DC2601A902A801F01AFA07
:1054C0004FF47A73BDF8042002A9DFF8CC0602F08D
:1054D00028FF12B070BD0000F8250020090802085E
:1054E000542C002078B591B004000D003C2100221E
:1054F00002AE300002F018F80020ADF80400DFF82A
:105500009C0603F0FBFE264803F0F8FEDFF8900649
:105510000021017096498160002141600D200090BA
:105520000023DFF8802601A902A801F0E3F94FF477
:105530007A73BDF8042002A9DFF85C0602F0F1FEE0
:1055400012B070BD38B590B004000D0003A8DFF8AC
:105550005816322203F046FFDFF85006D0E9002348
:10556000CDE9012303A801900023DFF84406027867
:1055700002A903A801F049F90220009000237BA2B0
:1055800002A903A801F0B6F94FF47A73BDF8082018
:105590000199DFF8040602F0C4FE11B030BD00002E
:1055A000001002080210020803100208041002088A
:1055B0000510020806100208071002080810020869
:1055C000091002080A100208F8B504000D000026B0
:1055D0002068007830283EDB206800783A283ADAE4
:1055E000002700200100C9B2A28889B291420FD2DF
:1055F00021680200D2B2895C302905DB21680200F3
:10560000D2B2895C3A2900DB02E07F1C401CE9E74A
:105610003900C9B2206801F025FA0600B6F5807F8E
:105620000FD2DFF88C0541783000C0B200F04BFE9D
:105630004FF47A7302224FA1DFF85C0502F071FE8D
:1056400012E04FF47A730522DFF86815DFF8480599
:1056500002F067FE08E04FF47A730522DFF8541574
:10566000DFF8340502F05DFEF1BD00002C2C0020B7
:1056700038B590B004000D0003A8DFF83C153222C5
:1056800003F0B0FEDFF83405D0E90023CDE90123B3
:1056900003A801900023DFF81805427802A903A8A7
:1056A00001F0B3F802200090002330A202A903A861
:1056B00001F020F94FF47A73BDF808200199DFF862
:1056C000D80402F02EFE11B030BDF8B504000D0074
:1056D00000262068007830283DDB206800783A28D2
:1056E00039DA002700200100C9B2A28889B29142AC
:1056F0000FD221680200D2B2895C302905DB216813
:105700000200D2B2895C3A2900DB02E07F1C401C17
:10571000E9E73900C9B2206801F0A4F906000C2EAF
:105720000FD23100C9B2DFF88804007800F0CBFD59
:105730004FF47A7302220FA1DFF85C0402F0F1FD4E
:1057400012E04FF47A730522DFF86814DFF848049A
:1057500002F0E7FD08E04FF47A730522DFF85414F5
:10576000DFF8340402F0DDFDF1BD00000D0A000099
:10577000000048434F4B00000020020802200208AE
:10578000032002080420020805200208062002085F
:105790000720020808200208092002080A2002083F
:1057A0000B2002080C2002080D2002080E2002081F
:1057B0000F2002081020020811200208E82A002009
:1057C00070B52DED028BCEB004000D0002A8DFF8FD
:1057D000F0134FF4967203F015FE0A20ADF80400A2
:1057E0000A2000900023DFF8DC2301A902A801F0C1
:1057F00081F89FED948ADFF8D063FE2396ED000ACE
:1058000020EE080ABDEEC00A10EE102A01A902A877
:1058100000F0FBFF0B2000900023DFF8B02301A96C
:1058200002A801F067F8FE2396ED010A20EE080AAF
:10583000BDEEC00A10EE102A01A902A800F0E5FF93
:105840000B2000900023E24A01A902A801F052F8BF
:10585000FE2396ED020A20EE080ABDEEC00A10EE05
:10586000102A01A902A800F0D0FF0B20009000230D
:10587000D84A01A902A801F03DF8FE2396ED030ADB
:1058800020EE080ABDEEC00A10EE102A01A902A8F7
:1058900000F0BBFF0A2000900023CF4A01A902A814
:1058A00001F028F8FE2396ED040A20EE080ABDEE6A
:1058B000C00A10EE102A01A902A800F0A6FF0A20D3
:1058C00000900023C54A01A902A801F013F8FE23A5
:1058D00096ED050A20EE080ABDEEC00A10EE102A69
:1058E00001A902A800F091FF0A2000900023BC4A01
:1058F00001A902A800F0FEFFFE2396ED060A20EEA5
:10590000080ABDEEC00A10EE102A01A902A800F094
:105910007CFF0A2000900023B24A01A902A800F0EF
:10592000E9FFFE2396ED070A20EE080ABDEEC00A45
:1059300010EE102A01A902A800F067FF09200090CC
:105940000023A94A01A902A800F0D4FFFE2396ED86
:10595000080A20EE080ABDEEC00A10EE102A01A9BE
:1059600002A800F052FF0920009000239F4A01A9DD
:1059700002A800F0BFFFFE2396ED090A20EE080AF8
:10598000BDEEC00A10EE102A01A902A800F03DFFEA
:10599000092000900023964A01A902A800F0AAFF5E
:1059A000FE2396ED0A0A20EE080ABDEEC00A10EEAC
:1059B000102A01A902A800F028FF09200090002366
:1059C0008C4A01A902A800F095FFFE2396ED0B0A70
:1059D00020EE080ABDEEC00A10EE102A01A902A8A6
:1059E00000F013FF4FF47A73BDF8042002A96A484F
:1059F00002F097FC4EB0BDEC028B70BD80B5FEF797
:105A000059FFFFF711F8FFF717F9FFF7C3FB7A48C3
:105A10007A49C0F8A4137A49C0F8B4137949C0F898
:105A2000C4137949C0F8D4137849C0F8E41378490D
:105A3000C0F8F4137749C0F8041402F0FEFB02F03A
:105A4000EDFB01BD0000C8420000A04270B500207F
:105A5000002400252800C0B2092836DA6E4E28003E
:105A6000C0B200013044407801282CD1012004004C
:105A70002800C0B200013044406800280ED001F078
:105A80009BFA2900C9B2090131444968401A29002A
:105A9000C9B2090131448968884214D30020290021
:105AA000C9B209013144487001F086FA2900C9B22F
:105AB0000901314448602800C0B22900C9B2090177
:105AC0003144C96888476D1CC4E72000C0B270BD6E
:105AD00000280208022802080328020804280208F5
