:020000040800F2
:100000004030002059080108B5010108B701010876
:10001000B9010108BB010108BD0101080000000091
:10002000000000000000000000000000BF01010807
:10003000C101010800000000C3010108C501010859
:10004000410C0108450C0108490C01084D0C010840
:10005000510C0108550C0108590C01085D0C0108F0
:10006000610C0108650C0108690C01086D0C0108A0
:10007000710C010815020108750C01081F02010826
:10008000790C01087D0C0108810C0108850C010820
:10009000890C01088D0C0108910C0108950C0108D0
:1000A000990C01089D0C0108A10C0108A50C010880
:1000B000A90C01080000000000000000AD0C0108C0
:1000C000B10C0108B50C0108B90C0108BD0C010800
:1000D000C10C010829020108C50C010833020108FE
:1000E000C90C01083D0201080000000000000000EA
:1000F0000000000000000000000000000000000000
:1001000000000000CD0C010800000000D10C010827
:100110000000000000000000D50C0108D90C010807
:10012000DD0C0108E10C0108E50C0108E90C0108EF
:10013000ED0C0108000000000000000000000000BD
:10014000F10C0108F50C0108F90C0108FD0C01087F
:10015000010D01084702010851020108050D0108BF
:10016000090D01080D0D0108110D01080000000026
:10017000150D0108190D01081D0D010800000000F2
:10018000210D0108250D0108290D010880B55148F0
:100190000078012806D0022807D0042808D00828B3
:1001A00009D00BE000F0A2F808E001F085F905E0C5
:1001B00001F0BAFB02E001F003FEFFE701BD2DE90B
:1001C000F0470024444D2888002804D02888401E89
:1001D000288000207CE03F4E307A002877D1202113
:1001E0003E4802F067FC002801D1012700E000270B
:1001F000DFF8EC800421404602F05CFC002802D1CC
:100200005FF0010901E05FF000090221404602F0C1
:1002100051FC002802D15FF0010A01E05FF0000A02
:100220000121404602F046FC002801D1012000E0F7
:10023000002057EA490757EA8A073C0054EAC004FD
:100240002000C0B2012805D0022803D0042801D024
:10025000082834D17068401C7060706850282DD315
:100260003470012030721F490868142801D2192007
:1002700028801D4822000378D2B29A4219D10A6818
:10028000521C0A600A681E2A02D20021716014E022
:100290000A68B42A02D2412171600EE00A68F02A8D
:1002A00002D24621716008E04E227260F0220A609C
:1002B00003E00022726000220A60047007E0002060
:1002C00009490870282070600020064908603078CD
:1002D000BDE8F087482B00201C2C002000080048B7
:1002E00000040048D42B00202C2C0020F8B584B04A
:1002F000DFF87848A078002820D0012843D00228D1
:1003000073D0032800F00481042800F088810528B8
:1003100000F0D181062800F09782072800F05D8365
:10032000082800F02784092800F0AC840A2800F08F
:1003300076850C2800F07A8601F0B9B8DFF8785D90
:100340000020E860DFF828680A220021300002F06F
:1003500037FC30203070302070703020B07030208A
:10036000F070E8680001801CC0B20390029605207E
:10037000019004200090052300220121A01C03F01D
:1003800056FB01F094B8DFF8300DC168491CC1601C
:10039000C16804291EDBDFF8D80703F063FB0128DE
:1003A00015D1A51C0622290014F1080002F056FC04
:1003B000F1200390002002900C2001900720009073
:1003C000072300220221280003F031FB0BE000206C
:1003D000A07008E0C0680001801C0200D2B20021B9
:1003E000A01C03F001FB01F062B8207907280AD0B5
:1003F000C0F08C80092832D01BD30B285BD044D3AB
:100400000C286ED082E0A51C0622290014F10800F9
:1004100002F024FCF1200390002002900F200190B4
:100420000E2000900E2300220321280003F0FFFA83
:100430006CE0A51C0622290014F1080002F00EFC55
:10044000F1200390002002901320019011200090D1
:10045000112300220421280003F0E9FA56E0A51C2C
:100460000622290014F1080002F0F8FBF1200390A5
:10047000002002902E2001902D2000902D2300229C
:100480000821280003F0D3FA40E0A51C0622290029
:1004900014F1080002F0E2FBF1200390002002902A
:1004A00032200190302000903023002209212800C2
:1004B00003F0BDFA2AE0A51C0622290014F1080069
:1004C00002F0CCFBF1200390002002903720019035
:1004D00034200090342300220A21280003F0A7FAD8
:1004E00014E0A51C0622290014F1080002F0B6FB56
:1004F00000200390002002903A2001903A200090C2
:100500003A2300220B21280003F091FA00F0CFBF1C
:1005100020790E2802D00F2840D07EE0E078002815
:1005200002D001281FD038E0A61C0622310014F1A9
:10053000080002F093FBDFF8805BF220039015F1D6
:100540000C0002900F2001900E2000900E23E27804
:10055000521CD2B20321300003F069FADFF8500DCB
:100560004078E86019E0A51C0622290014F1080073
:1005700002F074FBF0200390002002903D200190D7
:100580003D2000903D2300220C21280003F04FFA6B
:100590000120DFF81C1D0870FFE73EE0E07800282E
:1005A00002D001281FD038E0A61C0622310014F129
:1005B000080002F053FBDFF8005BF220039015F116
:1005C0000C0002900F2001900F2000900F23E27882
:1005D000521CD2B20321300003F029FADFF8D00C0C
:1005E0004068E86019E0A51C0622290014F1080003
:1005F00002F034FBF0200390002002903D20019097
:100600003D2000903D2300220C21280003F00FFA2A
:100610000120DFF89C1C0870FFE700F048BF20793C
:10062000112804D045D313282DD016D341E0A51CA2
:100630000622290014F1080002F010FBF1200390BB
:10064000002002901B200190182000901823002207
:100650000521280003F0EBF92BE0A51C0622290058
:1006600014F1080002F0FAFAF12003900020029041
:100670001B2001901820009018230022062128003A
:1006800003F0D5F915E0A51C0622290014F1080095
:1006900002F0E4FAF1200390002002902B20019058
:1006A00028200090282300220721280003F0BFF90A
:1006B000FFE700F0FCBE2079182808D0C0F0C28007
:1006C0001A2862D021D31B2800F09F80BAE0A51C15
:1006D0000622290014F1080002F0C0FAF02003906D
:1006E000002002903D2001903D2000903D230022FB
:1006F0000C21280003F09BF9DFF8B81B00200880CC
:100700000222022003F0BCFE9CE0E078002802D028
:1007100001281FD038E0A61C0622310014F1080081
:1007200002F09CFADFF89059F220039015F10C00CA
:1007300002901B200190182000901923E278521C8F
:10074000D2B20521300003F072F9DFF8640BC06CFF
:10075000E86019E0A51C0622290014F1080002F047
:100760007DFAF0200390002002903D2001903D2072
:1007700000903D2300220C21280003F058F90120AD
:10078000DFF82C1B0870FFE75CE0E078002802D05F
:1007900001281FD038E0A61C0622310014F1080001
:1007A00002F05CFADFF81059F220039015F10C000A
:1007B00002901B200190182000901A23E278521C0E
:1007C000D2B20521300003F032F9DFF8E40A006DFF
:1007D000E86019E0A51C0622290014F1080002F0C7
:1007E0003DFAF0200390002002903D2001903D2032
:1007F00000903D2300220C21280003F018F901206D
:10080000DFF8AC1A0870FFE71CE0A51C06222900DF
:1008100014F1080002F022FAF02003900020029068
:100820003D2001903D2000903D2300220C21280016
:1008300003F0FDF8DFF87C1A002008800222022075
:1008400003F01EFE00F033BE2079182808D0C0F057
:10085000C2801A2862D021D31B2800F09F80BAE002
:10086000A51C0622290014F1080002F0F7F9F02077
:100870000390002002903D2001903D2000903D23F8
:1008800000220C21280003F0D2F8DFF8281A0020FB
:1008900008800222022003F0F3FD9CE0E0780028AB
:1008A00002D001281FD038E0A61C0622310014F126
:1008B000080002F0D3F9DFF80058F220039015F198
:1008C0000C0002901B200190182000901923E27860
:1008D000521CD2B20621300003F0A9F8DFF8D0098B
:1008E000006EE86019E0A51C0622290014F108003A
:1008F00002F0B4F9F0200390002002903D20019016
:100900003D2000903D2300220C21280003F08FF8A9
:100910000120DFF89C190870FFE75CE0E078002810
:1009200002D001281FD038E0A61C0622310014F1A5
:10093000080002F093F9DFF88057F220039015F1D8
:100940000C0002901B200190182000901A23E278DE
:10095000521CD2B20621300003F069F8DFF85009CA
:10096000406EE86019E0A51C0622290014F1080079
:1009700002F074F9F0200390002002903D200190D5
:100980003D2000903D2300220C21280003F04FF869
:100990000120DFF81C190870FFE71CE0A51C0622E7
:1009A000290014F1080002F059F9F020039000200A
:1009B00002903D2001903D2000903D2300220C211B
:1009C000280003F034F8DFF8EC1800200880022239
:1009D000022003F055FD00F06ABD2079282808D0D8
:1009E000C0F0C2802A2862D021D32B2800F09F803B
:1009F000BAE0A51C0622290014F1080002F02EF925
:100A0000F0200390002002903D2001903D200090B6
:100A10003D2300220C21280003F009F8DFF8941888
:100A2000002008800222022003F02AFD9CE0E078EA
:100A3000002802D001281FD038E0A61C0622310071
:100A400014F1080002F00AF9DFF86C56F220039066
:100A500015F10C0002902B200190282000902923F2
:100A6000E278521CD2B20721300002F0E0FFDFF83A
:100A70004008406FE86019E0A51C0622290014F127
:100A8000080002F0EBF8F0200390002002903D20D7
:100A900001903D2000903D2300220C21280002F00F
:100AA000C6FF0120DFF808180870FFE75CE0E07877
:100AB000002802D001281FD038E0A61C06223100F1
:100AC00014F1080002F0CAF8DFF8EC55F2200390A8
:100AD00015F10C0002902B200190282000902A2371
:100AE000E278521CD2B20721300002F0A0FFDFF8FA
:100AF000C007806FE86019E0A51C0622290014F1E8
:100B0000080002F0ABF8F0200390002002903D2096
:100B100001903D2000903D2300220C21280002F08E
:100B200086FF0120DFF888170870FFE71CE0A51C8E
:100B30000622290014F1080002F090F8F02003903A
:100B4000002002903D2001903D2000903D23002296
:100B50000C21280002F06BFFDFF8581700200880F6
:100B60000222022003F08CFC00F0A1BC902B00209C
:100B70000000002020792D2802D02E2840D07FE0D0
:100B8000E078002802D001281FD038E0A61C0622F9
:100B9000310014F1080002F061F8DFF81C55F22072
:100BA000039015F10C0002902E2001902D20009052
:100BB0002D23E278521CD2B20821300002F037FF18
:100BC000DFF8EC06C069E86019E0A51C06222900E0
:100BD00014F1080002F042F8F02003900020029087
:100BE0003D2001903D2000903D2300220C21280053
:100BF00002F01DFF0120DFF8B8160870FFE73FE0A4
:100C0000E078002802D001281FD038E0A61C062278
:100C1000310014F1080002F021F8DFF89C54F220B2
:100C2000039015F10C0002902E2001902D200090D1
:100C30002E23E278521CD2B20821300002F0F7FED7
:100C4000DFF86C06006AE86019E0A51C062229009E
:100C500014F1080002F002F8F02003900020029046
:100C60003D2001903D2000903D2300220C212800D2
:100C700002F0DDFE0120DFF838160870FFE7FFE71D
:100C800000F015BC2079302806D0C0F0C78032288B
:100C900000F0858043D3C1E0E078002802D001282D
:100CA00022D03BE0A71C0622390014F1080001F015
:100CB000D5FFDFF8045415F10C06F22003900296DC
:100CC00032200190302000903023E278521CD2B2C2
:100CD0000921380002F0ABFEDFF8D8070078E860A1
:100CE000DFF8CC05C66219E0A51C0622290014F124
:100CF000080001F0B3FFF0200390002002903D2097
:100D000001903D2000903D2300220C21280002F09C
:100D10008EFE0120DFF898150870FFE77EE0E0788E
:100D2000002802D001281FD038E0A61C062231007E
:100D300014F1080001F092FFDFF87C53F2200390D9
:100D400015F10C00029032200190302000903123E8
:100D5000E278521CD2B20921300002F068FEDFF8BE
:100D60005005406AE86019E0A51C0622290014F12C
:100D7000080001F073FFF0200390002002903D2056
:100D800001903D2000903D2300220C21280002F01C
:100D90004EFE0120DFF818150870FFE73EE0E0780E
:100DA000002802D001281ED037E0A61C0622310000
:100DB00014F1080001F052FFBF4DF220039015F12D
:100DC0000C00029032200190302000903223E27813
:100DD000521CD2B20921300002F029FEDFF8D00403
:100DE000806AE86019E0A51C0622290014F10800B9
:100DF00001F034FFF0200390002002903D2001908C
:100E00003D2000903D2300220C21280002F00FFE1F
:100E10000120DFF89C140870FFE7FFE747E3207923
:100E2000342809D0C0F00181362800F0838042D3F5
:100E3000372800F0BD80F8E0E078002802D00128D3
:100E40001ED037E0A61C0622310014F1080001F084
:100E500005FF994DF220039015F10C000290372008
:100E60000190342000903423E278521CD2B20A213F
:100E7000300002F0DCFDDFF83804006BE86019E0B8
:100E8000A51C0622290014F1080001F0E7FEF0205D
:100E90000390002002903D2001903D2000903D23D2
:100EA00000220C21280002F0C2FD0120DFF800140E
:100EB0000870FFE7B9E0E078002802D001281ED0D2
:100EC00037E0A61C0622310014F1080001F0C6FE2E
:100ED000794DF220039015F10C000290372001901B
:100EE000342000903523E278521CD2B20A2130001F
:100EF00002F09DFDDFF8B803406BE86019E0A51C27
:100F00000622290014F1080001F0A8FEF020039049
:100F1000002002903D2001903D2000903D230022C2
:100F20000C21280002F083FD0120DFF884130870F3
:100F3000FFE77AE0E078002802D001281ED036E0F2
:100F4000A61C0622310014F1080001F087FE5A4D5C
:100F5000F220039015F10C0002903720019034200C
:100F600000903623E278521CD2B20A21300002F0FF
:100F70005EFDDFF83C03806BE86018E0A51C0622EC
:100F8000290014F1080001F069FEF0200390002010
:100F900002903D2001903D2000903D2300220C2135
:100FA000280002F044FD0120C1490870FFE73CE041
:100FB000E078002802D001281DD035E0A61C0622CA
:100FC000310014F1080001F049FE3B4DF22003907E
:100FD00015F10C0002903720019034200090372347
:100FE000E278521CD2B20A21300002F020FDB04853
:100FF000C06BE86018E0A51C0622290014F1080067
:1010000001F02CFEF0200390002002903D20019082
:101010003D2000903D2300220C21280002F007FD16
:101020000120A3490870FFE7FFE740E2207A032888
:1010300010D0052800F04181062800F09181072892
:1010400000F0E18108283AD0092871D00A2800F080
:10105000B7802BE2322002F0A7F8032094490870F1
:10106000A07A0E2802D00F2809D027E0DFF8A008C8
:1010700041781148C068C0B204F0EDFD1EE00020C8
:101080000100C9B20B290FDADFF888180200D2B2CA
:1010900051F82210084AD268914203D1DFF8701843
:1010A000487001E0401CEBE7DFF864084178007805
:1010B00004F0D1FD02E000BF482B0020F6E17C4D9A
:1010C00003202870322002F06FF8A07A2D2802D079
:1010D0002E2816D02BE0287A04F0CEFF00EE100A5E
:1010E000DFF83408D0ED0A0ADFF8300890ED031A73
:1010F000B8EEC11AB8EE400A81EE000A03F05CFABD
:1011000015E0687A04F0B8FF00EE100ADFF80C086A
:10111000D0ED030AF8EEE00AB8EE400AC0EE800A0D
:10112000DFF8F40790ED090A03F046FAFFE7BDE1A6
:101130005F4D03202870322002F036F8A07A302864
:1011400004D03CD3322824D00DD338E0DFF8640338
:10115000D0ED020A90ED010ADFF8C007C068C0B206
:1011600003F0D8FA2BE0A87A04F086FF00EE100A0C
:10117000D048DFF8A817D1ED030AF8EEE00AB8EE80
:10118000400AC0EE800A90ED010A007803F0C2FA2E
:1011900015E0A87A04F070FF00EE100AC548D0ED03
:1011A000020ADFF8781791ED031AB8EEC11AB8EE0B
:1011B000400A81EE000A007803F0ACFAFFE775E11F
:1011C0003B4D03202870322001F0EEFFA07A342836
:1011D00006D071D3362837D01CD337284ED06BE0D9
:1011E000E87A04F049FF00EE100ADFF83407D0ED8A
:1011F000031A90ED021AD0ED010ADFF8200790EDF6
:10120000032AB8EEC22AB8EE400A82EE000A03F0C2
:1012100049FB51E0E87A04F02FFF00EE100ADFF8F6
:101220000007D0ED031A90ED021ADFF8F016D1EDA9
:10123000030AF8EEE00AB8EE400AC0EE800A90ED2C
:10124000000A03F02FFB37E0E87A04F015FF00EE08
:10125000100ADFF8CC06D0ED031ADFF8C016D1ED86
:10126000030AF8EEE00AB8EE400A80EE801AD0EDEC
:10127000010A90ED000A03F015FB1DE0E87A04F086
:10128000FBFE00EE100ADFF89806DFF89016D1EDAD
:10129000030AF8EEE00AB8EE400AC0EE801A90EDBC
:1012A000021AD0ED010A90ED000A03F0FBFA03E008
:1012B0007C0000201E2C0020F8E0A07A182806D020
:1012C0004DD31A2827D005D31B2845D047E003F07B
:1012D000C7F844E0DFF84C4603202070322001F0CC
:1012E00063FF207A04F0C8FE00EE100ADFF82C0637
:1012F000D0ED030AF8EEE00AB8EE400A80EE800A6C
:10130000002003F019FCDFF8100690ED010A01201F
:1013100003F012FC23E0DFF80C460320207032209B
:1013200001F042FF207A04F0A7FE00EE100ADFF879
:10133000EC05D0ED030AF8EEE00AB8EE400A80EEC4
:10134000800A022003F0F8FBDFF8CC0590ED010ADB
:10135000032003F0F1FB02E003F082F8FFE7A5E0D1
:10136000A07A182806D04DD31A2827D005D31B28D9
:1013700045D047E003F074F844E0DFF8A8450320C7
:101380002070322001F010FF207A04F075FE00EE8C
:10139000100ADFF88805D0ED030AF8EEE00AB8EE8F
:1013A000400A80EE800A002003F0C6FBDFF86805E3
:1013B00090ED020A012003F0BFFB23E0DFF8644553
:1013C00003202070322001F0EFFE207A04F054FE5A
:1013D00000EE100ADFF84405D0ED030AF8EEE00A4B
:1013E000B8EE400A80EE800A022003F0A5FBDFF889
:1013F000280590ED020A032003F09EFB02E003F0B3
:101400002FF8FFE752E0A07A282806D04DD32A28EB
:1014100027D005D32B2845D047E003F021F844E03E
:10142000DFF8004503202070322001F0BDFE207A55
:1014300004F022FE00EE100ADFF8E004D0ED030A0B
:10144000F8EEE00AB8EE400A80EE800A082003F0C9
:1014500073FBDFF8C40490ED030A092003F06CFB72
:1014600023E0DFF8C04403202070322001F09CFE0E
:10147000207A04F001FE00EE100ADFF8A004D0ED9F
:10148000030AF8EEE00AB8EE400A80EE800A0A206D
:1014900003F052FBDFF8800490ED030A0B2003F009
:1014A0004BFB02E002F0DCFFFFE7FFE7FFE705B0E0
:1014B000F0BD0000BC2B002010B5DFF8F4389878A0
:1014C000002815D0022825D013D304287DD02ED390
:1014D000062800F0F280C0F0B880082800F0828072
:1014E000C0F021810A2800F0A781C0F052810EE2ED
:1014F0000DE2DFF8C008DFF82414CA68825C521CD1
:10150000CB68C254CA68825C3A2A02DB3022C968BE
:101510004254FCE158791979884202D21879401E68
:101520001871F1220021981C02F05EFAEFE1D878E0
:1015300000280CD158791979884202D21879401EB6
:101540001871F1220021981C02F04EFA3CE0187943
:101550000E2802D00F2812D036E0D878002802D00A
:10156000012801D00AE009E0DFF8B003C168B1F555
:10157000807F02DAC168491CC160FFE724E0D878A7
:10158000002802D0012801D01EE01DE00021080043
:10159000C0B20B2817DADFF87C23DFF880030B00DA
:1015A000DBB252F82330C468A3420AD10B00DBB28D
:1015B0000A2B06DA0B00DBB202EB83025268C26030
:1015C00001E0491CE3E7FFE7A1E158791979884276
:1015D00002D21879401E1871F1220021981C02F0E5
:1015E00003FA94E1D87800280CD158791979884207
:1015F00002D21879401E1871F1220021981C02F0C5
:10160000F3F921E018792D2802D02E280ED01BE006
:10161000D878002802D0012801D006E005E0DFF8E4
:10162000FC02C168491CC160FFE70DE0D8780028C2
:1016300002D0012801D006E005E0DFF8E002C16831
:10164000491CC160FFE7FFE761E1D87800280CD1B1
:1016500058791979884202D21879401E1871F122FE
:101660000021981C02F0C0F926E01879182806D04D
:1016700022D31A2812D003D31B281DD01CE01BE054
:10168000D878002802D0012801D006E005E0DFF874
:101690008C02C168491CC160FFE70DE0D8780028C2
:1016A00002D0012801D006E005E0DFF87002C16831
:1016B000491CC160FFE7FFE729E1D87800280CD179
:1016C00058791979884202D21879401E1871F1228E
:1016D0000021981C02F088F924E01879182806D017
:1016E00020D31A2811D003D31B281BD01AE019E0ED
:1016F000D878002802D0012801D005E004E087480E
:10170000C168491CC160FFE70CE0D878002802D00E
:10171000012801D005E004E08048C168491CC1608F
:10172000FFE7FFE7F3E0D87800280CD15879197962
:10173000884202D21879401E1871F1220021981CAB
:1017400002F052F924E01879282806D020D32A285C
:1017500011D003D32B281BD01AE019E0D878002829
:1017600002D0012801D005E004E06C48C168491CA2
:10177000C160FFE70CE0D878002802D0012801D032
:1017800005E004E06548C168491CC160FFE7FFE768
:10179000BDE0D87800280CD158791979884202D256
:1017A0001879401E1871F1220021981C02F01CF9D2
:1017B00041E01879302804D03DD3322829D012D303
:1017C00039E0D878002802D0012801D00AE009E0E9
:1017D0005249C868002802D10120C86001E00020F9
:1017E000C860FFE727E0D878002802D0012801D0A0
:1017F0000EE00DE04B48807A04F03EFC474AD36887
:1018000064214843834202D2D068401CD060FFE785
:1018100011E0D878002802D0012801D00AE009E0C0
:101820003E48C1683F4A526A914202DAC168491C87
:10183000C160FFE7FFE76AE0D87800280CD158794B
:101840001979884202D21879401E1871F1220021BC
:10185000981C02F0C9F859E01879342806D055D3FD
:1018600036282BD018D337283ED04FE0D878002820
:1018700002D0012801D00EE00DE02A48C07A04F021
:10188000FBFB264AD36864214843834202D2D068D6
:10189000401CD060FFE739E0D878002802D001284A
:1018A00001D00AE009E01D48C1681E4A126B91424E
:1018B00002DAC168491CC160FFE727E0D878002838
:1018C00002D0012801D00EE00DE01648C07A04F0E5
:1018D000D3FB124AD36850214843834202D2D068D6
:1018E000401CD060FFE711E0D878002802D0012822
:1018F00001D00AE009E00948C1680A4A926B9142A6
:1019000002DAC168491CC160FFE7FFE7FFE710BDCD
:10191000F40D00208C080020182A0020482B0020FD
:10192000A02B00207C00002010B5DFF884349878CC
:10193000002815D0022825D013D304287DD02ED31B
:10194000062800F0F880C0F0B880082800F08280F7
:10195000C0F02D810A2800F0BB81C0F0648126E22E
:1019600025E2DFF85004DFF85014CA68825C521E8A
:10197000CB68C254CA68825C302A02DA3922C9684C
:10198000425414E218799979884202D21879401C9D
:101990001871F1220021981C02F026F807E2D8788D
:1019A00000280CD118799979884202D21879401C04
:1019B0001871F1220021981C02F016F83CE0187909
:1019C0000E2802D00F2811D036E0D878002802D097
:1019D000012801D009E008E0DFF8DC03C168012933
:1019E00002DBC168491EC160FFE725E0D878002806
:1019F00002D0012801D01FE01EE00A221000C0B270
:101A0000002818D0DFF8B433DFF8AC131000C0B2F0
:101A100053F82000CC68A0420BD11000C0B20028BF
:101A200007D01000C0B203EB800050F8040CC8606F
:101A300001E0521EE2E7FFE7B9E11879997988429F
:101A400002D21879401C1871F1220021981C01F073
:101A5000CBFFACE1D87800280CD11879997988426D
:101A600002D21879401C1871F1220021981C01F053
:101A7000BBFF21E018792D2802D02E280ED01BE0C4
:101A8000D878002802D0012801D006E005E0DFF870
:101A90002803C168491EC160FFE70DE0D87800281F
:101AA00002D0012801D006E005E0DFF80C03C16890
:101AB000491EC160FFE7FFE779E1D87800280CD123
:101AC00018799979884202D21879401C1871F1224C
:101AD0000021981C01F088FF2CE01879182806D006
:101AE00028D31A2815D003D31B2823D022E021E0C5
:101AF000D878002802D0012801D009E008E0DFF8FA
:101B0000B802C168012902DBC168491EC160FFE754
:101B100010E0D878002802D0012801D009E008E0C0
:101B2000DFF89402C168012902DBC168491EC16067
:101B3000FFE7FFE73BE1D87800280CD118799979C5
:101B4000884202D21879401C1871F1220021981C99
:101B500001F04AFF2AE01879182806D026D31A285F
:101B600014D003D31B2821D020E01FE0D878002810
:101B700002D0012801D008E007E08F48C1680129A0
:101B800002DBC168491EC160FFE70FE0D87800287A
:101B900002D0012801D008E007E08748C168012988
:101BA00002DBC168491EC160FFE7FFE7FFE0D878AC
:101BB00000280CD118799979884202D21879401CF2
:101BC0001871F1220021981C01F00EFF2AE018790B
:101BD000282806D026D32A2814D003D32B2821D096
:101BE00020E01FE0D878002802D0012801D008E0CA
:101BF00007E07148C168012902DBC168491EC16064
:101C0000FFE70FE0D878002802D0012801D008E0D3
:101C100007E06948C168012902DBC168491EC1604B
:101C2000FFE7FFE7C3E0D87800280CD1187999794D
:101C3000884202D21879401C1871F1220021981CA8
:101C400001F0D2FE43E01879302804D03FD3322887
:101C500026D012D33BE0D878002802D0012801D04A
:101C60000AE009E05449C868002802D10120C86090
:101C700001E00020C860FFE729E0D878002802D002
:101C8000012801D00BE00AE04B48DFF8B41A896A5A
:101C9000C268914202DAC168491EC160FFE716E0DE
:101CA000D878002802D0012801D00FE00EE0DFF83C
:101CB000900A807A04F0E0F93F4A00214843D16855
:101CC000884202D2D068401ED060FFE7FFE76EE096
:101CD000D87800280CD118799979884202D21879DD
:101CE000401C1871F1220021981C01F07DFE5DE07E
:101CF0001879342806D059D336282DD015D3372853
:101D00003DD053E0D878002802D0012801D00BE064
:101D10000AE02948DFF8281A496BC268914202DAC2
:101D2000C168491EC160FFE740E0D878002802D0B2
:101D3000012801D00FE00EE0DFF8040AC07A04F0B9
:101D40009BF91D4A00214843D168884202D2D068DD
:101D5000401ED060FFE729E0D878002802D0012893
:101D600001D00BE00AE01448DFF8D419C96BC2684F
:101D7000914202DAC168491EC160FFE716E0D878D7
:101D8000002802D0012801D00FE00EE0DFF8B009F2
:101D9000C07A04F071F9084A00214843D1688842AA
:101DA00002D2D068401ED060FFE7FFE7FFE710BD1A
:101DB000902B002000000020482B00208C080020E1
:101DC0007FB5DFF88049A07800281CD0022820D0F9
:101DD0001BD3042800F095801FD3062800F0528101
:101DE000C0F0AB80082800F09782C0F0F0810A288C
:101DF00000F0B083C0F003830C2800F09384C0F09F
:101E00008A8400F09CBC00F09ABC0020A07000F016
:101E100096BC0020A07000F092BC20790E2802D061
:101E20000F2836D06BE0E078002802D0012816D0C9
:101E30002EE0A51CF1200390002002900C200190C0
:101E400007200090072300220221280001F0EFFD67
:101E50000622290014F1080000F000FF18E0A51C7C
:101E60000622290014F1080000F0F8FEF12003908A
:101E7000DFF8D40802900F2001900E2000900E236E
:101E8000E078421ED2B20321280001F0D0FDFFE726
:101E900035E0E078002802D0012816D02EE0A51CFD
:101EA000F1200390002002900C2001900720009068
:101EB000072300220221280001F0B9FD0622290093
:101EC00014F1080000F0CAFE18E0A51C0622290043
:101ED00014F1080000F0C2FEF1200390DFF86C0856
:101EE00002900F2001900E2000900F23E078421EF8
:101EF000D2B20321280001F09AFDFFE7FFE700F0CE
:101F00001EBC20791138022815D8A51CF120039099
:101F1000002002900C20019007200090082300224E
:101F20000221280001F083FD0622290014F1080097
:101F300000F094FEFFE700F002BC2079182808D0DA
:101F4000C0F09F801A2850D019D31B2800F083803E
:101F500097E0A51CF120039000200290132001902F
:101F600011200090112300220421280001F05FFDC0
:101F70000622290014F1080000F070FE81E0E078EC
:101F8000002802D0012816D02EE0A51CF1200390D5
:101F900000200290132001901120009011230022B4
:101FA0000421280001F043FD0622290014F1080055
:101FB00000F054FE18E0A51C0622290014F10800C8
:101FC00000F04CFEF1200390DFF8840702901B2004
:101FD0000190182000901923E078421ED2B205210A
:101FE000280001F024FDFFE74BE0E078002802D054
:101FF000012816D02EE0A51CF120039000200290AD
:1020000013200190112000901123002204212800A8
:1020100001F00DFD0622290014F1080000F01EFE5B
:1020200018E0A51C0622290014F1080000F016FE95
:10203000F1200390DFF81C0702901B20019018206C
:1020400000901A23E078421ED2B20521280001F048
:10205000EEFCFFE715E0A51CF120039000200290A4
:102060001320019011200090112300220421280048
:1020700001F0DDFC0622290014F1080000F0EEFD5D
:10208000FFE75CE32079182808D0C0F09F801A2869
:1020900050D019D31B2800F0838097E0A51CF120B5
:1020A0000390002002901320019011200090122331
:1020B00000220421280001F0BAFC0622290014F1B4
:1020C000080000F0CBFD81E0E078002802D0012874
:1020D00016D02EE0A51CF1200390002002901320C2
:1020E000019011200090122300220421280001F009
:1020F0009EFC0622290014F1080000F0AFFD18E054
:10210000A51C0622290014F1080000F0A7FDF1200B
:102110000390DFF8440602901B20019018200090E5
:102120001923E078421ED2B20621280001F07FFC7C
:10213000FFE74BE0E078002802D0012816D02EE01F
:10214000A51CF12003900020029013200190112083
:102150000090122300220421280001F068FC0622CE
:10216000290014F1080000F079FD18E0A51C0622F2
:10217000290014F1080000F071FDF1200390DFF850
:10218000DC0502901B200190182000901A23E078B3
:10219000421ED2B20621280001F049FCFFE715E0FB
:1021A000A51CF12003900020029013200190112023
:1021B0000090122300220421280001F038FC06229E
:1021C000290014F1080000F049FDFFE7B7E220798B
:1021D000282808D0C0F09F802A2850D019D32B2857
:1021E00000F0838097E0A51CF1200390002002906E
:1021F00013200190112000901323002204212800B5
:1022000001F015FC0622290014F1080000F026FD5B
:1022100081E0E078002802D0012816D02EE0A51C2D
:10222000F1200390002002901320019011200090D3
:10223000132300220421280001F0F9FB06222900C3
:1022400014F1080000F00AFD18E0A51C0622290080
:1022500014F1080000F002FDF1200390DFF8000502
:1022600002902B200190282000902923E078421E24
:10227000D2B20721280001F0DAFBFFE74BE0E0785B
:10228000002802D0012816D02EE0A51CF1200390D2
:1022900000200290132001901120009013230022AF
:1022A0000421280001F0C3FB0622290014F10800D4
:1022B00000F0D4FC18E0A51C0622290014F1080047
:1022C00000F0CCFCF1200390DFF8980402902B2062
:1022D0000190282000902A23E078421ED2B20721E4
:1022E000280001F0A4FBFFE715E0A51CF1200390F6
:1022F000002002901320019011200090132300224F
:102300000421280001F093FB0622290014F10800A3
:1023100000F0A4FCFFE712E220792D2802D02E283D
:1023200036D06BE0E078002802D0012816D02EE0ED
:10233000A51CF1200390002002900C2001900720A2
:102340000090092300220221280001F070FB0622E0
:10235000290014F1080000F081FC18E0A51C0622F9
:10236000290014F1080000F079FCF1200390DFF857
:10237000F80302902E2001902D2000902D23E0786C
:10238000421ED2B20821280001F051FBFFE735E0E0
:10239000E078002802D0012816D02EE0A51CF120FC
:1023A0000390002002900C20019007200090092348
:1023B00000220221280001F03AFB0622290014F134
:1023C000080000F04BFC18E0A51C0622290014F1BF
:1023D000080000F043FCF1200390DFF89003029026
:1023E0002E2001902D2000902E23E078421ED2B2A4
:1023F0000821280001F01BFBFFE7FFE79FE12079A0
:10240000302805D0C0F0A58032286DD037D3A0E0A9
:10241000E078002802D0012816D02FE0A51CF1207A
:102420000390002002900C200190072000900A23C6
:1024300000220221280001F0FAFA0622290014F1F4
:10244000080000F00BFC19E0A51C0622290014F17D
:10245000080000F003FCC64EF120039002963220E3
:102460000190302000903023E078421ED2B2092142
:10247000280001F0DCFAB248C662FFE769E0E078C4
:10248000002802D0012816D02DE0A51CF1200390D1
:10249000002002900C200190072000900A230022C7
:1024A0000221280001F0C3FA0622290014F10800D5
:1024B00000F0D4FB17E0A51C0622290014F1080047
:1024C00000F0CCFBF1200390AA480290322001904A
:1024D000302000903123E078421ED2B2092128003A
:1024E00001F0A5FAFFE734E0E078002802D00128E7
:1024F00016D02DE0A51CF1200390002002900C20A6
:102500000190072000900A2300220221280001F0F8
:102510008EFA0622290014F1080000F09FFB17E054
:10252000A51C0622290014F1080000F097FBF120F9
:102530000390914802903220019030200090322385
:10254000E078421ED2B20921280001F070FAFFE7BC
:10255000FFE7F4E02079342808D0C0F0DB8036288B
:102560006ED038D3372800F0A080D3E0E078002880
:1025700002D0012816D02DE0A51CF12003900020E8
:1025800002900C200190072000900B2300220221D2
:10259000280001F04CFA0622290014F1080000F08E
:1025A0005DFB17E0A51C0622290014F1080000F0CD
:1025B00055FBF120039071480290372001903420A0
:1025C00000903423E078421ED2B20A21280001F0A4
:1025D0002EFAFFE79EE0E078002802D0012816D00E
:1025E0002DE0A51CF1200390002002900C2001900A
:1025F000072000900B2300220221280001F017FA87
:102600000622290014F1080000F028FB17E0A51CA1
:102610000622290014F1080000F020FBF1200390AD
:102620005748029037200190342000903523E078FD
:10263000421ED2B20A21280001F0F9F9FFE769E051
:10264000E078002802D0012816D02DE0A51CF1204A
:102650000390002002900C200190072000900B2393
:1026600000220221280001F0E2F90622290014F1DB
:10267000080000F0F3FA17E0A51C0622290014F167
:10268000080000F0EBFAF12003903E48029037205A
:102690000190342000903623E078421ED2B20A2105
:1026A000280001F0C4F9FFE734E0E078002802D008
:1026B000012816D02DE0A51CF120039000200290E7
:1026C0000C200190072000900B23002202212800FB
:1026D00001F0ADF90622290014F1080000F0BEFA5D
:1026E00017E0A51C0622290014F1080000F0B6FA34
:1026F000F12003902448029037200190342000906C
:102700003723E078421ED2B20A21280001F08FF967
:10271000FFE7FFE713E0062214F10801A01C00F018
:102720009DFA0CE0064D2878022807D0062214F105
:102730000801A01C00F092FA00202870FFE77FBD7E
:102740007C000020902B00207D00002080000020D5
:10275000C8000020CC000020DC000020E0000020A9
:10276000F0000020F4000020980000209C000020D1
:10277000BC2B0020A0000020A4000020AC00002002
:10278000B0000020B4000020B8000020F8B403001E
:1027900000250868E840002800F0D78001260F686F
:1027A00016FA05F007403A00002A00F0CC800879BC
:1027B00010F00300012804D0087910F0030002286B
:1027C0001DD19F685FF0030C2800C0B240001CFAC6
:1027D00000FC37EA0C07D1F80CC02800C0B240005A
:1027E0001CFA00FC5CEA07079F605868AE40B043E3
:1027F0004E68C6F30016AE40304304005C600879B2
:1028000010F0030003280ED0DE6803272800C0B2B2
:1028100040008740BE438F682800C0B24000874018
:102820003E433400DC60087910F00300022818D120
:102830002800C00803EB8000066A0F2715F0070088
:10284000C0B280008740BE430F6915F00700C0B2D8
:10285000800087403E4334002800C00803EB80001E
:1028600004621E6803272800C0B240008740BE43B0
:102870000F7917F003072800C0B2400087403E439D
:1028800034001C60486810F4403F5CD095480668EE
:1028900056F001060660006810F0010000900098F4
:1028A000914F2800800857F820605FF00F0C15F05A
:1028B0000300C0B280001CFA00FC36EA0C06B3F13B
:1028C000904F01D1002414E08848834201D10124B3
:1028D0000FE08748834201D102240AE08548834201
:1028E00001D1032405E08448834201D1042400E09F
:1028F000072415F00300C0B280008440264328005E
:10290000800847F820607D4C206890434F68FF02A4
:1029100000D5104320607A4E346894434F68BF025C
:1029200000D514433460774E306890434F68BF033E
:1029300000D510433060744E346894434F68FF03F1
:1029400000D5144334606D1C23E7F1BC70472DE9BA
:10295000F041030000250800E840002800F0A880AE
:10296000012616FA05F008400200002A00F09E80B9
:10297000DFF874C1280080085CF820000F2715F0EC
:10298000030E5FFA8EFE5FEA8E0E17FA0EFE1EEA47
:1029900000000400B3F1904F02D15FF0000E19E087
:1029A0005248834202D15FF0010E13E05048834247
:1029B00002D15FF0020E0DE04E48834202D15FF07B
:1029C000030E07E04C48834202D15FF0040E01E0A1
:1029D0005FF0070E15F00300C0B280001EFA00FE83
:1029E00074452CD14848D0F800E03EEA020EC0F809
:1029F00000E04448D0F800E03EEA020EC0F800E0F3
:102A00003F48D0F800E03EEA020EC0F800E03B4844
:102A1000D0F800E03EEA020EC0F800E015F0030036
:102A2000C0B2800017FA00F00400280080085CF8AB
:102A30002000A043AE465FEA9E0E4CF82E005FF0E9
:102A4000030C1868AE465FFA8EFE5FEA4E0E1CFA63
:102A50000EFE5EEA000018602800C00803EB800E3E
:102A60002800C00803EB8000D0F8208015F0070094
:102A7000C0B28000874038EA0707CEF82070986817
:102A80002F00FFB27F001CFA07F7B8439860586820
:102A9000AE4030EA06065E60DE682800C0B2400044
:102AA0001CFA00FC36EA0C0CC3F80CC06D1C52E793
:102AB000BDE8F081020010690B009BB2184201D002
:102AC000012000E00020C0B270471300DBB2002BF1
:102AD00003D00B009BB2836102E00B009BB28362C8
:102AE00070470000601002400800014000040048E8
:102AF00000080048000C004800100048080401408D
:102B00000C040140040401400004014038B50400F5
:102B10000D00DFF8FC010168200000F006F8A84273
:102B200001D3012000E0002032BD814204D25FF0D9
:102B3000FF32101A081800E0081A704738B52DED5A
:102B4000048B08EE100A0C001500DFED438A280004
:102B5000C0B2FB2810DBB8EEC89A2800C0B24042D1
:102B6000C0B200F08BF829EE009A00212000B0EEF0
:102B7000490A00F0B1F80EE0B8EEC89A2800C0B2D9
:102B800000F07CF889EE009A2900C9B22000B0EE6E
:102B9000490A00F0A1F8BDEC048B31BD10B400214E
:102BA0000A00838892B29A4206D2002203680C007F
:102BB000A4B21A55491CF3E70022828010BC70476A
:102BC00010B4040013005A1E9BB2002B02D02170D7
:102BD000641CF7E710BC704770B504000D001600C8
:102BE000DFF8240100782100C9B2884209D3DFF858
:102BF00024211068002804D0310089B2280012680E
:102C0000904770BD38B504000D00280003F03AFC71
:102C1000020092B229002000C0B2FFF7DDFF31BDF3
:102C200070B504000D00280003F02CFC020092B2E5
:102C300029002000C0B2FFF7CFFFDFF8DC6030686A
:102C4000002807D0280003F01DFC010089B22800ED
:102C50003268904770BD00000000000030B40400EE
:102C60000D0013005A1E9BB2002B04D02B7823704A
:102C70006D1C641CF5E730BC7047000010B5040003
:102C80002000C0B2FB2816DB2000C0B2D0F5807057
:102C900003F030FC41EC110B9FED200B03F043FCE3
:102CA00053EC102B0020194903F046FC03F068FD9B
:102CB00000EE100A0FE02000C0B203F095FD41ECD9
:102CC000110B9FED160B03F02EFC51EC100B03F0D3
:102CD00057FD00EE100A10BD38B52DED028B82B005
:102CE000B0EE408A04000D0018EE100A03F08AFDD1
:102CF000CDE900012A000B49200003F0A7FD02B036
:102D0000BDEC028B31BD0000F80D00200000F03F4B
:102D10000C2C0020142C0020102C0020000000009F
:102D200000002440100C010880B500224FF400710F
:102D3000DFF8A40CFFF7C9FE00224FF400715FF02A
:102D40009040FFF7C2FE03F0A1FDDFF8900CDFF822
:102D5000901CC162DFF88C1C421CC1F85821021D76
:102D6000C1F8702110F114020A62027A81F825205C
:102D700010F118028A63427A81F83D2010F11C029A
:102D8000C1F84024027A81F8452410F12002C1F8EC
:102D90005824427A81F85D2410F12402C1F8A0245D
:102DA000827A81F8A52410F12802C1F8B824827A29
:102DB00081F8BD2410F13002C1F8E824C27A81F80C
:102DC000ED2410F13402C1F80025C27A81F80525FE
:102DD00010F13802C1F81825C27A81F81D2510F1CA
:102DE0003C02C1F83025C27A81F83525DFF8A42CE1
:102DF0001268C1F87825DFF8E82C1268C1F8A82518
:102E000010F14002C1F80022027A81F8052210F187
:102E10004402C1F81822027A81F81D2210F14802FA
:102E2000C1F83022027A81F8352210F14C02C1F843
:102E30006022027A81F8652210F15002C1F87822EE
:102E4000027A81F87D2210F15402C1F8C022027A80
:102E500081F8C52210F15802C1F8D822027A81F80F
:102E6000DD2210F15C02C1F8F022027A81F8F5222D
:102E700010F16002C1F82023027A81F8252310F1B5
:102E80006402C1F83823027A81F83D2310F1680208
:102E9000C1F88023027A81F8852310F16C02C1F811
:102EA0009823027A81F89D2310F17002C1F8B023B3
:102EB000027A81F8B52310F17402C1F8E023027A96
:102EC00081F8E52310F17802C1F8F823007A81F83F
:102ED000FD0301BD38B5002000242000C0B2072842
:102EE00035DADFF85C5C2000C0B20001284440788D
:102EF00001282AD12000C0B20001284440680028DF
:102F00000ED003F01BFD2100C9B209012944496814
:102F1000401A2100C9B2090129448968884214D3A2
:102F200000202100C9B209012944487003F006FDC0
:102F30002100C9B20901294448602000C0B2210023
:102F4000C9B209012944C9688847641CC5E7002043
:102F500032BD38B50400DFF8EC5B687800281FD17B
:102F600000224FF40071DFF8700AFFF7AEFD002277
:102F70004FF400715FF09040FFF7A7FD03F086FC6F
:102F800089200090202307220521DFF8BC0B03F0E5
:102F9000DBFC012068700221DFF8A40B03F01CFEAB
:102FA000012032BD7CB50400DFF8A05B2878002842
:102FB00003D0022823D003D33DE003F037FE3AE0EC
:102FC00003F0AAFE89200090202307220521DFF8C4
:102FD000780B03F0B9FCDFF8782B03212C2003F0E9
:102FE000CDFDDFF8702B0421082003F0C7FD03F0AE
:102FF000F0FE41F28830DFF8481B88611BE00120B9
:10300000DFF8401B4870892000902023072205210B
:10301000DFF8340B03F098FCDFF8246B022130005A
:1030200003F0DAFD0321300003F0D6FD0421300067
:1030300003F0D2FDFFE72878401C28702100C9B2B8
:10304000DFF8FC0A03F0D7FD012076BD70B504005F
:1030500000F0BCF8DFF8EC5A6878012803D1A878B2
:1030600000F090FC04E00021DFF8D40A03F0B4FD86
:10307000DFF8EC0AA9780278914207D0A9780170AC
:10308000DFF8E00A0068DFF8E01A0860A8780D2889
:1030900012D1DFF8D46A4FF4FA613068FFF736FDD9
:1030A000012809D1DFF8BC0A00683060062215F15A
:1030B0000801A81CFFF7D2FD2100C9B2DFF8800A81
:1030C00003F099FD012070BD10B50400DFF89C1AD3
:1030D000DFF89C0A0069FFF719FD012827D1DFF806
:1030E000940A0178012905D1002101700020DFF840
:1030F000541A8870DFF8800A0188491C018042F266
:103100001071DFF83C2A2300DBB21B011A449268DD
:10311000B1FBF2F102888A420DD300210180DFF871
:10312000241A8878002806D00020887003E0012047
:10313000DFF8401A08702100C9B2DFF8040A03F072
:103140005AFD012010BD38B50400FDF738F8DFF84E
:10315000205A287A012808D10521DFF8E40903F074
:103160003BFDDFF8000A006828612100C9B2DFF8E2
:10317000D00903F040FD012032BD10B50400FDF779
:1031800005F8DFF8EC09002101700021017201202F
:1031900010BD10B5040000224FF40051DFF83808CC
:1031A000FFF793FC012010BD10B5040001224FF47D
:1031B0000051DFF82408FFF788FCDFF884092100BC
:1031C00089B28166062103F016FD10BD70B5DFF8E7
:1031D0000C48DFF8A809E16A097850F82100DFF807
:1031E0000418C1F88804DFF8980901786170DFF8E5
:1031F0009419407851F820006060207A02F03CFF7A
:1032000000EE100ADFF88059B8EE400AD5ED020A48
:1032100020EE200ABDEEC00A84ED030A607A02F0B7
:103220002BFF00EE100AB8EE400AD5ED040A20EE9E
:10323000200ABDEEC00A84ED040A207A02F01CFFC9
:1032400000EE100AB8EE400AD5ED060A20EE200A7C
:10325000BDEEC00A84ED050A607A02F00DFF00EEB3
:10326000100AB8EE400AD5ED080A20EE200ABDEE9D
:10327000C00A84ED060A207A02F0FEFE00EE100A73
:10328000B8EE400AD5ED090A20EE200ABDEEC00ACC
:1032900084ED070A607A02F0EFFE00EE100AB8EE45
:1032A000400AD5ED0A0A20EE200ABDEEC00A84EDE0
:1032B000080AA07A02F0E0FE00EE100ADFF82067AC
:1032C000B8EE400AD6ED020A20EE200ABDEEC00A92
:1032D00084ED090AA07A02F0CFFE00EE100AB8EEE3
:1032E000400AD6ED010A20EE200ABDEEC00A84EDA8
:1032F0000A0AE07A02F0C0FE00EE100ADFF88C68DD
:10330000B8EE400AD6ED000A20EE200ABDEEC00A53
:1033100084ED0C0AE07A02F0AFFE00EE100AB8EE7F
:10332000400AD6ED010A20EE200ABDEEC00A84ED67
:103330000D0AE07A02F0A0FE00EE100AB8EE400A94
:10334000D6ED020A20EE200ABDEEC00A84ED0E0A78
:10335000E07A02F091FE00EE100AB8EE400AD6EDD7
:10336000030A20EE200ABDEEC00A84ED0F0A207A7F
:1033700002F082FE00EE100AB8EE400AD5ED010A16
:1033800020EE200ABDEEC00A84ED100A207A02F079
:1033900073FE00EE100AB8EE400AD5ED0B0A20EEDF
:1033A000200ABDEEC00A84ED110A207A02F064FE04
:1033B00000EE100AB8EE400AD5ED0C0A20EE200A05
:1033C000BDEEC00A84ED120A207A02F055FE00EE2E
:1033D000100ADFF8BC67B8EE400AD6ED000A20EE0E
:1033E000200ABDEEC00A84ED130A207A02F044FEE2
:1033F00000EE100AB8EE400AD6ED020A20EE200ACE
:10340000BDEEC00A84ED140A207A02F035FE00EE0B
:10341000100AB8EE400AD5ED020A20EE200ABDEEF1
:10342000C00A84ED150A207A02F026FE00EE100A8A
:10343000B8EE400AD5ED0D0A20EE200ABDEEC00A16
:1034400084ED160A207A02F017FE00EE100AB8EE9C
:10345000400AD5ED0E0A20EE200ABDEEC00A84ED2A
:10346000170A207A02F008FE00EE100AB8EE400AB1
:10347000D6ED040A20EE200ABDEEC00A84ED180A3B
:10348000207A02F0F9FD00EE100AB8EE400AD6EDFF
:10349000060A20EE200ABDEEC00A84ED190A207A41
:1034A00002F0EAFD00EE100AB8EE400AD5ED030A7C
:1034B00020EE200ABDEEC00A84ED1A0A207A02F03E
:1034C000DBFD00EE100AB8EE400AD5ED0F0A20EE43
:1034D000200ABDEEC00A84ED1B0A207A02F0CCFD62
:1034E00000EE100AB8EE400AD5ED100A20EE200AD0
:1034F000BDEEC00A84ED1C0A207A02F0BDFD00EE8C
:10350000100AB8EE400AD6ED080A20EE200ABDEEF9
:10351000C00A84ED1D0A207A02F0AEFD00EE100A0A
:10352000B8EE400AD6ED0A0A20EE200ABDEEC00A27
:1035300084ED1E0A70BD2DE9F84F8AB006002021E7
:10354000002202AC200003F0B1FC00240025002082
:103550008DF8050000208DF806001827DFF8848418
:103560003000C0B27843404490F815903000C0B2AB
:10357000784340444068002842D001213000C0B266
:1035800000F0A9F900280ED13000C0B278434044C1
:1035900042683000C0B278434044017D4846C0B222
:1035A00003F0ECFA1EE05FF0000A3000C0B278438E
:1035B0004044406802F066FF5146C9B2814207D2DA
:1035C000202002A95246D2B288541AF1010AECE72F
:1035D00002AA3000C0B278434044017D4846C0B2E0
:1035E00003F0CCFA3000C0B278434044406802F0A7
:1035F00049FFDFF8A0150979491C484310FA89F9F9
:103600003000C0B2784340448068002800F03A811E
:103610003000C0B278434044007B00280BD0022821
:103620001ED012D3042830D024D3062845D036D358
:1036300007283ED044E03000C0B278434044806860
:103640000078002104000D003AE03000C0B2784359
:103650004044806890F90000C11704000D002FE07D
:103660003000C0B2784340448068008800210400E4
:103670000D0025E03000C0B2784340448068B0F9C6
:103680000000C11704000D001AE03000C0B27843FA
:10369000404480680068002104000D0010E0300004
:1036A000C0B27843404480680068C11704000D0030
:1036B00006E001208DF8050002E002208DF80500EB
:1036C0009DF8050000280CD13000C0B2784340447A
:1036D000407B40420200D2B202A92000FFF72EFA3E
:1036E00026E09DF8050001281AD13000C0B27843C9
:1036F0004044806802F0C6FE202819D23000C0B2D3
:1037000078434044806802F0BDFE020092B230006F
:10371000C0B278434044816802A8FFF79FFA07E0EF
:103720003000C0B278434044806800788DF80800CB
:1037300002213000C0B200F0CEF8012823D13000C1
:10374000C0B278434044807DC0B200098DF80600C5
:103750009DF806000F2805D0202002A99DF806201C
:10376000885410E05FF0000A02A802F08BFE514678
:10377000C9B2814207D2202002A95246D2B288544F
:103780001AF1010AF0E73000C0B201285ED15FF003
:10379000000A00208DF804003000C0B27843404495
:1037A000407B002802D009208DF8040039200090C9
:1037B0002E2315220F21DFF8E00303F0ABFB02A854
:1037C00002F060FE8346DFF8CC030079401C00FB6A
:1037D0000BFB5846C0B2022190FBF1F01F280BDA18
:1037E0005846C0B2022190FBF1F0D0F140009DF8A4
:1037F000041050FA81FA07E05846C0B2D0F15F00D9
:103800009DF8041050FA81FA02AA3000C0B2784341
:103810004044007D401CC0B2DFF878134979D1EBF9
:10382000C001491EC9B25046C0B203F01DFD5AFA8C
:103830008BF09DF80490B0EB0909892000902023BB
:1038400007220521C04803F07FF81BE08920009083
:10385000202307220521BC4803F076F802AA300095
:10386000C0B278434044017D4846C0B203F086F9B7
:1038700002A802F007FEC7490979491C484310FA1B
:1038800089F081463000C0B2784340440069002886
:103890001ED03000C0B2784340448068002817D062
:1038A0003000C0B2784340448068BC4988420FD0A1
:1038B0003000C0B27843404402693000C0B207FB18
:1038C00000F708EB0700017D4846C0B203F056F947
:1038D0000BB0BDE8F08FF8B504000D00414922009F
:1038E000D2B21820424301EB0200817D2800C0B211
:1038F00001402800C0B2814230D1FC26A84F4FF4CD
:1039000096712800C0B2704338442200D2B250F8F9
:103910002200FFF7FBF801282BD12800C0B206FBDC
:1039200000F607EB06002100C9B28E4A126840F883
:1039300021209C492A00D2B23F2042430A4423005E
:10394000DBB22E00F6B23F20464301EB0600210019
:10395000C9B2405CD0F10100D0540AE091492A007C
:10396000D2B23F20424301EB02002100C9B2002243
:1039700042548C49EDB23F20454301EB0500E4B2CF
:10398000005DF2BD70B50400002603F0C5F900F03B
:1039900083F82000C0B200F089F82000C0B200F027
:1039A000A1F80025280080B23F2811DA0D492A002D
:1039B00092B21820424301EB0200C07D2100C9B23F
:1039C000884203D12800C0B2FFF7B5FD6D1CE9E7BE
:1039D00003F0FFF970BD0000000800487C000020E3
:1039E000BC2B00205C010020F0B44271C478037944
:1039F0002500EDB2AB420AD3F0256B4E2700FFB293
:103A000018235F4306EB07039D75641CEFE718233B
:103A1000654C85785D4325444679AE75002904D010
:103A2000857803FB05F323449960F0BC70472DE9CA
:103A3000F84F0700884691469A460A9E0B9DDDF88E
:103A400030B00D9C87F8008087F8019087F802A0BD
:103A5000FE703D712200D2B259463800FFF7C4FF14
:103A6000BDE8F18F10B4010000221000C0B204289C
:103A70000CD21000C0B2085C4C4B1400E4B21B5DC9
:103A8000984201D0002002E0521CEEE7012010BC59
:103A900070470000DC07002080B50120009008235B
:103AA0007F220821002003F063FC01BD10B5040053
:103AB0002000C0B2002812D133480078002807D176
:103AC00025A2394890F84410782003F057F806E012
:103AD00022A2354890F84410782003F04FF810BD2A
:103AE000F80000200100C9B20C2924D1304909781E
:103AF000002906D002290ED008D3042915D00FD3EF
:103B000018E02C49284AC2F8C01518E02A49264A6C
:103B1000C2F8C01513E02949234AC2F8C0150EE0C7
:103B20002749214AC2F8C01509E026491E4AC2F8B1
:103B3000C01504E003E01F491B4AC2F8C0157047D6
:103B40000C000020902B0020A0FF00082D2C00204E
:103B5000B00901083C050108200000004E000000EB
:103B60002E2C00200C2C0020E42B0020C027090064
:103B7000482B00202F2C0020202C00205401002056
:103B8000F40D00208C080020182A0020A02B002013
:103B90005C2A0020B02B002078FD0008F60D0020E4
:103BA000AC1A0020A02300205C01002000010020AE
:103BB0007C000020040100201401002024010020CA
:103BC000340100204401002010B504000121DFF879
:103BD000140C03F010F8012010BD30B587B00400BC
:103BE0001421002202AD280003F060F9DFF8140B65
:103BF000D0E90023CDE9002302A80090DFF8085B9C
:103C00002978684600F0BCF928786870BDF804107F
:103C1000009800F0A6FC00202870DFF8C85B0221A5
:103C2000280002F0D9FF0321280002F0E4FF210060
:103C3000C9B2280002F0DFFF012007B030BD10B587
:103C40000400DFF8C81A8888002810D0DFF8C00AFE
:103C500002888B889A4208D1002101800321DFF875
:103C6000840B02F0B9FF012008E08988018021005F
:103C7000C9B2DFF8700B02F0BEFF012010BD2DE9C4
:103C8000F041040000250026DFF8807AB888032878
:103C90003DDB3868B988084410F8010C3968BA88E7
:103CA000114411F8021C51EA00210E00B988891E46
:103CB000386803F0F7FB05002800310080B289B2B4
:103CC00088421DD10721DFF81C0B02F094FF3868F1
:103CD000007807280DD1DFF8308A012198F801001B
:103CE00000F067F998F80120D7E9000100F051F9D8
:103CF00013E00021DFF8100A407800F05AF90CE0D8
:103D00000021DFF8040A407800F053F905E00021B3
:103D1000DFF8F409407800F04CF9DFF8EC0940785E
:103D200000F0AEF80221DFF8BC0A02F076FF0120B5
:103D3000BDE8F0810100DFF8D00C0278032A01D041
:103D4000042202700120704701000120704710B565
:103D50000400DFF8940A0178012936D1DFF88C1AC3
:103D6000C978012931D1DFF82C1B91ED060AD0ED7D
:103D7000020AB4EE600AF1EE10FA08DA91ED060AD2
:103D8000D0ED010AB4EE600AF1EE10FA0ED5012270
:103D90004FF400615FF09040FEF797FE01224FF470
:103DA00080515FF09040FEF790FE1CE000224FF43F
:103DB00000615FF09040FEF788FE00224FF48051D2
:103DC0005FF09040FEF781FE0DE000224FF40061AD
:103DD0005FF09040FEF779FE00224FF480515FF0D3
:103DE0009040FEF772FEDFF8FC094FF47A718166AD
:103DF0002100C9B202F0FFFE012010BD38B5040059
:103E0000DFF8941A087800281FD101200870DFF825
:103E10008C5A012210212800FEF757FE00220821AB
:103E20002800FEF752FE00220421DFF8740AFEF794
:103E30004CFE4FF4FA60DFF8AC19886703F014FD0C
:103E400003F0BDFE03F0ACFE12E00020087001227A
:103E50000821DFF8480AFEF738FE01220421DFF8C6
:103E6000400AFEF732FE4EF66020DFF878198867C8
:103E70002100C9B2DFF86C0902F0BDFE012032BD9D
:103E800038B52DED028B04009FEDC08A2000C0B232
:103E900000285AD1DFF8FC5995ED020ADFEDBC0A83
:103EA00020EE200ABDEEC00A10EE100A00F0F6F96E
:103EB00085ED020A95ED020A00F05EFA85ED060A2C
:103EC00095ED040A00F0B8FA85ED080A95ED080AA8
:103ED000D5ED0A0A30EE200ADFF8300BD0ED020AE9
:103EE000F4EE400AF1EE10FA02D5D0ED020A0BE032
:103EF000D0ED030AB4EE600AF1EE10FA02D5D0ED6F
:103F0000030A01E0F0EE400AC5ED080AD5ED060A05
:103F100095ED091A30EE818AD0ED000AF4EE480AD8
:103F2000F1EE10FA02D590ED000A0BE090ED010AD7
:103F3000B4EE408AF1EE10FA02D590ED010A01E0EC
:103F4000B0EE480A85ED060AFFE7DFF84859287801
:103F5000002807D10020A86095ED020A00F00CFAB5
:103F600085ED060A2878002807D10020286195ED04
:103F7000040A00F061FA85ED080ABDEC028B31BD40
:103F800038B504000D002900C9B2200000F01BF86C
:103F900031BD70B504000D00160020000078C0B2DD
:103FA000072805D13200D2B22000290000F07AF8AB
:103FB00070BD38B504000D002900C9B22000C0B2A0
:103FC00000F0E8F831BD3EB504000D002800C0B295
:103FD000002808D002280FD0032822D0042835D08A
:103FE000052848D05CE0042000900023032207212C
:103FF000200003F075FA53E0DFF82C0B81880229CA
:104000000ED1016801918088022190FBF1F080B20D
:1040100000904FF4805306220721200003F0AEFAEF
:104020003EE0DFF8040B818802290ED1016801917E
:104030008088022190FBF1F080B2009041F20403ED
:1040400006220721200003F099FA29E0DFF8D80AB8
:10405000818802290ED1016801918088022190FB9C
:10406000F1F080B2009041F2020306220721200005
:1040700003F084FA14E0DFF8B00A818802290ED137
:10408000016801918088022190FBF1F080B20090DC
:1040900042F2200306220721200003F06FFAFFE717
:1040A00037BD00002DE9F84F2DED028B82B00400E2
:1040B0000D0091460020ADF800009FED348A0026E7
:1040C0004846C0B2002803D0801E032856D958E0C5
:1040D0000320ADF8000002226946200000F00EFA2D
:1040E00008EE900A02226946200000F007FA804696
:1040F000DFF8A077B8EE680A10EE100A02F082FB33
:1041000082468B46404602F06FFB41EC110B9FED5F
:10411000D20B02F008FA53EC102B5046594602F02D
:104120000BFA02F02DFBB86002226946200000F075
:10413000E5F900EE100AB0EE408A0222694620003E
:1041400000F0DCF90600B8EE480A10EE100A02F0A2
:1041500059FB82468B46300002F046FB41EC110BC6
:104160009FEDBD0B02F0DFF953EC102B5046594682
:1041700002F0E2F902F004FB386102E000F05DF9C0
:10418000FFE702B0BDEC028BBDE8F18F000000003C
:104190000000C8420200D2B2002A02D0921E032AB6
:1041A0001BD80A00D2B2012A0ED1DFF8E82600237C
:1041B0005370012313700200D2B2002A0CD10122E5
:1041C000DFF82836DA7007E0DFF8C8265378032BCB
:1041D00002DA53785B1C5370FFE7DFF8B8365A7881
:1041E000002A0CD05A78032A09DB00221A70002218
:1041F0009A6000221A610022DFF8F035DA70704709
:104200002DE9F04100242500EDB20A2D43DA002506
:104210002E00F6B2092E3CDA2E00F6B201EB86062D
:1042200076682F00FFB251F82770BE422FDA0026C1
:104230002F00FFB251F82770AC465FFA8CFC01EBFF
:104240008C0CDCF804C0AE465FFA8EFE41F82EC03E
:10425000AC465FFA8CFC01EB8C0CCCF80470AC46DD
:104260005FFA8CFC50F82CC0AE465FFA8EFE00EB75
:104270008E0EDEF804E0A8465FFA88F840F828E0E1
:10428000AE465FFA8EFE00EB8E0ECEF804C06D1CBB
:10429000BEE7641CB7E7BDE8F081000038B52DED3E
:1042A000028B04009FED948ADFF8801808780028BC
:1042B0002AD10120087000210800C0B20A2815DAAE
:1042C0000800C0B2DFF868280B00DBB242F8230018
:1042D000DFF860280800C0B252F82000002803D19F
:1042E0000800C0B242F82040491CE5E7DFF8445816
:1042F000092300222900DFF83808FFF781FF95ED38
:10430000050AB8EEC00A30E000200100C9B20A294F
:104310001EDADFF81C180200D2B251F82220092A56
:104320000BD100220300DBB241F82320DFF8041890
:104330000200D2B241F8224008E00200D2B251F8A5
:104340002220521C0300DBB241F82320401CDCE792
:10435000DFF8E057092300222900DFF8D407FFF730
:104360004FFF95ED050AB8EEC00ADFED910A80EE29
:10437000200ABDEC028B31BDF0EE400A9FED891A98
:104380009FED893ADFED5C3AF5EE400AF1EE10FA66
:1043900040D0F0EE603A9FED850ADFF8A80B90ED73
:1043A000004A34EE634AB4EE404AF1EE10FA08DAFD
:1043B00090ED004A33EEC44AB4EE404AF1EE10FAF2
:1043C00003DB9FED7C0A21EE001ADFF87C0B90EDF9
:1043D000000AF0EE401ADFF8741B91ED000A30EE8F
:1043E000010AB0EE402A32EE030A82EE000AF0EE35
:1043F000402A33EEE10AB0EE614A00EE224A80ED37
:10440000004AB7EE000A30EE620A20EE020A81EDA1
:10441000000A08E0DFF8340B5FF07E510160DFF83E
:10442000280B00210160DFF8200BDFF8181B026861
:104430000A6090ED000A7047704780B50320DFF8EE
:10444000C81508700421DFF89C0302F0E6FB322057
:10445000FEF7AAFE01BD000000000000000024409D
:1044600080B5DFF8EC0A0078A74908700220DFF871
:10447000981508700421DFF86C0302F0BCFB01BD45
:104480002DE9F04104000D0016002F00DFF898869A
:104490004046FEF783FB300080B2022802D0042899
:1044A0000BD01DE07878D8F8001008703878D8F86C
:1044B00000104870A8F8046015E07878D8F800106B
:1044C00008703878D8F800104870F878D8F80010DC
:1044D0008870B878D8F80010C870A8F8046002E0B6
:1044E0000020A8F80400DFF8680A04700120DFF853
:1044F000641A0870BDE8F08100000000F0B4030009
:1045000000200C881500EDB2042D16D12500ADB2A7
:104510001D44AE782500ADB21D44ED7855EA062560
:104520002600B6B29E5D2700BFB21F447F7857EACF
:10453000062757EA054738000DE01500EDB2022DB9
:1045400009D12500ADB25D5D2600B6B21E44767875
:1045500056EA052630000D8855FA82F50D80F0BC2C
:10456000704770B504000D00DFF8EC6901224FF4CC
:1045700080513000FEF7A9FA0A2003F043FB03F054
:1045800007FB4FF47A732A0092B22100DFF87C0D0A
:1045900003F089FB00224FF480513000FEF795FABA
:1045A00070BD000095BFD63317B7D138CDCC4C3E87
:1045B0000000C84200007A442DE9F0412DED028B45
:1045C0008EB0F0EE408AB0EE608A322100226C4656
:1045D000200002F06BFC002700240025DFF8B482E5
:1045E000C8ED098A88ED0A8A98ED090A01F038FFBA
:1045F000060098ED0A0A01F033FF80466846310054
:10460000090E3A00D2B281547F1C3100090C3A00E5
:10461000D2B281547F1C3100090A3A00D2B28154CF
:104620007F1C3900C9B246547F1C4146090E3A002E
:10463000D2B281547F1C4146090C3A00D2B2815457
:104640007F1C4146090A3A00D2B281547F1C3900CE
:10465000C9B200F801807F1C3A00D2B292B269461A
:10466000DFF8F80804F03CFB0EB0BDEC028BBDE8AF
:10467000F08170B500240025DFF8E0080078C0B2B2
:10468000FF2839D0DFF8D8080178C9B20906DFF869
:10469000D4080078C0B251EA0041DFF8CC080078B5
:1046A000C0B251EA0021DFF8A80B0078C0B2014384
:1046B0000C00DFF8A00B0178C9B20906DFF8980BEF
:1046C0000078C0B251EA0041DFF8900B0078C0B228
:1046D00051EA0021DFF8880B0078C0B201430D00D9
:1046E0006C4E16F12401200001F0E2FD16F12801C4
:1046F000280001F0DDFD04E0664800214162002150
:10470000816270BDC80B0108282C0020A40D002078
:10471000262C00202DE9F0472DED028B8EB00400F1
:10472000F0EE408AB0EE608A322100226D46280009
:1047300002F0BCFB002500260027DFF8ACA08AF8B9
:1047400000408AED028ACAED018A9AED020A01F060
:1047500087FE80469AED010A01F082FE8146684696
:104760009AF800102A00D2B281546D1C4146090EFD
:104770002A00D2B281546D1C4146090C2A00D2B2E3
:1047800081546D1C4146090A2A00D2B281546D1C25
:104790002900C9B200F801806D1C4946090E2A00A3
:1047A000D2B281546D1C4946090C2A00D2B2815400
:1047B0006D1C4946090A2A00D2B281546D1C290099
:1047C000C9B200F801906D1C2A00D2B292B26946BB
:1047D000DFF8980B04F084FA0EB0BDEC028BBDE854
:1047E000F087000000090020BC2B0020F82B0020DF
:1047F00070B500240025DFF8740B0078C0B2FF28E4
:104800003DD0DFF86C6BDFF86C0B00783070DFF8B0
:10481000680B0178C9B20906DFF8600B0078C0B2F6
:1048200051EA0041DFF8580B0078C0B251EA00218C
:10483000DFF8500B0078C0B201430C00DFF8480BE2
:104840000178C9B20906DFF8440B0078C0B251EA1A
:104850000041DFF83C0B0078C0B251EA0021DFF8DC
:10486000340B0078C0B201430D0016F1080120009E
:1048700001F01EFD311D280001F01AFD08E0DFF8EF
:10488000F00A00210170DFF8981D8160002141606D
:1048900070BD0000182A0020352C002000040048BC
:1048A000000C00482DE9F84F2DED048B8EB0F0EE92
:1048B000409AB0EE608AF0EE418AB0EE619A322101
:1048C000002201AC200002F0F1FA5FF0000B0020A2
:1048D0000090002400250026DFF830A1CAED009AE0
:1048E0008AED018ACAED028A8AED039A9AED000ADE
:1048F00001F0B6FD07009AED010A01F0B1FD804616
:104900009AED020A01F0ACFD81469AED030A01F02E
:10491000A7FD824601A83900090E5A46D2B2815439
:104920001BF1010B3900090C5A46D2B281541BF11C
:10493000010B3900090A5A46D2B281541BF1010B0E
:104940005946C9B247541BF1010B4146090E5A465C
:10495000D2B281541BF1010B4146090C5A46D2B226
:1049600081541BF1010B4146090A5A46D2B28154C7
:104970001BF1010B5946C9B200F801801BF1010B74
:104980004946090E5A46D2B281541BF1010B4946E1
:10499000090C5A46D2B281541BF1010B4946090A4F
:1049A0005A46D2B281541BF1010B5946C9B200F8E4
:1049B00001901BF1010B5146090E5A46D2B28154A7
:1049C0001BF1010B5146090C5A46D2B281541BF11E
:1049D000010B5146090A5A46D2B281541BF1010B10
:1049E0005946C9B200F801A01BF1010B5A46D2B2D8
:1049F00092B201A9DFF81C0B04F072F90EB0BDEC05
:104A0000048BBDE8F18F00007C000020A02B00206B
:104A10002DE9F0410024002500260027DFF8F40AE4
:104A20000078C0B2FF2871D0DFF8EC0A0178C9B273
:104A30000906DFF8E80A0078C0B251EA0041DFF861
:104A4000E00A0078C0B251EA0021DFF8D80A007805
:104A5000C0B201430C00DFF8D00A0178C9B20906E0
:104A6000DFF8140B0078C0B251EA0041DFF80C0BFC
:104A70000078C0B251EA0021DFF8040B0078C0B220
:104A800001430D00DFF8FC0A0178C9B20906DFF81E
:104A9000F80A0078C0B251EA0041DFF8F00A007865
:104AA000C0B251EA0021DFF8E80A0078C0B2014341
:104AB0000E00DFF8E00A0178C9B20906DFF8D80A6B
:104AC0000078C0B251EA0041DFF8580B0078C0B25C
:104AD00051EA0021DFF8500B0078C0B201430F000B
:104AE000DFF8488B4146200001F0E2FB18F1040199
:104AF000280001F0DDFB18F10801300001F0D8FBBF
:104B000018F10C01380001F0D3FB0BE0DFF81C0BAF
:104B1000DFF80C1B016000214160DFF8141B81608D
:104B20000021C160BDE8F08180090020362C002002
:104B3000B82A0020E02A00202DE9F14F2DED028B4C
:104B4000BEB0B0EE408AC82100220CAC200002F0BA
:104B5000ADF95FF0000B00200490002003900020CE
:104B60000290002001900020009000200B90002077
:104B70000A90002009900020089000200790002053
:104B80000690002005909DF80001002811D0022811
:104B900019D013D3042820D01AD3062827D021D324
:104BA00008282ED028D30A2835D02FD30B2837D069
:104BB0003BE0DFF8800A80ED008A36E0DFF8740A17
:104BC00080ED018A31E0DFF86C0A80ED028A2CE08A
:104BD000DFF8600A80ED038A27E0DFF8580A80EDED
:104BE000048A22E0DFF84C0A80ED058A1DE0DFF838
:104BF000440A80ED068A18E0DFF8380A80ED078A5B
:104C000013E0DFF8300A80ED088A0EE0DFF8240AAE
:104C100080ED098A09E0DFF81C0A80ED0A8A04E0C9
:104C2000DFF8100A80ED0B8AFFE7DFF808AA9AED9B
:104C3000000A01F015FC04909AED010A01F010FC45
:104C400003909AED020A01F00BFC02909AED030A20
:104C500001F006FC01909AED040A01F001FC0090BD
:104C60009AED050A01F0FCFB04009AED060A01F03A
:104C7000F7FB05009AED070A01F0F2FB06009AED3A
:104C8000080A01F0EDFB07009AED090A01F0E8FBC4
:104C900080469AED0A0A01F0E3FB81469AED0B0A81
:104CA00001F0DEFB82460CA80499090E5A46D2B2E6
:104CB00081541BF1010B0499090C5A46D2B281545C
:104CC0001BF1010B0499090A5A46D2B281541BF117
:104CD000010B04995A46D2B281541BF1010B03997E
:104CE000090E5A46D2B281541BF1010B0399090CEB
:104CF0005A46D2B281541BF1010B0399090A5A4654
:104D0000D2B281541BF1010B03995A46D2B281549D
:104D10001BF1010B0299090E5A46D2B281541BF1C4
:104D2000010B0299090C5A46D2B281541BF1010BB6
:104D30000299090A5A46D2B281541BF1010B029919
:104D40005A46D2B281541BF1010B0199090E5A4601
:104D5000D2B281541BF1010B0199090C5A46D2B20F
:104D600081541BF1010B0199090A5A46D2B28154B0
:104D70001BF1010B01995A46D2B281541BF1010B70
:104D80000099090E5A46D2B281541BF1010B0099C9
:104D9000090C5A46D2B281541BF1010B0099090A41
:104DA0005A46D2B281541BF1010B00995A46D2B235
:104DB00081541BF1010B2100090E5A46D2B28154D5
:104DC0001BF1010B2100090C5A46D2B281541BF190
:104DD000010B2100090A5A46D2B281541BF1010B82
:104DE0005946C9B244541BF1010B2900090E5A4619
:104DF000D2B281541BF1010B2900090C5A46D2B2E0
:104E000081541BF1010B2900090A5A46D2B2815480
:104E10001BF1010B5946C9B245541BF1010B31007E
:104E2000090E5A46D2B281541BF1010B3100090C14
:104E30005A46D2B281541BF1010B3100090A5A467D
:104E4000D2B281541BF1010B5946C9B246541BF131
:104E5000010B3900090E5A46D2B281541BF1010BE5
:104E60003900090C5A46D2B281541BF1010B3900AA
:104E7000090A5A46D2B281541BF1010B5946C9B2F4
:104E800047541BF1010B4146090E5A46D2B28154D8
:104E90001BF1010B4146090C5A46D2B281541BF159
:104EA000010B4146090A5A46D2B281541BF1010B4B
:104EB0005946C9B200F801801BF1010B4946090EA1
:104EC0005A46D2B281541BF1010B4946090C5A468D
:104ED000D2B281541BF1010B4946090A5A46D2B29B
:104EE00081541BF1010B5946C9B200F801901BF126
:104EF000010B5146090E5A46D2B281541BF1010BE7
:104F00005146090C5A46D2B281541BF1010B51464D
:104F1000090A5A46D2B281541BF1010B5946C9B253
:104F200000F801A01BF1010B5A46D2B292B20CA9B3
:104F3000DFF8040703F0D4FE3EB0BDEC028BBDE801
:104F4000F18F0000002C0020FC2B0020880900209D
:104F5000342C00207C0000200008004800080208D3
:104F60000208020803080208040802082DE9F04FAD
:104F700085B00020049000200390002002900020C3
:104F800001900020009000240025002600275FF0FB
:104F900000085FF000095FF0000ADFF89C06007867
:104FA000C0B2FF2800F05181DFF890060178C9B245
:104FB0000906DFF88C060078C0B251EA0041DFF83C
:104FC00084060078C0B251EA0021DFF87C06007840
:104FD000C0B201430491DFF874060178C9B2090632
:104FE000DFF86C060078C0B251EA0041DFF86406D1
:104FF0000078C0B251EA0021DFF85C060078C0B248
:1050000001430391DFF854060178C9B20906DFF8BD
:1050100050060078C0B251EA0041DFF84806007837
:10502000C0B251EA0021DFF840060078C0B2014367
:105030000291DFF838060178C9B20906DFF83006B8
:105040000078C0B251EA0041DFF828060078C0B20B
:1050500051EA0021DFF820060078C0B20143019137
:10506000DFF8D0B55946049801F022F91BF104018C
:10507000039801F01DF91BF10801029801F018F9DD
:105080001BF10C01019801F013F9DFF8F00501782C
:10509000C9B20906DFF8E8050078C0B251EA00415C
:1050A000DFF8E0050078C0B251EA0021DFF8D8054A
:1050B0000078C0B201430091DFF8D0050178C9B291
:1050C0000906DFF8CC050078C0B251EA0041DFF8EC
:1050D000C4050078C0B251EA0021DFF8BC050078B1
:1050E000C0B201430C00DFF8B4050178C9B209066B
:1050F000DFF8AC050078C0B251EA0041DFF8A40542
:105100000078C0B251EA0021DFF89C050078C0B2F7
:1051100001430D00DFF894050178C9B20906DFF8F4
:1051200090050078C0B251EA0041DFF888050078A8
:10513000C0B251EA0021DFF880050078C0B2014317
:105140000E001BF11001009801F0B2F81BF11401E0
:10515000200001F0ADF81BF11801280001F0A8F8BB
:105160001BF11C01300001F0A3F8DFF850050178B5
:10517000C9B20906DFF848050078C0B251EA00411B
:10518000DFF840050078C0B251EA0021DFF83805A9
:105190000078C0B201430F00DFF830050178C9B2D2
:1051A0000906DFF82C050078C0B251EA0041DFF8AB
:1051B00024050078C0B251EA0021DFF81C05007810
:1051C000C0B201438846DFF814050178C9B2090668
:1051D000DFF80C050078C0B251EA0041DFF80405A1
:1051E0000078C0B251EA0021DFF8FC040078C0B2B8
:1051F00001438946DFF8F4040178C9B20906DFF8F3
:10520000F0040078C0B251EA0041DFF8E804007809
:10521000C0B251EA0021DFF8E0040078C0B20143D7
:105220008A461BF12001380001F042F81BF12401ED
:10523000404601F03DF81BF12801484601F038F8DE
:105240001BF12C01504601F033F805B0BDE8F08F9A
:1052500005080208060802080708020808080208EC
:105260000908020878B591B004000D003C21002225
:1052700002AE300001F01AFE0020ADF80400032158
:10528000012000F0E8FC0B2000900023DFF86C24E4
:1052900001A902A800F0F6FF4FF47A73BDF80420CC
:1052A00002A9DFF85C0402F0FEFC12B070BD78B514
:1052B00091B004000D003C21002202AE300001F04C
:1052C000F5FD0020ADF80400DFF8380403F0D8FC49
:1052D000264803F0D5FC264800210170D0498160A2
:1052E000002141600D2000900023DFF81C2401A95B
:1052F00002A800F0C7FF4FF47A73BDF8042002A99A
:10530000DFF8FC0302F0CFFC12B070BD7025002066
:1053100038B590B004000D0003A8DFF8F013322276
:1053200003F022FDDFF8E803D0E90023CDE90123F3
:1053300003A801900023DFF8DC03027802A903A888
:1053400000F02BFF02200090002389A202A903A8ED
:1053500000F098FF4FF47A73BDF808200199DFF848
:10536000A00302F0A0FC11B030BD00000010020844
:10537000BC2B0020021002080310020804100208CF
:10538000051002080610020807100208081002089B
:10539000091002080A100208F8B504000D000026E2
:1053A0002068007830283ADB206800783A2836DA1E
:1053B000002700200100C9B2A28889B291420FD211
:1053C00021680200D2B2895C302905DB2168020025
:1053D000D2B2895C3A2900DB02E07F1C401CE9E77D
:1053E0003900C9B2206801F005F80600B6F5807FE3
:1053F0000DD2C84841783000C0B200F02CFC4FF408
:105400007A7302225BA1BE4802F04DFC0EE04FF41D
:105410007A730522C049BA4802F045FC06E04FF411
:105420007A730522BC49B64802F03DFCF1BD38B59F
:1054300090B004000D0003A8B849322203F094FC98
:10544000B748D0E90023CDE9012303A80190002348
:10545000B048427802A903A800F09FFE0220009005
:10546000002343A202A903A800F00CFF4FF47A73B3
:10547000BDF808200199A24802F015FC11B030BD1A
:10548000F8B504000D00002620680078302839DBCC
:10549000206800783A2835DA002700200100C9B2D8
:1054A000A28889B291420FD221680200D2B2895CEF
:1054B000302905DB21680200D2B2895C3A2900DB81
:1054C00002E07F1C401CE9E73900C9B2206800F007
:1054D00091FF06000C2E0DD23100C9B28D48007824
:1054E00000F0B9FB4FF47A73022222A1844802F043
:1054F000DAFB0EE04FF47A7305228749804802F008
:10550000D2FB06E04FF47A73052283497C4802F00F
:10551000CAFBF1BD00200208022002080320020895
:1055200004200208052002080620020880B5FFF7C3
:10553000A0F8FFF75DF9FFF76BFAFFF717FD794861
:105540007949C0F8A4137949C0F8B4137849C0F870
:10555000C4137849C0F8D4137749C0F8E4137749E5
:10556000C0F8F41302F02BFB02F01AFB01BD00009F
:105570000D0A00004F4B0000072002080820020817
:10558000092002080A2002080B2002080C20020849
:105590000D2002080E2002080F20020870B500201E
:1055A000002400252800C0B2082836DA644E2800FE
:1055B000C0B200013044407801282CD10120040001
:1055C0002800C0B200013044406800280ED001F02D
:1055D000B5F92900C9B2090131444968401A2900C6
:1055E000C9B2090131448968884214D300202900D6
:1055F000C9B209013144487001F0A0F92900C9B2CB
:105600000901314448602800C0B22900C9B209012B
:105610003144C96888476D1CC4E72000C0B270BD22
:105620000000C8421020020811200208A02B002010
:105630000000A0425C2A002000280208022802087C
:105640000328020804280208052802080628020880
:105650000728020808280208092802080A28020860
:105660000B2802080C2802080D2802080E28020840
:105670000F28020810280208112802081228020820
:105680001328020814280208152802081628020800
:105690001728020818280208192802081A280208E0
:1056A0001B2802081C2802081D2802081E280208C0
:1056B0001F280208202802082128020822280208A0
:1056C0002328020824280208252802082628020880
:1056D0002728020828280208292802082A28020860
:1056E0002B2802082C2802082D2802082E28020840
:1056F0002F2802083028020831280208C8090108AA
:105700006024002000080208880601081803010828
:10571000D00B0108F40D0020C00B01084C03010858
:10572000D80B01089409002065520008AF52000808
:1057300011530008995300082F54000881540008A1
:105740000009002002000020704730B40200DFF89A
:10575000F808002304688588635583885B1C838070
:10576000DFF8E8381B7804688588635583885B1CFC
:105770008380012030BC7047F8B504000D00002084
:1057800000212E0022683300DBB2D25C2368370090
:10579000FFB23B445F7857EA02273A0092B2B2F573
:1057A000807F23DA380080B200281FD0DFF8980805
:1057B00021683200D2B2895C02688388D154818822
:1057C000491C818021683200D2B2114449780268B4
:1057D0008388D1548188491C8180DFF87008417822
:1057E0003800C0B200F037FA012000E00020F2BD1E
:1057F00030B40200DFF85008002304688588635540
:1058000083885B1C8380DFF844385B780468858874
:10581000635583885B1C8380012030BC7047F8B5DA
:1058200004000D00002000212E0022683300DBB2AE
:10583000D25C23683700FFB23B445F7857EA022707
:105840003A0092B20B2A1FDADFF8FC072168320017
:10585000D2B2895C02688388D1548188491C8180D6
:1058600021683200D2B21144497802688388D15449
:105870008188491C81803900C9B2DFF8D0070078DF
:1058800000F0E9F9012000E00020F2BDF8B50400C5
:105890000D000026DFF8B80790ED050A00F0E0FDE6
:1058A0000100DFF8A4070A00120A03688788DA55A6
:1058B0008288521C828002688388D1548288521C5C
:1058C00082800A00120E03688788DA558288521C8B
:1058D00082800A00120C03688788DA558288521C7D
:1058E00082800120F2BDF8B504000D000026DFF82B
:1058F000600790ED080A00F0B3FD0100DFF84807EB
:105900000A00120A03688788DA558288521C82804E
:1059100002688388D1548288521C82800A00120E49
:1059200003688788DA558288521C82800A00120C2C
:1059300003688788DA558288521C82800120F2BD74
:1059400030B40200DFF8000700230468858863553F
:1059500083885B1C8380DFF8FC361B7804688588AD
:10596000635583885B1C8380012030BC7047F8B589
:1059700004000D00002000212E0022683300DBB25D
:10598000D25C23683700FFB23B445F7857EA0227B6
:105990003A0092B2012A03D0380080B2002822D106
:1059A000DFF8A40621683200D2B2895C02688388DD
:1059B000D1548188491C818021683200D2B21144BF
:1059C000497802688388D1548188491C8180DFF836
:1059D0008406D0ED020A90ED010A3800C0B2FEF74D
:1059E00099FE012000E00020F2BDF8B504000D0092
:1059F0000026DFF8600690ED020A00F031FD01009C
:105A0000DFF844060A00120A03688788DA5582889C
:105A1000521C828002688388D1548288521C828002
:105A20000A00120E03688788DA558288521C828029
:105A30000A00120C03688788DA558288521C82801B
:105A40000120F2BD2DE9F84304000D0000260020DE
:105A500000900027A84620684146C9B208448178D2
:105A600020684246D2B21044C07850EA0120216832
:105A70004246D2B2895C22684346DBB21A4492F8AD
:105A8000019059EA012959EA0049DFF8BC0521686B
:105A90004246D2B2895C02688388D1548188491C0D
:105AA000818021684246D2B21144497802688388D5
:105AB000D1548188491C818021684246D2B2114468
:105AC000897802688388D1548188491C8180216843
:105AD0004246D2B21144C97802688388D154818881
